{
  "contractName": "CodeMavericksGouvernance",
  "abi": [
    {
      "inputs": [
        {
          "internalType": "address",
          "name": "_governanceToken",
          "type": "address"
        },
        {
          "internalType": "address",
          "name": "_nftContract",
          "type": "address"
        }
      ],
      "stateMutability": "nonpayable",
      "type": "constructor"
    },
    {
      "anonymous": false,
      "inputs": [
        {
          "indexed": true,
          "internalType": "address",
          "name": "fromAddress",
          "type": "address"
        },
        {
          "indexed": false,
          "internalType": "uint256",
          "name": "amount",
          "type": "uint256"
        }
      ],
      "name": "ContributionReceived",
      "type": "event"
    },
    {
      "anonymous": false,
      "inputs": [
        {
          "indexed": true,
          "internalType": "address",
          "name": "stakeholder",
          "type": "address"
        },
        {
          "indexed": true,
          "internalType": "address",
          "name": "beneficiary",
          "type": "address"
        },
        {
          "indexed": false,
          "internalType": "uint256",
          "name": "amount",
          "type": "uint256"
        }
      ],
      "name": "PaymentTransfered",
      "type": "event"
    },
    {
      "anonymous": false,
      "inputs": [
        {
          "indexed": false,
          "internalType": "uint256",
          "name": "proposalId",
          "type": "uint256"
        }
      ],
      "name": "ProposalExecuted",
      "type": "event"
    },
    {
      "anonymous": false,
      "inputs": [
        {
          "indexed": true,
          "internalType": "bytes32",
          "name": "role",
          "type": "bytes32"
        },
        {
          "indexed": true,
          "internalType": "bytes32",
          "name": "previousAdminRole",
          "type": "bytes32"
        },
        {
          "indexed": true,
          "internalType": "bytes32",
          "name": "newAdminRole",
          "type": "bytes32"
        }
      ],
      "name": "RoleAdminChanged",
      "type": "event"
    },
    {
      "anonymous": false,
      "inputs": [
        {
          "indexed": true,
          "internalType": "bytes32",
          "name": "role",
          "type": "bytes32"
        },
        {
          "indexed": true,
          "internalType": "address",
          "name": "account",
          "type": "address"
        },
        {
          "indexed": true,
          "internalType": "address",
          "name": "sender",
          "type": "address"
        }
      ],
      "name": "RoleGranted",
      "type": "event"
    },
    {
      "anonymous": false,
      "inputs": [
        {
          "indexed": true,
          "internalType": "bytes32",
          "name": "role",
          "type": "bytes32"
        },
        {
          "indexed": true,
          "internalType": "address",
          "name": "account",
          "type": "address"
        },
        {
          "indexed": true,
          "internalType": "address",
          "name": "sender",
          "type": "address"
        }
      ],
      "name": "RoleRevoked",
      "type": "event"
    },
    {
      "anonymous": false,
      "inputs": [
        {
          "indexed": false,
          "internalType": "uint256",
          "name": "proposalId",
          "type": "uint256"
        },
        {
          "indexed": false,
          "internalType": "address",
          "name": "voter",
          "type": "address"
        },
        {
          "indexed": false,
          "internalType": "bool",
          "name": "inFavor",
          "type": "bool"
        }
      ],
      "name": "Voted",
      "type": "event"
    },
    {
      "anonymous": false,
      "inputs": [
        {
          "indexed": true,
          "internalType": "address",
          "name": "proposer",
          "type": "address"
        },
        {
          "indexed": false,
          "internalType": "uint256",
          "name": "amount",
          "type": "uint256"
        }
      ],
      "name": "newProposal",
      "type": "event"
    },
    {
      "inputs": [],
      "name": "DEFAULT_ADMIN_ROLE",
      "outputs": [
        {
          "internalType": "bytes32",
          "name": "",
          "type": "bytes32"
        }
      ],
      "stateMutability": "view",
      "type": "function"
    },
    {
      "inputs": [],
      "name": "daoBalance",
      "outputs": [
        {
          "internalType": "uint256",
          "name": "",
          "type": "uint256"
        }
      ],
      "stateMutability": "view",
      "type": "function"
    },
    {
      "inputs": [
        {
          "internalType": "bytes32",
          "name": "role",
          "type": "bytes32"
        }
      ],
      "name": "getRoleAdmin",
      "outputs": [
        {
          "internalType": "bytes32",
          "name": "",
          "type": "bytes32"
        }
      ],
      "stateMutability": "view",
      "type": "function"
    },
    {
      "inputs": [],
      "name": "governanceToken",
      "outputs": [
        {
          "internalType": "contract IERC20",
          "name": "",
          "type": "address"
        }
      ],
      "stateMutability": "view",
      "type": "function"
    },
    {
      "inputs": [
        {
          "internalType": "bytes32",
          "name": "role",
          "type": "bytes32"
        },
        {
          "internalType": "address",
          "name": "account",
          "type": "address"
        }
      ],
      "name": "grantRole",
      "outputs": [],
      "stateMutability": "nonpayable",
      "type": "function"
    },
    {
      "inputs": [
        {
          "internalType": "bytes32",
          "name": "role",
          "type": "bytes32"
        },
        {
          "internalType": "address",
          "name": "account",
          "type": "address"
        }
      ],
      "name": "hasRole",
      "outputs": [
        {
          "internalType": "bool",
          "name": "",
          "type": "bool"
        }
      ],
      "stateMutability": "view",
      "type": "function"
    },
    {
      "inputs": [],
      "name": "minimumAmount",
      "outputs": [
        {
          "internalType": "uint256",
          "name": "",
          "type": "uint256"
        }
      ],
      "stateMutability": "view",
      "type": "function"
    },
    {
      "inputs": [],
      "name": "nftContract",
      "outputs": [
        {
          "internalType": "contract CodeMavricksNft",
          "name": "",
          "type": "address"
        }
      ],
      "stateMutability": "view",
      "type": "function"
    },
    {
      "inputs": [
        {
          "internalType": "bytes32",
          "name": "role",
          "type": "bytes32"
        },
        {
          "internalType": "address",
          "name": "account",
          "type": "address"
        }
      ],
      "name": "renounceRole",
      "outputs": [],
      "stateMutability": "nonpayable",
      "type": "function"
    },
    {
      "inputs": [
        {
          "internalType": "bytes32",
          "name": "role",
          "type": "bytes32"
        },
        {
          "internalType": "address",
          "name": "account",
          "type": "address"
        }
      ],
      "name": "revokeRole",
      "outputs": [],
      "stateMutability": "nonpayable",
      "type": "function"
    },
    {
      "inputs": [],
      "name": "stakeholderContribution",
      "outputs": [
        {
          "internalType": "uint256",
          "name": "",
          "type": "uint256"
        }
      ],
      "stateMutability": "view",
      "type": "function"
    },
    {
      "inputs": [
        {
          "internalType": "bytes4",
          "name": "interfaceId",
          "type": "bytes4"
        }
      ],
      "name": "supportsInterface",
      "outputs": [
        {
          "internalType": "bool",
          "name": "",
          "type": "bool"
        }
      ],
      "stateMutability": "view",
      "type": "function"
    },
    {
      "inputs": [
        {
          "internalType": "string",
          "name": "title",
          "type": "string"
        },
        {
          "internalType": "string",
          "name": "description",
          "type": "string"
        },
        {
          "internalType": "address",
          "name": "beneficiary",
          "type": "address"
        },
        {
          "internalType": "uint256",
          "name": "amount",
          "type": "uint256"
        }
      ],
      "name": "CreateProposal",
      "outputs": [],
      "stateMutability": "nonpayable",
      "type": "function"
    },
    {
      "inputs": [
        {
          "internalType": "uint256",
          "name": "proposalId",
          "type": "uint256"
        },
        {
          "internalType": "bool",
          "name": "supportProposal",
          "type": "bool"
        }
      ],
      "name": "voteWithNFT",
      "outputs": [],
      "stateMutability": "nonpayable",
      "type": "function"
    },
    {
      "inputs": [
        {
          "internalType": "uint256",
          "name": "proposalId",
          "type": "uint256"
        },
        {
          "internalType": "bool",
          "name": "supportProposal",
          "type": "bool"
        }
      ],
      "name": "voteWithToken",
      "outputs": [],
      "stateMutability": "nonpayable",
      "type": "function"
    },
    {
      "inputs": [
        {
          "internalType": "uint256",
          "name": "proposalId",
          "type": "uint256"
        }
      ],
      "name": "payBeneficiary",
      "outputs": [
        {
          "internalType": "uint256",
          "name": "",
          "type": "uint256"
        }
      ],
      "stateMutability": "nonpayable",
      "type": "function"
    },
    {
      "inputs": [
        {
          "internalType": "uint256",
          "name": "amount",
          "type": "uint256"
        }
      ],
      "name": "contribute",
      "outputs": [],
      "stateMutability": "nonpayable",
      "type": "function"
    },
    {
      "inputs": [],
      "name": "getProposals",
      "outputs": [
        {
          "components": [
            {
              "internalType": "uint256",
              "name": "id",
              "type": "uint256"
            },
            {
              "internalType": "address",
              "name": "proposer",
              "type": "address"
            },
            {
              "internalType": "uint256",
              "name": "amount",
              "type": "uint256"
            },
            {
              "internalType": "uint256",
              "name": "livePeriod",
              "type": "uint256"
            },
            {
              "internalType": "uint256",
              "name": "votesFor",
              "type": "uint256"
            },
            {
              "internalType": "uint256",
              "name": "votesAgainst",
              "type": "uint256"
            },
            {
              "internalType": "string",
              "name": "title",
              "type": "string"
            },
            {
              "internalType": "string",
              "name": "description",
              "type": "string"
            },
            {
              "internalType": "bool",
              "name": "votingPassed",
              "type": "bool"
            },
            {
              "internalType": "bool",
              "name": "paid",
              "type": "bool"
            },
            {
              "internalType": "address payable",
              "name": "beneficiary",
              "type": "address"
            },
            {
              "internalType": "address",
              "name": "paidBy",
              "type": "address"
            }
          ],
          "internalType": "struct CodeMavericksGouvernance.Proposal[]",
          "name": "",
          "type": "tuple[]"
        }
      ],
      "stateMutability": "view",
      "type": "function"
    },
    {
      "inputs": [
        {
          "internalType": "uint256",
          "name": "proposalId",
          "type": "uint256"
        }
      ],
      "name": "getProposal",
      "outputs": [
        {
          "components": [
            {
              "internalType": "uint256",
              "name": "id",
              "type": "uint256"
            },
            {
              "internalType": "address",
              "name": "proposer",
              "type": "address"
            },
            {
              "internalType": "uint256",
              "name": "amount",
              "type": "uint256"
            },
            {
              "internalType": "uint256",
              "name": "livePeriod",
              "type": "uint256"
            },
            {
              "internalType": "uint256",
              "name": "votesFor",
              "type": "uint256"
            },
            {
              "internalType": "uint256",
              "name": "votesAgainst",
              "type": "uint256"
            },
            {
              "internalType": "string",
              "name": "title",
              "type": "string"
            },
            {
              "internalType": "string",
              "name": "description",
              "type": "string"
            },
            {
              "internalType": "bool",
              "name": "votingPassed",
              "type": "bool"
            },
            {
              "internalType": "bool",
              "name": "paid",
              "type": "bool"
            },
            {
              "internalType": "address payable",
              "name": "beneficiary",
              "type": "address"
            },
            {
              "internalType": "address",
              "name": "paidBy",
              "type": "address"
            }
          ],
          "internalType": "struct CodeMavericksGouvernance.Proposal",
          "name": "",
          "type": "tuple"
        }
      ],
      "stateMutability": "view",
      "type": "function"
    },
    {
      "inputs": [
        {
          "internalType": "uint256",
          "name": "proposalId",
          "type": "uint256"
        }
      ],
      "name": "getNumberOfVotesFor",
      "outputs": [
        {
          "internalType": "uint256",
          "name": "",
          "type": "uint256"
        }
      ],
      "stateMutability": "view",
      "type": "function"
    },
    {
      "inputs": [
        {
          "internalType": "uint256",
          "name": "proposalId",
          "type": "uint256"
        }
      ],
      "name": "getNumberOfVotesAgainst",
      "outputs": [
        {
          "internalType": "uint256",
          "name": "",
          "type": "uint256"
        }
      ],
      "stateMutability": "view",
      "type": "function"
    },
    {
      "inputs": [],
      "name": "getStakeholderVotes",
      "outputs": [
        {
          "internalType": "uint256[]",
          "name": "",
          "type": "uint256[]"
        }
      ],
      "stateMutability": "view",
      "type": "function"
    },
    {
      "inputs": [],
      "name": "getStakeholderBalance",
      "outputs": [
        {
          "internalType": "uint256",
          "name": "",
          "type": "uint256"
        }
      ],
      "stateMutability": "view",
      "type": "function"
    },
    {
      "inputs": [],
      "name": "getContributorBalance",
      "outputs": [
        {
          "internalType": "uint256",
          "name": "",
          "type": "uint256"
        }
      ],
      "stateMutability": "view",
      "type": "function"
    },
    {
      "inputs": [],
      "name": "isStakeholder",
      "outputs": [
        {
          "internalType": "bool",
          "name": "",
          "type": "bool"
        }
      ],
      "stateMutability": "view",
      "type": "function"
    },
    {
      "inputs": [],
      "name": "isContributor",
      "outputs": [
        {
          "internalType": "bool",
          "name": "",
          "type": "bool"
        }
      ],
      "stateMutability": "view",
      "type": "function"
    },
    {
      "inputs": [],
      "name": "getDaoBalance",
      "outputs": [
        {
          "internalType": "uint256",
          "name": "",
          "type": "uint256"
        }
      ],
      "stateMutability": "view",
      "type": "function"
    }
  ],
  "bytecode": "0x60a060405262093a8063ffffffff1660809063ffffffff168152506103e86007553480156200002d57600080fd5b50604051620041903803806200419083398181016040528101906200005391906200014f565b600160008190555081600260006101000a81548173ffffffffffffffffffffffffffffffffffffffff021916908373ffffffffffffffffffffffffffffffffffffffff16021790555080600360006101000a81548173ffffffffffffffffffffffffffffffffffffffff021916908373ffffffffffffffffffffffffffffffffffffffff160217905550505062000196565b600080fd5b600073ffffffffffffffffffffffffffffffffffffffff82169050919050565b60006200011782620000ea565b9050919050565b62000129816200010a565b81146200013557600080fd5b50565b60008151905062000149816200011e565b92915050565b60008060408385031215620001695762000168620000e5565b5b6000620001798582860162000138565b92505060206200018c8582860162000138565b9150509250929050565b608051613fde620001b26000396000611fee0152613fde6000f3fe608060405234801561001057600080fd5b50600436106101a95760003560e01c8063a22f1db7116100f9578063d547741f11610097578063e243038e11610071578063e243038e146104d2578063f046f984146104ee578063f74b758d1461050c578063f96dae0a1461052a576101a9565b8063d547741f1461047a578063d56d229d14610496578063d6cc8016146104b4576101a9565b8063bd972816116100d3578063bd972816146103f2578063c02146ac14610410578063c1cbbca71461042e578063c7f758a81461044a576101a9565b8063a22f1db714610386578063bb0c8298146103a4578063bd92b270146103c2576101a9565b806336568abe1161016657806362564c481161014057806362564c48146102fc5780636a80d84d1461031a57806391d1485414610338578063a217fddf14610368576101a9565b806336568abe146102a6578063384819bf146102c25780633cdb48c2146102de576101a9565b806301ffc9a7146101ae578063119c37c8146101de5780631b31e6731461020e5780632425ebe31461022a578063248a9ca31461025a5780632f2ff15d1461028a575b600080fd5b6101c860048036038101906101c39190612936565b610548565b6040516101d5919061297e565b60405180910390f35b6101f860048036038101906101f391906129cf565b6105c2565b6040516102059190612a0b565b60405180910390f35b61022860048036038101906102239190612a52565b610996565b005b610244600480360381019061023f91906129cf565b610b8d565b6040516102519190612a0b565b60405180910390f35b610274600480360381019061026f9190612ac8565b610bad565b6040516102819190612b04565b60405180910390f35b6102a4600480360381019061029f9190612b7d565b610bcd565b005b6102c060048036038101906102bb9190612b7d565b610bee565b005b6102dc60048036038101906102d79190612a52565b610c71565b005b6102e6610f09565b6040516102f39190612a0b565b60405180910390f35b610304610ff4565b6040516103119190612e68565b60405180910390f35b610322611343565b60405161032f9190612a0b565b60405180910390f35b610352600480360381019061034d9190612b7d565b61142e565b60405161035f919061297e565b60405180910390f35b610370611499565b60405161037d9190612b04565b60405180910390f35b61038e6114a0565b60405161039b9190612f39565b60405180910390f35b6103ac6115d9565b6040516103b99190612a0b565b60405180910390f35b6103dc60048036038101906103d791906129cf565b6115df565b6040516103e99190612a0b565b60405180910390f35b6103fa6115ff565b6040516104079190612a0b565b60405180910390f35b610418611605565b604051610425919061297e565b60405180910390f35b610448600480360381019061044391906129cf565b61164e565b005b610464600480360381019061045f91906129cf565b611ad5565b6040516104719190613066565b60405180910390f35b610494600480360381019061048f9190612b7d565b611d91565b005b61049e611db2565b6040516104ab91906130e7565b60405180910390f35b6104bc611dd8565b6040516104c9919061297e565b60405180910390f35b6104ec60048036038101906104e79190613167565b611e21565b005b6104f661207e565b6040516105039190612a0b565b60405180910390f35b610514612088565b6040516105219190612a0b565b60405180910390f35b61053261208e565b60405161053f919061322f565b60405180910390f35b60007f7965db0b000000000000000000000000000000000000000000000000000000007bffffffffffffffffffffffffffffffffffffffffffffffffffffffff1916827bffffffffffffffffffffffffffffffffffffffffffffffffffffffff191614806105bb57506105ba826120b4565b5b9050919050565b60006040518060400160405280601f81526020017f556e617574686f72697a65643a205374616b65686f6c64657273206f6e6c79008152506106247ff4bb84e1768dd286358a736d195a0b228621173f655a73b89bf8b191ed0ba07d3361142e565b8190610666576040517f08c379a000000000000000000000000000000000000000000000000000000000815260040161065d9190613294565b60405180910390fd5b5061066f61211e565b6000600860008581526020019081526020016000209050806002015460055410156106cf576040517f08c379a00000000000000000000000000000000000000000000000000000000081526004016106c690613302565b60405180910390fd5b8060080160019054906101000a900460ff1615610721576040517f08c379a00000000000000000000000000000000000000000000000000000000081526004016107189061336e565b60405180910390fd5b806005015481600401541161076b576040517f08c379a0000000000000000000000000000000000000000000000000000000008152600401610762906133da565b60405180910390fd5b6000600260009054906101000a900473ffffffffffffffffffffffffffffffffffffffff1673ffffffffffffffffffffffffffffffffffffffff1663a9059cbb8360080160029054906101000a900473ffffffffffffffffffffffffffffffffffffffff1684600201546040518363ffffffff1660e01b81526004016107f292919061341b565b6020604051808303816000875af1158015610811573d6000803e3d6000fd5b505050506040513d601f19601f820116820180604052508101906108359190613459565b905080610877576040517f08c379a000000000000000000000000000000000000000000000000000000000815260040161086e906134d2565b60405180910390fd5b60018260080160016101000a81548160ff021916908315150217905550338260090160006101000a81548173ffffffffffffffffffffffffffffffffffffffff021916908373ffffffffffffffffffffffffffffffffffffffff1602179055508160020154600560008282546108ed9190613521565b925050819055508160080160029054906101000a900473ffffffffffffffffffffffffffffffffffffffff1673ffffffffffffffffffffffffffffffffffffffff163373ffffffffffffffffffffffffffffffffffffffff167ffdb2bc0ebc2e58404f3ad5b20d3ec351f2b7b7bf6a21e18beaa7d296d2f01ba584600201546040516109799190612a0b565b60405180910390a36005549350505061099061216d565b50919050565b604051806060016040528060258152602001613f84602591396109d97ff4bb84e1768dd286358a736d195a0b228621173f655a73b89bf8b191ed0ba07d3361142e565b8190610a1b576040517f08c379a0000000000000000000000000000000000000000000000000000000008152600401610a129190613294565b60405180910390fd5b506000603290506000600860008681526020019081526020016000209050610a4281612177565b6000600c54600a60003373ffffffffffffffffffffffffffffffffffffffff1673ffffffffffffffffffffffffffffffffffffffff1681526020019081526020016000205484610a929190613555565b610a9c91906135de565b90508415610ac45780826004016000828254610ab8919061360f565b92505081905550610ae0565b80826005016000828254610ad8919061360f565b925050819055505b600b60003373ffffffffffffffffffffffffffffffffffffffff1673ffffffffffffffffffffffffffffffffffffffff168152602001908152602001600020826000015490806001815401808255809150506001900390600052602060002001600090919091909150557ff2913dbe661ee2acc4a046d8fbcdc792373bda34c41c6086484b5345e5785e5f863387604051610b7d93929190613652565b60405180910390a1505050505050565b600060086000838152602001908152602001600020600501549050919050565b600060016000838152602001908152602001600020600101549050919050565b610bd682610bad565b610bdf81612353565b610be98383612367565b505050565b610bf6612447565b73ffffffffffffffffffffffffffffffffffffffff168173ffffffffffffffffffffffffffffffffffffffff1614610c63576040517f08c379a0000000000000000000000000000000000000000000000000000000008152600401610c5a906136fb565b60405180910390fd5b610c6d828261244f565b5050565b6000603290506000600360009054906101000a900473ffffffffffffffffffffffffffffffffffffffff1673ffffffffffffffffffffffffffffffffffffffff166370a08231336040518263ffffffff1660e01b8152600401610cd4919061371b565b602060405180830381865afa158015610cf1573d6000803e3d6000fd5b505050506040513d601f19601f82011682018060405250810190610d15919061374b565b11610d55576040517f08c379a0000000000000000000000000000000000000000000000000000000008152600401610d4c906137c4565b60405180910390fd5b6000600860008581526020019081526020016000209050610d7581612177565b6000600360009054906101000a900473ffffffffffffffffffffffffffffffffffffffff1673ffffffffffffffffffffffffffffffffffffffff166318160ddd6040518163ffffffff1660e01b8152600401602060405180830381865afa158015610de4573d6000803e3d6000fd5b505050506040513d601f19601f82011682018060405250810190610e08919061374b565b905060008184610e1891906135de565b90508415610e405780836004016000828254610e34919061360f565b92505081905550610e5c565b80836005016000828254610e54919061360f565b925050819055505b600b60003373ffffffffffffffffffffffffffffffffffffffff1673ffffffffffffffffffffffffffffffffffffffff168152602001908152602001600020836000015490806001815401808255809150506001900390600052602060002001600090919091909150557ff2913dbe661ee2acc4a046d8fbcdc792373bda34c41c6086484b5345e5785e5f863387604051610ef993929190613652565b60405180910390a1505050505050565b60006040518060400160405280601981526020017f55736572206973206e6f74206120636f6e7472696275746f7200000000000000815250610f6b7fa0bb1af1c90aa52ed052b92714ff0087008cc720049bf1af77cca2600b31e80c3361142e565b8190610fad576040517f08c379a0000000000000000000000000000000000000000000000000000000008152600401610fa49190613294565b60405180910390fd5b50600960003373ffffffffffffffffffffffffffffffffffffffff1673ffffffffffffffffffffffffffffffffffffffff1681526020019081526020016000205491505090565b6060600060045467ffffffffffffffff811115611014576110136137e4565b5b60405190808252806020026020018201604052801561104d57816020015b61103a61282d565b8152602001906001900390816110325790505b50905060005b60045481101561133b576008600082815260200190815260200160002060405180610180016040529081600082015481526020016001820160009054906101000a900473ffffffffffffffffffffffffffffffffffffffff1673ffffffffffffffffffffffffffffffffffffffff1673ffffffffffffffffffffffffffffffffffffffff1681526020016002820154815260200160038201548152602001600482015481526020016005820154815260200160068201805461111490613842565b80601f016020809104026020016040519081016040528092919081815260200182805461114090613842565b801561118d5780601f106111625761010080835404028352916020019161118d565b820191906000526020600020905b81548152906001019060200180831161117057829003601f168201915b505050505081526020016007820180546111a690613842565b80601f01602080910402602001604051908101604052809291908181526020018280546111d290613842565b801561121f5780601f106111f45761010080835404028352916020019161121f565b820191906000526020600020905b81548152906001019060200180831161120257829003601f168201915b505050505081526020016008820160009054906101000a900460ff161515151581526020016008820160019054906101000a900460ff161515151581526020016008820160029054906101000a900473ffffffffffffffffffffffffffffffffffffffff1673ffffffffffffffffffffffffffffffffffffffff1673ffffffffffffffffffffffffffffffffffffffff1681526020016009820160009054906101000a900473ffffffffffffffffffffffffffffffffffffffff1673ffffffffffffffffffffffffffffffffffffffff1673ffffffffffffffffffffffffffffffffffffffff168152505082828151811061131d5761131c613873565b5b60200260200101819052508080611333906138a2565b915050611053565b508091505090565b60006040518060400160405280601981526020017f55736572206973206e6f742061207374616b65686f6c646572000000000000008152506113a57ff4bb84e1768dd286358a736d195a0b228621173f655a73b89bf8b191ed0ba07d3361142e565b81906113e7576040517f08c379a00000000000000000000000000000000000000000000000000000000081526004016113de9190613294565b60405180910390fd5b50600a60003373ffffffffffffffffffffffffffffffffffffffff1673ffffffffffffffffffffffffffffffffffffffff1681526020019081526020016000205491505090565b60006001600084815260200190815260200160002060000160008373ffffffffffffffffffffffffffffffffffffffff1673ffffffffffffffffffffffffffffffffffffffff16815260200190815260200160002060009054906101000a900460ff16905092915050565b6000801b81565b60606040518060400160405280601981526020017f55736572206973206e6f742061207374616b65686f6c646572000000000000008152506115027ff4bb84e1768dd286358a736d195a0b228621173f655a73b89bf8b191ed0ba07d3361142e565b8190611544576040517f08c379a000000000000000000000000000000000000000000000000000000000815260040161153b9190613294565b60405180910390fd5b50600b60003373ffffffffffffffffffffffffffffffffffffffff1673ffffffffffffffffffffffffffffffffffffffff1681526020019081526020016000208054806020026020016040519081016040528092919081815260200182805480156115ce57602002820191906000526020600020905b8154815260200190600101908083116115ba575b505050505091505090565b60075481565b600060086000838152602001908152602001600020600401549050919050565b60055481565b600080600a60003373ffffffffffffffffffffffffffffffffffffffff1673ffffffffffffffffffffffffffffffffffffffff1681526020019081526020016000205411905090565b80600260009054906101000a900473ffffffffffffffffffffffffffffffffffffffff1673ffffffffffffffffffffffffffffffffffffffff166370a08231336040518263ffffffff1660e01b81526004016116aa919061371b565b602060405180830381865afa1580156116c7573d6000803e3d6000fd5b505050506040513d601f19601f820116820180604052508101906116eb919061374b565b101561172c576040517f08c379a000000000000000000000000000000000000000000000000000000000815260040161172390613936565b60405180910390fd5b600260009054906101000a900473ffffffffffffffffffffffffffffffffffffffff1673ffffffffffffffffffffffffffffffffffffffff166323b872dd3330846040518463ffffffff1660e01b815260040161178b93929190613956565b6020604051808303816000875af11580156117aa573d6000803e3d6000fd5b505050506040513d601f19601f820116820180604052508101906117ce9190613459565b50600033905060008290506118037ff4bb84e1768dd286358a736d195a0b228621173f655a73b89bf8b191ed0ba07d8361142e565b6119f157600081600960008573ffffffffffffffffffffffffffffffffffffffff1673ffffffffffffffffffffffffffffffffffffffff16815260200190815260200160002054611854919061360f565b9050600754811061196a5780600a60008573ffffffffffffffffffffffffffffffffffffffff1673ffffffffffffffffffffffffffffffffffffffff1681526020019081526020016000208190555081600960008573ffffffffffffffffffffffffffffffffffffffff1673ffffffffffffffffffffffffffffffffffffffff16815260200190815260200160002060008282546118f2919061360f565b925050819055506119237ff4bb84e1768dd286358a736d195a0b228621173f655a73b89bf8b191ed0ba07d84612531565b61194d7fa0bb1af1c90aa52ed052b92714ff0087008cc720049bf1af77cca2600b31e80c84612531565b600c6000815480929190611960906138a2565b91905055506119eb565b81600960008573ffffffffffffffffffffffffffffffffffffffff1673ffffffffffffffffffffffffffffffffffffffff16815260200190815260200160002060008282546119b9919061360f565b925050819055506119ea7fa0bb1af1c90aa52ed052b92714ff0087008cc720049bf1af77cca2600b31e80c84612531565b5b50611ab7565b80600960008473ffffffffffffffffffffffffffffffffffffffff1673ffffffffffffffffffffffffffffffffffffffff1681526020019081526020016000206000828254611a40919061360f565b9250508190555080600a60008473ffffffffffffffffffffffffffffffffffffffff1673ffffffffffffffffffffffffffffffffffffffff1681526020019081526020016000206000828254611a96919061360f565b925050819055508060066000828254611aaf919061360f565b925050819055505b8260056000828254611ac9919061360f565b92505081905550505050565b611add61282d565b6008600083815260200190815260200160002060405180610180016040529081600082015481526020016001820160009054906101000a900473ffffffffffffffffffffffffffffffffffffffff1673ffffffffffffffffffffffffffffffffffffffff1673ffffffffffffffffffffffffffffffffffffffff16815260200160028201548152602001600382015481526020016004820154815260200160058201548152602001600682018054611b9490613842565b80601f0160208091040260200160405190810160405280929190818152602001828054611bc090613842565b8015611c0d5780601f10611be257610100808354040283529160200191611c0d565b820191906000526020600020905b815481529060010190602001808311611bf057829003601f168201915b50505050508152602001600782018054611c2690613842565b80601f0160208091040260200160405190810160405280929190818152602001828054611c5290613842565b8015611c9f5780601f10611c7457610100808354040283529160200191611c9f565b820191906000526020600020905b815481529060010190602001808311611c8257829003601f168201915b505050505081526020016008820160009054906101000a900460ff161515151581526020016008820160019054906101000a900460ff161515151581526020016008820160029054906101000a900473ffffffffffffffffffffffffffffffffffffffff1673ffffffffffffffffffffffffffffffffffffffff1673ffffffffffffffffffffffffffffffffffffffff1681526020016009820160009054906101000a900473ffffffffffffffffffffffffffffffffffffffff1673ffffffffffffffffffffffffffffffffffffffff1673ffffffffffffffffffffffffffffffffffffffff16815250509050919050565b611d9a82610bad565b611da381612353565b611dad838361244f565b505050565b600360009054906101000a900473ffffffffffffffffffffffffffffffffffffffff1681565b600080600960003373ffffffffffffffffffffffffffffffffffffffff1673ffffffffffffffffffffffffffffffffffffffff1681526020019081526020016000205411905090565b611e4b7ff4bb84e1768dd286358a736d195a0b228621173f655a73b89bf8b191ed0ba07d3361142e565b80611ef157506000600360009054906101000a900473ffffffffffffffffffffffffffffffffffffffff1673ffffffffffffffffffffffffffffffffffffffff166370a08231336040518263ffffffff1660e01b8152600401611eae919061371b565b602060405180830381865afa158015611ecb573d6000803e3d6000fd5b505050506040513d601f19601f82011682018060405250810190611eef919061374b565b115b611efa57600080fd5b600060046000815480929190611f0f906138a2565b9190505590506000600860008381526020019081526020016000209050818160000181905550338160010160006101000a81548173ffffffffffffffffffffffffffffffffffffffff021916908373ffffffffffffffffffffffffffffffffffffffff1602179055508281600201819055508787826006019182611f94929190613b3a565b508585826007019182611fa8929190613b3a565b50838160080160026101000a81548173ffffffffffffffffffffffffffffffffffffffff021916908373ffffffffffffffffffffffffffffffffffffffff1602179055507f000000000000000000000000000000000000000000000000000000000000000063ffffffff164261201e919061360f565b81600301819055503373ffffffffffffffffffffffffffffffffffffffff167fe91b617d4934aaed554665fb8bf916496704d82c4207445297286ab8f01f8e2a8460405161206c9190612a0b565b60405180910390a25050505050505050565b6000600554905090565b60065481565b600260009054906101000a900473ffffffffffffffffffffffffffffffffffffffff1681565b60007f01ffc9a7000000000000000000000000000000000000000000000000000000007bffffffffffffffffffffffffffffffffffffffffffffffffffffffff1916827bffffffffffffffffffffffffffffffffffffffffffffffffffffffff1916149050919050565b600260005403612163576040517f08c379a000000000000000000000000000000000000000000000000000000000815260040161215a90613c56565b60405180910390fd5b6002600081905550565b6001600081905550565b6004548160000154106121bf576040517f08c379a00000000000000000000000000000000000000000000000000000000081526004016121b690613cc2565b60405180910390fd5b8060080160009054906101000a900460ff16806121e0575042816003015411155b1561223d5760018160080160006101000a81548160ff0219169083151502179055506040517f08c379a000000000000000000000000000000000000000000000000000000000815260040161223490613d54565b60405180910390fd5b6000600b60003373ffffffffffffffffffffffffffffffffffffffff1673ffffffffffffffffffffffffffffffffffffffff1681526020019081526020016000208054806020026020016040519081016040528092919081815260200182805480156122c857602002820191906000526020600020905b8154815260200190600101908083116122b4575b5050505050905060005b815181101561234e578181815181106122ee576122ed613873565b5b602002602001015183600001540361233b576040517f08c379a000000000000000000000000000000000000000000000000000000000815260040161233290613dc0565b60405180910390fd5b8080612346906138a2565b9150506122d2565b505050565b6123648161235f612447565b61253f565b50565b612371828261142e565b61244357600180600084815260200190815260200160002060000160008373ffffffffffffffffffffffffffffffffffffffff1673ffffffffffffffffffffffffffffffffffffffff16815260200190815260200160002060006101000a81548160ff0219169083151502179055506123e8612447565b73ffffffffffffffffffffffffffffffffffffffff168173ffffffffffffffffffffffffffffffffffffffff16837f2f8788117e7eff1d82e926ec794901d17c78024a50270940304540a733656f0d60405160405180910390a45b5050565b600033905090565b612459828261142e565b1561252d5760006001600084815260200190815260200160002060000160008373ffffffffffffffffffffffffffffffffffffffff1673ffffffffffffffffffffffffffffffffffffffff16815260200190815260200160002060006101000a81548160ff0219169083151502179055506124d2612447565b73ffffffffffffffffffffffffffffffffffffffff168173ffffffffffffffffffffffffffffffffffffffff16837ff6391f5c32d9c69d2a47ea670b442974b53935d1edc7fd64eb21e047a839171b60405160405180910390a45b5050565b61253b8282612367565b5050565b612549828261142e565b6125c057612556816125c4565b6125648360001c60206125f1565b604051602001612575929190613eb4565b6040516020818303038152906040526040517f08c379a00000000000000000000000000000000000000000000000000000000081526004016125b79190613294565b60405180910390fd5b5050565b60606125ea8273ffffffffffffffffffffffffffffffffffffffff16601460ff166125f1565b9050919050565b6060600060028360026126049190613555565b61260e919061360f565b67ffffffffffffffff811115612627576126266137e4565b5b6040519080825280601f01601f1916602001820160405280156126595781602001600182028036833780820191505090505b5090507f30000000000000000000000000000000000000000000000000000000000000008160008151811061269157612690613873565b5b60200101907effffffffffffffffffffffffffffffffffffffffffffffffffffffffffffff1916908160001a9053507f7800000000000000000000000000000000000000000000000000000000000000816001815181106126f5576126f4613873565b5b60200101907effffffffffffffffffffffffffffffffffffffffffffffffffffffffffffff1916908160001a905350600060018460026127359190613555565b61273f919061360f565b90505b60018111156127df577f3031323334353637383961626364656600000000000000000000000000000000600f86166010811061278157612780613873565b5b1a60f81b82828151811061279857612797613873565b5b60200101907effffffffffffffffffffffffffffffffffffffffffffffffffffffffffffff1916908160001a905350600485901c9450806127d890613eee565b9050612742565b5060008414612823576040517f08c379a000000000000000000000000000000000000000000000000000000000815260040161281a90613f63565b60405180910390fd5b8091505092915050565b60405180610180016040528060008152602001600073ffffffffffffffffffffffffffffffffffffffff168152602001600081526020016000815260200160008152602001600081526020016060815260200160608152602001600015158152602001600015158152602001600073ffffffffffffffffffffffffffffffffffffffff168152602001600073ffffffffffffffffffffffffffffffffffffffff1681525090565b600080fd5b600080fd5b60007fffffffff0000000000000000000000000000000000000000000000000000000082169050919050565b612913816128de565b811461291e57600080fd5b50565b6000813590506129308161290a565b92915050565b60006020828403121561294c5761294b6128d4565b5b600061295a84828501612921565b91505092915050565b60008115159050919050565b61297881612963565b82525050565b6000602082019050612993600083018461296f565b92915050565b6000819050919050565b6129ac81612999565b81146129b757600080fd5b50565b6000813590506129c9816129a3565b92915050565b6000602082840312156129e5576129e46128d4565b5b60006129f3848285016129ba565b91505092915050565b612a0581612999565b82525050565b6000602082019050612a2060008301846129fc565b92915050565b612a2f81612963565b8114612a3a57600080fd5b50565b600081359050612a4c81612a26565b92915050565b60008060408385031215612a6957612a686128d4565b5b6000612a77858286016129ba565b9250506020612a8885828601612a3d565b9150509250929050565b6000819050919050565b612aa581612a92565b8114612ab057600080fd5b50565b600081359050612ac281612a9c565b92915050565b600060208284031215612ade57612add6128d4565b5b6000612aec84828501612ab3565b91505092915050565b612afe81612a92565b82525050565b6000602082019050612b196000830184612af5565b92915050565b600073ffffffffffffffffffffffffffffffffffffffff82169050919050565b6000612b4a82612b1f565b9050919050565b612b5a81612b3f565b8114612b6557600080fd5b50565b600081359050612b7781612b51565b92915050565b60008060408385031215612b9457612b936128d4565b5b6000612ba285828601612ab3565b9250506020612bb385828601612b68565b9150509250929050565b600081519050919050565b600082825260208201905092915050565b6000819050602082019050919050565b612bf281612999565b82525050565b612c0181612b3f565b82525050565b600081519050919050565b600082825260208201905092915050565b60005b83811015612c41578082015181840152602081019050612c26565b60008484015250505050565b6000601f19601f8301169050919050565b6000612c6982612c07565b612c738185612c12565b9350612c83818560208601612c23565b612c8c81612c4d565b840191505092915050565b612ca081612963565b82525050565b6000612cb182612b1f565b9050919050565b612cc181612ca6565b82525050565b600061018083016000830151612ce06000860182612be9565b506020830151612cf36020860182612bf8565b506040830151612d066040860182612be9565b506060830151612d196060860182612be9565b506080830151612d2c6080860182612be9565b5060a0830151612d3f60a0860182612be9565b5060c083015184820360c0860152612d578282612c5e565b91505060e083015184820360e0860152612d718282612c5e565b915050610100830151612d88610100860182612c97565b50610120830151612d9d610120860182612c97565b50610140830151612db2610140860182612cb8565b50610160830151612dc7610160860182612bf8565b508091505092915050565b6000612dde8383612cc7565b905092915050565b6000602082019050919050565b6000612dfe82612bbd565b612e088185612bc8565b935083602082028501612e1a85612bd9565b8060005b85811015612e565784840389528151612e378582612dd2565b9450612e4283612de6565b925060208a01995050600181019050612e1e565b50829750879550505050505092915050565b60006020820190508181036000830152612e828184612df3565b905092915050565b600081519050919050565b600082825260208201905092915050565b6000819050602082019050919050565b6000612ec28383612be9565b60208301905092915050565b6000602082019050919050565b6000612ee682612e8a565b612ef08185612e95565b9350612efb83612ea6565b8060005b83811015612f2c578151612f138882612eb6565b9750612f1e83612ece565b925050600181019050612eff565b5085935050505092915050565b60006020820190508181036000830152612f538184612edb565b905092915050565b600061018083016000830151612f746000860182612be9565b506020830151612f876020860182612bf8565b506040830151612f9a6040860182612be9565b506060830151612fad6060860182612be9565b506080830151612fc06080860182612be9565b5060a0830151612fd360a0860182612be9565b5060c083015184820360c0860152612feb8282612c5e565b91505060e083015184820360e08601526130058282612c5e565b91505061010083015161301c610100860182612c97565b50610120830151613031610120860182612c97565b50610140830151613046610140860182612cb8565b5061016083015161305b610160860182612bf8565b508091505092915050565b600060208201905081810360008301526130808184612f5b565b905092915050565b6000819050919050565b60006130ad6130a86130a384612b1f565b613088565b612b1f565b9050919050565b60006130bf82613092565b9050919050565b60006130d1826130b4565b9050919050565b6130e1816130c6565b82525050565b60006020820190506130fc60008301846130d8565b92915050565b600080fd5b600080fd5b600080fd5b60008083601f84011261312757613126613102565b5b8235905067ffffffffffffffff81111561314457613143613107565b5b6020830191508360018202830111156131605761315f61310c565b5b9250929050565b60008060008060008060808789031215613184576131836128d4565b5b600087013567ffffffffffffffff8111156131a2576131a16128d9565b5b6131ae89828a01613111565b9650965050602087013567ffffffffffffffff8111156131d1576131d06128d9565b5b6131dd89828a01613111565b945094505060406131f089828a01612b68565b925050606061320189828a016129ba565b9150509295509295509295565b6000613219826130b4565b9050919050565b6132298161320e565b82525050565b60006020820190506132446000830184613220565b92915050565b600082825260208201905092915050565b600061326682612c07565b613270818561324a565b9350613280818560208601612c23565b61328981612c4d565b840191505092915050565b600060208201905081810360008301526132ae818461325b565b905092915050565b7f496e73756666696369656e742066756e64000000000000000000000000000000600082015250565b60006132ec60118361324a565b91506132f7826132b6565b602082019050919050565b6000602082019050818103600083015261331b816132df565b9050919050565b7f5061796d656e742073656e74206265666f726500000000000000000000000000600082015250565b600061335860138361324a565b915061336382613322565b602082019050919050565b600060208201905081810360008301526133878161334b565b9050919050565b7f496e73756666696369656e7420766f7465730000000000000000000000000000600082015250565b60006133c460128361324a565b91506133cf8261338e565b602082019050919050565b600060208201905081810360008301526133f3816133b7565b9050919050565b6000613405826130b4565b9050919050565b613415816133fa565b82525050565b6000604082019050613430600083018561340c565b61343d60208301846129fc565b9392505050565b60008151905061345381612a26565b92915050565b60006020828403121561346f5761346e6128d4565b5b600061347d84828501613444565b91505092915050565b7f546f6b656e207472616e73666572206661696c65640000000000000000000000600082015250565b60006134bc60158361324a565b91506134c782613486565b602082019050919050565b600060208201905081810360008301526134eb816134af565b9050919050565b7f4e487b7100000000000000000000000000000000000000000000000000000000600052601160045260246000fd5b600061352c82612999565b915061353783612999565b925082820390508181111561354f5761354e6134f2565b5b92915050565b600061356082612999565b915061356b83612999565b9250817fffffffffffffffffffffffffffffffffffffffffffffffffffffffffffffffff04831182151516156135a4576135a36134f2565b5b828202905092915050565b7f4e487b7100000000000000000000000000000000000000000000000000000000600052601260045260246000fd5b60006135e982612999565b91506135f483612999565b925082613604576136036135af565b5b828204905092915050565b600061361a82612999565b915061362583612999565b925082820190508082111561363d5761363c6134f2565b5b92915050565b61364c81612b3f565b82525050565b600060608201905061366760008301866129fc565b6136746020830185613643565b613681604083018461296f565b949350505050565b7f416363657373436f6e74726f6c3a2063616e206f6e6c792072656e6f756e636560008201527f20726f6c657320666f722073656c660000000000000000000000000000000000602082015250565b60006136e5602f8361324a565b91506136f082613689565b604082019050919050565b60006020820190508181036000830152613714816136d8565b9050919050565b60006020820190506137306000830184613643565b92915050565b600081519050613745816129a3565b92915050565b600060208284031215613761576137606128d4565b5b600061376f84828501613736565b91505092915050565b7f596f7520646f206e6f74206f776e20616e206e66740000000000000000000000600082015250565b60006137ae60158361324a565b91506137b982613778565b602082019050919050565b600060208201905081810360008301526137dd816137a1565b9050919050565b7f4e487b7100000000000000000000000000000000000000000000000000000000600052604160045260246000fd5b7f4e487b7100000000000000000000000000000000000000000000000000000000600052602260045260246000fd5b6000600282049050600182168061385a57607f821691505b60208210810361386d5761386c613813565b5b50919050565b7f4e487b7100000000000000000000000000000000000000000000000000000000600052603260045260246000fd5b60006138ad82612999565b91507fffffffffffffffffffffffffffffffffffffffffffffffffffffffffffffffff82036138df576138de6134f2565b5b600182019050919050565b7f496e73756666696369656e742062616c616e6365000000000000000000000000600082015250565b600061392060148361324a565b915061392b826138ea565b602082019050919050565b6000602082019050818103600083015261394f81613913565b9050919050565b600060608201905061396b6000830186613643565b6139786020830185613643565b61398560408301846129fc565b949350505050565b600082905092915050565b60008190508160005260206000209050919050565b60006020601f8301049050919050565b600082821b905092915050565b6000600883026139fa7fffffffffffffffffffffffffffffffffffffffffffffffffffffffffffffffff826139bd565b613a0486836139bd565b95508019841693508086168417925050509392505050565b6000613a37613a32613a2d84612999565b613088565b612999565b9050919050565b6000819050919050565b613a5183613a1c565b613a65613a5d82613a3e565b8484546139ca565b825550505050565b600090565b613a7a613a6d565b613a85818484613a48565b505050565b5b81811015613aa957613a9e600082613a72565b600181019050613a8b565b5050565b601f821115613aee57613abf81613998565b613ac8846139ad565b81016020851015613ad7578190505b613aeb613ae3856139ad565b830182613a8a565b50505b505050565b600082821c905092915050565b6000613b1160001984600802613af3565b1980831691505092915050565b6000613b2a8383613b00565b9150826002028217905092915050565b613b44838361398d565b67ffffffffffffffff811115613b5d57613b5c6137e4565b5b613b678254613842565b613b72828285613aad565b6000601f831160018114613ba15760008415613b8f578287013590505b613b998582613b1e565b865550613c01565b601f198416613baf86613998565b60005b82811015613bd757848901358255600182019150602085019450602081019050613bb2565b86831015613bf45784890135613bf0601f891682613b00565b8355505b6001600288020188555050505b50505050505050565b7f5265656e7472616e637947756172643a207265656e7472616e742063616c6c00600082015250565b6000613c40601f8361324a565b9150613c4b82613c0a565b602082019050919050565b60006020820190508181036000830152613c6f81613c33565b9050919050565b7f496e76616c69642070726f706f73616c2049442e000000000000000000000000600082015250565b6000613cac60148361324a565b9150613cb782613c76565b602082019050919050565b60006020820190508181036000830152613cdb81613c9f565b9050919050565b7f566f74696e6720706572696f642068617320706173736564206f6e207468697360008201527f2070726f706f73616c0000000000000000000000000000000000000000000000602082015250565b6000613d3e60298361324a565b9150613d4982613ce2565b604082019050919050565b60006020820190508181036000830152613d6d81613d31565b9050919050565b7f446f75626c6520766f74696e67206e6f7420616c6c6f77656400000000000000600082015250565b6000613daa60198361324a565b9150613db582613d74565b602082019050919050565b60006020820190508181036000830152613dd981613d9d565b9050919050565b600081905092915050565b7f416363657373436f6e74726f6c3a206163636f756e7420000000000000000000600082015250565b6000613e21601783613de0565b9150613e2c82613deb565b601782019050919050565b6000613e4282612c07565b613e4c8185613de0565b9350613e5c818560208601612c23565b80840191505092915050565b7f206973206d697373696e6720726f6c6520000000000000000000000000000000600082015250565b6000613e9e601183613de0565b9150613ea982613e68565b601182019050919050565b6000613ebf82613e14565b9150613ecb8285613e37565b9150613ed682613e91565b9150613ee28284613e37565b91508190509392505050565b6000613ef982612999565b915060008203613f0c57613f0b6134f2565b5b600182039050919050565b7f537472696e67733a20686578206c656e67746820696e73756666696369656e74600082015250565b6000613f4d60208361324a565b9150613f5882613f17565b602082019050919050565b60006020820190508181036000830152613f7c81613f40565b905091905056fe4f6e6c79207374616b65686f6c646572732061726520616c6c6f77656420746f20766f7465a264697066735822122016f81404dce157b339c94155f4e3e01300a399f589e2eb39b13f47dcf16df5d864736f6c63430008100033",
  "immutableReferences": {
    "3581": [
      {
        "length": 32,
        "start": 8174
      }
    ]
  },
  "source": "// SPDX-License-Identifier: MIT\npragma solidity ^0.8.9;\n\nimport \"@openzeppelin/contracts/access/AccessControl.sol\";\nimport \"@openzeppelin/contracts/security/ReentrancyGuard.sol\";\nimport \"@openzeppelin/contracts/token/ERC20/IERC20.sol\";\nimport \"./CodeMavricksNft.sol\";\n\ncontract CodeMavericksGouvernance is ReentrancyGuard, AccessControl {\n    IERC20 public governanceToken;\n    CodeMavricksNft public nftContract;\n    bytes32 private constant CONTRIBUTOR_ROLE = keccak256(\"CONTRIBUTOR\");\n    bytes32 private constant STAKEHOLDER_ROLE = keccak256(\"STAKEHOLDER\");\n    uint32 immutable minimumVotingPeriod = 1 weeks;\n    uint256 numOfProposals;\n    uint256 public daoBalance;\n    uint256 public stakeholderContribution;\n    uint256 public minimumAmount = 1000;\n\n    constructor(\n        address _governanceToken,\n        address _nftContract\n    ) {\n        governanceToken = IERC20(_governanceToken);\n        nftContract = CodeMavricksNft(_nftContract);\n    }\n\n    struct Proposal {\n        uint256 id;\n        address proposer;\n        uint256 amount;\n        uint256 livePeriod;\n        uint256 votesFor;\n        uint256 votesAgainst;\n        string title;\n        string description;\n        bool votingPassed;\n        bool paid;\n        address payable beneficiary;\n        address paidBy;\n    }\n\n    mapping(uint256 => Proposal) private proposals;\n    mapping(address => uint256) private contributors;\n    mapping(address => uint256) private stakeholders;\n    mapping(address => uint256[]) private stakeholderVotes;\n    uint256 stakeholderCount;\n\n    //Events\n    event ContributionReceived(address indexed fromAddress, uint256 amount);\n    event newProposal(address indexed proposer, uint256 amount);\n    event PaymentTransfered(\n        address indexed stakeholder,\n        address indexed beneficiary,\n        uint256 amount\n    );\n    event Voted(uint256 proposalId, address voter, bool inFavor);\n    event ProposalExecuted(uint256 proposalId);\n\n    //modifiers\n    modifier onlyStakeholder(string memory message) {\n        require(hasRole(STAKEHOLDER_ROLE, msg.sender), message);\n        _;\n    }\n\n    modifier onlyContributor(string memory message) {\n        require(hasRole(CONTRIBUTOR_ROLE, msg.sender), message);\n        _;\n    }\n\n    function CreateProposal(\n        string calldata title,\n        string calldata description,\n        address beneficiary,\n        uint256 amount\n    ) external {\n        require(\n            (hasRole(STAKEHOLDER_ROLE, msg.sender)) ||\n                (nftContract.balanceOf(msg.sender) > 0)\n        );\n        uint256 proposalId = numOfProposals++;\n      \n        Proposal storage proposal = proposals[proposalId];\n        proposal.id = proposalId;\n        proposal.proposer = msg.sender;\n        proposal.amount = amount;\n        proposal.title = title;\n        proposal.description = description;\n        proposal.beneficiary = payable(beneficiary);\n        proposal.livePeriod = block.timestamp + minimumVotingPeriod;\n\n        emit newProposal(msg.sender, amount);\n    }\n\n    function voteWithNFT(uint256 proposalId, bool supportProposal) public {\n        uint256 pourcentage = 50;\n        require(nftContract.balanceOf(msg.sender) > 0, \"You do not own an nft\");\n        Proposal storage proposal = proposals[proposalId];\n\n        handleVoting(proposal);\n        uint256 totalSupply = nftContract.totalSupply();\n        uint256 votingPower = pourcentage / totalSupply;\n        if (supportProposal) proposal.votesFor += votingPower;\n        else proposal.votesAgainst += votingPower;\n\n        stakeholderVotes[msg.sender].push(proposal.id);\n        emit Voted(proposalId, msg.sender, supportProposal);\n    }\n\n    function voteWithToken(\n        uint256 proposalId,\n        bool supportProposal\n    ) public onlyStakeholder(\"Only stakeholders are allowed to vote\") {\n        uint256 pourcentage = 50;\n        Proposal storage proposal = proposals[proposalId];\n\n        handleVoting(proposal);\n        uint256 votingPower = (pourcentage * stakeholders[msg.sender]) /\n            stakeholderCount;\n\n        if (supportProposal) proposal.votesFor += votingPower;\n        else proposal.votesAgainst += votingPower;\n        stakeholderVotes[msg.sender].push(proposal.id);\n        emit Voted(proposalId, msg.sender, supportProposal);\n    }\n\n    function handleVoting(Proposal storage proposal) private {\n        require(proposal.id < numOfProposals, \"Invalid proposal ID.\");\n\n        if (proposal.votingPassed || proposal.livePeriod <= block.timestamp) {\n            proposal.votingPassed = true;\n            revert(\"Voting period has passed on this proposal\");\n        }\n\n        uint256[] memory tempVotes = stakeholderVotes[msg.sender];\n        for (uint256 votes = 0; votes < tempVotes.length; votes++) {\n            if (proposal.id == tempVotes[votes])\n                revert(\"Double voting not allowed\");\n        }\n    }\n\n    function payBeneficiary(\n        uint256 proposalId\n    )\n        external\n        onlyStakeholder(\"Unauthorized: Stakeholders only\")\n        nonReentrant\n        returns (uint256)\n    {\n        Proposal storage proposal = proposals[proposalId];\n        require(daoBalance >= proposal.amount, \"Insufficient fund\");\n\n        if (proposal.paid) revert(\"Payment sent before\");\n\n        if (proposal.votesFor <= proposal.votesAgainst)\n            revert(\"Insufficient votes\");\n\n        bool success = governanceToken.transfer(\n            proposal.beneficiary,\n            proposal.amount\n        );\n        require(success, \"Token transfer failed\");\n\n        proposal.paid = true;\n        proposal.paidBy = msg.sender;\n        daoBalance -= proposal.amount;\n\n        emit PaymentTransfered(\n            msg.sender,\n            proposal.beneficiary,\n            proposal.amount\n        );\n\n        return daoBalance;\n    }\n\n    function contribute(uint256 amount) external {\n        //before we should approve this contract to spend the amount\n        require(\n            governanceToken.balanceOf(msg.sender) >= amount,\n            \"Insufficient balance\"\n        );\n        governanceToken.transferFrom(msg.sender, address(this), amount);\n        address account = msg.sender;\n        uint256 amountContributed = amount;\n        if (!hasRole(STAKEHOLDER_ROLE, account)) {\n            uint256 totalContributed = contributors[account] +\n                amountContributed;\n            if (totalContributed >= minimumAmount) {\n                stakeholders[account] = totalContributed;\n                contributors[account] += amountContributed;\n                _setupRole(STAKEHOLDER_ROLE, account);\n                _setupRole(CONTRIBUTOR_ROLE, account);\n                stakeholderCount++;\n            } else {\n                contributors[account] += amountContributed;\n                _setupRole(CONTRIBUTOR_ROLE, account);\n            }\n        } else {\n            contributors[account] += amountContributed;\n            stakeholders[account] += amountContributed;\n            stakeholderContribution += amountContributed;\n        }\n        daoBalance += amount;\n    }\n\n    //getters\n    function getProposals() public view returns (Proposal[] memory) {\n        Proposal[] memory props = new Proposal[](numOfProposals);\n\n        for (uint256 i = 0; i < numOfProposals; i++) {\n            props[i] = proposals[i];\n        }\n        return props;\n    }\n\n    function getProposal(\n        uint256 proposalId\n    ) public view returns (Proposal memory) {\n        return proposals[proposalId];\n    }\n\n    function getNumberOfVotesFor(\n        uint256 proposalId\n    ) public view returns (uint256) {\n        return proposals[proposalId].votesFor;\n    }\n\n    function getNumberOfVotesAgainst(\n        uint256 proposalId\n    ) public view returns (uint256) {\n        return proposals[proposalId].votesAgainst;\n    }\n\n    function getStakeholderVotes()\n        public\n        view\n        onlyStakeholder(\"User is not a stakeholder\")\n        returns (uint256[] memory)\n    {\n        return stakeholderVotes[msg.sender];\n    }\n\n    function getStakeholderBalance()\n        public\n        view\n        onlyStakeholder(\"User is not a stakeholder\")\n        returns (uint256)\n    {\n        return stakeholders[msg.sender];\n    }\n\n    function getContributorBalance()\n        public\n        view\n        onlyContributor(\"User is not a contributor\")\n        returns (uint256)\n    {\n        return contributors[msg.sender];\n    }\n\n    function isStakeholder() public view returns (bool) {\n        return stakeholders[msg.sender] > 0;\n    }\n\n    function isContributor() public view returns (bool) {\n        return contributors[msg.sender] > 0;\n    }\n\n    function getDaoBalance() external view returns (uint256) {\n        return daoBalance;\n    }\n}\n",
  "sourcePath": "/home/senyou/nft-collection/contracts/CodeMavericksGouvernance.sol",
  "compiler": {
    "name": "solc",
    "version": "0.8.16+commit.07a7930e.Emscripten.clang"
  },
  "schemaVersion": "3.4.9",
  "updatedAt": "2023-05-05T14:49:09.555Z",
  "devdoc": {
    "kind": "dev",
    "methods": {
      "getRoleAdmin(bytes32)": {
        "details": "Returns the admin role that controls `role`. See {grantRole} and {revokeRole}. To change a role's admin, use {_setRoleAdmin}."
      },
      "grantRole(bytes32,address)": {
        "details": "Grants `role` to `account`. If `account` had not been already granted `role`, emits a {RoleGranted} event. Requirements: - the caller must have ``role``'s admin role. May emit a {RoleGranted} event."
      },
      "hasRole(bytes32,address)": {
        "details": "Returns `true` if `account` has been granted `role`."
      },
      "renounceRole(bytes32,address)": {
        "details": "Revokes `role` from the calling account. Roles are often managed via {grantRole} and {revokeRole}: this function's purpose is to provide a mechanism for accounts to lose their privileges if they are compromised (such as when a trusted device is misplaced). If the calling account had been revoked `role`, emits a {RoleRevoked} event. Requirements: - the caller must be `account`. May emit a {RoleRevoked} event."
      },
      "revokeRole(bytes32,address)": {
        "details": "Revokes `role` from `account`. If `account` had been granted `role`, emits a {RoleRevoked} event. Requirements: - the caller must have ``role``'s admin role. May emit a {RoleRevoked} event."
      },
      "supportsInterface(bytes4)": {
        "details": "See {IERC165-supportsInterface}."
      }
    },
    "version": 1
  },
  "userdoc": {
    "kind": "user",
    "methods": {},
    "version": 1
  }
}