{
  "contractName": "CodeMavricksNft",
  "abi": [
    {
      "inputs": [
        {
          "internalType": "string",
          "name": "_name",
          "type": "string"
        },
        {
          "internalType": "string",
          "name": "_symbol",
          "type": "string"
        },
        {
          "internalType": "string",
          "name": "_initBaseURI",
          "type": "string"
        }
      ],
      "stateMutability": "nonpayable",
      "type": "constructor"
    },
    {
      "anonymous": false,
      "inputs": [
        {
          "indexed": true,
          "internalType": "address",
          "name": "owner",
          "type": "address"
        },
        {
          "indexed": true,
          "internalType": "address",
          "name": "approved",
          "type": "address"
        },
        {
          "indexed": true,
          "internalType": "uint256",
          "name": "tokenId",
          "type": "uint256"
        }
      ],
      "name": "Approval",
      "type": "event"
    },
    {
      "anonymous": false,
      "inputs": [
        {
          "indexed": true,
          "internalType": "address",
          "name": "owner",
          "type": "address"
        },
        {
          "indexed": true,
          "internalType": "address",
          "name": "operator",
          "type": "address"
        },
        {
          "indexed": false,
          "internalType": "bool",
          "name": "approved",
          "type": "bool"
        }
      ],
      "name": "ApprovalForAll",
      "type": "event"
    },
    {
      "anonymous": false,
      "inputs": [
        {
          "indexed": true,
          "internalType": "address",
          "name": "previousOwner",
          "type": "address"
        },
        {
          "indexed": true,
          "internalType": "address",
          "name": "newOwner",
          "type": "address"
        }
      ],
      "name": "OwnershipTransferred",
      "type": "event"
    },
    {
      "anonymous": false,
      "inputs": [
        {
          "indexed": true,
          "internalType": "address",
          "name": "from",
          "type": "address"
        },
        {
          "indexed": true,
          "internalType": "address",
          "name": "to",
          "type": "address"
        },
        {
          "indexed": true,
          "internalType": "uint256",
          "name": "tokenId",
          "type": "uint256"
        }
      ],
      "name": "Transfer",
      "type": "event"
    },
    {
      "inputs": [
        {
          "internalType": "address",
          "name": "to",
          "type": "address"
        },
        {
          "internalType": "uint256",
          "name": "tokenId",
          "type": "uint256"
        }
      ],
      "name": "approve",
      "outputs": [],
      "stateMutability": "nonpayable",
      "type": "function"
    },
    {
      "inputs": [
        {
          "internalType": "address",
          "name": "owner",
          "type": "address"
        }
      ],
      "name": "balanceOf",
      "outputs": [
        {
          "internalType": "uint256",
          "name": "",
          "type": "uint256"
        }
      ],
      "stateMutability": "view",
      "type": "function",
      "constant": true
    },
    {
      "inputs": [],
      "name": "baseExtension",
      "outputs": [
        {
          "internalType": "string",
          "name": "",
          "type": "string"
        }
      ],
      "stateMutability": "view",
      "type": "function",
      "constant": true
    },
    {
      "inputs": [],
      "name": "baseURI",
      "outputs": [
        {
          "internalType": "string",
          "name": "",
          "type": "string"
        }
      ],
      "stateMutability": "view",
      "type": "function",
      "constant": true
    },
    {
      "inputs": [],
      "name": "cost",
      "outputs": [
        {
          "internalType": "uint256",
          "name": "",
          "type": "uint256"
        }
      ],
      "stateMutability": "view",
      "type": "function",
      "constant": true
    },
    {
      "inputs": [
        {
          "internalType": "uint256",
          "name": "tokenId",
          "type": "uint256"
        }
      ],
      "name": "getApproved",
      "outputs": [
        {
          "internalType": "address",
          "name": "",
          "type": "address"
        }
      ],
      "stateMutability": "view",
      "type": "function",
      "constant": true
    },
    {
      "inputs": [
        {
          "internalType": "address",
          "name": "owner",
          "type": "address"
        },
        {
          "internalType": "address",
          "name": "operator",
          "type": "address"
        }
      ],
      "name": "isApprovedForAll",
      "outputs": [
        {
          "internalType": "bool",
          "name": "",
          "type": "bool"
        }
      ],
      "stateMutability": "view",
      "type": "function",
      "constant": true
    },
    {
      "inputs": [],
      "name": "maxSupply",
      "outputs": [
        {
          "internalType": "uint256",
          "name": "",
          "type": "uint256"
        }
      ],
      "stateMutability": "view",
      "type": "function",
      "constant": true
    },
    {
      "inputs": [
        {
          "internalType": "uint256",
          "name": "",
          "type": "uint256"
        }
      ],
      "name": "moderators",
      "outputs": [
        {
          "internalType": "address",
          "name": "",
          "type": "address"
        }
      ],
      "stateMutability": "view",
      "type": "function",
      "constant": true
    },
    {
      "inputs": [],
      "name": "name",
      "outputs": [
        {
          "internalType": "string",
          "name": "",
          "type": "string"
        }
      ],
      "stateMutability": "view",
      "type": "function",
      "constant": true
    },
    {
      "inputs": [
        {
          "internalType": "address",
          "name": "",
          "type": "address"
        },
        {
          "internalType": "uint256",
          "name": "",
          "type": "uint256"
        }
      ],
      "name": "nftContributions",
      "outputs": [
        {
          "internalType": "string",
          "name": "",
          "type": "string"
        }
      ],
      "stateMutability": "view",
      "type": "function",
      "constant": true
    },
    {
      "inputs": [
        {
          "internalType": "address",
          "name": "",
          "type": "address"
        }
      ],
      "name": "nftScores",
      "outputs": [
        {
          "internalType": "uint256",
          "name": "",
          "type": "uint256"
        }
      ],
      "stateMutability": "view",
      "type": "function",
      "constant": true
    },
    {
      "inputs": [],
      "name": "owner",
      "outputs": [
        {
          "internalType": "address",
          "name": "",
          "type": "address"
        }
      ],
      "stateMutability": "view",
      "type": "function",
      "constant": true
    },
    {
      "inputs": [
        {
          "internalType": "uint256",
          "name": "tokenId",
          "type": "uint256"
        }
      ],
      "name": "ownerOf",
      "outputs": [
        {
          "internalType": "address",
          "name": "",
          "type": "address"
        }
      ],
      "stateMutability": "view",
      "type": "function",
      "constant": true
    },
    {
      "inputs": [],
      "name": "paused",
      "outputs": [
        {
          "internalType": "bool",
          "name": "",
          "type": "bool"
        }
      ],
      "stateMutability": "view",
      "type": "function",
      "constant": true
    },
    {
      "inputs": [],
      "name": "renounceOwnership",
      "outputs": [],
      "stateMutability": "nonpayable",
      "type": "function"
    },
    {
      "inputs": [
        {
          "internalType": "address",
          "name": "from",
          "type": "address"
        },
        {
          "internalType": "address",
          "name": "to",
          "type": "address"
        },
        {
          "internalType": "uint256",
          "name": "tokenId",
          "type": "uint256"
        }
      ],
      "name": "safeTransferFrom",
      "outputs": [],
      "stateMutability": "nonpayable",
      "type": "function"
    },
    {
      "inputs": [
        {
          "internalType": "address",
          "name": "from",
          "type": "address"
        },
        {
          "internalType": "address",
          "name": "to",
          "type": "address"
        },
        {
          "internalType": "uint256",
          "name": "tokenId",
          "type": "uint256"
        },
        {
          "internalType": "bytes",
          "name": "data",
          "type": "bytes"
        }
      ],
      "name": "safeTransferFrom",
      "outputs": [],
      "stateMutability": "nonpayable",
      "type": "function"
    },
    {
      "inputs": [
        {
          "internalType": "address",
          "name": "operator",
          "type": "address"
        },
        {
          "internalType": "bool",
          "name": "approved",
          "type": "bool"
        }
      ],
      "name": "setApprovalForAll",
      "outputs": [],
      "stateMutability": "nonpayable",
      "type": "function"
    },
    {
      "inputs": [
        {
          "internalType": "bytes4",
          "name": "interfaceId",
          "type": "bytes4"
        }
      ],
      "name": "supportsInterface",
      "outputs": [
        {
          "internalType": "bool",
          "name": "",
          "type": "bool"
        }
      ],
      "stateMutability": "view",
      "type": "function",
      "constant": true
    },
    {
      "inputs": [],
      "name": "symbol",
      "outputs": [
        {
          "internalType": "string",
          "name": "",
          "type": "string"
        }
      ],
      "stateMutability": "view",
      "type": "function",
      "constant": true
    },
    {
      "inputs": [
        {
          "internalType": "uint256",
          "name": "index",
          "type": "uint256"
        }
      ],
      "name": "tokenByIndex",
      "outputs": [
        {
          "internalType": "uint256",
          "name": "",
          "type": "uint256"
        }
      ],
      "stateMutability": "view",
      "type": "function",
      "constant": true
    },
    {
      "inputs": [
        {
          "internalType": "address",
          "name": "owner",
          "type": "address"
        },
        {
          "internalType": "uint256",
          "name": "index",
          "type": "uint256"
        }
      ],
      "name": "tokenOfOwnerByIndex",
      "outputs": [
        {
          "internalType": "uint256",
          "name": "",
          "type": "uint256"
        }
      ],
      "stateMutability": "view",
      "type": "function",
      "constant": true
    },
    {
      "inputs": [],
      "name": "totalSupply",
      "outputs": [
        {
          "internalType": "uint256",
          "name": "",
          "type": "uint256"
        }
      ],
      "stateMutability": "view",
      "type": "function",
      "constant": true
    },
    {
      "inputs": [
        {
          "internalType": "address",
          "name": "from",
          "type": "address"
        },
        {
          "internalType": "address",
          "name": "to",
          "type": "address"
        },
        {
          "internalType": "uint256",
          "name": "tokenId",
          "type": "uint256"
        }
      ],
      "name": "transferFrom",
      "outputs": [],
      "stateMutability": "nonpayable",
      "type": "function"
    },
    {
      "inputs": [
        {
          "internalType": "address",
          "name": "newOwner",
          "type": "address"
        }
      ],
      "name": "transferOwnership",
      "outputs": [],
      "stateMutability": "nonpayable",
      "type": "function"
    },
    {
      "inputs": [
        {
          "internalType": "address",
          "name": "receiver",
          "type": "address"
        }
      ],
      "name": "mint",
      "outputs": [],
      "stateMutability": "payable",
      "type": "function",
      "payable": true
    },
    {
      "inputs": [
        {
          "internalType": "address",
          "name": "owner",
          "type": "address"
        }
      ],
      "name": "getNFTContributions",
      "outputs": [
        {
          "internalType": "string[]",
          "name": "",
          "type": "string[]"
        }
      ],
      "stateMutability": "view",
      "type": "function",
      "constant": true
    },
    {
      "inputs": [
        {
          "internalType": "address",
          "name": "owner",
          "type": "address"
        },
        {
          "internalType": "address",
          "name": "newOwner",
          "type": "address"
        }
      ],
      "name": "transferNFTContributions",
      "outputs": [],
      "stateMutability": "nonpayable",
      "type": "function"
    },
    {
      "inputs": [
        {
          "internalType": "address",
          "name": "owner",
          "type": "address"
        },
        {
          "internalType": "string",
          "name": "comment",
          "type": "string"
        }
      ],
      "name": "updateScore",
      "outputs": [],
      "stateMutability": "nonpayable",
      "type": "function"
    },
    {
      "inputs": [
        {
          "internalType": "address",
          "name": "_address",
          "type": "address"
        }
      ],
      "name": "isModerator",
      "outputs": [
        {
          "internalType": "bool",
          "name": "",
          "type": "bool"
        }
      ],
      "stateMutability": "view",
      "type": "function",
      "constant": true
    },
    {
      "inputs": [
        {
          "internalType": "address",
          "name": "newModerator",
          "type": "address"
        }
      ],
      "name": "addModerator",
      "outputs": [],
      "stateMutability": "nonpayable",
      "type": "function"
    },
    {
      "inputs": [
        {
          "internalType": "address",
          "name": "_owner",
          "type": "address"
        }
      ],
      "name": "walletOfOwner",
      "outputs": [
        {
          "internalType": "uint256[]",
          "name": "",
          "type": "uint256[]"
        }
      ],
      "stateMutability": "view",
      "type": "function",
      "constant": true
    },
    {
      "inputs": [
        {
          "internalType": "uint256",
          "name": "tokenId",
          "type": "uint256"
        }
      ],
      "name": "tokenURI",
      "outputs": [
        {
          "internalType": "string",
          "name": "",
          "type": "string"
        }
      ],
      "stateMutability": "view",
      "type": "function",
      "constant": true
    },
    {
      "inputs": [
        {
          "internalType": "uint256",
          "name": "_newCost",
          "type": "uint256"
        }
      ],
      "name": "setCost",
      "outputs": [],
      "stateMutability": "nonpayable",
      "type": "function"
    },
    {
      "inputs": [
        {
          "internalType": "string",
          "name": "_newBaseURI",
          "type": "string"
        }
      ],
      "name": "setBaseURI",
      "outputs": [],
      "stateMutability": "nonpayable",
      "type": "function"
    },
    {
      "inputs": [
        {
          "internalType": "string",
          "name": "_newBaseExtension",
          "type": "string"
        }
      ],
      "name": "setBaseExtension",
      "outputs": [],
      "stateMutability": "nonpayable",
      "type": "function"
    },
    {
      "inputs": [
        {
          "internalType": "bool",
          "name": "_state",
          "type": "bool"
        }
      ],
      "name": "pause",
      "outputs": [],
      "stateMutability": "nonpayable",
      "type": "function"
    },
    {
      "inputs": [
        {
          "internalType": "address",
          "name": "user",
          "type": "address"
        },
        {
          "internalType": "uint256",
          "name": "score",
          "type": "uint256"
        }
      ],
      "name": "setScore",
      "outputs": [],
      "stateMutability": "nonpayable",
      "type": "function"
    },
    {
      "inputs": [
        {
          "internalType": "address",
          "name": "user",
          "type": "address"
        }
      ],
      "name": "getScore",
      "outputs": [
        {
          "internalType": "uint256",
          "name": "",
          "type": "uint256"
        }
      ],
      "stateMutability": "view",
      "type": "function",
      "constant": true
    },
    {
      "inputs": [
        {
          "internalType": "uint256",
          "name": "tokenId",
          "type": "uint256"
        }
      ],
      "name": "tokenExists",
      "outputs": [
        {
          "internalType": "bool",
          "name": "",
          "type": "bool"
        }
      ],
      "stateMutability": "view",
      "type": "function",
      "constant": true
    },
    {
      "inputs": [],
      "name": "withdraw",
      "outputs": [],
      "stateMutability": "payable",
      "type": "function",
      "payable": true
    }
  ],
  "bytecode": "0x60806040526040518060400160405280600581526020017f2e6a736f6e000000000000000000000000000000000000000000000000000000815250600c90816200004a919062001337565b50670de0b6b3a7640000600d55612710600e556000600f60006101000a81548160ff0219169083151502179055503480156200008557600080fd5b5060405162007096380380620070968339818101604052810190620000ab919062001582565b82828160009081620000be919062001337565b508060019081620000d0919062001337565b505050620000f3620000e76200012d60201b60201c565b6200013560201b60201c565b6200010481620001fb60201b60201c565b62000124620001186200022060201b60201c565b6200024a60201b60201c565b50505062001dcb565b600033905090565b6000600a60009054906101000a900473ffffffffffffffffffffffffffffffffffffffff16905081600a60006101000a81548173ffffffffffffffffffffffffffffffffffffffff021916908373ffffffffffffffffffffffffffffffffffffffff1602179055508173ffffffffffffffffffffffffffffffffffffffff168173ffffffffffffffffffffffffffffffffffffffff167f8be0079c531659141344cd1fd0a4f28419497f9722a3daafe3b4186f6b6457e060405160405180910390a35050565b6200020b6200044460201b60201c565b80600b90816200021c919062001337565b5050565b6000600a60009054906101000a900473ffffffffffffffffffffffffffffffffffffffff16905090565b600f60009054906101000a900460ff16156200029d576040517f08c379a000000000000000000000000000000000000000000000000000000000815260040162000294906200169c565b60405180910390fd5b60006001620002b1620004d560201b60201c565b620002bd9190620016ed565b9050600e5481111562000307576040517f08c379a0000000000000000000000000000000000000000000000000000000008152600401620002fe9062001778565b60405180910390fd5b60006200031a83620004e260201b60201c565b146200035d576040517f08c379a00000000000000000000000000000000000000000000000000000000081526004016200035490620017ea565b60405180910390fd5b6200036d6200022060201b60201c565b73ffffffffffffffffffffffffffffffffffffffff163373ffffffffffffffffffffffffffffffffffffffff1614620003e957600d54341015620003e8576040517f08c379a0000000000000000000000000000000000000000000000000000000008152600401620003df906200185c565b60405180910390fd5b5b6000601160008473ffffffffffffffffffffffffffffffffffffffff1673ffffffffffffffffffffffffffffffffffffffff168152602001908152602001600020819055506200044082826200059c60201b60201c565b5050565b620004546200012d60201b60201c565b73ffffffffffffffffffffffffffffffffffffffff166200047a6200022060201b60201c565b73ffffffffffffffffffffffffffffffffffffffff1614620004d3576040517f08c379a0000000000000000000000000000000000000000000000000000000008152600401620004ca90620018ce565b60405180910390fd5b565b6000600880549050905090565b60008073ffffffffffffffffffffffffffffffffffffffff168273ffffffffffffffffffffffffffffffffffffffff160362000555576040517f08c379a00000000000000000000000000000000000000000000000000000000081526004016200054c9062001966565b60405180910390fd5b600360008373ffffffffffffffffffffffffffffffffffffffff1673ffffffffffffffffffffffffffffffffffffffff168152602001908152602001600020549050919050565b620005be828260405180602001604052806000815250620005c260201b60201c565b5050565b620005d483836200063060201b60201c565b620005e960008484846200087660201b60201c565b6200062b576040517f08c379a00000000000000000000000000000000000000000000000000000000081526004016200062290620019fe565b60405180910390fd5b505050565b600073ffffffffffffffffffffffffffffffffffffffff168273ffffffffffffffffffffffffffffffffffffffff1603620006a2576040517f08c379a0000000000000000000000000000000000000000000000000000000008152600401620006999062001a70565b60405180910390fd5b620006b38162000a1f60201b60201c565b15620006f6576040517f08c379a0000000000000000000000000000000000000000000000000000000008152600401620006ed9062001ae2565b60405180910390fd5b6200070c60008383600162000a6860201b60201c565b6200071d8162000a1f60201b60201c565b1562000760576040517f08c379a0000000000000000000000000000000000000000000000000000000008152600401620007579062001ae2565b60405180910390fd5b6001600360008473ffffffffffffffffffffffffffffffffffffffff1673ffffffffffffffffffffffffffffffffffffffff16815260200190815260200160002060008282540192505081905550816002600083815260200190815260200160002060006101000a81548173ffffffffffffffffffffffffffffffffffffffff021916908373ffffffffffffffffffffffffffffffffffffffff160217905550808273ffffffffffffffffffffffffffffffffffffffff16600073ffffffffffffffffffffffffffffffffffffffff167fddf252ad1be2c89b69c2b068fc378daa952ba7f163c4a11628f55a4df523b3ef60405160405180910390a46200087260008383600162000bfc60201b60201c565b5050565b6000620008a48473ffffffffffffffffffffffffffffffffffffffff1662000c0260201b62001eda1760201c565b1562000a12578373ffffffffffffffffffffffffffffffffffffffff1663150b7a02620008d66200012d60201b60201c565b8786866040518563ffffffff1660e01b8152600401620008fa949392919062001bb7565b6020604051808303816000875af19250505080156200093957506040513d601f19601f8201168201806040525081019062000936919062001c68565b60015b620009c1573d80600081146200096c576040519150601f19603f3d011682016040523d82523d6000602084013e62000971565b606091505b506000815103620009b9576040517f08c379a0000000000000000000000000000000000000000000000000000000008152600401620009b090620019fe565b60405180910390fd5b805181602001fd5b63150b7a0260e01b7bffffffffffffffffffffffffffffffffffffffffffffffffffffffff1916817bffffffffffffffffffffffffffffffffffffffffffffffffffffffff19161491505062000a17565b600190505b949350505050565b60008073ffffffffffffffffffffffffffffffffffffffff1662000a498362000c2560201b60201c565b73ffffffffffffffffffffffffffffffffffffffff1614159050919050565b62000a818484848462000c6260201b62001efd1760201c565b600181111562000ac8576040517f08c379a000000000000000000000000000000000000000000000000000000000815260040162000abf9062001d10565b60405180910390fd5b6000829050600073ffffffffffffffffffffffffffffffffffffffff168573ffffffffffffffffffffffffffffffffffffffff160362000b195762000b138162000d8f60201b60201c565b62000b61565b8373ffffffffffffffffffffffffffffffffffffffff168573ffffffffffffffffffffffffffffffffffffffff161462000b605762000b5f858262000dd860201b60201c565b5b5b600073ffffffffffffffffffffffffffffffffffffffff168473ffffffffffffffffffffffffffffffffffffffff160362000bad5762000ba78162000f5560201b60201c565b62000bf5565b8473ffffffffffffffffffffffffffffffffffffffff168473ffffffffffffffffffffffffffffffffffffffff161462000bf45762000bf384826200103160201b60201c565b5b5b5050505050565b50505050565b6000808273ffffffffffffffffffffffffffffffffffffffff163b119050919050565b60006002600083815260200190815260200160002060009054906101000a900473ffffffffffffffffffffffffffffffffffffffff169050919050565b600181111562000d8957600073ffffffffffffffffffffffffffffffffffffffff168473ffffffffffffffffffffffffffffffffffffffff161462000cfa5780600360008673ffffffffffffffffffffffffffffffffffffffff1673ffffffffffffffffffffffffffffffffffffffff168152602001908152602001600020600082825462000cf2919062001d32565b925050819055505b600073ffffffffffffffffffffffffffffffffffffffff168373ffffffffffffffffffffffffffffffffffffffff161462000d885780600360008573ffffffffffffffffffffffffffffffffffffffff1673ffffffffffffffffffffffffffffffffffffffff168152602001908152602001600020600082825462000d809190620016ed565b925050819055505b5b50505050565b6008805490506009600083815260200190815260200160002081905550600881908060018154018082558091505060019003906000526020600020016000909190919091505550565b6000600162000df284620004e260201b620014aa1760201c565b62000dfe919062001d32565b905060006007600084815260200190815260200160002054905081811462000ee4576000600660008673ffffffffffffffffffffffffffffffffffffffff1673ffffffffffffffffffffffffffffffffffffffff168152602001908152602001600020600084815260200190815260200160002054905080600660008773ffffffffffffffffffffffffffffffffffffffff1673ffffffffffffffffffffffffffffffffffffffff168152602001908152602001600020600084815260200190815260200160002081905550816007600083815260200190815260200160002081905550505b6007600084815260200190815260200160002060009055600660008573ffffffffffffffffffffffffffffffffffffffff1673ffffffffffffffffffffffffffffffffffffffff16815260200190815260200160002060008381526020019081526020016000206000905550505050565b6000600160088054905062000f6b919062001d32565b905060006009600084815260200190815260200160002054905060006008838154811062000f9e5762000f9d62001d6d565b5b90600052602060002001549050806008838154811062000fc35762000fc262001d6d565b5b90600052602060002001819055508160096000838152602001908152602001600020819055506009600085815260200190815260200160002060009055600880548062001015576200101462001d9c565b5b6001900381819060005260206000200160009055905550505050565b60006200104983620004e260201b620014aa1760201c565b905081600660008573ffffffffffffffffffffffffffffffffffffffff1673ffffffffffffffffffffffffffffffffffffffff168152602001908152602001600020600083815260200190815260200160002081905550806007600084815260200190815260200160002081905550505050565b600081519050919050565b7f4e487b7100000000000000000000000000000000000000000000000000000000600052604160045260246000fd5b7f4e487b7100000000000000000000000000000000000000000000000000000000600052602260045260246000fd5b600060028204905060018216806200113f57607f821691505b602082108103620011555762001154620010f7565b5b50919050565b60008190508160005260206000209050919050565b60006020601f8301049050919050565b600082821b905092915050565b600060088302620011bf7fffffffffffffffffffffffffffffffffffffffffffffffffffffffffffffffff8262001180565b620011cb868362001180565b95508019841693508086168417925050509392505050565b6000819050919050565b6000819050919050565b600062001218620012126200120c84620011e3565b620011ed565b620011e3565b9050919050565b6000819050919050565b6200123483620011f7565b6200124c62001243826200121f565b8484546200118d565b825550505050565b600090565b6200126362001254565b6200127081848462001229565b505050565b5b8181101562001298576200128c60008262001259565b60018101905062001276565b5050565b601f821115620012e757620012b1816200115b565b620012bc8462001170565b81016020851015620012cc578190505b620012e4620012db8562001170565b83018262001275565b50505b505050565b600082821c905092915050565b60006200130c60001984600802620012ec565b1980831691505092915050565b6000620013278383620012f9565b9150826002028217905092915050565b6200134282620010bd565b67ffffffffffffffff8111156200135e576200135d620010c8565b5b6200136a825462001126565b620013778282856200129c565b600060209050601f831160018114620013af57600084156200139a578287015190505b620013a6858262001319565b86555062001416565b601f198416620013bf866200115b565b60005b82811015620013e957848901518255600182019150602085019450602081019050620013c2565b8683101562001409578489015162001405601f891682620012f9565b8355505b6001600288020188555050505b505050505050565b6000604051905090565b600080fd5b600080fd5b600080fd5b600080fd5b6000601f19601f8301169050919050565b62001458826200143c565b810181811067ffffffffffffffff821117156200147a5762001479620010c8565b5b80604052505050565b60006200148f6200141e565b90506200149d82826200144d565b919050565b600067ffffffffffffffff821115620014c057620014bf620010c8565b5b620014cb826200143c565b9050602081019050919050565b60005b83811015620014f8578082015181840152602081019050620014db565b60008484015250505050565b60006200151b6200151584620014a2565b62001483565b9050828152602081018484840111156200153a576200153962001437565b5b62001547848285620014d8565b509392505050565b600082601f83011262001567576200156662001432565b5b81516200157984826020860162001504565b91505092915050565b6000806000606084860312156200159e576200159d62001428565b5b600084015167ffffffffffffffff811115620015bf57620015be6200142d565b5b620015cd868287016200154f565b935050602084015167ffffffffffffffff811115620015f157620015f06200142d565b5b620015ff868287016200154f565b925050604084015167ffffffffffffffff8111156200162357620016226200142d565b5b62001631868287016200154f565b9150509250925092565b600082825260208201905092915050565b7f74686520636f6e74726163742069732070617573656400000000000000000000600082015250565b6000620016846016836200163b565b915062001691826200164c565b602082019050919050565b60006020820190508181036000830152620016b78162001675565b9050919050565b7f4e487b7100000000000000000000000000000000000000000000000000000000600052601160045260246000fd5b6000620016fa82620011e3565b91506200170783620011e3565b9250828201905080821115620017225762001721620016be565b5b92915050565b7f6d6178204e4654206c696d697420657863656564656400000000000000000000600082015250565b6000620017606016836200163b565b91506200176d8262001728565b602082019050919050565b60006020820190508181036000830152620017938162001751565b9050919050565b7f6f6e6c79206f6e65206e66742070657220757365720000000000000000000000600082015250565b6000620017d26015836200163b565b9150620017df826200179a565b602082019050919050565b600060208201905081810360008301526200180581620017c3565b9050919050565b7f696e73756666696369656e742066756e64730000000000000000000000000000600082015250565b6000620018446012836200163b565b915062001851826200180c565b602082019050919050565b60006020820190508181036000830152620018778162001835565b9050919050565b7f4f776e61626c653a2063616c6c6572206973206e6f7420746865206f776e6572600082015250565b6000620018b66020836200163b565b9150620018c3826200187e565b602082019050919050565b60006020820190508181036000830152620018e981620018a7565b9050919050565b7f4552433732313a2061646472657373207a65726f206973206e6f74206120766160008201527f6c6964206f776e65720000000000000000000000000000000000000000000000602082015250565b60006200194e6029836200163b565b91506200195b82620018f0565b604082019050919050565b6000602082019050818103600083015262001981816200193f565b9050919050565b7f4552433732313a207472616e7366657220746f206e6f6e20455243373231526560008201527f63656976657220696d706c656d656e7465720000000000000000000000000000602082015250565b6000620019e66032836200163b565b9150620019f38262001988565b604082019050919050565b6000602082019050818103600083015262001a1981620019d7565b9050919050565b7f4552433732313a206d696e7420746f20746865207a65726f2061646472657373600082015250565b600062001a586020836200163b565b915062001a658262001a20565b602082019050919050565b6000602082019050818103600083015262001a8b8162001a49565b9050919050565b7f4552433732313a20746f6b656e20616c7265616479206d696e74656400000000600082015250565b600062001aca601c836200163b565b915062001ad78262001a92565b602082019050919050565b6000602082019050818103600083015262001afd8162001abb565b9050919050565b600073ffffffffffffffffffffffffffffffffffffffff82169050919050565b600062001b318262001b04565b9050919050565b62001b438162001b24565b82525050565b62001b5481620011e3565b82525050565b600081519050919050565b600082825260208201905092915050565b600062001b838262001b5a565b62001b8f818562001b65565b935062001ba1818560208601620014d8565b62001bac816200143c565b840191505092915050565b600060808201905062001bce600083018762001b38565b62001bdd602083018662001b38565b62001bec604083018562001b49565b818103606083015262001c00818462001b76565b905095945050505050565b60007fffffffff0000000000000000000000000000000000000000000000000000000082169050919050565b62001c428162001c0b565b811462001c4e57600080fd5b50565b60008151905062001c628162001c37565b92915050565b60006020828403121562001c815762001c8062001428565b5b600062001c918482850162001c51565b91505092915050565b7f455243373231456e756d657261626c653a20636f6e736563757469766520747260008201527f616e7366657273206e6f7420737570706f727465640000000000000000000000602082015250565b600062001cf86035836200163b565b915062001d058262001c9a565b604082019050919050565b6000602082019050818103600083015262001d2b8162001ce9565b9050919050565b600062001d3f82620011e3565b915062001d4c83620011e3565b925082820390508181111562001d675762001d66620016be565b5b92915050565b7f4e487b7100000000000000000000000000000000000000000000000000000000600052603260045260246000fd5b7f4e487b7100000000000000000000000000000000000000000000000000000000600052603160045260246000fd5b6152bb8062001ddb6000396000f3fe6080604052600436106102505760003560e01c80636a62784211610139578063b88d4fde116100b6578063d5abeb011161007a578063d5abeb0114610903578063da3ef23f1461092e578063e985e9c514610957578063ee0fcc7514610994578063f2fde38b146109bd578063fa6f3936146109e657610250565b8063b88d4fde146107f8578063bd842a1114610821578063c66828621461085e578063c87b56dd14610889578063d47875d0146108c657610250565b806395d89b41116100fd57806395d89b4114610729578063a22cb46514610754578063ac21d3aa1461077d578063b532e4cb146107a6578063b7e8d467146107cf57610250565b80636a627842146106635780636c0360eb1461067f57806370a08231146106aa578063715018a6146106e75780638da5cb5b146106fe57610250565b8063301446bc116101d257806344a0d68a1161019657806344a0d68a1461052f5780634f6ccce71461055857806355f804b3146105955780635c975abb146105be5780636352211e146105e95780636430e3a11461062657610250565b8063301446bc146104455780633085af38146104825780633ccfd60b146104bf57806342842e0e146104c9578063438b6300146104f257610250565b8063095ea7b311610219578063095ea7b31461036057806313faede61461038957806318160ddd146103b457806323b872dd146103df5780632f745c591461040857610250565b8062923f9e1461025557806301ffc9a71461029257806302329a29146102cf57806306fdde03146102f8578063081812fc14610323575b600080fd5b34801561026157600080fd5b5061027c600480360381019061027791906135b9565b610a23565b6040516102899190613601565b60405180910390f35b34801561029e57600080fd5b506102b960048036038101906102b49190613674565b610a35565b6040516102c69190613601565b60405180910390f35b3480156102db57600080fd5b506102f660048036038101906102f191906136cd565b610aaf565b005b34801561030457600080fd5b5061030d610ad4565b60405161031a919061378a565b60405180910390f35b34801561032f57600080fd5b5061034a600480360381019061034591906135b9565b610b66565b60405161035791906137ed565b60405180910390f35b34801561036c57600080fd5b5061038760048036038101906103829190613834565b610bac565b005b34801561039557600080fd5b5061039e610cc3565b6040516103ab9190613883565b60405180910390f35b3480156103c057600080fd5b506103c9610cc9565b6040516103d69190613883565b60405180910390f35b3480156103eb57600080fd5b506104066004803603810190610401919061389e565b610cd6565b005b34801561041457600080fd5b5061042f600480360381019061042a9190613834565b610d36565b60405161043c9190613883565b60405180910390f35b34801561045157600080fd5b5061046c600480360381019061046791906138f1565b610ddb565b6040516104799190613a2a565b60405180910390f35b34801561048e57600080fd5b506104a960048036038101906104a491906138f1565b610ef3565b6040516104b69190613883565b60405180910390f35b6104c7610f0b565b005b3480156104d557600080fd5b506104f060048036038101906104eb919061389e565b610f93565b005b3480156104fe57600080fd5b50610519600480360381019061051491906138f1565b610fb3565b6040516105269190613b0a565b60405180910390f35b34801561053b57600080fd5b50610556600480360381019061055191906135b9565b611061565b005b34801561056457600080fd5b5061057f600480360381019061057a91906135b9565b611073565b60405161058c9190613883565b60405180910390f35b3480156105a157600080fd5b506105bc60048036038101906105b79190613c61565b6110e4565b005b3480156105ca57600080fd5b506105d36110ff565b6040516105e09190613601565b60405180910390f35b3480156105f557600080fd5b50610610600480360381019061060b91906135b9565b611112565b60405161061d91906137ed565b60405180910390f35b34801561063257600080fd5b5061064d60048036038101906106489190613834565b611198565b60405161065a919061378a565b60405180910390f35b61067d600480360381019061067891906138f1565b611251565b005b34801561068b57600080fd5b5061069461141c565b6040516106a1919061378a565b60405180910390f35b3480156106b657600080fd5b506106d160048036038101906106cc91906138f1565b6114aa565b6040516106de9190613883565b60405180910390f35b3480156106f357600080fd5b506106fc611561565b005b34801561070a57600080fd5b50610713611575565b60405161072091906137ed565b60405180910390f35b34801561073557600080fd5b5061073e61159f565b60405161074b919061378a565b60405180910390f35b34801561076057600080fd5b5061077b60048036038101906107769190613caa565b611631565b005b34801561078957600080fd5b506107a4600480360381019061079f9190613cea565b611647565b005b3480156107b257600080fd5b506107cd60048036038101906107c891906138f1565b611837565b005b3480156107db57600080fd5b506107f660048036038101906107f19190613d2a565b611922565b005b34801561080457600080fd5b5061081f600480360381019061081a9190613e27565b611a8a565b005b34801561082d57600080fd5b50610848600480360381019061084391906135b9565b611aec565b60405161085591906137ed565b60405180910390f35b34801561086a57600080fd5b50610873611b2b565b604051610880919061378a565b60405180910390f35b34801561089557600080fd5b506108b060048036038101906108ab91906135b9565b611bb9565b6040516108bd919061378a565b60405180910390f35b3480156108d257600080fd5b506108ed60048036038101906108e891906138f1565b611c63565b6040516108fa9190613883565b60405180910390f35b34801561090f57600080fd5b50610918611cac565b6040516109259190613883565b60405180910390f35b34801561093a57600080fd5b5061095560048036038101906109509190613c61565b611cb2565b005b34801561096357600080fd5b5061097e60048036038101906109799190613cea565b611ccd565b60405161098b9190613601565b60405180910390f35b3480156109a057600080fd5b506109bb60048036038101906109b69190613834565b611d61565b005b3480156109c957600080fd5b506109e460048036038101906109df91906138f1565b611da9565b005b3480156109f257600080fd5b50610a0d6004803603810190610a0891906138f1565b611e2c565b604051610a1a9190613601565b60405180910390f35b6000610a2e82612023565b9050919050565b60007f780e9d63000000000000000000000000000000000000000000000000000000007bffffffffffffffffffffffffffffffffffffffffffffffffffffffff1916827bffffffffffffffffffffffffffffffffffffffffffffffffffffffff19161480610aa85750610aa782612064565b5b9050919050565b610ab7612146565b80600f60006101000a81548160ff02191690831515021790555050565b606060008054610ae390613ed9565b80601f0160208091040260200160405190810160405280929190818152602001828054610b0f90613ed9565b8015610b5c5780601f10610b3157610100808354040283529160200191610b5c565b820191906000526020600020905b815481529060010190602001808311610b3f57829003601f168201915b5050505050905090565b6000610b71826121c4565b6004600083815260200190815260200160002060009054906101000a900473ffffffffffffffffffffffffffffffffffffffff169050919050565b6000610bb782611112565b90508073ffffffffffffffffffffffffffffffffffffffff168373ffffffffffffffffffffffffffffffffffffffff1603610c27576040517f08c379a0000000000000000000000000000000000000000000000000000000008152600401610c1e90613f7c565b60405180910390fd5b8073ffffffffffffffffffffffffffffffffffffffff16610c4661220f565b73ffffffffffffffffffffffffffffffffffffffff161480610c755750610c7481610c6f61220f565b611ccd565b5b610cb4576040517f08c379a0000000000000000000000000000000000000000000000000000000008152600401610cab9061400e565b60405180910390fd5b610cbe8383612217565b505050565b600d5481565b6000600880549050905090565b610ce7610ce161220f565b826122d0565b610d26576040517f08c379a0000000000000000000000000000000000000000000000000000000008152600401610d1d906140a0565b60405180910390fd5b610d31838383612365565b505050565b6000610d41836114aa565b8210610d82576040517f08c379a0000000000000000000000000000000000000000000000000000000008152600401610d7990614132565b60405180910390fd5b600660008473ffffffffffffffffffffffffffffffffffffffff1673ffffffffffffffffffffffffffffffffffffffff168152602001908152602001600020600083815260200190815260200160002054905092915050565b6060601260008373ffffffffffffffffffffffffffffffffffffffff1673ffffffffffffffffffffffffffffffffffffffff168152602001908152602001600020805480602002602001604051908101604052809291908181526020016000905b82821015610ee8578382906000526020600020018054610e5b90613ed9565b80601f0160208091040260200160405190810160405280929190818152602001828054610e8790613ed9565b8015610ed45780601f10610ea957610100808354040283529160200191610ed4565b820191906000526020600020905b815481529060010190602001808311610eb757829003601f168201915b505050505081526020019060010190610e3c565b505050509050919050565b60116020528060005260406000206000915090505481565b610f13612146565b6000610f1d611575565b73ffffffffffffffffffffffffffffffffffffffff1647604051610f4090614183565b60006040518083038185875af1925050503d8060008114610f7d576040519150601f19603f3d011682016040523d82523d6000602084013e610f82565b606091505b5050905080610f9057600080fd5b50565b610fae83838360405180602001604052806000815250611a8a565b505050565b60606000610fc0836114aa565b905060008167ffffffffffffffff811115610fde57610fdd613b36565b5b60405190808252806020026020018201604052801561100c5781602001602082028036833780820191505090505b50905060005b82811015611056576110248582610d36565b82828151811061103757611036614198565b5b602002602001018181525050808061104e906141f6565b915050611012565b508092505050919050565b611069612146565b80600d8190555050565b600061107d610cc9565b82106110be576040517f08c379a00000000000000000000000000000000000000000000000000000000081526004016110b5906142b0565b60405180910390fd5b600882815481106110d2576110d1614198565b5b90600052602060002001549050919050565b6110ec612146565b80600b90816110fb919061447c565b5050565b600f60009054906101000a900460ff1681565b60008061111e8361265e565b9050600073ffffffffffffffffffffffffffffffffffffffff168173ffffffffffffffffffffffffffffffffffffffff160361118f576040517f08c379a00000000000000000000000000000000000000000000000000000000081526004016111869061459a565b60405180910390fd5b80915050919050565b601260205281600052604060002081815481106111b457600080fd5b906000526020600020016000915091505080546111d090613ed9565b80601f01602080910402602001604051908101604052809291908181526020018280546111fc90613ed9565b80156112495780601f1061121e57610100808354040283529160200191611249565b820191906000526020600020905b81548152906001019060200180831161122c57829003601f168201915b505050505081565b600f60009054906101000a900460ff16156112a1576040517f08c379a000000000000000000000000000000000000000000000000000000000815260040161129890614606565b60405180910390fd5b600060016112ad610cc9565b6112b79190614626565b9050600e548111156112fe576040517f08c379a00000000000000000000000000000000000000000000000000000000081526004016112f5906146a6565b60405180910390fd5b6000611309836114aa565b14611349576040517f08c379a000000000000000000000000000000000000000000000000000000000815260040161134090614712565b60405180910390fd5b611351611575565b73ffffffffffffffffffffffffffffffffffffffff163373ffffffffffffffffffffffffffffffffffffffff16146113c957600d543410156113c8576040517f08c379a00000000000000000000000000000000000000000000000000000000081526004016113bf9061477e565b60405180910390fd5b5b6000601160008473ffffffffffffffffffffffffffffffffffffffff1673ffffffffffffffffffffffffffffffffffffffff16815260200190815260200160002081905550611418828261269b565b5050565b600b805461142990613ed9565b80601f016020809104026020016040519081016040528092919081815260200182805461145590613ed9565b80156114a25780601f10611477576101008083540402835291602001916114a2565b820191906000526020600020905b81548152906001019060200180831161148557829003601f168201915b505050505081565b60008073ffffffffffffffffffffffffffffffffffffffff168273ffffffffffffffffffffffffffffffffffffffff160361151a576040517f08c379a000000000000000000000000000000000000000000000000000000000815260040161151190614810565b60405180910390fd5b600360008373ffffffffffffffffffffffffffffffffffffffff1673ffffffffffffffffffffffffffffffffffffffff168152602001908152602001600020549050919050565b611569612146565b61157360006126b9565b565b6000600a60009054906101000a900473ffffffffffffffffffffffffffffffffffffffff16905090565b6060600180546115ae90613ed9565b80601f01602080910402602001604051908101604052809291908181526020018280546115da90613ed9565b80156116275780601f106115fc57610100808354040283529160200191611627565b820191906000526020600020905b81548152906001019060200180831161160a57829003601f168201915b5050505050905090565b61164361163c61220f565b838361277f565b5050565b8073ffffffffffffffffffffffffffffffffffffffff168273ffffffffffffffffffffffffffffffffffffffff16036116b5576040517f08c379a00000000000000000000000000000000000000000000000000000000081526004016116ac906148a2565b60405180910390fd5b6000601260008473ffffffffffffffffffffffffffffffffffffffff1673ffffffffffffffffffffffffffffffffffffffff16815260200190815260200160002080549050905060005b818110156117e657601260008473ffffffffffffffffffffffffffffffffffffffff1673ffffffffffffffffffffffffffffffffffffffff168152602001908152602001600020601260008673ffffffffffffffffffffffffffffffffffffffff1673ffffffffffffffffffffffffffffffffffffffff168152602001908152602001600020828154811061179757611796614198565b5b906000526020600020019080600181540180825580915050600190039060005260206000200160009091909190915090816117d291906148ed565b5080806117de906141f6565b9150506116ff565b50601260008473ffffffffffffffffffffffffffffffffffffffff1673ffffffffffffffffffffffffffffffffffffffff168152602001908152602001600020600061183291906134cd565b505050565b61184033611e2c565b8061187d575061184e611575565b73ffffffffffffffffffffffffffffffffffffffff163373ffffffffffffffffffffffffffffffffffffffff16145b6118bc576040517f08c379a00000000000000000000000000000000000000000000000000000000081526004016118b390614a21565b60405180910390fd5b6010819080600181540180825580915050600190039060005260206000200160009091909190916101000a81548173ffffffffffffffffffffffffffffffffffffffff021916908373ffffffffffffffffffffffffffffffffffffffff16021790555050565b61192b33611e2c565b61196a576040517f08c379a000000000000000000000000000000000000000000000000000000000815260040161196190614a21565b60405180910390fd5b6000611977836000610d36565b9050600081036119bc576040517f08c379a00000000000000000000000000000000000000000000000000000000081526004016119b390614a8d565b60405180910390fd5b600a601160008573ffffffffffffffffffffffffffffffffffffffff1673ffffffffffffffffffffffffffffffffffffffff1681526020019081526020016000206000828254611a0c9190614626565b92505081905550601260008473ffffffffffffffffffffffffffffffffffffffff1673ffffffffffffffffffffffffffffffffffffffff16815260200190815260200160002082908060018154018082558091505060019003906000526020600020016000909190919091509081611a84919061447c565b50505050565b611a9b611a9561220f565b836122d0565b611ada576040517f08c379a0000000000000000000000000000000000000000000000000000000008152600401611ad1906140a0565b60405180910390fd5b611ae6848484846128eb565b50505050565b60108181548110611afc57600080fd5b906000526020600020016000915054906101000a900473ffffffffffffffffffffffffffffffffffffffff1681565b600c8054611b3890613ed9565b80601f0160208091040260200160405190810160405280929190818152602001828054611b6490613ed9565b8015611bb15780601f10611b8657610100808354040283529160200191611bb1565b820191906000526020600020905b815481529060010190602001808311611b9457829003601f168201915b505050505081565b6060611bc482612023565b611c03576040517f08c379a0000000000000000000000000000000000000000000000000000000008152600401611bfa90614b1f565b60405180910390fd5b6000611c0d612947565b90506000815111611c2d5760405180602001604052806000815250611c5b565b80611c37846129d9565b600c604051602001611c4b93929190614c4a565b6040516020818303038152906040525b915050919050565b6000601160008373ffffffffffffffffffffffffffffffffffffffff1673ffffffffffffffffffffffffffffffffffffffff168152602001908152602001600020549050919050565b600e5481565b611cba612146565b80600c9081611cc9919061447c565b5050565b6000600560008473ffffffffffffffffffffffffffffffffffffffff1673ffffffffffffffffffffffffffffffffffffffff16815260200190815260200160002060008373ffffffffffffffffffffffffffffffffffffffff1673ffffffffffffffffffffffffffffffffffffffff16815260200190815260200160002060009054906101000a900460ff16905092915050565b80601160008473ffffffffffffffffffffffffffffffffffffffff1673ffffffffffffffffffffffffffffffffffffffff168152602001908152602001600020819055505050565b611db1612146565b600073ffffffffffffffffffffffffffffffffffffffff168173ffffffffffffffffffffffffffffffffffffffff1603611e20576040517f08c379a0000000000000000000000000000000000000000000000000000000008152600401611e1790614cf8565b60405180910390fd5b611e29816126b9565b50565b600080600090505b601080549050811015611ecf578273ffffffffffffffffffffffffffffffffffffffff1660108281548110611e6c57611e6b614198565b5b9060005260206000200160009054906101000a900473ffffffffffffffffffffffffffffffffffffffff1673ffffffffffffffffffffffffffffffffffffffff1603611ebc576001915050611ed5565b8080611ec7906141f6565b915050611e34565b50600090505b919050565b6000808273ffffffffffffffffffffffffffffffffffffffff163b119050919050565b600181111561201d57600073ffffffffffffffffffffffffffffffffffffffff168473ffffffffffffffffffffffffffffffffffffffff1614611f915780600360008673ffffffffffffffffffffffffffffffffffffffff1673ffffffffffffffffffffffffffffffffffffffff1681526020019081526020016000206000828254611f899190614d18565b925050819055505b600073ffffffffffffffffffffffffffffffffffffffff168373ffffffffffffffffffffffffffffffffffffffff161461201c5780600360008573ffffffffffffffffffffffffffffffffffffffff1673ffffffffffffffffffffffffffffffffffffffff16815260200190815260200160002060008282546120149190614626565b925050819055505b5b50505050565b60008073ffffffffffffffffffffffffffffffffffffffff166120458361265e565b73ffffffffffffffffffffffffffffffffffffffff1614159050919050565b60007f80ac58cd000000000000000000000000000000000000000000000000000000007bffffffffffffffffffffffffffffffffffffffffffffffffffffffff1916827bffffffffffffffffffffffffffffffffffffffffffffffffffffffff1916148061212f57507f5b5e139f000000000000000000000000000000000000000000000000000000007bffffffffffffffffffffffffffffffffffffffffffffffffffffffff1916827bffffffffffffffffffffffffffffffffffffffffffffffffffffffff1916145b8061213f575061213e82612aa7565b5b9050919050565b61214e61220f565b73ffffffffffffffffffffffffffffffffffffffff1661216c611575565b73ffffffffffffffffffffffffffffffffffffffff16146121c2576040517f08c379a00000000000000000000000000000000000000000000000000000000081526004016121b990614d98565b60405180910390fd5b565b6121cd81612023565b61220c576040517f08c379a00000000000000000000000000000000000000000000000000000000081526004016122039061459a565b60405180910390fd5b50565b600033905090565b816004600083815260200190815260200160002060006101000a81548173ffffffffffffffffffffffffffffffffffffffff021916908373ffffffffffffffffffffffffffffffffffffffff160217905550808273ffffffffffffffffffffffffffffffffffffffff1661228a83611112565b73ffffffffffffffffffffffffffffffffffffffff167f8c5be1e5ebec7d5bd14f71427d1e84f3dd0314c0f7b2291e5b200ac8c7c3b92560405160405180910390a45050565b6000806122dc83611112565b90508073ffffffffffffffffffffffffffffffffffffffff168473ffffffffffffffffffffffffffffffffffffffff16148061231e575061231d8185611ccd565b5b8061235c57508373ffffffffffffffffffffffffffffffffffffffff1661234484610b66565b73ffffffffffffffffffffffffffffffffffffffff16145b91505092915050565b8273ffffffffffffffffffffffffffffffffffffffff1661238582611112565b73ffffffffffffffffffffffffffffffffffffffff16146123db576040517f08c379a00000000000000000000000000000000000000000000000000000000081526004016123d290614e2a565b60405180910390fd5b600073ffffffffffffffffffffffffffffffffffffffff168273ffffffffffffffffffffffffffffffffffffffff160361244a576040517f08c379a000000000000000000000000000000000000000000000000000000000815260040161244190614ebc565b60405180910390fd5b6124578383836001612b11565b8273ffffffffffffffffffffffffffffffffffffffff1661247782611112565b73ffffffffffffffffffffffffffffffffffffffff16146124cd576040517f08c379a00000000000000000000000000000000000000000000000000000000081526004016124c490614e2a565b60405180910390fd5b6004600082815260200190815260200160002060006101000a81549073ffffffffffffffffffffffffffffffffffffffff02191690556001600360008573ffffffffffffffffffffffffffffffffffffffff1673ffffffffffffffffffffffffffffffffffffffff168152602001908152602001600020600082825403925050819055506001600360008473ffffffffffffffffffffffffffffffffffffffff1673ffffffffffffffffffffffffffffffffffffffff16815260200190815260200160002060008282540192505081905550816002600083815260200190815260200160002060006101000a81548173ffffffffffffffffffffffffffffffffffffffff021916908373ffffffffffffffffffffffffffffffffffffffff160217905550808273ffffffffffffffffffffffffffffffffffffffff168473ffffffffffffffffffffffffffffffffffffffff167fddf252ad1be2c89b69c2b068fc378daa952ba7f163c4a11628f55a4df523b3ef60405160405180910390a46126598383836001612c6f565b505050565b60006002600083815260200190815260200160002060009054906101000a900473ffffffffffffffffffffffffffffffffffffffff169050919050565b6126b5828260405180602001604052806000815250612c75565b5050565b6000600a60009054906101000a900473ffffffffffffffffffffffffffffffffffffffff16905081600a60006101000a81548173ffffffffffffffffffffffffffffffffffffffff021916908373ffffffffffffffffffffffffffffffffffffffff1602179055508173ffffffffffffffffffffffffffffffffffffffff168173ffffffffffffffffffffffffffffffffffffffff167f8be0079c531659141344cd1fd0a4f28419497f9722a3daafe3b4186f6b6457e060405160405180910390a35050565b8173ffffffffffffffffffffffffffffffffffffffff168373ffffffffffffffffffffffffffffffffffffffff16036127ed576040517f08c379a00000000000000000000000000000000000000000000000000000000081526004016127e490614f28565b60405180910390fd5b80600560008573ffffffffffffffffffffffffffffffffffffffff1673ffffffffffffffffffffffffffffffffffffffff16815260200190815260200160002060008473ffffffffffffffffffffffffffffffffffffffff1673ffffffffffffffffffffffffffffffffffffffff16815260200190815260200160002060006101000a81548160ff0219169083151502179055508173ffffffffffffffffffffffffffffffffffffffff168373ffffffffffffffffffffffffffffffffffffffff167f17307eab39ab6107e8899845ad3d59bd9653f200f220920489ca2b5937696c31836040516128de9190613601565b60405180910390a3505050565b6128f6848484612365565b61290284848484612cd0565b612941576040517f08c379a000000000000000000000000000000000000000000000000000000000815260040161293890614fba565b60405180910390fd5b50505050565b6060600b805461295690613ed9565b80601f016020809104026020016040519081016040528092919081815260200182805461298290613ed9565b80156129cf5780601f106129a4576101008083540402835291602001916129cf565b820191906000526020600020905b8154815290600101906020018083116129b257829003601f168201915b5050505050905090565b6060600060016129e884612e57565b01905060008167ffffffffffffffff811115612a0757612a06613b36565b5b6040519080825280601f01601f191660200182016040528015612a395781602001600182028036833780820191505090505b509050600082602001820190505b600115612a9c578080600190039150507f3031323334353637383961626364656600000000000000000000000000000000600a86061a8153600a8581612a9057612a8f614fda565b5b04945060008503612a47575b819350505050919050565b60007f01ffc9a7000000000000000000000000000000000000000000000000000000007bffffffffffffffffffffffffffffffffffffffffffffffffffffffff1916827bffffffffffffffffffffffffffffffffffffffffffffffffffffffff1916149050919050565b612b1d84848484611efd565b6001811115612b61576040517f08c379a0000000000000000000000000000000000000000000000000000000008152600401612b589061507b565b60405180910390fd5b6000829050600073ffffffffffffffffffffffffffffffffffffffff168573ffffffffffffffffffffffffffffffffffffffff1603612ba857612ba381612faa565b612be7565b8373ffffffffffffffffffffffffffffffffffffffff168573ffffffffffffffffffffffffffffffffffffffff1614612be657612be58582612ff3565b5b5b600073ffffffffffffffffffffffffffffffffffffffff168473ffffffffffffffffffffffffffffffffffffffff1603612c2957612c2481613160565b612c68565b8473ffffffffffffffffffffffffffffffffffffffff168473ffffffffffffffffffffffffffffffffffffffff1614612c6757612c668482613231565b5b5b5050505050565b50505050565b612c7f83836132b0565b612c8c6000848484612cd0565b612ccb576040517f08c379a0000000000000000000000000000000000000000000000000000000008152600401612cc290614fba565b60405180910390fd5b505050565b6000612cf18473ffffffffffffffffffffffffffffffffffffffff16611eda565b15612e4a578373ffffffffffffffffffffffffffffffffffffffff1663150b7a02612d1a61220f565b8786866040518563ffffffff1660e01b8152600401612d3c94939291906150f0565b6020604051808303816000875af1925050508015612d7857506040513d601f19601f82011682018060405250810190612d759190615151565b60015b612dfa573d8060008114612da8576040519150601f19603f3d011682016040523d82523d6000602084013e612dad565b606091505b506000815103612df2576040517f08c379a0000000000000000000000000000000000000000000000000000000008152600401612de990614fba565b60405180910390fd5b805181602001fd5b63150b7a0260e01b7bffffffffffffffffffffffffffffffffffffffffffffffffffffffff1916817bffffffffffffffffffffffffffffffffffffffffffffffffffffffff191614915050612e4f565b600190505b949350505050565b600080600090507a184f03e93ff9f4daa797ed6e38ed64bf6a1f0100000000000000008310612eb5577a184f03e93ff9f4daa797ed6e38ed64bf6a1f0100000000000000008381612eab57612eaa614fda565b5b0492506040810190505b6d04ee2d6d415b85acef81000000008310612ef2576d04ee2d6d415b85acef81000000008381612ee857612ee7614fda565b5b0492506020810190505b662386f26fc100008310612f2157662386f26fc100008381612f1757612f16614fda565b5b0492506010810190505b6305f5e1008310612f4a576305f5e1008381612f4057612f3f614fda565b5b0492506008810190505b6127108310612f6f576127108381612f6557612f64614fda565b5b0492506004810190505b60648310612f925760648381612f8857612f87614fda565b5b0492506002810190505b600a8310612fa1576001810190505b80915050919050565b6008805490506009600083815260200190815260200160002081905550600881908060018154018082558091505060019003906000526020600020016000909190919091505550565b60006001613000846114aa565b61300a9190614d18565b90506000600760008481526020019081526020016000205490508181146130ef576000600660008673ffffffffffffffffffffffffffffffffffffffff1673ffffffffffffffffffffffffffffffffffffffff168152602001908152602001600020600084815260200190815260200160002054905080600660008773ffffffffffffffffffffffffffffffffffffffff1673ffffffffffffffffffffffffffffffffffffffff168152602001908152602001600020600084815260200190815260200160002081905550816007600083815260200190815260200160002081905550505b6007600084815260200190815260200160002060009055600660008573ffffffffffffffffffffffffffffffffffffffff1673ffffffffffffffffffffffffffffffffffffffff16815260200190815260200160002060008381526020019081526020016000206000905550505050565b600060016008805490506131749190614d18565b90506000600960008481526020019081526020016000205490506000600883815481106131a4576131a3614198565b5b9060005260206000200154905080600883815481106131c6576131c5614198565b5b9060005260206000200181905550816009600083815260200190815260200160002081905550600960008581526020019081526020016000206000905560088054806132155761321461517e565b5b6001900381819060005260206000200160009055905550505050565b600061323c836114aa565b905081600660008573ffffffffffffffffffffffffffffffffffffffff1673ffffffffffffffffffffffffffffffffffffffff168152602001908152602001600020600083815260200190815260200160002081905550806007600084815260200190815260200160002081905550505050565b600073ffffffffffffffffffffffffffffffffffffffff168273ffffffffffffffffffffffffffffffffffffffff160361331f576040517f08c379a0000000000000000000000000000000000000000000000000000000008152600401613316906151f9565b60405180910390fd5b61332881612023565b15613368576040517f08c379a000000000000000000000000000000000000000000000000000000000815260040161335f90615265565b60405180910390fd5b613376600083836001612b11565b61337f81612023565b156133bf576040517f08c379a00000000000000000000000000000000000000000000000000000000081526004016133b690615265565b60405180910390fd5b6001600360008473ffffffffffffffffffffffffffffffffffffffff1673ffffffffffffffffffffffffffffffffffffffff16815260200190815260200160002060008282540192505081905550816002600083815260200190815260200160002060006101000a81548173ffffffffffffffffffffffffffffffffffffffff021916908373ffffffffffffffffffffffffffffffffffffffff160217905550808273ffffffffffffffffffffffffffffffffffffffff16600073ffffffffffffffffffffffffffffffffffffffff167fddf252ad1be2c89b69c2b068fc378daa952ba7f163c4a11628f55a4df523b3ef60405160405180910390a46134c9600083836001612c6f565b5050565b50805460008255906000526020600020908101906134eb91906134ee565b50565b5b8082111561350e57600081816135059190613512565b506001016134ef565b5090565b50805461351e90613ed9565b6000825580601f10613530575061354f565b601f01602090049060005260206000209081019061354e9190613552565b5b50565b5b8082111561356b576000816000905550600101613553565b5090565b6000604051905090565b600080fd5b600080fd5b6000819050919050565b61359681613583565b81146135a157600080fd5b50565b6000813590506135b38161358d565b92915050565b6000602082840312156135cf576135ce613579565b5b60006135dd848285016135a4565b91505092915050565b60008115159050919050565b6135fb816135e6565b82525050565b600060208201905061361660008301846135f2565b92915050565b60007fffffffff0000000000000000000000000000000000000000000000000000000082169050919050565b6136518161361c565b811461365c57600080fd5b50565b60008135905061366e81613648565b92915050565b60006020828403121561368a57613689613579565b5b60006136988482850161365f565b91505092915050565b6136aa816135e6565b81146136b557600080fd5b50565b6000813590506136c7816136a1565b92915050565b6000602082840312156136e3576136e2613579565b5b60006136f1848285016136b8565b91505092915050565b600081519050919050565b600082825260208201905092915050565b60005b83811015613734578082015181840152602081019050613719565b60008484015250505050565b6000601f19601f8301169050919050565b600061375c826136fa565b6137668185613705565b9350613776818560208601613716565b61377f81613740565b840191505092915050565b600060208201905081810360008301526137a48184613751565b905092915050565b600073ffffffffffffffffffffffffffffffffffffffff82169050919050565b60006137d7826137ac565b9050919050565b6137e7816137cc565b82525050565b600060208201905061380260008301846137de565b92915050565b613811816137cc565b811461381c57600080fd5b50565b60008135905061382e81613808565b92915050565b6000806040838503121561384b5761384a613579565b5b60006138598582860161381f565b925050602061386a858286016135a4565b9150509250929050565b61387d81613583565b82525050565b60006020820190506138986000830184613874565b92915050565b6000806000606084860312156138b7576138b6613579565b5b60006138c58682870161381f565b93505060206138d68682870161381f565b92505060406138e7868287016135a4565b9150509250925092565b60006020828403121561390757613906613579565b5b60006139158482850161381f565b91505092915050565b600081519050919050565b600082825260208201905092915050565b6000819050602082019050919050565b600082825260208201905092915050565b6000613966826136fa565b613970818561394a565b9350613980818560208601613716565b61398981613740565b840191505092915050565b60006139a0838361395b565b905092915050565b6000602082019050919050565b60006139c08261391e565b6139ca8185613929565b9350836020820285016139dc8561393a565b8060005b85811015613a1857848403895281516139f98582613994565b9450613a04836139a8565b925060208a019950506001810190506139e0565b50829750879550505050505092915050565b60006020820190508181036000830152613a4481846139b5565b905092915050565b600081519050919050565b600082825260208201905092915050565b6000819050602082019050919050565b613a8181613583565b82525050565b6000613a938383613a78565b60208301905092915050565b6000602082019050919050565b6000613ab782613a4c565b613ac18185613a57565b9350613acc83613a68565b8060005b83811015613afd578151613ae48882613a87565b9750613aef83613a9f565b925050600181019050613ad0565b5085935050505092915050565b60006020820190508181036000830152613b248184613aac565b905092915050565b600080fd5b600080fd5b7f4e487b7100000000000000000000000000000000000000000000000000000000600052604160045260246000fd5b613b6e82613740565b810181811067ffffffffffffffff82111715613b8d57613b8c613b36565b5b80604052505050565b6000613ba061356f565b9050613bac8282613b65565b919050565b600067ffffffffffffffff821115613bcc57613bcb613b36565b5b613bd582613740565b9050602081019050919050565b82818337600083830152505050565b6000613c04613bff84613bb1565b613b96565b905082815260208101848484011115613c2057613c1f613b31565b5b613c2b848285613be2565b509392505050565b600082601f830112613c4857613c47613b2c565b5b8135613c58848260208601613bf1565b91505092915050565b600060208284031215613c7757613c76613579565b5b600082013567ffffffffffffffff811115613c9557613c9461357e565b5b613ca184828501613c33565b91505092915050565b60008060408385031215613cc157613cc0613579565b5b6000613ccf8582860161381f565b9250506020613ce0858286016136b8565b9150509250929050565b60008060408385031215613d0157613d00613579565b5b6000613d0f8582860161381f565b9250506020613d208582860161381f565b9150509250929050565b60008060408385031215613d4157613d40613579565b5b6000613d4f8582860161381f565b925050602083013567ffffffffffffffff811115613d7057613d6f61357e565b5b613d7c85828601613c33565b9150509250929050565b600067ffffffffffffffff821115613da157613da0613b36565b5b613daa82613740565b9050602081019050919050565b6000613dca613dc584613d86565b613b96565b905082815260208101848484011115613de657613de5613b31565b5b613df1848285613be2565b509392505050565b600082601f830112613e0e57613e0d613b2c565b5b8135613e1e848260208601613db7565b91505092915050565b60008060008060808587031215613e4157613e40613579565b5b6000613e4f8782880161381f565b9450506020613e608782880161381f565b9350506040613e71878288016135a4565b925050606085013567ffffffffffffffff811115613e9257613e9161357e565b5b613e9e87828801613df9565b91505092959194509250565b7f4e487b7100000000000000000000000000000000000000000000000000000000600052602260045260246000fd5b60006002820490506001821680613ef157607f821691505b602082108103613f0457613f03613eaa565b5b50919050565b7f4552433732313a20617070726f76616c20746f2063757272656e74206f776e6560008201527f7200000000000000000000000000000000000000000000000000000000000000602082015250565b6000613f66602183613705565b9150613f7182613f0a565b604082019050919050565b60006020820190508181036000830152613f9581613f59565b9050919050565b7f4552433732313a20617070726f76652063616c6c6572206973206e6f7420746f60008201527f6b656e206f776e6572206f7220617070726f76656420666f7220616c6c000000602082015250565b6000613ff8603d83613705565b915061400382613f9c565b604082019050919050565b6000602082019050818103600083015261402781613feb565b9050919050565b7f4552433732313a2063616c6c6572206973206e6f7420746f6b656e206f776e6560008201527f72206f7220617070726f76656400000000000000000000000000000000000000602082015250565b600061408a602d83613705565b91506140958261402e565b604082019050919050565b600060208201905081810360008301526140b98161407d565b9050919050565b7f455243373231456e756d657261626c653a206f776e657220696e646578206f7560008201527f74206f6620626f756e6473000000000000000000000000000000000000000000602082015250565b600061411c602b83613705565b9150614127826140c0565b604082019050919050565b6000602082019050818103600083015261414b8161410f565b9050919050565b600081905092915050565b50565b600061416d600083614152565b91506141788261415d565b600082019050919050565b600061418e82614160565b9150819050919050565b7f4e487b7100000000000000000000000000000000000000000000000000000000600052603260045260246000fd5b7f4e487b7100000000000000000000000000000000000000000000000000000000600052601160045260246000fd5b600061420182613583565b91507fffffffffffffffffffffffffffffffffffffffffffffffffffffffffffffffff8203614233576142326141c7565b5b600182019050919050565b7f455243373231456e756d657261626c653a20676c6f62616c20696e646578206f60008201527f7574206f6620626f756e64730000000000000000000000000000000000000000602082015250565b600061429a602c83613705565b91506142a58261423e565b604082019050919050565b600060208201905081810360008301526142c98161428d565b9050919050565b60008190508160005260206000209050919050565b60006020601f8301049050919050565b600082821b905092915050565b6000600883026143327fffffffffffffffffffffffffffffffffffffffffffffffffffffffffffffffff826142f5565b61433c86836142f5565b95508019841693508086168417925050509392505050565b6000819050919050565b600061437961437461436f84613583565b614354565b613583565b9050919050565b6000819050919050565b6143938361435e565b6143a761439f82614380565b848454614302565b825550505050565b600090565b6143bc6143af565b6143c781848461438a565b505050565b5b818110156143eb576143e06000826143b4565b6001810190506143cd565b5050565b601f82111561443057614401816142d0565b61440a846142e5565b81016020851015614419578190505b61442d614425856142e5565b8301826143cc565b50505b505050565b600082821c905092915050565b600061445360001984600802614435565b1980831691505092915050565b600061446c8383614442565b9150826002028217905092915050565b614485826136fa565b67ffffffffffffffff81111561449e5761449d613b36565b5b6144a88254613ed9565b6144b38282856143ef565b600060209050601f8311600181146144e657600084156144d4578287015190505b6144de8582614460565b865550614546565b601f1984166144f4866142d0565b60005b8281101561451c578489015182556001820191506020850194506020810190506144f7565b868310156145395784890151614535601f891682614442565b8355505b6001600288020188555050505b505050505050565b7f4552433732313a20696e76616c696420746f6b656e2049440000000000000000600082015250565b6000614584601883613705565b915061458f8261454e565b602082019050919050565b600060208201905081810360008301526145b381614577565b9050919050565b7f74686520636f6e74726163742069732070617573656400000000000000000000600082015250565b60006145f0601683613705565b91506145fb826145ba565b602082019050919050565b6000602082019050818103600083015261461f816145e3565b9050919050565b600061463182613583565b915061463c83613583565b9250828201905080821115614654576146536141c7565b5b92915050565b7f6d6178204e4654206c696d697420657863656564656400000000000000000000600082015250565b6000614690601683613705565b915061469b8261465a565b602082019050919050565b600060208201905081810360008301526146bf81614683565b9050919050565b7f6f6e6c79206f6e65206e66742070657220757365720000000000000000000000600082015250565b60006146fc601583613705565b9150614707826146c6565b602082019050919050565b6000602082019050818103600083015261472b816146ef565b9050919050565b7f696e73756666696369656e742066756e64730000000000000000000000000000600082015250565b6000614768601283613705565b915061477382614732565b602082019050919050565b600060208201905081810360008301526147978161475b565b9050919050565b7f4552433732313a2061646472657373207a65726f206973206e6f74206120766160008201527f6c6964206f776e65720000000000000000000000000000000000000000000000602082015250565b60006147fa602983613705565b91506148058261479e565b604082019050919050565b60006020820190508181036000830152614829816147ed565b9050919050565b7f546865206e6577206f776e65722063616e6e6f74206265207468652073616d6560008201527f206173207468652063757272656e74206f776e65720000000000000000000000602082015250565b600061488c603583613705565b915061489782614830565b604082019050919050565b600060208201905081810360008301526148bb8161487f565b9050919050565b6000815490506148d181613ed9565b9050919050565b60008190508160005260206000209050919050565b8181036148fb5750506149d3565b614904826148c2565b67ffffffffffffffff81111561491d5761491c613b36565b5b6149278254613ed9565b6149328282856143ef565b6000601f831160018114614961576000841561494f578287015490505b6149598582614460565b8655506149cc565b601f19841661496f876148d8565b965061497a866142d0565b60005b828110156149a25784890154825560018201915060018501945060208101905061497d565b868310156149bf57848901546149bb601f891682614442565b8355505b6001600288020188555050505b5050505050505b565b7f556e617574686f72697a65640000000000000000000000000000000000000000600082015250565b6000614a0b600c83613705565b9150614a16826149d5565b602082019050919050565b60006020820190508181036000830152614a3a816149fe565b9050919050565b7f4e465420646f6573206e6f742065786973740000000000000000000000000000600082015250565b6000614a77601283613705565b9150614a8282614a41565b602082019050919050565b60006020820190508181036000830152614aa681614a6a565b9050919050565b7f4552433732314d657461646174613a2055524920717565727920666f72206e6f60008201527f6e6578697374656e7420746f6b656e0000000000000000000000000000000000602082015250565b6000614b09602f83613705565b9150614b1482614aad565b604082019050919050565b60006020820190508181036000830152614b3881614afc565b9050919050565b600081905092915050565b6000614b55826136fa565b614b5f8185614b3f565b9350614b6f818560208601613716565b80840191505092915050565b7f2f00000000000000000000000000000000000000000000000000000000000000600082015250565b6000614bb1600183614b3f565b9150614bbc82614b7b565b600182019050919050565b60008154614bd481613ed9565b614bde8186614b3f565b94506001821660008114614bf95760018114614c0e57614c41565b60ff1983168652811515820286019350614c41565b614c17856142d0565b60005b83811015614c3957815481890152600182019150602081019050614c1a565b838801955050505b50505092915050565b6000614c568286614b4a565b9150614c6182614ba4565b9150614c6d8285614b4a565b9150614c798284614bc7565b9150819050949350505050565b7f4f776e61626c653a206e6577206f776e657220697320746865207a65726f206160008201527f6464726573730000000000000000000000000000000000000000000000000000602082015250565b6000614ce2602683613705565b9150614ced82614c86565b604082019050919050565b60006020820190508181036000830152614d1181614cd5565b9050919050565b6000614d2382613583565b9150614d2e83613583565b9250828203905081811115614d4657614d456141c7565b5b92915050565b7f4f776e61626c653a2063616c6c6572206973206e6f7420746865206f776e6572600082015250565b6000614d82602083613705565b9150614d8d82614d4c565b602082019050919050565b60006020820190508181036000830152614db181614d75565b9050919050565b7f4552433732313a207472616e736665722066726f6d20696e636f72726563742060008201527f6f776e6572000000000000000000000000000000000000000000000000000000602082015250565b6000614e14602583613705565b9150614e1f82614db8565b604082019050919050565b60006020820190508181036000830152614e4381614e07565b9050919050565b7f4552433732313a207472616e7366657220746f20746865207a65726f2061646460008201527f7265737300000000000000000000000000000000000000000000000000000000602082015250565b6000614ea6602483613705565b9150614eb182614e4a565b604082019050919050565b60006020820190508181036000830152614ed581614e99565b9050919050565b7f4552433732313a20617070726f766520746f2063616c6c657200000000000000600082015250565b6000614f12601983613705565b9150614f1d82614edc565b602082019050919050565b60006020820190508181036000830152614f4181614f05565b9050919050565b7f4552433732313a207472616e7366657220746f206e6f6e20455243373231526560008201527f63656976657220696d706c656d656e7465720000000000000000000000000000602082015250565b6000614fa4603283613705565b9150614faf82614f48565b604082019050919050565b60006020820190508181036000830152614fd381614f97565b9050919050565b7f4e487b7100000000000000000000000000000000000000000000000000000000600052601260045260246000fd5b7f455243373231456e756d657261626c653a20636f6e736563757469766520747260008201527f616e7366657273206e6f7420737570706f727465640000000000000000000000602082015250565b6000615065603583613705565b915061507082615009565b604082019050919050565b6000602082019050818103600083015261509481615058565b9050919050565b600081519050919050565b600082825260208201905092915050565b60006150c28261509b565b6150cc81856150a6565b93506150dc818560208601613716565b6150e581613740565b840191505092915050565b600060808201905061510560008301876137de565b61511260208301866137de565b61511f6040830185613874565b818103606083015261513181846150b7565b905095945050505050565b60008151905061514b81613648565b92915050565b60006020828403121561516757615166613579565b5b60006151758482850161513c565b91505092915050565b7f4e487b7100000000000000000000000000000000000000000000000000000000600052603160045260246000fd5b7f4552433732313a206d696e7420746f20746865207a65726f2061646472657373600082015250565b60006151e3602083613705565b91506151ee826151ad565b602082019050919050565b60006020820190508181036000830152615212816151d6565b9050919050565b7f4552433732313a20746f6b656e20616c7265616479206d696e74656400000000600082015250565b600061524f601c83613705565b915061525a82615219565b602082019050919050565b6000602082019050818103600083015261527e81615242565b905091905056fea2646970667358221220248c5b9c9fdee27de1ed2d3ad5308cb5458b736a94c59d49dfbea81a16f4fcf164736f6c63430008100033",
  "immutableReferences": {},
  "source": "// SPDX-License-Identifier: MIT\n\npragma solidity >=0.7.0 <0.9.0;\n\nimport \"@openzeppelin/contracts/token/ERC721/ERC721.sol\";\nimport \"@openzeppelin/contracts/token/ERC721/extensions/ERC721Enumerable.sol\";\nimport \"@openzeppelin/contracts/access/Ownable.sol\";\n\ncontract CodeMavricksNft is ERC721Enumerable, Ownable {\n    using Strings for uint256;\n\n    string public baseURI;\n    string public baseExtension = \".json\";\n    uint256 public cost = 1 ether;\n    uint256 public maxSupply = 10000;\n    bool public paused = false;\n\n    // Define a moderator group\n    address[] public moderators;\n\n    mapping(address => uint) public nftScores;\n    mapping(address => string[]) public nftContributions;\n\n    constructor(\n        string memory _name,\n        string memory _symbol,\n        string memory _initBaseURI\n    ) ERC721(_name, _symbol) {\n        setBaseURI(_initBaseURI);\n        mint(owner());\n    }\n\n    // internal\n    function _baseURI() internal view virtual override returns (string memory) {\n        return baseURI;\n    }\n\n    // public\n    function mint(address receiver) public payable {\n        require(!paused, \"the contract is paused\");\n        uint256 supply = totalSupply() + 1;\n        require(supply <= maxSupply, \"max NFT limit exceeded\");\n        require(balanceOf(receiver) == 0, \"only one nft per user\");\n\n        if (msg.sender != owner()) {\n            require(msg.value >= cost, \"insufficient funds\");\n        }\n\n        nftScores[receiver] = 0;\n        _safeMint(receiver, supply);\n    }\n\n    function getNFTContributions(\n        address owner\n    ) public view returns (string[] memory) {\n        return nftContributions[owner];\n    }\n\n    function transferNFTContributions(address owner, address newOwner) public {\n        require(\n            owner != newOwner,\n            \"The new owner cannot be the same as the current owner\"\n        );\n\n        uint256 commentCount = nftContributions[owner].length;\n        for (uint256 i = 0; i < commentCount; i++) {\n            nftContributions[newOwner].push(nftContributions[owner][i]);\n        }\n\n        delete nftContributions[owner];\n    }\n\n    // Function to update the score of an NFT\n    function updateScore(address owner, string memory comment) public {\n        // Make sure the caller is a moderator\n        require(isModerator(msg.sender), \"Unauthorized\");\n\n        // Make sure the NFT exists\n        uint256 nftIndex = tokenOfOwnerByIndex(owner, 0);\n        require(nftIndex != 0, \"NFT does not exist\");\n\n        // Update the score\n        nftScores[owner] += 10;\n        nftContributions[owner].push(comment);\n    }\n\n    // Helper function to check if an address is a moderator\n    function isModerator(address _address) public view returns (bool) {\n        for (uint256 i = 0; i < moderators.length; i++) {\n            if (moderators[i] == _address) {\n                return true;\n            }\n        }\n        return false;\n    }\n\n    function addModerator(address newModerator) public {\n        require(\n            isModerator(msg.sender) || msg.sender == owner(),\n            \"Unauthorized\"\n        );\n        moderators.push(newModerator);\n    }\n\n    function walletOfOwner(\n        address _owner\n    ) public view returns (uint256[] memory) {\n        uint256 ownerTokenCount = balanceOf(_owner);\n        uint256[] memory tokenIds = new uint256[](ownerTokenCount);\n        for (uint256 i; i < ownerTokenCount; i++) {\n            tokenIds[i] = tokenOfOwnerByIndex(_owner, i);\n        }\n        return tokenIds;\n    }\n\n    function tokenURI(\n        uint256 tokenId\n    ) public view virtual override returns (string memory) {\n        require(\n            _exists(tokenId),\n            \"ERC721Metadata: URI query for nonexistent token\"\n        );\n\n        string memory currentBaseURI = _baseURI();\n        return\n            bytes(currentBaseURI).length > 0\n                ? string(\n                    abi.encodePacked(\n                        currentBaseURI,\n                        \"/\",\n                        tokenId.toString(),\n                        baseExtension\n                    )\n                )\n                : \"\";\n    }\n\n    function setCost(uint256 _newCost) public onlyOwner {\n        cost = _newCost;\n    }\n\n    function setBaseURI(string memory _newBaseURI) public onlyOwner {\n        baseURI = _newBaseURI;\n    }\n\n    function setBaseExtension(\n        string memory _newBaseExtension\n    ) public onlyOwner {\n        baseExtension = _newBaseExtension;\n    }\n\n    function pause(bool _state) public onlyOwner {\n        paused = _state;\n    }\n\n    function setScore(address user, uint score) external {\n        nftScores[user] = score;\n    }\n\n    function getScore(address user) external view returns (uint) {\n        return nftScores[user];\n    }\n\n    function tokenExists(uint256 tokenId) public view returns (bool) {\n        return _exists(tokenId);\n    }\n\n    //To-Do : make this withdraw multisig\n    function withdraw() public payable onlyOwner {\n        (bool os, ) = payable(owner()).call{value: address(this).balance}(\"\");\n        require(os);\n    }\n}\n",
  "sourcePath": "/home/senyou/nft-collection/contracts/CodeMavricksNft.sol",
  "compiler": {
    "name": "solc",
    "version": "0.8.16+commit.07a7930e.Emscripten.clang"
  },
  "schemaVersion": "3.4.9",
  "updatedAt": "2023-05-06T00:41:18.046Z",
  "networkType": "ethereum",
  "devdoc": {
    "kind": "dev",
    "methods": {
      "approve(address,uint256)": {
        "details": "See {IERC721-approve}."
      },
      "balanceOf(address)": {
        "details": "See {IERC721-balanceOf}."
      },
      "getApproved(uint256)": {
        "details": "See {IERC721-getApproved}."
      },
      "isApprovedForAll(address,address)": {
        "details": "See {IERC721-isApprovedForAll}."
      },
      "name()": {
        "details": "See {IERC721Metadata-name}."
      },
      "owner()": {
        "details": "Returns the address of the current owner."
      },
      "ownerOf(uint256)": {
        "details": "See {IERC721-ownerOf}."
      },
      "renounceOwnership()": {
        "details": "Leaves the contract without owner. It will not be possible to call `onlyOwner` functions anymore. Can only be called by the current owner. NOTE: Renouncing ownership will leave the contract without an owner, thereby removing any functionality that is only available to the owner."
      },
      "safeTransferFrom(address,address,uint256)": {
        "details": "See {IERC721-safeTransferFrom}."
      },
      "safeTransferFrom(address,address,uint256,bytes)": {
        "details": "See {IERC721-safeTransferFrom}."
      },
      "setApprovalForAll(address,bool)": {
        "details": "See {IERC721-setApprovalForAll}."
      },
      "supportsInterface(bytes4)": {
        "details": "See {IERC165-supportsInterface}."
      },
      "symbol()": {
        "details": "See {IERC721Metadata-symbol}."
      },
      "tokenByIndex(uint256)": {
        "details": "See {IERC721Enumerable-tokenByIndex}."
      },
      "tokenOfOwnerByIndex(address,uint256)": {
        "details": "See {IERC721Enumerable-tokenOfOwnerByIndex}."
      },
      "tokenURI(uint256)": {
        "details": "See {IERC721Metadata-tokenURI}."
      },
      "totalSupply()": {
        "details": "See {IERC721Enumerable-totalSupply}."
      },
      "transferFrom(address,address,uint256)": {
        "details": "See {IERC721-transferFrom}."
      },
      "transferOwnership(address)": {
        "details": "Transfers ownership of the contract to a new account (`newOwner`). Can only be called by the current owner."
      }
    },
    "version": 1
  },
  "userdoc": {
    "kind": "user",
    "methods": {},
    "version": 1
  }
}