{
  "contractName": "CodeMavricksNft",
  "abi": [
    {
      "inputs": [
        {
          "internalType": "string",
          "name": "_name",
          "type": "string"
        },
        {
          "internalType": "string",
          "name": "_symbol",
          "type": "string"
        },
        {
          "internalType": "string",
          "name": "_initBaseURI",
          "type": "string"
        }
      ],
      "stateMutability": "nonpayable",
      "type": "constructor"
    },
    {
      "anonymous": false,
      "inputs": [
        {
          "indexed": true,
          "internalType": "address",
          "name": "owner",
          "type": "address"
        },
        {
          "indexed": true,
          "internalType": "address",
          "name": "approved",
          "type": "address"
        },
        {
          "indexed": true,
          "internalType": "uint256",
          "name": "tokenId",
          "type": "uint256"
        }
      ],
      "name": "Approval",
      "type": "event"
    },
    {
      "anonymous": false,
      "inputs": [
        {
          "indexed": true,
          "internalType": "address",
          "name": "owner",
          "type": "address"
        },
        {
          "indexed": true,
          "internalType": "address",
          "name": "operator",
          "type": "address"
        },
        {
          "indexed": false,
          "internalType": "bool",
          "name": "approved",
          "type": "bool"
        }
      ],
      "name": "ApprovalForAll",
      "type": "event"
    },
    {
      "anonymous": false,
      "inputs": [
        {
          "indexed": true,
          "internalType": "address",
          "name": "previousOwner",
          "type": "address"
        },
        {
          "indexed": true,
          "internalType": "address",
          "name": "newOwner",
          "type": "address"
        }
      ],
      "name": "OwnershipTransferred",
      "type": "event"
    },
    {
      "anonymous": false,
      "inputs": [
        {
          "indexed": true,
          "internalType": "address",
          "name": "from",
          "type": "address"
        },
        {
          "indexed": true,
          "internalType": "address",
          "name": "to",
          "type": "address"
        },
        {
          "indexed": true,
          "internalType": "uint256",
          "name": "tokenId",
          "type": "uint256"
        }
      ],
      "name": "Transfer",
      "type": "event"
    },
    {
      "inputs": [
        {
          "internalType": "address",
          "name": "to",
          "type": "address"
        },
        {
          "internalType": "uint256",
          "name": "tokenId",
          "type": "uint256"
        }
      ],
      "name": "approve",
      "outputs": [],
      "stateMutability": "nonpayable",
      "type": "function"
    },
    {
      "inputs": [
        {
          "internalType": "address",
          "name": "owner",
          "type": "address"
        }
      ],
      "name": "balanceOf",
      "outputs": [
        {
          "internalType": "uint256",
          "name": "",
          "type": "uint256"
        }
      ],
      "stateMutability": "view",
      "type": "function",
      "constant": true
    },
    {
      "inputs": [],
      "name": "baseExtension",
      "outputs": [
        {
          "internalType": "string",
          "name": "",
          "type": "string"
        }
      ],
      "stateMutability": "view",
      "type": "function",
      "constant": true
    },
    {
      "inputs": [],
      "name": "baseURI",
      "outputs": [
        {
          "internalType": "string",
          "name": "",
          "type": "string"
        }
      ],
      "stateMutability": "view",
      "type": "function",
      "constant": true
    },
    {
      "inputs": [
        {
          "internalType": "uint256",
          "name": "tokenId",
          "type": "uint256"
        }
      ],
      "name": "getApproved",
      "outputs": [
        {
          "internalType": "address",
          "name": "",
          "type": "address"
        }
      ],
      "stateMutability": "view",
      "type": "function",
      "constant": true
    },
    {
      "inputs": [
        {
          "internalType": "address",
          "name": "owner",
          "type": "address"
        },
        {
          "internalType": "address",
          "name": "operator",
          "type": "address"
        }
      ],
      "name": "isApprovedForAll",
      "outputs": [
        {
          "internalType": "bool",
          "name": "",
          "type": "bool"
        }
      ],
      "stateMutability": "view",
      "type": "function",
      "constant": true
    },
    {
      "inputs": [],
      "name": "maxSupply",
      "outputs": [
        {
          "internalType": "uint256",
          "name": "",
          "type": "uint256"
        }
      ],
      "stateMutability": "view",
      "type": "function",
      "constant": true
    },
    {
      "inputs": [
        {
          "internalType": "uint256",
          "name": "",
          "type": "uint256"
        }
      ],
      "name": "moderators",
      "outputs": [
        {
          "internalType": "address",
          "name": "",
          "type": "address"
        }
      ],
      "stateMutability": "view",
      "type": "function",
      "constant": true
    },
    {
      "inputs": [],
      "name": "name",
      "outputs": [
        {
          "internalType": "string",
          "name": "",
          "type": "string"
        }
      ],
      "stateMutability": "view",
      "type": "function",
      "constant": true
    },
    {
      "inputs": [
        {
          "internalType": "address",
          "name": "",
          "type": "address"
        },
        {
          "internalType": "uint256",
          "name": "",
          "type": "uint256"
        }
      ],
      "name": "nftContributions",
      "outputs": [
        {
          "internalType": "string",
          "name": "",
          "type": "string"
        }
      ],
      "stateMutability": "view",
      "type": "function",
      "constant": true
    },
    {
      "inputs": [
        {
          "internalType": "address",
          "name": "",
          "type": "address"
        }
      ],
      "name": "nftScores",
      "outputs": [
        {
          "internalType": "uint256",
          "name": "",
          "type": "uint256"
        }
      ],
      "stateMutability": "view",
      "type": "function",
      "constant": true
    },
    {
      "inputs": [],
      "name": "owner",
      "outputs": [
        {
          "internalType": "address",
          "name": "",
          "type": "address"
        }
      ],
      "stateMutability": "view",
      "type": "function",
      "constant": true
    },
    {
      "inputs": [
        {
          "internalType": "uint256",
          "name": "tokenId",
          "type": "uint256"
        }
      ],
      "name": "ownerOf",
      "outputs": [
        {
          "internalType": "address",
          "name": "",
          "type": "address"
        }
      ],
      "stateMutability": "view",
      "type": "function",
      "constant": true
    },
    {
      "inputs": [],
      "name": "paused",
      "outputs": [
        {
          "internalType": "bool",
          "name": "",
          "type": "bool"
        }
      ],
      "stateMutability": "view",
      "type": "function",
      "constant": true
    },
    {
      "inputs": [],
      "name": "renounceOwnership",
      "outputs": [],
      "stateMutability": "nonpayable",
      "type": "function"
    },
    {
      "inputs": [
        {
          "internalType": "address",
          "name": "from",
          "type": "address"
        },
        {
          "internalType": "address",
          "name": "to",
          "type": "address"
        },
        {
          "internalType": "uint256",
          "name": "tokenId",
          "type": "uint256"
        }
      ],
      "name": "safeTransferFrom",
      "outputs": [],
      "stateMutability": "nonpayable",
      "type": "function"
    },
    {
      "inputs": [
        {
          "internalType": "address",
          "name": "from",
          "type": "address"
        },
        {
          "internalType": "address",
          "name": "to",
          "type": "address"
        },
        {
          "internalType": "uint256",
          "name": "tokenId",
          "type": "uint256"
        },
        {
          "internalType": "bytes",
          "name": "data",
          "type": "bytes"
        }
      ],
      "name": "safeTransferFrom",
      "outputs": [],
      "stateMutability": "nonpayable",
      "type": "function"
    },
    {
      "inputs": [
        {
          "internalType": "address",
          "name": "operator",
          "type": "address"
        },
        {
          "internalType": "bool",
          "name": "approved",
          "type": "bool"
        }
      ],
      "name": "setApprovalForAll",
      "outputs": [],
      "stateMutability": "nonpayable",
      "type": "function"
    },
    {
      "inputs": [
        {
          "internalType": "bytes4",
          "name": "interfaceId",
          "type": "bytes4"
        }
      ],
      "name": "supportsInterface",
      "outputs": [
        {
          "internalType": "bool",
          "name": "",
          "type": "bool"
        }
      ],
      "stateMutability": "view",
      "type": "function",
      "constant": true
    },
    {
      "inputs": [],
      "name": "symbol",
      "outputs": [
        {
          "internalType": "string",
          "name": "",
          "type": "string"
        }
      ],
      "stateMutability": "view",
      "type": "function",
      "constant": true
    },
    {
      "inputs": [
        {
          "internalType": "uint256",
          "name": "index",
          "type": "uint256"
        }
      ],
      "name": "tokenByIndex",
      "outputs": [
        {
          "internalType": "uint256",
          "name": "",
          "type": "uint256"
        }
      ],
      "stateMutability": "view",
      "type": "function",
      "constant": true
    },
    {
      "inputs": [
        {
          "internalType": "address",
          "name": "owner",
          "type": "address"
        },
        {
          "internalType": "uint256",
          "name": "index",
          "type": "uint256"
        }
      ],
      "name": "tokenOfOwnerByIndex",
      "outputs": [
        {
          "internalType": "uint256",
          "name": "",
          "type": "uint256"
        }
      ],
      "stateMutability": "view",
      "type": "function",
      "constant": true
    },
    {
      "inputs": [],
      "name": "totalSupply",
      "outputs": [
        {
          "internalType": "uint256",
          "name": "",
          "type": "uint256"
        }
      ],
      "stateMutability": "view",
      "type": "function",
      "constant": true
    },
    {
      "inputs": [
        {
          "internalType": "address",
          "name": "from",
          "type": "address"
        },
        {
          "internalType": "address",
          "name": "to",
          "type": "address"
        },
        {
          "internalType": "uint256",
          "name": "tokenId",
          "type": "uint256"
        }
      ],
      "name": "transferFrom",
      "outputs": [],
      "stateMutability": "nonpayable",
      "type": "function"
    },
    {
      "inputs": [
        {
          "internalType": "address",
          "name": "newOwner",
          "type": "address"
        }
      ],
      "name": "transferOwnership",
      "outputs": [],
      "stateMutability": "nonpayable",
      "type": "function"
    },
    {
      "inputs": [
        {
          "internalType": "address",
          "name": "receiver",
          "type": "address"
        }
      ],
      "name": "mint",
      "outputs": [],
      "stateMutability": "payable",
      "type": "function",
      "payable": true
    },
    {
      "inputs": [
        {
          "internalType": "address",
          "name": "owner",
          "type": "address"
        }
      ],
      "name": "getNFTContributions",
      "outputs": [
        {
          "internalType": "string[]",
          "name": "",
          "type": "string[]"
        }
      ],
      "stateMutability": "view",
      "type": "function",
      "constant": true
    },
    {
      "inputs": [
        {
          "internalType": "address",
          "name": "owner",
          "type": "address"
        },
        {
          "internalType": "address",
          "name": "newOwner",
          "type": "address"
        }
      ],
      "name": "transferNFTContributions",
      "outputs": [],
      "stateMutability": "nonpayable",
      "type": "function"
    },
    {
      "inputs": [
        {
          "internalType": "address",
          "name": "owner",
          "type": "address"
        },
        {
          "internalType": "string",
          "name": "comment",
          "type": "string"
        }
      ],
      "name": "updateScore",
      "outputs": [],
      "stateMutability": "nonpayable",
      "type": "function"
    },
    {
      "inputs": [
        {
          "internalType": "address",
          "name": "_address",
          "type": "address"
        }
      ],
      "name": "isModerator",
      "outputs": [
        {
          "internalType": "bool",
          "name": "",
          "type": "bool"
        }
      ],
      "stateMutability": "view",
      "type": "function",
      "constant": true
    },
    {
      "inputs": [
        {
          "internalType": "address",
          "name": "newModerator",
          "type": "address"
        }
      ],
      "name": "addModerator",
      "outputs": [],
      "stateMutability": "nonpayable",
      "type": "function"
    },
    {
      "inputs": [
        {
          "internalType": "address",
          "name": "_owner",
          "type": "address"
        }
      ],
      "name": "walletOfOwner",
      "outputs": [
        {
          "internalType": "uint256[]",
          "name": "",
          "type": "uint256[]"
        }
      ],
      "stateMutability": "view",
      "type": "function",
      "constant": true
    },
    {
      "inputs": [
        {
          "internalType": "uint256",
          "name": "tokenId",
          "type": "uint256"
        }
      ],
      "name": "tokenURI",
      "outputs": [
        {
          "internalType": "string",
          "name": "",
          "type": "string"
        }
      ],
      "stateMutability": "view",
      "type": "function",
      "constant": true
    },
    {
      "inputs": [
        {
          "internalType": "string",
          "name": "_newBaseURI",
          "type": "string"
        }
      ],
      "name": "setBaseURI",
      "outputs": [],
      "stateMutability": "nonpayable",
      "type": "function"
    },
    {
      "inputs": [
        {
          "internalType": "string",
          "name": "_newBaseExtension",
          "type": "string"
        }
      ],
      "name": "setBaseExtension",
      "outputs": [],
      "stateMutability": "nonpayable",
      "type": "function"
    },
    {
      "inputs": [
        {
          "internalType": "bool",
          "name": "_state",
          "type": "bool"
        }
      ],
      "name": "pause",
      "outputs": [],
      "stateMutability": "nonpayable",
      "type": "function"
    },
    {
      "inputs": [
        {
          "internalType": "address",
          "name": "user",
          "type": "address"
        },
        {
          "internalType": "uint256",
          "name": "score",
          "type": "uint256"
        }
      ],
      "name": "setScore",
      "outputs": [],
      "stateMutability": "nonpayable",
      "type": "function"
    },
    {
      "inputs": [
        {
          "internalType": "address",
          "name": "user",
          "type": "address"
        }
      ],
      "name": "getScore",
      "outputs": [
        {
          "internalType": "uint256",
          "name": "",
          "type": "uint256"
        }
      ],
      "stateMutability": "view",
      "type": "function",
      "constant": true
    },
    {
      "inputs": [
        {
          "internalType": "uint256",
          "name": "tokenId",
          "type": "uint256"
        }
      ],
      "name": "tokenExists",
      "outputs": [
        {
          "internalType": "bool",
          "name": "",
          "type": "bool"
        }
      ],
      "stateMutability": "view",
      "type": "function",
      "constant": true
    },
    {
      "inputs": [],
      "name": "withdraw",
      "outputs": [],
      "stateMutability": "payable",
      "type": "function",
      "payable": true
    }
  ],
  "bytecode": "0x60806040526040518060400160405280600581526020017f2e6a736f6e000000000000000000000000000000000000000000000000000000815250600c90816200004a91906200129f565b50612710600d556000600e60006101000a81548160ff0219169083151502179055503480156200007957600080fd5b5060405162006e1e38038062006e1e83398181016040528101906200009f9190620014ea565b82828160009081620000b291906200129f565b508060019081620000c491906200129f565b505050620000e7620000db6200012160201b60201c565b6200012960201b60201c565b620000f881620001ef60201b60201c565b620001186200010c6200021460201b60201c565b6200023e60201b60201c565b50505062001cc1565b600033905090565b6000600a60009054906101000a900473ffffffffffffffffffffffffffffffffffffffff16905081600a60006101000a81548173ffffffffffffffffffffffffffffffffffffffff021916908373ffffffffffffffffffffffffffffffffffffffff1602179055508173ffffffffffffffffffffffffffffffffffffffff168173ffffffffffffffffffffffffffffffffffffffff167f8be0079c531659141344cd1fd0a4f28419497f9722a3daafe3b4186f6b6457e060405160405180910390a35050565b620001ff620003ac60201b60201c565b80600b90816200021091906200129f565b5050565b6000600a60009054906101000a900473ffffffffffffffffffffffffffffffffffffffff16905090565b600e60009054906101000a900460ff161562000291576040517f08c379a0000000000000000000000000000000000000000000000000000000008152600401620002889062001604565b60405180910390fd5b60006001620002a56200043d60201b60201c565b620002b1919062001655565b9050600d54811115620002fb576040517f08c379a0000000000000000000000000000000000000000000000000000000008152600401620002f290620016e0565b60405180910390fd5b60006200030e836200044a60201b60201c565b1462000351576040517f08c379a0000000000000000000000000000000000000000000000000000000008152600401620003489062001752565b60405180910390fd5b6000601060008473ffffffffffffffffffffffffffffffffffffffff1673ffffffffffffffffffffffffffffffffffffffff16815260200190815260200160002081905550620003a882826200050460201b60201c565b5050565b620003bc6200012160201b60201c565b73ffffffffffffffffffffffffffffffffffffffff16620003e26200021460201b60201c565b73ffffffffffffffffffffffffffffffffffffffff16146200043b576040517f08c379a00000000000000000000000000000000000000000000000000000000081526004016200043290620017c4565b60405180910390fd5b565b6000600880549050905090565b60008073ffffffffffffffffffffffffffffffffffffffff168273ffffffffffffffffffffffffffffffffffffffff1603620004bd576040517f08c379a0000000000000000000000000000000000000000000000000000000008152600401620004b4906200185c565b60405180910390fd5b600360008373ffffffffffffffffffffffffffffffffffffffff1673ffffffffffffffffffffffffffffffffffffffff168152602001908152602001600020549050919050565b620005268282604051806020016040528060008152506200052a60201b60201c565b5050565b6200053c83836200059860201b60201c565b620005516000848484620007de60201b60201c565b62000593576040517f08c379a00000000000000000000000000000000000000000000000000000000081526004016200058a90620018f4565b60405180910390fd5b505050565b600073ffffffffffffffffffffffffffffffffffffffff168273ffffffffffffffffffffffffffffffffffffffff16036200060a576040517f08c379a0000000000000000000000000000000000000000000000000000000008152600401620006019062001966565b60405180910390fd5b6200061b816200098760201b60201c565b156200065e576040517f08c379a00000000000000000000000000000000000000000000000000000000081526004016200065590620019d8565b60405180910390fd5b62000674600083836001620009d060201b60201c565b62000685816200098760201b60201c565b15620006c8576040517f08c379a0000000000000000000000000000000000000000000000000000000008152600401620006bf90620019d8565b60405180910390fd5b6001600360008473ffffffffffffffffffffffffffffffffffffffff1673ffffffffffffffffffffffffffffffffffffffff16815260200190815260200160002060008282540192505081905550816002600083815260200190815260200160002060006101000a81548173ffffffffffffffffffffffffffffffffffffffff021916908373ffffffffffffffffffffffffffffffffffffffff160217905550808273ffffffffffffffffffffffffffffffffffffffff16600073ffffffffffffffffffffffffffffffffffffffff167fddf252ad1be2c89b69c2b068fc378daa952ba7f163c4a11628f55a4df523b3ef60405160405180910390a4620007da60008383600162000b6460201b60201c565b5050565b60006200080c8473ffffffffffffffffffffffffffffffffffffffff1662000b6a60201b62001dd81760201c565b156200097a578373ffffffffffffffffffffffffffffffffffffffff1663150b7a026200083e6200012160201b60201c565b8786866040518563ffffffff1660e01b815260040162000862949392919062001aad565b6020604051808303816000875af1925050508015620008a157506040513d601f19601f820116820180604052508101906200089e919062001b5e565b60015b62000929573d8060008114620008d4576040519150601f19603f3d011682016040523d82523d6000602084013e620008d9565b606091505b50600081510362000921576040517f08c379a00000000000000000000000000000000000000000000000000000000081526004016200091890620018f4565b60405180910390fd5b805181602001fd5b63150b7a0260e01b7bffffffffffffffffffffffffffffffffffffffffffffffffffffffff1916817bffffffffffffffffffffffffffffffffffffffffffffffffffffffff1916149150506200097f565b600190505b949350505050565b60008073ffffffffffffffffffffffffffffffffffffffff16620009b18362000b8d60201b60201c565b73ffffffffffffffffffffffffffffffffffffffff1614159050919050565b620009e98484848462000bca60201b62001dfb1760201c565b600181111562000a30576040517f08c379a000000000000000000000000000000000000000000000000000000000815260040162000a279062001c06565b60405180910390fd5b6000829050600073ffffffffffffffffffffffffffffffffffffffff168573ffffffffffffffffffffffffffffffffffffffff160362000a815762000a7b8162000cf760201b60201c565b62000ac9565b8373ffffffffffffffffffffffffffffffffffffffff168573ffffffffffffffffffffffffffffffffffffffff161462000ac85762000ac7858262000d4060201b60201c565b5b5b600073ffffffffffffffffffffffffffffffffffffffff168473ffffffffffffffffffffffffffffffffffffffff160362000b155762000b0f8162000ebd60201b60201c565b62000b5d565b8473ffffffffffffffffffffffffffffffffffffffff168473ffffffffffffffffffffffffffffffffffffffff161462000b5c5762000b5b848262000f9960201b60201c565b5b5b5050505050565b50505050565b6000808273ffffffffffffffffffffffffffffffffffffffff163b119050919050565b60006002600083815260200190815260200160002060009054906101000a900473ffffffffffffffffffffffffffffffffffffffff169050919050565b600181111562000cf157600073ffffffffffffffffffffffffffffffffffffffff168473ffffffffffffffffffffffffffffffffffffffff161462000c625780600360008673ffffffffffffffffffffffffffffffffffffffff1673ffffffffffffffffffffffffffffffffffffffff168152602001908152602001600020600082825462000c5a919062001c28565b925050819055505b600073ffffffffffffffffffffffffffffffffffffffff168373ffffffffffffffffffffffffffffffffffffffff161462000cf05780600360008573ffffffffffffffffffffffffffffffffffffffff1673ffffffffffffffffffffffffffffffffffffffff168152602001908152602001600020600082825462000ce8919062001655565b925050819055505b5b50505050565b6008805490506009600083815260200190815260200160002081905550600881908060018154018082558091505060019003906000526020600020016000909190919091505550565b6000600162000d5a846200044a60201b620013a81760201c565b62000d66919062001c28565b905060006007600084815260200190815260200160002054905081811462000e4c576000600660008673ffffffffffffffffffffffffffffffffffffffff1673ffffffffffffffffffffffffffffffffffffffff168152602001908152602001600020600084815260200190815260200160002054905080600660008773ffffffffffffffffffffffffffffffffffffffff1673ffffffffffffffffffffffffffffffffffffffff168152602001908152602001600020600084815260200190815260200160002081905550816007600083815260200190815260200160002081905550505b6007600084815260200190815260200160002060009055600660008573ffffffffffffffffffffffffffffffffffffffff1673ffffffffffffffffffffffffffffffffffffffff16815260200190815260200160002060008381526020019081526020016000206000905550505050565b6000600160088054905062000ed3919062001c28565b905060006009600084815260200190815260200160002054905060006008838154811062000f065762000f0562001c63565b5b90600052602060002001549050806008838154811062000f2b5762000f2a62001c63565b5b90600052602060002001819055508160096000838152602001908152602001600020819055506009600085815260200190815260200160002060009055600880548062000f7d5762000f7c62001c92565b5b6001900381819060005260206000200160009055905550505050565b600062000fb1836200044a60201b620013a81760201c565b905081600660008573ffffffffffffffffffffffffffffffffffffffff1673ffffffffffffffffffffffffffffffffffffffff168152602001908152602001600020600083815260200190815260200160002081905550806007600084815260200190815260200160002081905550505050565b600081519050919050565b7f4e487b7100000000000000000000000000000000000000000000000000000000600052604160045260246000fd5b7f4e487b7100000000000000000000000000000000000000000000000000000000600052602260045260246000fd5b60006002820490506001821680620010a757607f821691505b602082108103620010bd57620010bc6200105f565b5b50919050565b60008190508160005260206000209050919050565b60006020601f8301049050919050565b600082821b905092915050565b600060088302620011277fffffffffffffffffffffffffffffffffffffffffffffffffffffffffffffffff82620010e8565b620011338683620010e8565b95508019841693508086168417925050509392505050565b6000819050919050565b6000819050919050565b6000620011806200117a62001174846200114b565b62001155565b6200114b565b9050919050565b6000819050919050565b6200119c836200115f565b620011b4620011ab8262001187565b848454620010f5565b825550505050565b600090565b620011cb620011bc565b620011d881848462001191565b505050565b5b818110156200120057620011f4600082620011c1565b600181019050620011de565b5050565b601f8211156200124f576200121981620010c3565b6200122484620010d8565b8101602085101562001234578190505b6200124c6200124385620010d8565b830182620011dd565b50505b505050565b600082821c905092915050565b6000620012746000198460080262001254565b1980831691505092915050565b60006200128f838362001261565b9150826002028217905092915050565b620012aa8262001025565b67ffffffffffffffff811115620012c657620012c562001030565b5b620012d282546200108e565b620012df82828562001204565b600060209050601f83116001811462001317576000841562001302578287015190505b6200130e858262001281565b8655506200137e565b601f1984166200132786620010c3565b60005b8281101562001351578489015182556001820191506020850194506020810190506200132a565b868310156200137157848901516200136d601f89168262001261565b8355505b6001600288020188555050505b505050505050565b6000604051905090565b600080fd5b600080fd5b600080fd5b600080fd5b6000601f19601f8301169050919050565b620013c082620013a4565b810181811067ffffffffffffffff82111715620013e257620013e162001030565b5b80604052505050565b6000620013f762001386565b9050620014058282620013b5565b919050565b600067ffffffffffffffff82111562001428576200142762001030565b5b6200143382620013a4565b9050602081019050919050565b60005b838110156200146057808201518184015260208101905062001443565b60008484015250505050565b6000620014836200147d846200140a565b620013eb565b905082815260208101848484011115620014a257620014a16200139f565b5b620014af84828562001440565b509392505050565b600082601f830112620014cf57620014ce6200139a565b5b8151620014e18482602086016200146c565b91505092915050565b60008060006060848603121562001506576200150562001390565b5b600084015167ffffffffffffffff81111562001527576200152662001395565b5b6200153586828701620014b7565b935050602084015167ffffffffffffffff81111562001559576200155862001395565b5b6200156786828701620014b7565b925050604084015167ffffffffffffffff8111156200158b576200158a62001395565b5b6200159986828701620014b7565b9150509250925092565b600082825260208201905092915050565b7f74686520636f6e74726163742069732070617573656400000000000000000000600082015250565b6000620015ec601683620015a3565b9150620015f982620015b4565b602082019050919050565b600060208201905081810360008301526200161f81620015dd565b9050919050565b7f4e487b7100000000000000000000000000000000000000000000000000000000600052601160045260246000fd5b600062001662826200114b565b91506200166f836200114b565b92508282019050808211156200168a576200168962001626565b5b92915050565b7f6d6178204e4654206c696d697420657863656564656400000000000000000000600082015250565b6000620016c8601683620015a3565b9150620016d58262001690565b602082019050919050565b60006020820190508181036000830152620016fb81620016b9565b9050919050565b7f6f6e6c79206f6e65206e66742070657220757365720000000000000000000000600082015250565b60006200173a601583620015a3565b9150620017478262001702565b602082019050919050565b600060208201905081810360008301526200176d816200172b565b9050919050565b7f4f776e61626c653a2063616c6c6572206973206e6f7420746865206f776e6572600082015250565b6000620017ac602083620015a3565b9150620017b98262001774565b602082019050919050565b60006020820190508181036000830152620017df816200179d565b9050919050565b7f4552433732313a2061646472657373207a65726f206973206e6f74206120766160008201527f6c6964206f776e65720000000000000000000000000000000000000000000000602082015250565b600062001844602983620015a3565b91506200185182620017e6565b604082019050919050565b60006020820190508181036000830152620018778162001835565b9050919050565b7f4552433732313a207472616e7366657220746f206e6f6e20455243373231526560008201527f63656976657220696d706c656d656e7465720000000000000000000000000000602082015250565b6000620018dc603283620015a3565b9150620018e9826200187e565b604082019050919050565b600060208201905081810360008301526200190f81620018cd565b9050919050565b7f4552433732313a206d696e7420746f20746865207a65726f2061646472657373600082015250565b60006200194e602083620015a3565b91506200195b8262001916565b602082019050919050565b6000602082019050818103600083015262001981816200193f565b9050919050565b7f4552433732313a20746f6b656e20616c7265616479206d696e74656400000000600082015250565b6000620019c0601c83620015a3565b9150620019cd8262001988565b602082019050919050565b60006020820190508181036000830152620019f381620019b1565b9050919050565b600073ffffffffffffffffffffffffffffffffffffffff82169050919050565b600062001a2782620019fa565b9050919050565b62001a398162001a1a565b82525050565b62001a4a816200114b565b82525050565b600081519050919050565b600082825260208201905092915050565b600062001a798262001a50565b62001a85818562001a5b565b935062001a9781856020860162001440565b62001aa281620013a4565b840191505092915050565b600060808201905062001ac4600083018762001a2e565b62001ad3602083018662001a2e565b62001ae2604083018562001a3f565b818103606083015262001af6818462001a6c565b905095945050505050565b60007fffffffff0000000000000000000000000000000000000000000000000000000082169050919050565b62001b388162001b01565b811462001b4457600080fd5b50565b60008151905062001b588162001b2d565b92915050565b60006020828403121562001b775762001b7662001390565b5b600062001b878482850162001b47565b91505092915050565b7f455243373231456e756d657261626c653a20636f6e736563757469766520747260008201527f616e7366657273206e6f7420737570706f727465640000000000000000000000602082015250565b600062001bee603583620015a3565b915062001bfb8262001b90565b604082019050919050565b6000602082019050818103600083015262001c218162001bdf565b9050919050565b600062001c35826200114b565b915062001c42836200114b565b925082820390508181111562001c5d5762001c5c62001626565b5b92915050565b7f4e487b7100000000000000000000000000000000000000000000000000000000600052603260045260246000fd5b7f4e487b7100000000000000000000000000000000000000000000000000000000600052603160045260246000fd5b61514d8062001cd16000396000f3fe60806040526004361061023a5760003560e01c80636c0360eb1161012e578063bd842a11116100ab578063da3ef23f1161006f578063da3ef23f146108c4578063e985e9c5146108ed578063ee0fcc751461092a578063f2fde38b14610953578063fa6f39361461097c5761023a565b8063bd842a11146107b7578063c6682862146107f4578063c87b56dd1461081f578063d47875d01461085c578063d5abeb01146108995761023a565b8063a22cb465116100f2578063a22cb465146106ea578063ac21d3aa14610713578063b532e4cb1461073c578063b7e8d46714610765578063b88d4fde1461078e5761023a565b80636c0360eb1461061557806370a0823114610640578063715018a61461067d5780638da5cb5b1461069457806395d89b41146106bf5761023a565b80633085af38116101bc57806355f804b31161018057806355f804b31461052b5780635c975abb146105545780636352211e1461057f5780636430e3a1146105bc5780636a627842146105f95761023a565b80633085af38146104415780633ccfd60b1461047e57806342842e0e14610488578063438b6300146104b15780634f6ccce7146104ee5761023a565b8063095ea7b311610203578063095ea7b31461034a57806318160ddd1461037357806323b872dd1461039e5780632f745c59146103c7578063301446bc146104045761023a565b8062923f9e1461023f57806301ffc9a71461027c57806302329a29146102b957806306fdde03146102e2578063081812fc1461030d575b600080fd5b34801561024b57600080fd5b50610266600480360381019061026191906134b7565b6109b9565b60405161027391906134ff565b60405180910390f35b34801561028857600080fd5b506102a3600480360381019061029e9190613572565b6109cb565b6040516102b091906134ff565b60405180910390f35b3480156102c557600080fd5b506102e060048036038101906102db91906135cb565b610a45565b005b3480156102ee57600080fd5b506102f7610a6a565b6040516103049190613688565b60405180910390f35b34801561031957600080fd5b50610334600480360381019061032f91906134b7565b610afc565b60405161034191906136eb565b60405180910390f35b34801561035657600080fd5b50610371600480360381019061036c9190613732565b610b42565b005b34801561037f57600080fd5b50610388610c59565b6040516103959190613781565b60405180910390f35b3480156103aa57600080fd5b506103c560048036038101906103c0919061379c565b610c66565b005b3480156103d357600080fd5b506103ee60048036038101906103e99190613732565b610cc6565b6040516103fb9190613781565b60405180910390f35b34801561041057600080fd5b5061042b600480360381019061042691906137ef565b610d6b565b6040516104389190613928565b60405180910390f35b34801561044d57600080fd5b50610468600480360381019061046391906137ef565b610e83565b6040516104759190613781565b60405180910390f35b610486610e9b565b005b34801561049457600080fd5b506104af60048036038101906104aa919061379c565b610f23565b005b3480156104bd57600080fd5b506104d860048036038101906104d391906137ef565b610f43565b6040516104e59190613a08565b60405180910390f35b3480156104fa57600080fd5b50610515600480360381019061051091906134b7565b610ff1565b6040516105229190613781565b60405180910390f35b34801561053757600080fd5b50610552600480360381019061054d9190613b5f565b611062565b005b34801561056057600080fd5b5061056961107d565b60405161057691906134ff565b60405180910390f35b34801561058b57600080fd5b506105a660048036038101906105a191906134b7565b611090565b6040516105b391906136eb565b60405180910390f35b3480156105c857600080fd5b506105e360048036038101906105de9190613732565b611116565b6040516105f09190613688565b60405180910390f35b610613600480360381019061060e91906137ef565b6111cf565b005b34801561062157600080fd5b5061062a61131a565b6040516106379190613688565b60405180910390f35b34801561064c57600080fd5b50610667600480360381019061066291906137ef565b6113a8565b6040516106749190613781565b60405180910390f35b34801561068957600080fd5b5061069261145f565b005b3480156106a057600080fd5b506106a9611473565b6040516106b691906136eb565b60405180910390f35b3480156106cb57600080fd5b506106d461149d565b6040516106e19190613688565b60405180910390f35b3480156106f657600080fd5b50610711600480360381019061070c9190613ba8565b61152f565b005b34801561071f57600080fd5b5061073a60048036038101906107359190613be8565b611545565b005b34801561074857600080fd5b50610763600480360381019061075e91906137ef565b611735565b005b34801561077157600080fd5b5061078c60048036038101906107879190613c28565b611820565b005b34801561079a57600080fd5b506107b560048036038101906107b09190613d25565b611988565b005b3480156107c357600080fd5b506107de60048036038101906107d991906134b7565b6119ea565b6040516107eb91906136eb565b60405180910390f35b34801561080057600080fd5b50610809611a29565b6040516108169190613688565b60405180910390f35b34801561082b57600080fd5b50610846600480360381019061084191906134b7565b611ab7565b6040516108539190613688565b60405180910390f35b34801561086857600080fd5b50610883600480360381019061087e91906137ef565b611b61565b6040516108909190613781565b60405180910390f35b3480156108a557600080fd5b506108ae611baa565b6040516108bb9190613781565b60405180910390f35b3480156108d057600080fd5b506108eb60048036038101906108e69190613b5f565b611bb0565b005b3480156108f957600080fd5b50610914600480360381019061090f9190613be8565b611bcb565b60405161092191906134ff565b60405180910390f35b34801561093657600080fd5b50610951600480360381019061094c9190613732565b611c5f565b005b34801561095f57600080fd5b5061097a600480360381019061097591906137ef565b611ca7565b005b34801561098857600080fd5b506109a3600480360381019061099e91906137ef565b611d2a565b6040516109b091906134ff565b60405180910390f35b60006109c482611f21565b9050919050565b60007f780e9d63000000000000000000000000000000000000000000000000000000007bffffffffffffffffffffffffffffffffffffffffffffffffffffffff1916827bffffffffffffffffffffffffffffffffffffffffffffffffffffffff19161480610a3e5750610a3d82611f62565b5b9050919050565b610a4d612044565b80600e60006101000a81548160ff02191690831515021790555050565b606060008054610a7990613dd7565b80601f0160208091040260200160405190810160405280929190818152602001828054610aa590613dd7565b8015610af25780601f10610ac757610100808354040283529160200191610af2565b820191906000526020600020905b815481529060010190602001808311610ad557829003601f168201915b5050505050905090565b6000610b07826120c2565b6004600083815260200190815260200160002060009054906101000a900473ffffffffffffffffffffffffffffffffffffffff169050919050565b6000610b4d82611090565b90508073ffffffffffffffffffffffffffffffffffffffff168373ffffffffffffffffffffffffffffffffffffffff1603610bbd576040517f08c379a0000000000000000000000000000000000000000000000000000000008152600401610bb490613e7a565b60405180910390fd5b8073ffffffffffffffffffffffffffffffffffffffff16610bdc61210d565b73ffffffffffffffffffffffffffffffffffffffff161480610c0b5750610c0a81610c0561210d565b611bcb565b5b610c4a576040517f08c379a0000000000000000000000000000000000000000000000000000000008152600401610c4190613f0c565b60405180910390fd5b610c548383612115565b505050565b6000600880549050905090565b610c77610c7161210d565b826121ce565b610cb6576040517f08c379a0000000000000000000000000000000000000000000000000000000008152600401610cad90613f9e565b60405180910390fd5b610cc1838383612263565b505050565b6000610cd1836113a8565b8210610d12576040517f08c379a0000000000000000000000000000000000000000000000000000000008152600401610d0990614030565b60405180910390fd5b600660008473ffffffffffffffffffffffffffffffffffffffff1673ffffffffffffffffffffffffffffffffffffffff168152602001908152602001600020600083815260200190815260200160002054905092915050565b6060601160008373ffffffffffffffffffffffffffffffffffffffff1673ffffffffffffffffffffffffffffffffffffffff168152602001908152602001600020805480602002602001604051908101604052809291908181526020016000905b82821015610e78578382906000526020600020018054610deb90613dd7565b80601f0160208091040260200160405190810160405280929190818152602001828054610e1790613dd7565b8015610e645780601f10610e3957610100808354040283529160200191610e64565b820191906000526020600020905b815481529060010190602001808311610e4757829003601f168201915b505050505081526020019060010190610dcc565b505050509050919050565b60106020528060005260406000206000915090505481565b610ea3612044565b6000610ead611473565b73ffffffffffffffffffffffffffffffffffffffff1647604051610ed090614081565b60006040518083038185875af1925050503d8060008114610f0d576040519150601f19603f3d011682016040523d82523d6000602084013e610f12565b606091505b5050905080610f2057600080fd5b50565b610f3e83838360405180602001604052806000815250611988565b505050565b60606000610f50836113a8565b905060008167ffffffffffffffff811115610f6e57610f6d613a34565b5b604051908082528060200260200182016040528015610f9c5781602001602082028036833780820191505090505b50905060005b82811015610fe657610fb48582610cc6565b828281518110610fc757610fc6614096565b5b6020026020010181815250508080610fde906140f4565b915050610fa2565b508092505050919050565b6000610ffb610c59565b821061103c576040517f08c379a0000000000000000000000000000000000000000000000000000000008152600401611033906141ae565b60405180910390fd5b600882815481106110505761104f614096565b5b90600052602060002001549050919050565b61106a612044565b80600b9081611079919061437a565b5050565b600e60009054906101000a900460ff1681565b60008061109c8361255c565b9050600073ffffffffffffffffffffffffffffffffffffffff168173ffffffffffffffffffffffffffffffffffffffff160361110d576040517f08c379a000000000000000000000000000000000000000000000000000000000815260040161110490614498565b60405180910390fd5b80915050919050565b6011602052816000526040600020818154811061113257600080fd5b9060005260206000200160009150915050805461114e90613dd7565b80601f016020809104026020016040519081016040528092919081815260200182805461117a90613dd7565b80156111c75780601f1061119c576101008083540402835291602001916111c7565b820191906000526020600020905b8154815290600101906020018083116111aa57829003601f168201915b505050505081565b600e60009054906101000a900460ff161561121f576040517f08c379a000000000000000000000000000000000000000000000000000000000815260040161121690614504565b60405180910390fd5b6000600161122b610c59565b6112359190614524565b9050600d5481111561127c576040517f08c379a0000000000000000000000000000000000000000000000000000000008152600401611273906145a4565b60405180910390fd5b6000611287836113a8565b146112c7576040517f08c379a00000000000000000000000000000000000000000000000000000000081526004016112be90614610565b60405180910390fd5b6000601060008473ffffffffffffffffffffffffffffffffffffffff1673ffffffffffffffffffffffffffffffffffffffff168152602001908152602001600020819055506113168282612599565b5050565b600b805461132790613dd7565b80601f016020809104026020016040519081016040528092919081815260200182805461135390613dd7565b80156113a05780601f10611375576101008083540402835291602001916113a0565b820191906000526020600020905b81548152906001019060200180831161138357829003601f168201915b505050505081565b60008073ffffffffffffffffffffffffffffffffffffffff168273ffffffffffffffffffffffffffffffffffffffff1603611418576040517f08c379a000000000000000000000000000000000000000000000000000000000815260040161140f906146a2565b60405180910390fd5b600360008373ffffffffffffffffffffffffffffffffffffffff1673ffffffffffffffffffffffffffffffffffffffff168152602001908152602001600020549050919050565b611467612044565b61147160006125b7565b565b6000600a60009054906101000a900473ffffffffffffffffffffffffffffffffffffffff16905090565b6060600180546114ac90613dd7565b80601f01602080910402602001604051908101604052809291908181526020018280546114d890613dd7565b80156115255780601f106114fa57610100808354040283529160200191611525565b820191906000526020600020905b81548152906001019060200180831161150857829003601f168201915b5050505050905090565b61154161153a61210d565b838361267d565b5050565b8073ffffffffffffffffffffffffffffffffffffffff168273ffffffffffffffffffffffffffffffffffffffff16036115b3576040517f08c379a00000000000000000000000000000000000000000000000000000000081526004016115aa90614734565b60405180910390fd5b6000601160008473ffffffffffffffffffffffffffffffffffffffff1673ffffffffffffffffffffffffffffffffffffffff16815260200190815260200160002080549050905060005b818110156116e457601160008473ffffffffffffffffffffffffffffffffffffffff1673ffffffffffffffffffffffffffffffffffffffff168152602001908152602001600020601160008673ffffffffffffffffffffffffffffffffffffffff1673ffffffffffffffffffffffffffffffffffffffff168152602001908152602001600020828154811061169557611694614096565b5b906000526020600020019080600181540180825580915050600190039060005260206000200160009091909190915090816116d0919061477f565b5080806116dc906140f4565b9150506115fd565b50601160008473ffffffffffffffffffffffffffffffffffffffff1673ffffffffffffffffffffffffffffffffffffffff168152602001908152602001600020600061173091906133cb565b505050565b61173e33611d2a565b8061177b575061174c611473565b73ffffffffffffffffffffffffffffffffffffffff163373ffffffffffffffffffffffffffffffffffffffff16145b6117ba576040517f08c379a00000000000000000000000000000000000000000000000000000000081526004016117b1906148b3565b60405180910390fd5b600f819080600181540180825580915050600190039060005260206000200160009091909190916101000a81548173ffffffffffffffffffffffffffffffffffffffff021916908373ffffffffffffffffffffffffffffffffffffffff16021790555050565b61182933611d2a565b611868576040517f08c379a000000000000000000000000000000000000000000000000000000000815260040161185f906148b3565b60405180910390fd5b6000611875836000610cc6565b9050600081036118ba576040517f08c379a00000000000000000000000000000000000000000000000000000000081526004016118b19061491f565b60405180910390fd5b600a601060008573ffffffffffffffffffffffffffffffffffffffff1673ffffffffffffffffffffffffffffffffffffffff168152602001908152602001600020600082825461190a9190614524565b92505081905550601160008473ffffffffffffffffffffffffffffffffffffffff1673ffffffffffffffffffffffffffffffffffffffff16815260200190815260200160002082908060018154018082558091505060019003906000526020600020016000909190919091509081611982919061437a565b50505050565b61199961199361210d565b836121ce565b6119d8576040517f08c379a00000000000000000000000000000000000000000000000000000000081526004016119cf90613f9e565b60405180910390fd5b6119e4848484846127e9565b50505050565b600f81815481106119fa57600080fd5b906000526020600020016000915054906101000a900473ffffffffffffffffffffffffffffffffffffffff1681565b600c8054611a3690613dd7565b80601f0160208091040260200160405190810160405280929190818152602001828054611a6290613dd7565b8015611aaf5780601f10611a8457610100808354040283529160200191611aaf565b820191906000526020600020905b815481529060010190602001808311611a9257829003601f168201915b505050505081565b6060611ac282611f21565b611b01576040517f08c379a0000000000000000000000000000000000000000000000000000000008152600401611af8906149b1565b60405180910390fd5b6000611b0b612845565b90506000815111611b2b5760405180602001604052806000815250611b59565b80611b35846128d7565b600c604051602001611b4993929190614adc565b6040516020818303038152906040525b915050919050565b6000601060008373ffffffffffffffffffffffffffffffffffffffff1673ffffffffffffffffffffffffffffffffffffffff168152602001908152602001600020549050919050565b600d5481565b611bb8612044565b80600c9081611bc7919061437a565b5050565b6000600560008473ffffffffffffffffffffffffffffffffffffffff1673ffffffffffffffffffffffffffffffffffffffff16815260200190815260200160002060008373ffffffffffffffffffffffffffffffffffffffff1673ffffffffffffffffffffffffffffffffffffffff16815260200190815260200160002060009054906101000a900460ff16905092915050565b80601060008473ffffffffffffffffffffffffffffffffffffffff1673ffffffffffffffffffffffffffffffffffffffff168152602001908152602001600020819055505050565b611caf612044565b600073ffffffffffffffffffffffffffffffffffffffff168173ffffffffffffffffffffffffffffffffffffffff1603611d1e576040517f08c379a0000000000000000000000000000000000000000000000000000000008152600401611d1590614b8a565b60405180910390fd5b611d27816125b7565b50565b600080600090505b600f80549050811015611dcd578273ffffffffffffffffffffffffffffffffffffffff16600f8281548110611d6a57611d69614096565b5b9060005260206000200160009054906101000a900473ffffffffffffffffffffffffffffffffffffffff1673ffffffffffffffffffffffffffffffffffffffff1603611dba576001915050611dd3565b8080611dc5906140f4565b915050611d32565b50600090505b919050565b6000808273ffffffffffffffffffffffffffffffffffffffff163b119050919050565b6001811115611f1b57600073ffffffffffffffffffffffffffffffffffffffff168473ffffffffffffffffffffffffffffffffffffffff1614611e8f5780600360008673ffffffffffffffffffffffffffffffffffffffff1673ffffffffffffffffffffffffffffffffffffffff1681526020019081526020016000206000828254611e879190614baa565b925050819055505b600073ffffffffffffffffffffffffffffffffffffffff168373ffffffffffffffffffffffffffffffffffffffff1614611f1a5780600360008573ffffffffffffffffffffffffffffffffffffffff1673ffffffffffffffffffffffffffffffffffffffff1681526020019081526020016000206000828254611f129190614524565b925050819055505b5b50505050565b60008073ffffffffffffffffffffffffffffffffffffffff16611f438361255c565b73ffffffffffffffffffffffffffffffffffffffff1614159050919050565b60007f80ac58cd000000000000000000000000000000000000000000000000000000007bffffffffffffffffffffffffffffffffffffffffffffffffffffffff1916827bffffffffffffffffffffffffffffffffffffffffffffffffffffffff1916148061202d57507f5b5e139f000000000000000000000000000000000000000000000000000000007bffffffffffffffffffffffffffffffffffffffffffffffffffffffff1916827bffffffffffffffffffffffffffffffffffffffffffffffffffffffff1916145b8061203d575061203c826129a5565b5b9050919050565b61204c61210d565b73ffffffffffffffffffffffffffffffffffffffff1661206a611473565b73ffffffffffffffffffffffffffffffffffffffff16146120c0576040517f08c379a00000000000000000000000000000000000000000000000000000000081526004016120b790614c2a565b60405180910390fd5b565b6120cb81611f21565b61210a576040517f08c379a000000000000000000000000000000000000000000000000000000000815260040161210190614498565b60405180910390fd5b50565b600033905090565b816004600083815260200190815260200160002060006101000a81548173ffffffffffffffffffffffffffffffffffffffff021916908373ffffffffffffffffffffffffffffffffffffffff160217905550808273ffffffffffffffffffffffffffffffffffffffff1661218883611090565b73ffffffffffffffffffffffffffffffffffffffff167f8c5be1e5ebec7d5bd14f71427d1e84f3dd0314c0f7b2291e5b200ac8c7c3b92560405160405180910390a45050565b6000806121da83611090565b90508073ffffffffffffffffffffffffffffffffffffffff168473ffffffffffffffffffffffffffffffffffffffff16148061221c575061221b8185611bcb565b5b8061225a57508373ffffffffffffffffffffffffffffffffffffffff1661224284610afc565b73ffffffffffffffffffffffffffffffffffffffff16145b91505092915050565b8273ffffffffffffffffffffffffffffffffffffffff1661228382611090565b73ffffffffffffffffffffffffffffffffffffffff16146122d9576040517f08c379a00000000000000000000000000000000000000000000000000000000081526004016122d090614cbc565b60405180910390fd5b600073ffffffffffffffffffffffffffffffffffffffff168273ffffffffffffffffffffffffffffffffffffffff1603612348576040517f08c379a000000000000000000000000000000000000000000000000000000000815260040161233f90614d4e565b60405180910390fd5b6123558383836001612a0f565b8273ffffffffffffffffffffffffffffffffffffffff1661237582611090565b73ffffffffffffffffffffffffffffffffffffffff16146123cb576040517f08c379a00000000000000000000000000000000000000000000000000000000081526004016123c290614cbc565b60405180910390fd5b6004600082815260200190815260200160002060006101000a81549073ffffffffffffffffffffffffffffffffffffffff02191690556001600360008573ffffffffffffffffffffffffffffffffffffffff1673ffffffffffffffffffffffffffffffffffffffff168152602001908152602001600020600082825403925050819055506001600360008473ffffffffffffffffffffffffffffffffffffffff1673ffffffffffffffffffffffffffffffffffffffff16815260200190815260200160002060008282540192505081905550816002600083815260200190815260200160002060006101000a81548173ffffffffffffffffffffffffffffffffffffffff021916908373ffffffffffffffffffffffffffffffffffffffff160217905550808273ffffffffffffffffffffffffffffffffffffffff168473ffffffffffffffffffffffffffffffffffffffff167fddf252ad1be2c89b69c2b068fc378daa952ba7f163c4a11628f55a4df523b3ef60405160405180910390a46125578383836001612b6d565b505050565b60006002600083815260200190815260200160002060009054906101000a900473ffffffffffffffffffffffffffffffffffffffff169050919050565b6125b3828260405180602001604052806000815250612b73565b5050565b6000600a60009054906101000a900473ffffffffffffffffffffffffffffffffffffffff16905081600a60006101000a81548173ffffffffffffffffffffffffffffffffffffffff021916908373ffffffffffffffffffffffffffffffffffffffff1602179055508173ffffffffffffffffffffffffffffffffffffffff168173ffffffffffffffffffffffffffffffffffffffff167f8be0079c531659141344cd1fd0a4f28419497f9722a3daafe3b4186f6b6457e060405160405180910390a35050565b8173ffffffffffffffffffffffffffffffffffffffff168373ffffffffffffffffffffffffffffffffffffffff16036126eb576040517f08c379a00000000000000000000000000000000000000000000000000000000081526004016126e290614dba565b60405180910390fd5b80600560008573ffffffffffffffffffffffffffffffffffffffff1673ffffffffffffffffffffffffffffffffffffffff16815260200190815260200160002060008473ffffffffffffffffffffffffffffffffffffffff1673ffffffffffffffffffffffffffffffffffffffff16815260200190815260200160002060006101000a81548160ff0219169083151502179055508173ffffffffffffffffffffffffffffffffffffffff168373ffffffffffffffffffffffffffffffffffffffff167f17307eab39ab6107e8899845ad3d59bd9653f200f220920489ca2b5937696c31836040516127dc91906134ff565b60405180910390a3505050565b6127f4848484612263565b61280084848484612bce565b61283f576040517f08c379a000000000000000000000000000000000000000000000000000000000815260040161283690614e4c565b60405180910390fd5b50505050565b6060600b805461285490613dd7565b80601f016020809104026020016040519081016040528092919081815260200182805461288090613dd7565b80156128cd5780601f106128a2576101008083540402835291602001916128cd565b820191906000526020600020905b8154815290600101906020018083116128b057829003601f168201915b5050505050905090565b6060600060016128e684612d55565b01905060008167ffffffffffffffff81111561290557612904613a34565b5b6040519080825280601f01601f1916602001820160405280156129375781602001600182028036833780820191505090505b509050600082602001820190505b60011561299a578080600190039150507f3031323334353637383961626364656600000000000000000000000000000000600a86061a8153600a858161298e5761298d614e6c565b5b04945060008503612945575b819350505050919050565b60007f01ffc9a7000000000000000000000000000000000000000000000000000000007bffffffffffffffffffffffffffffffffffffffffffffffffffffffff1916827bffffffffffffffffffffffffffffffffffffffffffffffffffffffff1916149050919050565b612a1b84848484611dfb565b6001811115612a5f576040517f08c379a0000000000000000000000000000000000000000000000000000000008152600401612a5690614f0d565b60405180910390fd5b6000829050600073ffffffffffffffffffffffffffffffffffffffff168573ffffffffffffffffffffffffffffffffffffffff1603612aa657612aa181612ea8565b612ae5565b8373ffffffffffffffffffffffffffffffffffffffff168573ffffffffffffffffffffffffffffffffffffffff1614612ae457612ae38582612ef1565b5b5b600073ffffffffffffffffffffffffffffffffffffffff168473ffffffffffffffffffffffffffffffffffffffff1603612b2757612b228161305e565b612b66565b8473ffffffffffffffffffffffffffffffffffffffff168473ffffffffffffffffffffffffffffffffffffffff1614612b6557612b64848261312f565b5b5b5050505050565b50505050565b612b7d83836131ae565b612b8a6000848484612bce565b612bc9576040517f08c379a0000000000000000000000000000000000000000000000000000000008152600401612bc090614e4c565b60405180910390fd5b505050565b6000612bef8473ffffffffffffffffffffffffffffffffffffffff16611dd8565b15612d48578373ffffffffffffffffffffffffffffffffffffffff1663150b7a02612c1861210d565b8786866040518563ffffffff1660e01b8152600401612c3a9493929190614f82565b6020604051808303816000875af1925050508015612c7657506040513d601f19601f82011682018060405250810190612c739190614fe3565b60015b612cf8573d8060008114612ca6576040519150601f19603f3d011682016040523d82523d6000602084013e612cab565b606091505b506000815103612cf0576040517f08c379a0000000000000000000000000000000000000000000000000000000008152600401612ce790614e4c565b60405180910390fd5b805181602001fd5b63150b7a0260e01b7bffffffffffffffffffffffffffffffffffffffffffffffffffffffff1916817bffffffffffffffffffffffffffffffffffffffffffffffffffffffff191614915050612d4d565b600190505b949350505050565b600080600090507a184f03e93ff9f4daa797ed6e38ed64bf6a1f0100000000000000008310612db3577a184f03e93ff9f4daa797ed6e38ed64bf6a1f0100000000000000008381612da957612da8614e6c565b5b0492506040810190505b6d04ee2d6d415b85acef81000000008310612df0576d04ee2d6d415b85acef81000000008381612de657612de5614e6c565b5b0492506020810190505b662386f26fc100008310612e1f57662386f26fc100008381612e1557612e14614e6c565b5b0492506010810190505b6305f5e1008310612e48576305f5e1008381612e3e57612e3d614e6c565b5b0492506008810190505b6127108310612e6d576127108381612e6357612e62614e6c565b5b0492506004810190505b60648310612e905760648381612e8657612e85614e6c565b5b0492506002810190505b600a8310612e9f576001810190505b80915050919050565b6008805490506009600083815260200190815260200160002081905550600881908060018154018082558091505060019003906000526020600020016000909190919091505550565b60006001612efe846113a8565b612f089190614baa565b9050600060076000848152602001908152602001600020549050818114612fed576000600660008673ffffffffffffffffffffffffffffffffffffffff1673ffffffffffffffffffffffffffffffffffffffff168152602001908152602001600020600084815260200190815260200160002054905080600660008773ffffffffffffffffffffffffffffffffffffffff1673ffffffffffffffffffffffffffffffffffffffff168152602001908152602001600020600084815260200190815260200160002081905550816007600083815260200190815260200160002081905550505b6007600084815260200190815260200160002060009055600660008573ffffffffffffffffffffffffffffffffffffffff1673ffffffffffffffffffffffffffffffffffffffff16815260200190815260200160002060008381526020019081526020016000206000905550505050565b600060016008805490506130729190614baa565b90506000600960008481526020019081526020016000205490506000600883815481106130a2576130a1614096565b5b9060005260206000200154905080600883815481106130c4576130c3614096565b5b90600052602060002001819055508160096000838152602001908152602001600020819055506009600085815260200190815260200160002060009055600880548061311357613112615010565b5b6001900381819060005260206000200160009055905550505050565b600061313a836113a8565b905081600660008573ffffffffffffffffffffffffffffffffffffffff1673ffffffffffffffffffffffffffffffffffffffff168152602001908152602001600020600083815260200190815260200160002081905550806007600084815260200190815260200160002081905550505050565b600073ffffffffffffffffffffffffffffffffffffffff168273ffffffffffffffffffffffffffffffffffffffff160361321d576040517f08c379a00000000000000000000000000000000000000000000000000000000081526004016132149061508b565b60405180910390fd5b61322681611f21565b15613266576040517f08c379a000000000000000000000000000000000000000000000000000000000815260040161325d906150f7565b60405180910390fd5b613274600083836001612a0f565b61327d81611f21565b156132bd576040517f08c379a00000000000000000000000000000000000000000000000000000000081526004016132b4906150f7565b60405180910390fd5b6001600360008473ffffffffffffffffffffffffffffffffffffffff1673ffffffffffffffffffffffffffffffffffffffff16815260200190815260200160002060008282540192505081905550816002600083815260200190815260200160002060006101000a81548173ffffffffffffffffffffffffffffffffffffffff021916908373ffffffffffffffffffffffffffffffffffffffff160217905550808273ffffffffffffffffffffffffffffffffffffffff16600073ffffffffffffffffffffffffffffffffffffffff167fddf252ad1be2c89b69c2b068fc378daa952ba7f163c4a11628f55a4df523b3ef60405160405180910390a46133c7600083836001612b6d565b5050565b50805460008255906000526020600020908101906133e991906133ec565b50565b5b8082111561340c57600081816134039190613410565b506001016133ed565b5090565b50805461341c90613dd7565b6000825580601f1061342e575061344d565b601f01602090049060005260206000209081019061344c9190613450565b5b50565b5b80821115613469576000816000905550600101613451565b5090565b6000604051905090565b600080fd5b600080fd5b6000819050919050565b61349481613481565b811461349f57600080fd5b50565b6000813590506134b18161348b565b92915050565b6000602082840312156134cd576134cc613477565b5b60006134db848285016134a2565b91505092915050565b60008115159050919050565b6134f9816134e4565b82525050565b600060208201905061351460008301846134f0565b92915050565b60007fffffffff0000000000000000000000000000000000000000000000000000000082169050919050565b61354f8161351a565b811461355a57600080fd5b50565b60008135905061356c81613546565b92915050565b60006020828403121561358857613587613477565b5b60006135968482850161355d565b91505092915050565b6135a8816134e4565b81146135b357600080fd5b50565b6000813590506135c58161359f565b92915050565b6000602082840312156135e1576135e0613477565b5b60006135ef848285016135b6565b91505092915050565b600081519050919050565b600082825260208201905092915050565b60005b83811015613632578082015181840152602081019050613617565b60008484015250505050565b6000601f19601f8301169050919050565b600061365a826135f8565b6136648185613603565b9350613674818560208601613614565b61367d8161363e565b840191505092915050565b600060208201905081810360008301526136a2818461364f565b905092915050565b600073ffffffffffffffffffffffffffffffffffffffff82169050919050565b60006136d5826136aa565b9050919050565b6136e5816136ca565b82525050565b600060208201905061370060008301846136dc565b92915050565b61370f816136ca565b811461371a57600080fd5b50565b60008135905061372c81613706565b92915050565b6000806040838503121561374957613748613477565b5b60006137578582860161371d565b9250506020613768858286016134a2565b9150509250929050565b61377b81613481565b82525050565b60006020820190506137966000830184613772565b92915050565b6000806000606084860312156137b5576137b4613477565b5b60006137c38682870161371d565b93505060206137d48682870161371d565b92505060406137e5868287016134a2565b9150509250925092565b60006020828403121561380557613804613477565b5b60006138138482850161371d565b91505092915050565b600081519050919050565b600082825260208201905092915050565b6000819050602082019050919050565b600082825260208201905092915050565b6000613864826135f8565b61386e8185613848565b935061387e818560208601613614565b6138878161363e565b840191505092915050565b600061389e8383613859565b905092915050565b6000602082019050919050565b60006138be8261381c565b6138c88185613827565b9350836020820285016138da85613838565b8060005b8581101561391657848403895281516138f78582613892565b9450613902836138a6565b925060208a019950506001810190506138de565b50829750879550505050505092915050565b6000602082019050818103600083015261394281846138b3565b905092915050565b600081519050919050565b600082825260208201905092915050565b6000819050602082019050919050565b61397f81613481565b82525050565b60006139918383613976565b60208301905092915050565b6000602082019050919050565b60006139b58261394a565b6139bf8185613955565b93506139ca83613966565b8060005b838110156139fb5781516139e28882613985565b97506139ed8361399d565b9250506001810190506139ce565b5085935050505092915050565b60006020820190508181036000830152613a2281846139aa565b905092915050565b600080fd5b600080fd5b7f4e487b7100000000000000000000000000000000000000000000000000000000600052604160045260246000fd5b613a6c8261363e565b810181811067ffffffffffffffff82111715613a8b57613a8a613a34565b5b80604052505050565b6000613a9e61346d565b9050613aaa8282613a63565b919050565b600067ffffffffffffffff821115613aca57613ac9613a34565b5b613ad38261363e565b9050602081019050919050565b82818337600083830152505050565b6000613b02613afd84613aaf565b613a94565b905082815260208101848484011115613b1e57613b1d613a2f565b5b613b29848285613ae0565b509392505050565b600082601f830112613b4657613b45613a2a565b5b8135613b56848260208601613aef565b91505092915050565b600060208284031215613b7557613b74613477565b5b600082013567ffffffffffffffff811115613b9357613b9261347c565b5b613b9f84828501613b31565b91505092915050565b60008060408385031215613bbf57613bbe613477565b5b6000613bcd8582860161371d565b9250506020613bde858286016135b6565b9150509250929050565b60008060408385031215613bff57613bfe613477565b5b6000613c0d8582860161371d565b9250506020613c1e8582860161371d565b9150509250929050565b60008060408385031215613c3f57613c3e613477565b5b6000613c4d8582860161371d565b925050602083013567ffffffffffffffff811115613c6e57613c6d61347c565b5b613c7a85828601613b31565b9150509250929050565b600067ffffffffffffffff821115613c9f57613c9e613a34565b5b613ca88261363e565b9050602081019050919050565b6000613cc8613cc384613c84565b613a94565b905082815260208101848484011115613ce457613ce3613a2f565b5b613cef848285613ae0565b509392505050565b600082601f830112613d0c57613d0b613a2a565b5b8135613d1c848260208601613cb5565b91505092915050565b60008060008060808587031215613d3f57613d3e613477565b5b6000613d4d8782880161371d565b9450506020613d5e8782880161371d565b9350506040613d6f878288016134a2565b925050606085013567ffffffffffffffff811115613d9057613d8f61347c565b5b613d9c87828801613cf7565b91505092959194509250565b7f4e487b7100000000000000000000000000000000000000000000000000000000600052602260045260246000fd5b60006002820490506001821680613def57607f821691505b602082108103613e0257613e01613da8565b5b50919050565b7f4552433732313a20617070726f76616c20746f2063757272656e74206f776e6560008201527f7200000000000000000000000000000000000000000000000000000000000000602082015250565b6000613e64602183613603565b9150613e6f82613e08565b604082019050919050565b60006020820190508181036000830152613e9381613e57565b9050919050565b7f4552433732313a20617070726f76652063616c6c6572206973206e6f7420746f60008201527f6b656e206f776e6572206f7220617070726f76656420666f7220616c6c000000602082015250565b6000613ef6603d83613603565b9150613f0182613e9a565b604082019050919050565b60006020820190508181036000830152613f2581613ee9565b9050919050565b7f4552433732313a2063616c6c6572206973206e6f7420746f6b656e206f776e6560008201527f72206f7220617070726f76656400000000000000000000000000000000000000602082015250565b6000613f88602d83613603565b9150613f9382613f2c565b604082019050919050565b60006020820190508181036000830152613fb781613f7b565b9050919050565b7f455243373231456e756d657261626c653a206f776e657220696e646578206f7560008201527f74206f6620626f756e6473000000000000000000000000000000000000000000602082015250565b600061401a602b83613603565b915061402582613fbe565b604082019050919050565b600060208201905081810360008301526140498161400d565b9050919050565b600081905092915050565b50565b600061406b600083614050565b91506140768261405b565b600082019050919050565b600061408c8261405e565b9150819050919050565b7f4e487b7100000000000000000000000000000000000000000000000000000000600052603260045260246000fd5b7f4e487b7100000000000000000000000000000000000000000000000000000000600052601160045260246000fd5b60006140ff82613481565b91507fffffffffffffffffffffffffffffffffffffffffffffffffffffffffffffffff8203614131576141306140c5565b5b600182019050919050565b7f455243373231456e756d657261626c653a20676c6f62616c20696e646578206f60008201527f7574206f6620626f756e64730000000000000000000000000000000000000000602082015250565b6000614198602c83613603565b91506141a38261413c565b604082019050919050565b600060208201905081810360008301526141c78161418b565b9050919050565b60008190508160005260206000209050919050565b60006020601f8301049050919050565b600082821b905092915050565b6000600883026142307fffffffffffffffffffffffffffffffffffffffffffffffffffffffffffffffff826141f3565b61423a86836141f3565b95508019841693508086168417925050509392505050565b6000819050919050565b600061427761427261426d84613481565b614252565b613481565b9050919050565b6000819050919050565b6142918361425c565b6142a561429d8261427e565b848454614200565b825550505050565b600090565b6142ba6142ad565b6142c5818484614288565b505050565b5b818110156142e9576142de6000826142b2565b6001810190506142cb565b5050565b601f82111561432e576142ff816141ce565b614308846141e3565b81016020851015614317578190505b61432b614323856141e3565b8301826142ca565b50505b505050565b600082821c905092915050565b600061435160001984600802614333565b1980831691505092915050565b600061436a8383614340565b9150826002028217905092915050565b614383826135f8565b67ffffffffffffffff81111561439c5761439b613a34565b5b6143a68254613dd7565b6143b18282856142ed565b600060209050601f8311600181146143e457600084156143d2578287015190505b6143dc858261435e565b865550614444565b601f1984166143f2866141ce565b60005b8281101561441a578489015182556001820191506020850194506020810190506143f5565b868310156144375784890151614433601f891682614340565b8355505b6001600288020188555050505b505050505050565b7f4552433732313a20696e76616c696420746f6b656e2049440000000000000000600082015250565b6000614482601883613603565b915061448d8261444c565b602082019050919050565b600060208201905081810360008301526144b181614475565b9050919050565b7f74686520636f6e74726163742069732070617573656400000000000000000000600082015250565b60006144ee601683613603565b91506144f9826144b8565b602082019050919050565b6000602082019050818103600083015261451d816144e1565b9050919050565b600061452f82613481565b915061453a83613481565b9250828201905080821115614552576145516140c5565b5b92915050565b7f6d6178204e4654206c696d697420657863656564656400000000000000000000600082015250565b600061458e601683613603565b915061459982614558565b602082019050919050565b600060208201905081810360008301526145bd81614581565b9050919050565b7f6f6e6c79206f6e65206e66742070657220757365720000000000000000000000600082015250565b60006145fa601583613603565b9150614605826145c4565b602082019050919050565b60006020820190508181036000830152614629816145ed565b9050919050565b7f4552433732313a2061646472657373207a65726f206973206e6f74206120766160008201527f6c6964206f776e65720000000000000000000000000000000000000000000000602082015250565b600061468c602983613603565b915061469782614630565b604082019050919050565b600060208201905081810360008301526146bb8161467f565b9050919050565b7f546865206e6577206f776e65722063616e6e6f74206265207468652073616d6560008201527f206173207468652063757272656e74206f776e65720000000000000000000000602082015250565b600061471e603583613603565b9150614729826146c2565b604082019050919050565b6000602082019050818103600083015261474d81614711565b9050919050565b60008154905061476381613dd7565b9050919050565b60008190508160005260206000209050919050565b81810361478d575050614865565b61479682614754565b67ffffffffffffffff8111156147af576147ae613a34565b5b6147b98254613dd7565b6147c48282856142ed565b6000601f8311600181146147f357600084156147e1578287015490505b6147eb858261435e565b86555061485e565b601f1984166148018761476a565b965061480c866141ce565b60005b828110156148345784890154825560018201915060018501945060208101905061480f565b86831015614851578489015461484d601f891682614340565b8355505b6001600288020188555050505b5050505050505b565b7f556e617574686f72697a65640000000000000000000000000000000000000000600082015250565b600061489d600c83613603565b91506148a882614867565b602082019050919050565b600060208201905081810360008301526148cc81614890565b9050919050565b7f4e465420646f6573206e6f742065786973740000000000000000000000000000600082015250565b6000614909601283613603565b9150614914826148d3565b602082019050919050565b60006020820190508181036000830152614938816148fc565b9050919050565b7f4552433732314d657461646174613a2055524920717565727920666f72206e6f60008201527f6e6578697374656e7420746f6b656e0000000000000000000000000000000000602082015250565b600061499b602f83613603565b91506149a68261493f565b604082019050919050565b600060208201905081810360008301526149ca8161498e565b9050919050565b600081905092915050565b60006149e7826135f8565b6149f181856149d1565b9350614a01818560208601613614565b80840191505092915050565b7f2f00000000000000000000000000000000000000000000000000000000000000600082015250565b6000614a436001836149d1565b9150614a4e82614a0d565b600182019050919050565b60008154614a6681613dd7565b614a7081866149d1565b94506001821660008114614a8b5760018114614aa057614ad3565b60ff1983168652811515820286019350614ad3565b614aa9856141ce565b60005b83811015614acb57815481890152600182019150602081019050614aac565b838801955050505b50505092915050565b6000614ae882866149dc565b9150614af382614a36565b9150614aff82856149dc565b9150614b0b8284614a59565b9150819050949350505050565b7f4f776e61626c653a206e6577206f776e657220697320746865207a65726f206160008201527f6464726573730000000000000000000000000000000000000000000000000000602082015250565b6000614b74602683613603565b9150614b7f82614b18565b604082019050919050565b60006020820190508181036000830152614ba381614b67565b9050919050565b6000614bb582613481565b9150614bc083613481565b9250828203905081811115614bd857614bd76140c5565b5b92915050565b7f4f776e61626c653a2063616c6c6572206973206e6f7420746865206f776e6572600082015250565b6000614c14602083613603565b9150614c1f82614bde565b602082019050919050565b60006020820190508181036000830152614c4381614c07565b9050919050565b7f4552433732313a207472616e736665722066726f6d20696e636f72726563742060008201527f6f776e6572000000000000000000000000000000000000000000000000000000602082015250565b6000614ca6602583613603565b9150614cb182614c4a565b604082019050919050565b60006020820190508181036000830152614cd581614c99565b9050919050565b7f4552433732313a207472616e7366657220746f20746865207a65726f2061646460008201527f7265737300000000000000000000000000000000000000000000000000000000602082015250565b6000614d38602483613603565b9150614d4382614cdc565b604082019050919050565b60006020820190508181036000830152614d6781614d2b565b9050919050565b7f4552433732313a20617070726f766520746f2063616c6c657200000000000000600082015250565b6000614da4601983613603565b9150614daf82614d6e565b602082019050919050565b60006020820190508181036000830152614dd381614d97565b9050919050565b7f4552433732313a207472616e7366657220746f206e6f6e20455243373231526560008201527f63656976657220696d706c656d656e7465720000000000000000000000000000602082015250565b6000614e36603283613603565b9150614e4182614dda565b604082019050919050565b60006020820190508181036000830152614e6581614e29565b9050919050565b7f4e487b7100000000000000000000000000000000000000000000000000000000600052601260045260246000fd5b7f455243373231456e756d657261626c653a20636f6e736563757469766520747260008201527f616e7366657273206e6f7420737570706f727465640000000000000000000000602082015250565b6000614ef7603583613603565b9150614f0282614e9b565b604082019050919050565b60006020820190508181036000830152614f2681614eea565b9050919050565b600081519050919050565b600082825260208201905092915050565b6000614f5482614f2d565b614f5e8185614f38565b9350614f6e818560208601613614565b614f778161363e565b840191505092915050565b6000608082019050614f9760008301876136dc565b614fa460208301866136dc565b614fb16040830185613772565b8181036060830152614fc38184614f49565b905095945050505050565b600081519050614fdd81613546565b92915050565b600060208284031215614ff957614ff8613477565b5b600061500784828501614fce565b91505092915050565b7f4e487b7100000000000000000000000000000000000000000000000000000000600052603160045260246000fd5b7f4552433732313a206d696e7420746f20746865207a65726f2061646472657373600082015250565b6000615075602083613603565b91506150808261503f565b602082019050919050565b600060208201905081810360008301526150a481615068565b9050919050565b7f4552433732313a20746f6b656e20616c7265616479206d696e74656400000000600082015250565b60006150e1601c83613603565b91506150ec826150ab565b602082019050919050565b60006020820190508181036000830152615110816150d4565b905091905056fea264697066735822122091b69bf3af1d0125d444cb44e7e554fe3bcf979c69dfe3e082ddf4cc533e332564736f6c63430008100033",
  "immutableReferences": {},
  "source": "// SPDX-License-Identifier: MIT\n\npragma solidity >=0.7.0 <0.9.0;\n\nimport \"@openzeppelin/contracts/token/ERC721/ERC721.sol\";\nimport \"@openzeppelin/contracts/token/ERC721/extensions/ERC721Enumerable.sol\";\nimport \"@openzeppelin/contracts/access/Ownable.sol\";\n\ncontract CodeMavricksNft is ERC721Enumerable, Ownable {\n    using Strings for uint256;\n\n    string public baseURI;\n    string public baseExtension = \".json\";\n    //we need to remove this comment in the production\n    // uint256 public cost = 1 ether;\n    uint256 public maxSupply = 10000;\n    bool public paused = false;\n\n    // Define a moderator group\n    address[] public moderators;\n\n    mapping(address => uint) public nftScores;\n    mapping(address => string[]) public nftContributions;\n\n    constructor(\n        string memory _name,\n        string memory _symbol,\n        string memory _initBaseURI\n    ) ERC721(_name, _symbol) {\n        setBaseURI(_initBaseURI);\n        mint(owner());\n    }\n\n    // internal\n    function _baseURI() internal view virtual override returns (string memory) {\n        return baseURI;\n    }\n\n    // public\n    function mint(address receiver) public payable {\n        require(!paused, \"the contract is paused\");\n        uint256 supply = totalSupply() + 1;\n        require(supply <= maxSupply, \"max NFT limit exceeded\");\n        require(balanceOf(receiver) == 0, \"only one nft per user\");\n    //we need to remove this comment in the production\n\n        // if (msg.sender != owner()) {\n        //     require(msg.value >= cost, \"insufficient funds\");\n        // }\n\n        nftScores[receiver] = 0;\n        _safeMint(receiver, supply);\n    }\n\n    function getNFTContributions(\n        address owner\n    ) public view returns (string[] memory) {\n        return nftContributions[owner];\n    }\n\n    function transferNFTContributions(address owner, address newOwner) public {\n        require(\n            owner != newOwner,\n            \"The new owner cannot be the same as the current owner\"\n        );\n\n        uint256 commentCount = nftContributions[owner].length;\n        for (uint256 i = 0; i < commentCount; i++) {\n            nftContributions[newOwner].push(nftContributions[owner][i]);\n        }\n\n        delete nftContributions[owner];\n    }\n\n    // Function to update the score of an NFT\n    function updateScore(address owner, string memory comment) public {\n        // Make sure the caller is a moderator\n        require(isModerator(msg.sender), \"Unauthorized\");\n\n        // Make sure the NFT exists\n        uint256 nftIndex = tokenOfOwnerByIndex(owner, 0);\n        require(nftIndex != 0, \"NFT does not exist\");\n\n        // Update the score\n        nftScores[owner] += 10;\n        nftContributions[owner].push(comment);\n    }\n\n    // Helper function to check if an address is a moderator\n    function isModerator(address _address) public view returns (bool) {\n        for (uint256 i = 0; i < moderators.length; i++) {\n            if (moderators[i] == _address) {\n                return true;\n            }\n        }\n        return false;\n    }\n\n    function addModerator(address newModerator) public {\n        require(\n            isModerator(msg.sender) || msg.sender == owner(),\n            \"Unauthorized\"\n        );\n        moderators.push(newModerator);\n    }\n\n    function walletOfOwner(\n        address _owner\n    ) public view returns (uint256[] memory) {\n        uint256 ownerTokenCount = balanceOf(_owner);\n        uint256[] memory tokenIds = new uint256[](ownerTokenCount);\n        for (uint256 i; i < ownerTokenCount; i++) {\n            tokenIds[i] = tokenOfOwnerByIndex(_owner, i);\n        }\n        return tokenIds;\n    }\n\n    function tokenURI(\n        uint256 tokenId\n    ) public view virtual override returns (string memory) {\n        require(\n            _exists(tokenId),\n            \"ERC721Metadata: URI query for nonexistent token\"\n        );\n\n        string memory currentBaseURI = _baseURI();\n        return\n            bytes(currentBaseURI).length > 0\n                ? string(\n                    abi.encodePacked(\n                        currentBaseURI,\n                        \"/\",\n                        tokenId.toString(),\n                        baseExtension\n                    )\n                )\n                : \"\";\n    }\n\n    // function setCost(uint256 _newCost) public onlyOwner {\n    //     cost = _newCost;\n    // }\n\n    function setBaseURI(string memory _newBaseURI) public onlyOwner {\n        baseURI = _newBaseURI;\n    }\n\n    function setBaseExtension(\n        string memory _newBaseExtension\n    ) public onlyOwner {\n        baseExtension = _newBaseExtension;\n    }\n\n    function pause(bool _state) public onlyOwner {\n        paused = _state;\n    }\n\n    function setScore(address user, uint score) external {\n        nftScores[user] = score;\n    }\n\n    function getScore(address user) external view returns (uint) {\n        return nftScores[user];\n    }\n\n    function tokenExists(uint256 tokenId) public view returns (bool) {\n        return _exists(tokenId);\n    }\n\n    //To-Do : make this withdraw multisig\n    function withdraw() public payable onlyOwner {\n        (bool os, ) = payable(owner()).call{value: address(this).balance}(\"\");\n        require(os);\n    }\n}\n",
  "sourcePath": "/home/senyou/nft-collection/contracts/CodeMavricksNft.sol",
  "compiler": {
    "name": "solc",
    "version": "0.8.16+commit.07a7930e.Emscripten.clang"
  },
  "schemaVersion": "3.4.9",
  "updatedAt": "2023-05-07T21:05:57.545Z",
  "networkType": "ethereum",
  "devdoc": {
    "kind": "dev",
    "methods": {
      "approve(address,uint256)": {
        "details": "See {IERC721-approve}."
      },
      "balanceOf(address)": {
        "details": "See {IERC721-balanceOf}."
      },
      "getApproved(uint256)": {
        "details": "See {IERC721-getApproved}."
      },
      "isApprovedForAll(address,address)": {
        "details": "See {IERC721-isApprovedForAll}."
      },
      "name()": {
        "details": "See {IERC721Metadata-name}."
      },
      "owner()": {
        "details": "Returns the address of the current owner."
      },
      "ownerOf(uint256)": {
        "details": "See {IERC721-ownerOf}."
      },
      "renounceOwnership()": {
        "details": "Leaves the contract without owner. It will not be possible to call `onlyOwner` functions anymore. Can only be called by the current owner. NOTE: Renouncing ownership will leave the contract without an owner, thereby removing any functionality that is only available to the owner."
      },
      "safeTransferFrom(address,address,uint256)": {
        "details": "See {IERC721-safeTransferFrom}."
      },
      "safeTransferFrom(address,address,uint256,bytes)": {
        "details": "See {IERC721-safeTransferFrom}."
      },
      "setApprovalForAll(address,bool)": {
        "details": "See {IERC721-setApprovalForAll}."
      },
      "supportsInterface(bytes4)": {
        "details": "See {IERC165-supportsInterface}."
      },
      "symbol()": {
        "details": "See {IERC721Metadata-symbol}."
      },
      "tokenByIndex(uint256)": {
        "details": "See {IERC721Enumerable-tokenByIndex}."
      },
      "tokenOfOwnerByIndex(address,uint256)": {
        "details": "See {IERC721Enumerable-tokenOfOwnerByIndex}."
      },
      "tokenURI(uint256)": {
        "details": "See {IERC721Metadata-tokenURI}."
      },
      "totalSupply()": {
        "details": "See {IERC721Enumerable-totalSupply}."
      },
      "transferFrom(address,address,uint256)": {
        "details": "See {IERC721-transferFrom}."
      },
      "transferOwnership(address)": {
        "details": "Transfers ownership of the contract to a new account (`newOwner`). Can only be called by the current owner."
      }
    },
    "version": 1
  },
  "userdoc": {
    "kind": "user",
    "methods": {},
    "version": 1
  }
}