{
  "contractName": "CodeMavericks",
  "abi": [
    {
      "inputs": [],
      "stateMutability": "nonpayable",
      "type": "constructor"
    },
    {
      "anonymous": false,
      "inputs": [
        {
          "indexed": true,
          "internalType": "address",
          "name": "owner",
          "type": "address"
        },
        {
          "indexed": true,
          "internalType": "address",
          "name": "spender",
          "type": "address"
        },
        {
          "indexed": false,
          "internalType": "uint256",
          "name": "value",
          "type": "uint256"
        }
      ],
      "name": "Approval",
      "type": "event"
    },
    {
      "anonymous": false,
      "inputs": [
        {
          "indexed": true,
          "internalType": "address",
          "name": "delegator",
          "type": "address"
        },
        {
          "indexed": true,
          "internalType": "address",
          "name": "fromDelegate",
          "type": "address"
        },
        {
          "indexed": true,
          "internalType": "address",
          "name": "toDelegate",
          "type": "address"
        }
      ],
      "name": "DelegateChanged",
      "type": "event"
    },
    {
      "anonymous": false,
      "inputs": [
        {
          "indexed": true,
          "internalType": "address",
          "name": "delegate",
          "type": "address"
        },
        {
          "indexed": false,
          "internalType": "uint256",
          "name": "previousBalance",
          "type": "uint256"
        },
        {
          "indexed": false,
          "internalType": "uint256",
          "name": "newBalance",
          "type": "uint256"
        }
      ],
      "name": "DelegateVotesChanged",
      "type": "event"
    },
    {
      "anonymous": false,
      "inputs": [
        {
          "indexed": true,
          "internalType": "address",
          "name": "previousOwner",
          "type": "address"
        },
        {
          "indexed": true,
          "internalType": "address",
          "name": "newOwner",
          "type": "address"
        }
      ],
      "name": "OwnershipTransferred",
      "type": "event"
    },
    {
      "anonymous": false,
      "inputs": [
        {
          "indexed": true,
          "internalType": "address",
          "name": "from",
          "type": "address"
        },
        {
          "indexed": true,
          "internalType": "address",
          "name": "to",
          "type": "address"
        },
        {
          "indexed": false,
          "internalType": "uint256",
          "name": "value",
          "type": "uint256"
        }
      ],
      "name": "Transfer",
      "type": "event"
    },
    {
      "inputs": [],
      "name": "DOMAIN_SEPARATOR",
      "outputs": [
        {
          "internalType": "bytes32",
          "name": "",
          "type": "bytes32"
        }
      ],
      "stateMutability": "view",
      "type": "function",
      "constant": true
    },
    {
      "inputs": [
        {
          "internalType": "address",
          "name": "owner",
          "type": "address"
        },
        {
          "internalType": "address",
          "name": "spender",
          "type": "address"
        }
      ],
      "name": "allowance",
      "outputs": [
        {
          "internalType": "uint256",
          "name": "",
          "type": "uint256"
        }
      ],
      "stateMutability": "view",
      "type": "function",
      "constant": true
    },
    {
      "inputs": [
        {
          "internalType": "address",
          "name": "spender",
          "type": "address"
        },
        {
          "internalType": "uint256",
          "name": "amount",
          "type": "uint256"
        }
      ],
      "name": "approve",
      "outputs": [
        {
          "internalType": "bool",
          "name": "",
          "type": "bool"
        }
      ],
      "stateMutability": "nonpayable",
      "type": "function"
    },
    {
      "inputs": [
        {
          "internalType": "address",
          "name": "account",
          "type": "address"
        }
      ],
      "name": "balanceOf",
      "outputs": [
        {
          "internalType": "uint256",
          "name": "",
          "type": "uint256"
        }
      ],
      "stateMutability": "view",
      "type": "function",
      "constant": true
    },
    {
      "inputs": [
        {
          "internalType": "uint256",
          "name": "amount",
          "type": "uint256"
        }
      ],
      "name": "burn",
      "outputs": [],
      "stateMutability": "nonpayable",
      "type": "function"
    },
    {
      "inputs": [
        {
          "internalType": "address",
          "name": "account",
          "type": "address"
        },
        {
          "internalType": "uint256",
          "name": "amount",
          "type": "uint256"
        }
      ],
      "name": "burnFrom",
      "outputs": [],
      "stateMutability": "nonpayable",
      "type": "function"
    },
    {
      "inputs": [
        {
          "internalType": "address",
          "name": "account",
          "type": "address"
        },
        {
          "internalType": "uint32",
          "name": "pos",
          "type": "uint32"
        }
      ],
      "name": "checkpoints",
      "outputs": [
        {
          "components": [
            {
              "internalType": "uint32",
              "name": "fromBlock",
              "type": "uint32"
            },
            {
              "internalType": "uint224",
              "name": "votes",
              "type": "uint224"
            }
          ],
          "internalType": "struct ERC20Votes.Checkpoint",
          "name": "",
          "type": "tuple"
        }
      ],
      "stateMutability": "view",
      "type": "function",
      "constant": true
    },
    {
      "inputs": [],
      "name": "decimals",
      "outputs": [
        {
          "internalType": "uint8",
          "name": "",
          "type": "uint8"
        }
      ],
      "stateMutability": "view",
      "type": "function",
      "constant": true
    },
    {
      "inputs": [
        {
          "internalType": "address",
          "name": "spender",
          "type": "address"
        },
        {
          "internalType": "uint256",
          "name": "subtractedValue",
          "type": "uint256"
        }
      ],
      "name": "decreaseAllowance",
      "outputs": [
        {
          "internalType": "bool",
          "name": "",
          "type": "bool"
        }
      ],
      "stateMutability": "nonpayable",
      "type": "function"
    },
    {
      "inputs": [
        {
          "internalType": "address",
          "name": "delegatee",
          "type": "address"
        }
      ],
      "name": "delegate",
      "outputs": [],
      "stateMutability": "nonpayable",
      "type": "function"
    },
    {
      "inputs": [
        {
          "internalType": "address",
          "name": "delegatee",
          "type": "address"
        },
        {
          "internalType": "uint256",
          "name": "nonce",
          "type": "uint256"
        },
        {
          "internalType": "uint256",
          "name": "expiry",
          "type": "uint256"
        },
        {
          "internalType": "uint8",
          "name": "v",
          "type": "uint8"
        },
        {
          "internalType": "bytes32",
          "name": "r",
          "type": "bytes32"
        },
        {
          "internalType": "bytes32",
          "name": "s",
          "type": "bytes32"
        }
      ],
      "name": "delegateBySig",
      "outputs": [],
      "stateMutability": "nonpayable",
      "type": "function"
    },
    {
      "inputs": [
        {
          "internalType": "address",
          "name": "account",
          "type": "address"
        }
      ],
      "name": "delegates",
      "outputs": [
        {
          "internalType": "address",
          "name": "",
          "type": "address"
        }
      ],
      "stateMutability": "view",
      "type": "function",
      "constant": true
    },
    {
      "inputs": [
        {
          "internalType": "uint256",
          "name": "blockNumber",
          "type": "uint256"
        }
      ],
      "name": "getPastTotalSupply",
      "outputs": [
        {
          "internalType": "uint256",
          "name": "",
          "type": "uint256"
        }
      ],
      "stateMutability": "view",
      "type": "function",
      "constant": true
    },
    {
      "inputs": [
        {
          "internalType": "address",
          "name": "account",
          "type": "address"
        },
        {
          "internalType": "uint256",
          "name": "blockNumber",
          "type": "uint256"
        }
      ],
      "name": "getPastVotes",
      "outputs": [
        {
          "internalType": "uint256",
          "name": "",
          "type": "uint256"
        }
      ],
      "stateMutability": "view",
      "type": "function",
      "constant": true
    },
    {
      "inputs": [
        {
          "internalType": "address",
          "name": "account",
          "type": "address"
        }
      ],
      "name": "getVotes",
      "outputs": [
        {
          "internalType": "uint256",
          "name": "",
          "type": "uint256"
        }
      ],
      "stateMutability": "view",
      "type": "function",
      "constant": true
    },
    {
      "inputs": [
        {
          "internalType": "address",
          "name": "spender",
          "type": "address"
        },
        {
          "internalType": "uint256",
          "name": "addedValue",
          "type": "uint256"
        }
      ],
      "name": "increaseAllowance",
      "outputs": [
        {
          "internalType": "bool",
          "name": "",
          "type": "bool"
        }
      ],
      "stateMutability": "nonpayable",
      "type": "function"
    },
    {
      "inputs": [],
      "name": "name",
      "outputs": [
        {
          "internalType": "string",
          "name": "",
          "type": "string"
        }
      ],
      "stateMutability": "view",
      "type": "function",
      "constant": true
    },
    {
      "inputs": [
        {
          "internalType": "address",
          "name": "owner",
          "type": "address"
        }
      ],
      "name": "nonces",
      "outputs": [
        {
          "internalType": "uint256",
          "name": "",
          "type": "uint256"
        }
      ],
      "stateMutability": "view",
      "type": "function",
      "constant": true
    },
    {
      "inputs": [
        {
          "internalType": "address",
          "name": "account",
          "type": "address"
        }
      ],
      "name": "numCheckpoints",
      "outputs": [
        {
          "internalType": "uint32",
          "name": "",
          "type": "uint32"
        }
      ],
      "stateMutability": "view",
      "type": "function",
      "constant": true
    },
    {
      "inputs": [],
      "name": "owner",
      "outputs": [
        {
          "internalType": "address",
          "name": "",
          "type": "address"
        }
      ],
      "stateMutability": "view",
      "type": "function",
      "constant": true
    },
    {
      "inputs": [
        {
          "internalType": "address",
          "name": "owner",
          "type": "address"
        },
        {
          "internalType": "address",
          "name": "spender",
          "type": "address"
        },
        {
          "internalType": "uint256",
          "name": "value",
          "type": "uint256"
        },
        {
          "internalType": "uint256",
          "name": "deadline",
          "type": "uint256"
        },
        {
          "internalType": "uint8",
          "name": "v",
          "type": "uint8"
        },
        {
          "internalType": "bytes32",
          "name": "r",
          "type": "bytes32"
        },
        {
          "internalType": "bytes32",
          "name": "s",
          "type": "bytes32"
        }
      ],
      "name": "permit",
      "outputs": [],
      "stateMutability": "nonpayable",
      "type": "function"
    },
    {
      "inputs": [],
      "name": "renounceOwnership",
      "outputs": [],
      "stateMutability": "nonpayable",
      "type": "function"
    },
    {
      "inputs": [],
      "name": "symbol",
      "outputs": [
        {
          "internalType": "string",
          "name": "",
          "type": "string"
        }
      ],
      "stateMutability": "view",
      "type": "function",
      "constant": true
    },
    {
      "inputs": [],
      "name": "totalSupply",
      "outputs": [
        {
          "internalType": "uint256",
          "name": "",
          "type": "uint256"
        }
      ],
      "stateMutability": "view",
      "type": "function",
      "constant": true
    },
    {
      "inputs": [
        {
          "internalType": "address",
          "name": "to",
          "type": "address"
        },
        {
          "internalType": "uint256",
          "name": "amount",
          "type": "uint256"
        }
      ],
      "name": "transfer",
      "outputs": [
        {
          "internalType": "bool",
          "name": "",
          "type": "bool"
        }
      ],
      "stateMutability": "nonpayable",
      "type": "function"
    },
    {
      "inputs": [
        {
          "internalType": "address",
          "name": "from",
          "type": "address"
        },
        {
          "internalType": "address",
          "name": "to",
          "type": "address"
        },
        {
          "internalType": "uint256",
          "name": "amount",
          "type": "uint256"
        }
      ],
      "name": "transferFrom",
      "outputs": [
        {
          "internalType": "bool",
          "name": "",
          "type": "bool"
        }
      ],
      "stateMutability": "nonpayable",
      "type": "function"
    },
    {
      "inputs": [
        {
          "internalType": "address",
          "name": "newOwner",
          "type": "address"
        }
      ],
      "name": "transferOwnership",
      "outputs": [],
      "stateMutability": "nonpayable",
      "type": "function"
    },
    {
      "inputs": [
        {
          "internalType": "address",
          "name": "to",
          "type": "address"
        },
        {
          "internalType": "uint256",
          "name": "amount",
          "type": "uint256"
        }
      ],
      "name": "mint",
      "outputs": [],
      "stateMutability": "nonpayable",
      "type": "function"
    }
  ],
  "bytecode": "0x6101406040523480156200001257600080fd5b506040518060400160405280600d81526020017f436f64654d6176657269636b7300000000000000000000000000000000000000815250806040518060400160405280600181526020017f31000000000000000000000000000000000000000000000000000000000000008152506040518060400160405280600d81526020017f436f64654d6176657269636b73000000000000000000000000000000000000008152506040518060400160405280600381526020017f436d7600000000000000000000000000000000000000000000000000000000008152508160039081620000fd919062000f43565b5080600490816200010f919062000f43565b50505062000132620001266200022960201b60201c565b6200023160201b60201c565b60008280519060200120905060008280519060200120905060007f8b73c3c69bb8fe3d512ecc4cf759cc79239f7b179b0ffacaa9a75d522b39400f90508260e081815250508161010081815250504660a081815250506200019b818484620002f760201b60201c565b608081815250503073ffffffffffffffffffffffffffffffffffffffff1660c08173ffffffffffffffffffffffffffffffffffffffff16815250508061012081815250505050505050506200022333620001fa6200033360201b60201c565b600a620002089190620011ba565b6103e86200021791906200120b565b6200033c60201b60201c565b62001645565b600033905090565b6000600560009054906101000a900473ffffffffffffffffffffffffffffffffffffffff16905081600560006101000a81548173ffffffffffffffffffffffffffffffffffffffff021916908373ffffffffffffffffffffffffffffffffffffffff1602179055508173ffffffffffffffffffffffffffffffffffffffff168173ffffffffffffffffffffffffffffffffffffffff167f8be0079c531659141344cd1fd0a4f28419497f9722a3daafe3b4186f6b6457e060405160405180910390a35050565b6000838383463060405160200162000314959493929190620012dd565b6040516020818303038152906040528051906020012090509392505050565b60006012905090565b6200035382826200035760201b620010a01760201c565b5050565b6200036e82826200041560201b6200112d1760201c565b6200037e6200058260201b60201c565b7bffffffffffffffffffffffffffffffffffffffffffffffffffffffff16620003ac620005a660201b60201c565b1115620003f0576040517f08c379a0000000000000000000000000000000000000000000000000000000008152600401620003e790620013c1565b60405180910390fd5b6200040f600a620005b060201b620012831783620005c860201b60201c565b50505050565b600073ffffffffffffffffffffffffffffffffffffffff168273ffffffffffffffffffffffffffffffffffffffff160362000487576040517f08c379a00000000000000000000000000000000000000000000000000000000081526004016200047e9062001433565b60405180910390fd5b6200049b60008383620008d560201b60201c565b8060026000828254620004af919062001455565b92505081905550806000808473ffffffffffffffffffffffffffffffffffffffff1673ffffffffffffffffffffffffffffffffffffffff168152602001908152602001600020600082825401925050819055508173ffffffffffffffffffffffffffffffffffffffff16600073ffffffffffffffffffffffffffffffffffffffff167fddf252ad1be2c89b69c2b068fc378daa952ba7f163c4a11628f55a4df523b3ef8360405162000562919062001490565b60405180910390a36200057e60008383620008da60201b60201c565b5050565b60007bffffffffffffffffffffffffffffffffffffffffffffffffffffffff905090565b6000600254905090565b60008183620005c0919062001455565b905092915050565b6000806000858054905090506000808214620006a357620005fe87600184620005f29190620014ad565b620008f760201b60201c565b6040518060400160405290816000820160009054906101000a900463ffffffff1663ffffffff1663ffffffff1681526020016000820160049054906101000a90047bffffffffffffffffffffffffffffffffffffffffffffffffffffffff167bffffffffffffffffffffffffffffffffffffffffffffffffffffffff167bffffffffffffffffffffffffffffffffffffffffffffffffffffffff1681525050620006df565b6040518060400160405280600063ffffffff16815260200160007bffffffffffffffffffffffffffffffffffffffffffffffffffffffff168152505b905080602001517bffffffffffffffffffffffffffffffffffffffffffffffffffffffff1693506200071284868860201c565b92506000821180156200072e575043816000015163ffffffff16145b15620007c1576200074a836200090c60201b620012991760201c565b6200076a886001856200075e9190620014ad565b620008f760201b60201c565b60000160046101000a8154817bffffffffffffffffffffffffffffffffffffffffffffffffffffffff02191690837bffffffffffffffffffffffffffffffffffffffffffffffffffffffff160217905550620008cb565b866040518060400160405280620007e3436200097a60201b620013041760201c565b63ffffffff16815260200162000804866200090c60201b620012991760201c565b7bffffffffffffffffffffffffffffffffffffffffffffffffffffffff168152509080600181540180825580915050600190039060005260206000200160009091909190915060008201518160000160006101000a81548163ffffffff021916908363ffffffff16021790555060208201518160000160046101000a8154817bffffffffffffffffffffffffffffffffffffffffffffffffffffffff02191690837bffffffffffffffffffffffffffffffffffffffffffffffffffffffff16021790555050505b5050935093915050565b505050565b620008f2838383620009d060201b620013571760201c565b505050565b60008260005281602060002001905092915050565b60007bffffffffffffffffffffffffffffffffffffffffffffffffffffffff801682111562000972576040517f08c379a000000000000000000000000000000000000000000000000000000000815260040162000969906200155e565b60405180910390fd5b819050919050565b600063ffffffff8016821115620009c8576040517f08c379a0000000000000000000000000000000000000000000000000000000008152600401620009bf90620015f6565b60405180910390fd5b819050919050565b620009e883838362000a2060201b620013821760201c565b62000a1b620009fd8462000a2560201b60201c565b62000a0e8462000a2560201b60201c565b8362000a8e60201b60201c565b505050565b505050565b6000600860008373ffffffffffffffffffffffffffffffffffffffff1673ffffffffffffffffffffffffffffffffffffffff16815260200190815260200160002060009054906101000a900473ffffffffffffffffffffffffffffffffffffffff169050919050565b8173ffffffffffffffffffffffffffffffffffffffff168373ffffffffffffffffffffffffffffffffffffffff161415801562000acb5750600081115b1562000cac57600073ffffffffffffffffffffffffffffffffffffffff168373ffffffffffffffffffffffffffffffffffffffff161462000bbe5760008062000b65600960008773ffffffffffffffffffffffffffffffffffffffff1673ffffffffffffffffffffffffffffffffffffffff16815260200190815260200160002062000cb160201b620013871785620005c860201b60201c565b915091508473ffffffffffffffffffffffffffffffffffffffff167fdec2bacdd2f05b59de34da9b523dff8be42e5e38e818c82fdb0bae774387a724838360405162000bb392919062001618565b60405180910390a250505b600073ffffffffffffffffffffffffffffffffffffffff168273ffffffffffffffffffffffffffffffffffffffff161462000cab5760008062000c52600960008673ffffffffffffffffffffffffffffffffffffffff1673ffffffffffffffffffffffffffffffffffffffff168152602001908152602001600020620005b060201b620012831785620005c860201b60201c565b915091508373ffffffffffffffffffffffffffffffffffffffff167fdec2bacdd2f05b59de34da9b523dff8be42e5e38e818c82fdb0bae774387a724838360405162000ca092919062001618565b60405180910390a250505b5b505050565b6000818362000cc19190620014ad565b905092915050565b600081519050919050565b7f4e487b7100000000000000000000000000000000000000000000000000000000600052604160045260246000fd5b7f4e487b7100000000000000000000000000000000000000000000000000000000600052602260045260246000fd5b6000600282049050600182168062000d4b57607f821691505b60208210810362000d615762000d6062000d03565b5b50919050565b60008190508160005260206000209050919050565b60006020601f8301049050919050565b600082821b905092915050565b60006008830262000dcb7fffffffffffffffffffffffffffffffffffffffffffffffffffffffffffffffff8262000d8c565b62000dd7868362000d8c565b95508019841693508086168417925050509392505050565b6000819050919050565b6000819050919050565b600062000e2462000e1e62000e188462000def565b62000df9565b62000def565b9050919050565b6000819050919050565b62000e408362000e03565b62000e5862000e4f8262000e2b565b84845462000d99565b825550505050565b600090565b62000e6f62000e60565b62000e7c81848462000e35565b505050565b5b8181101562000ea45762000e9860008262000e65565b60018101905062000e82565b5050565b601f82111562000ef35762000ebd8162000d67565b62000ec88462000d7c565b8101602085101562000ed8578190505b62000ef062000ee78562000d7c565b83018262000e81565b50505b505050565b600082821c905092915050565b600062000f186000198460080262000ef8565b1980831691505092915050565b600062000f33838362000f05565b9150826002028217905092915050565b62000f4e8262000cc9565b67ffffffffffffffff81111562000f6a5762000f6962000cd4565b5b62000f76825462000d32565b62000f8382828562000ea8565b600060209050601f83116001811462000fbb576000841562000fa6578287015190505b62000fb2858262000f25565b86555062001022565b601f19841662000fcb8662000d67565b60005b8281101562000ff55784890151825560018201915060208501945060208101905062000fce565b8683101562001015578489015162001011601f89168262000f05565b8355505b6001600288020188555050505b505050505050565b7f4e487b7100000000000000000000000000000000000000000000000000000000600052601160045260246000fd5b60008160011c9050919050565b6000808291508390505b6001851115620010b85780860481111562001090576200108f6200102a565b5b6001851615620010a05780820291505b8081029050620010b08562001059565b945062001070565b94509492505050565b600082620010d35760019050620011a6565b81620010e35760009050620011a6565b8160018114620010fc576002811462001107576200113d565b6001915050620011a6565b60ff8411156200111c576200111b6200102a565b5b8360020a9150848211156200113657620011356200102a565b5b50620011a6565b5060208310610133831016604e8410600b8410161715620011775782820a9050838111156200117157620011706200102a565b5b620011a6565b62001186848484600162001066565b92509050818404811115620011a0576200119f6200102a565b5b81810290505b9392505050565b600060ff82169050919050565b6000620011c78262000def565b9150620011d483620011ad565b9250620012037fffffffffffffffffffffffffffffffffffffffffffffffffffffffffffffffff8484620010c1565b905092915050565b6000620012188262000def565b9150620012258362000def565b9250817fffffffffffffffffffffffffffffffffffffffffffffffffffffffffffffffff04831182151516156200126157620012606200102a565b5b828202905092915050565b6000819050919050565b62001281816200126c565b82525050565b620012928162000def565b82525050565b600073ffffffffffffffffffffffffffffffffffffffff82169050919050565b6000620012c58262001298565b9050919050565b620012d781620012b8565b82525050565b600060a082019050620012f4600083018862001276565b62001303602083018762001276565b62001312604083018662001276565b62001321606083018562001287565b620013306080830184620012cc565b9695505050505050565b600082825260208201905092915050565b7f4552433230566f7465733a20746f74616c20737570706c79207269736b73206f60008201527f766572666c6f77696e6720766f74657300000000000000000000000000000000602082015250565b6000620013a96030836200133a565b9150620013b6826200134b565b604082019050919050565b60006020820190508181036000830152620013dc816200139a565b9050919050565b7f45524332303a206d696e7420746f20746865207a65726f206164647265737300600082015250565b60006200141b601f836200133a565b91506200142882620013e3565b602082019050919050565b600060208201905081810360008301526200144e816200140c565b9050919050565b6000620014628262000def565b91506200146f8362000def565b92508282019050808211156200148a57620014896200102a565b5b92915050565b6000602082019050620014a7600083018462001287565b92915050565b6000620014ba8262000def565b9150620014c78362000def565b9250828203905081811115620014e257620014e16200102a565b5b92915050565b7f53616665436173743a2076616c756520646f65736e27742066697420696e203260008201527f3234206269747300000000000000000000000000000000000000000000000000602082015250565b6000620015466027836200133a565b91506200155382620014e8565b604082019050919050565b60006020820190508181036000830152620015798162001537565b9050919050565b7f53616665436173743a2076616c756520646f65736e27742066697420696e203360008201527f3220626974730000000000000000000000000000000000000000000000000000602082015250565b6000620015de6026836200133a565b9150620015eb8262001580565b604082019050919050565b600060208201905081810360008301526200161181620015cf565b9050919050565b60006040820190506200162f600083018562001287565b6200163e602083018462001287565b9392505050565b60805160a05160c05160e0516101005161012051613ff662001695600039600061191e015260006119600152600061193f01526000611874015260006118ca015260006118f30152613ff66000f3fe608060405234801561001057600080fd5b50600436106101c45760003560e01c8063715018a6116100f9578063a457c2d711610097578063d505accf11610071578063d505accf14610553578063dd62ed3e1461056f578063f1127ed81461059f578063f2fde38b146105cf576101c4565b8063a457c2d7146104d7578063a9059cbb14610507578063c3cda52014610537576101c4565b80638da5cb5b116100d35780638da5cb5b1461043b5780638e539e8c1461045957806395d89b41146104895780639ab24eb0146104a7576101c4565b8063715018a6146103e557806379cc6790146103ef5780637ecebe001461040b576101c4565b80633a46b1a811610166578063587cde1e11610140578063587cde1e146103395780635c19a95c146103695780636fcfff451461038557806370a08231146103b5576101c4565b80633a46b1a8146102d157806340c10f191461030157806342966c681461031d576101c4565b806323b872dd116101a257806323b872dd14610235578063313ce567146102655780633644e5151461028357806339509351146102a1576101c4565b806306fdde03146101c9578063095ea7b3146101e757806318160ddd14610217575b600080fd5b6101d16105eb565b6040516101de9190612ab9565b60405180910390f35b61020160048036038101906101fc9190612b74565b61067d565b60405161020e9190612bcf565b60405180910390f35b61021f6106a0565b60405161022c9190612bf9565b60405180910390f35b61024f600480360381019061024a9190612c14565b6106aa565b60405161025c9190612bcf565b60405180910390f35b61026d6106d9565b60405161027a9190612c83565b60405180910390f35b61028b6106e2565b6040516102989190612cb7565b60405180910390f35b6102bb60048036038101906102b69190612b74565b6106f1565b6040516102c89190612bcf565b60405180910390f35b6102eb60048036038101906102e69190612b74565b610728565b6040516102f89190612bf9565b60405180910390f35b61031b60048036038101906103169190612b74565b6107bc565b005b61033760048036038101906103329190612cd2565b6107d2565b005b610353600480360381019061034e9190612cff565b6107e6565b6040516103609190612d3b565b60405180910390f35b610383600480360381019061037e9190612cff565b61084f565b005b61039f600480360381019061039a9190612cff565b610863565b6040516103ac9190612d75565b60405180910390f35b6103cf60048036038101906103ca9190612cff565b6108b7565b6040516103dc9190612bf9565b60405180910390f35b6103ed6108ff565b005b61040960048036038101906104049190612b74565b610913565b005b61042560048036038101906104209190612cff565b610933565b6040516104329190612bf9565b60405180910390f35b610443610983565b6040516104509190612d3b565b60405180910390f35b610473600480360381019061046e9190612cd2565b6109ad565b6040516104809190612bf9565b60405180910390f35b610491610a03565b60405161049e9190612ab9565b60405180910390f35b6104c160048036038101906104bc9190612cff565b610a95565b6040516104ce9190612bf9565b60405180910390f35b6104f160048036038101906104ec9190612b74565b610ba6565b6040516104fe9190612bcf565b60405180910390f35b610521600480360381019061051c9190612b74565b610c1d565b60405161052e9190612bcf565b60405180910390f35b610551600480360381019061054c9190612de8565b610c40565b005b61056d60048036038101906105689190612e75565b610d44565b005b61058960048036038101906105849190612f17565b610e86565b6040516105969190612bf9565b60405180910390f35b6105b960048036038101906105b49190612f83565b610f0d565b6040516105c69190613038565b60405180910390f35b6105e960048036038101906105e49190612cff565b61101d565b005b6060600380546105fa90613082565b80601f016020809104026020016040519081016040528092919081815260200182805461062690613082565b80156106735780601f1061064857610100808354040283529160200191610673565b820191906000526020600020905b81548152906001019060200180831161065657829003601f168201915b5050505050905090565b60008061068861139d565b90506106958185856113a5565b600191505092915050565b6000600254905090565b6000806106b561139d565b90506106c285828561156e565b6106cd8585856115fa565b60019150509392505050565b60006012905090565b60006106ec611870565b905090565b6000806106fc61139d565b905061071d81858561070e8589610e86565b61071891906130e2565b6113a5565b600191505092915050565b600043821061076c576040517f08c379a000000000000000000000000000000000000000000000000000000000815260040161076390613162565b60405180910390fd5b6107b4600960008573ffffffffffffffffffffffffffffffffffffffff1673ffffffffffffffffffffffffffffffffffffffff1681526020019081526020016000208361198a565b905092915050565b6107c4611adb565b6107ce8282611b59565b5050565b6107e36107dd61139d565b82611b67565b50565b6000600860008373ffffffffffffffffffffffffffffffffffffffff1673ffffffffffffffffffffffffffffffffffffffff16815260200190815260200160002060009054906101000a900473ffffffffffffffffffffffffffffffffffffffff169050919050565b61086061085a61139d565b82611b75565b50565b60006108b0600960008473ffffffffffffffffffffffffffffffffffffffff1673ffffffffffffffffffffffffffffffffffffffff16815260200190815260200160002080549050611304565b9050919050565b60008060008373ffffffffffffffffffffffffffffffffffffffff1673ffffffffffffffffffffffffffffffffffffffff168152602001908152602001600020549050919050565b610907611adb565b6109116000611c8f565b565b6109258261091f61139d565b8361156e565b61092f8282611b67565b5050565b600061097c600660008473ffffffffffffffffffffffffffffffffffffffff1673ffffffffffffffffffffffffffffffffffffffff168152602001908152602001600020611d55565b9050919050565b6000600560009054906101000a900473ffffffffffffffffffffffffffffffffffffffff16905090565b60004382106109f1576040517f08c379a00000000000000000000000000000000000000000000000000000000081526004016109e890613162565b60405180910390fd5b6109fc600a8361198a565b9050919050565b606060048054610a1290613082565b80601f0160208091040260200160405190810160405280929190818152602001828054610a3e90613082565b8015610a8b5780601f10610a6057610100808354040283529160200191610a8b565b820191906000526020600020905b815481529060010190602001808311610a6e57829003601f168201915b5050505050905090565b600080600960008473ffffffffffffffffffffffffffffffffffffffff1673ffffffffffffffffffffffffffffffffffffffff16815260200190815260200160002080549050905060008114610b7d57600960008473ffffffffffffffffffffffffffffffffffffffff1673ffffffffffffffffffffffffffffffffffffffff168152602001908152602001600020600182610b319190613182565b81548110610b4257610b416131b6565b5b9060005260206000200160000160049054906101000a90047bffffffffffffffffffffffffffffffffffffffffffffffffffffffff16610b80565b60005b7bffffffffffffffffffffffffffffffffffffffffffffffffffffffff16915050919050565b600080610bb161139d565b90506000610bbf8286610e86565b905083811015610c04576040517f08c379a0000000000000000000000000000000000000000000000000000000008152600401610bfb90613257565b60405180910390fd5b610c1182868684036113a5565b60019250505092915050565b600080610c2861139d565b9050610c358185856115fa565b600191505092915050565b83421115610c83576040517f08c379a0000000000000000000000000000000000000000000000000000000008152600401610c7a906132c3565b60405180910390fd5b6000610ce5610cdd7fe48329057bfd03d55e49b547132e39cffd9c1820ad7b9d4c5307691425d15adf898989604051602001610cc294939291906132e3565b60405160208183030381529060405280519060200120611d63565b858585611d7d565b9050610cf081611da8565b8614610d31576040517f08c379a0000000000000000000000000000000000000000000000000000000008152600401610d2890613374565b60405180910390fd5b610d3b8188611b75565b50505050505050565b83421115610d87576040517f08c379a0000000000000000000000000000000000000000000000000000000008152600401610d7e906133e0565b60405180910390fd5b60007f6e71edae12b1b97f4d1f60370fef10105fa2faae0126114a169c64845d6126c9888888610db68c611da8565b89604051602001610dcc96959493929190613400565b6040516020818303038152906040528051906020012090506000610def82611d63565b90506000610dff82878787611d7d565b90508973ffffffffffffffffffffffffffffffffffffffff168173ffffffffffffffffffffffffffffffffffffffff1614610e6f576040517f08c379a0000000000000000000000000000000000000000000000000000000008152600401610e66906134ad565b60405180910390fd5b610e7a8a8a8a6113a5565b50505050505050505050565b6000600160008473ffffffffffffffffffffffffffffffffffffffff1673ffffffffffffffffffffffffffffffffffffffff16815260200190815260200160002060008373ffffffffffffffffffffffffffffffffffffffff1673ffffffffffffffffffffffffffffffffffffffff16815260200190815260200160002054905092915050565b610f156129eb565b600960008473ffffffffffffffffffffffffffffffffffffffff1673ffffffffffffffffffffffffffffffffffffffff1681526020019081526020016000208263ffffffff1681548110610f6c57610f6b6131b6565b5b906000526020600020016040518060400160405290816000820160009054906101000a900463ffffffff1663ffffffff1663ffffffff1681526020016000820160049054906101000a90047bffffffffffffffffffffffffffffffffffffffffffffffffffffffff167bffffffffffffffffffffffffffffffffffffffffffffffffffffffff167bffffffffffffffffffffffffffffffffffffffffffffffffffffffff1681525050905092915050565b611025611adb565b600073ffffffffffffffffffffffffffffffffffffffff168173ffffffffffffffffffffffffffffffffffffffff1603611094576040517f08c379a000000000000000000000000000000000000000000000000000000000815260040161108b9061353f565b60405180910390fd5b61109d81611c8f565b50565b6110aa828261112d565b6110b2611e06565b7bffffffffffffffffffffffffffffffffffffffffffffffffffffffff166110d86106a0565b1115611119576040517f08c379a0000000000000000000000000000000000000000000000000000000008152600401611110906135d1565b60405180910390fd5b611127600a61128383611e2a565b50505050565b600073ffffffffffffffffffffffffffffffffffffffff168273ffffffffffffffffffffffffffffffffffffffff160361119c576040517f08c379a00000000000000000000000000000000000000000000000000000000081526004016111939061363d565b60405180910390fd5b6111a8600083836120f9565b80600260008282546111ba91906130e2565b92505081905550806000808473ffffffffffffffffffffffffffffffffffffffff1673ffffffffffffffffffffffffffffffffffffffff168152602001908152602001600020600082825401925050819055508173ffffffffffffffffffffffffffffffffffffffff16600073ffffffffffffffffffffffffffffffffffffffff167fddf252ad1be2c89b69c2b068fc378daa952ba7f163c4a11628f55a4df523b3ef8360405161126b9190612bf9565b60405180910390a361127f600083836120fe565b5050565b6000818361129191906130e2565b905092915050565b60007bffffffffffffffffffffffffffffffffffffffffffffffffffffffff80168211156112fc576040517f08c379a00000000000000000000000000000000000000000000000000000000081526004016112f3906136cf565b60405180910390fd5b819050919050565b600063ffffffff801682111561134f576040517f08c379a000000000000000000000000000000000000000000000000000000000815260040161134690613761565b60405180910390fd5b819050919050565b611362838383611382565b61137d61136e846107e6565b611377846107e6565b8361210e565b505050565b505050565b600081836113959190613182565b905092915050565b600033905090565b600073ffffffffffffffffffffffffffffffffffffffff168373ffffffffffffffffffffffffffffffffffffffff1603611414576040517f08c379a000000000000000000000000000000000000000000000000000000000815260040161140b906137f3565b60405180910390fd5b600073ffffffffffffffffffffffffffffffffffffffff168273ffffffffffffffffffffffffffffffffffffffff1603611483576040517f08c379a000000000000000000000000000000000000000000000000000000000815260040161147a90613885565b60405180910390fd5b80600160008573ffffffffffffffffffffffffffffffffffffffff1673ffffffffffffffffffffffffffffffffffffffff16815260200190815260200160002060008473ffffffffffffffffffffffffffffffffffffffff1673ffffffffffffffffffffffffffffffffffffffff168152602001908152602001600020819055508173ffffffffffffffffffffffffffffffffffffffff168373ffffffffffffffffffffffffffffffffffffffff167f8c5be1e5ebec7d5bd14f71427d1e84f3dd0314c0f7b2291e5b200ac8c7c3b925836040516115619190612bf9565b60405180910390a3505050565b600061157a8484610e86565b90507fffffffffffffffffffffffffffffffffffffffffffffffffffffffffffffffff81146115f457818110156115e6576040517f08c379a00000000000000000000000000000000000000000000000000000000081526004016115dd906138f1565b60405180910390fd5b6115f384848484036113a5565b5b50505050565b600073ffffffffffffffffffffffffffffffffffffffff168373ffffffffffffffffffffffffffffffffffffffff1603611669576040517f08c379a000000000000000000000000000000000000000000000000000000000815260040161166090613983565b60405180910390fd5b600073ffffffffffffffffffffffffffffffffffffffff168273ffffffffffffffffffffffffffffffffffffffff16036116d8576040517f08c379a00000000000000000000000000000000000000000000000000000000081526004016116cf90613a15565b60405180910390fd5b6116e38383836120f9565b60008060008573ffffffffffffffffffffffffffffffffffffffff1673ffffffffffffffffffffffffffffffffffffffff16815260200190815260200160002054905081811015611769576040517f08c379a000000000000000000000000000000000000000000000000000000000815260040161176090613aa7565b60405180910390fd5b8181036000808673ffffffffffffffffffffffffffffffffffffffff1673ffffffffffffffffffffffffffffffffffffffff16815260200190815260200160002081905550816000808573ffffffffffffffffffffffffffffffffffffffff1673ffffffffffffffffffffffffffffffffffffffff168152602001908152602001600020600082825401925050819055508273ffffffffffffffffffffffffffffffffffffffff168473ffffffffffffffffffffffffffffffffffffffff167fddf252ad1be2c89b69c2b068fc378daa952ba7f163c4a11628f55a4df523b3ef846040516118579190612bf9565b60405180910390a361186a8484846120fe565b50505050565b60007f000000000000000000000000000000000000000000000000000000000000000073ffffffffffffffffffffffffffffffffffffffff163073ffffffffffffffffffffffffffffffffffffffff161480156118ec57507f000000000000000000000000000000000000000000000000000000000000000046145b15611919577f00000000000000000000000000000000000000000000000000000000000000009050611987565b6119847f00000000000000000000000000000000000000000000000000000000000000007f00000000000000000000000000000000000000000000000000000000000000007f0000000000000000000000000000000000000000000000000000000000000000612307565b90505b90565b600080838054905090506000808290506005831115611a005760006119ae84612341565b846119b99190613182565b9050856119c6888361243a565b60000160009054906101000a900463ffffffff1663ffffffff1611156119ee578091506119fe565b6001816119fb91906130e2565b92505b505b5b80821015611a60576000611a15838361244f565b905085611a22888361243a565b60000160009054906101000a900463ffffffff1663ffffffff161115611a4a57809150611a5a565b600181611a5791906130e2565b92505b50611a01565b60008114611aaf57611a7e86600183611a799190613182565b61243a565b60000160049054906101000a90047bffffffffffffffffffffffffffffffffffffffffffffffffffffffff16611ab2565b60005b7bffffffffffffffffffffffffffffffffffffffffffffffffffffffff16935050505092915050565b611ae361139d565b73ffffffffffffffffffffffffffffffffffffffff16611b01610983565b73ffffffffffffffffffffffffffffffffffffffff1614611b57576040517f08c379a0000000000000000000000000000000000000000000000000000000008152600401611b4e90613b13565b60405180910390fd5b565b611b6382826110a0565b5050565b611b718282612475565b5050565b6000611b80836107e6565b90506000611b8d846108b7565b905082600860008673ffffffffffffffffffffffffffffffffffffffff1673ffffffffffffffffffffffffffffffffffffffff16815260200190815260200160002060006101000a81548173ffffffffffffffffffffffffffffffffffffffff021916908373ffffffffffffffffffffffffffffffffffffffff1602179055508273ffffffffffffffffffffffffffffffffffffffff168273ffffffffffffffffffffffffffffffffffffffff168573ffffffffffffffffffffffffffffffffffffffff167f3134e8a2e6d97e929a7e54011ea5485d7d196dd5f0ba4d4ef95803e8e3fc257f60405160405180910390a4611c8982848361210e565b50505050565b6000600560009054906101000a900473ffffffffffffffffffffffffffffffffffffffff16905081600560006101000a81548173ffffffffffffffffffffffffffffffffffffffff021916908373ffffffffffffffffffffffffffffffffffffffff1602179055508173ffffffffffffffffffffffffffffffffffffffff168173ffffffffffffffffffffffffffffffffffffffff167f8be0079c531659141344cd1fd0a4f28419497f9722a3daafe3b4186f6b6457e060405160405180910390a35050565b600081600001549050919050565b6000611d76611d70611870565b83612493565b9050919050565b6000806000611d8e878787876124c6565b91509150611d9b816125a8565b8192505050949350505050565b600080600660008473ffffffffffffffffffffffffffffffffffffffff1673ffffffffffffffffffffffffffffffffffffffff1681526020019081526020016000209050611df581611d55565b9150611e008161270e565b50919050565b60007bffffffffffffffffffffffffffffffffffffffffffffffffffffffff905090565b6000806000858054905090506000808214611ef957611e5587600184611e509190613182565b61243a565b6040518060400160405290816000820160009054906101000a900463ffffffff1663ffffffff1663ffffffff1681526020016000820160049054906101000a90047bffffffffffffffffffffffffffffffffffffffffffffffffffffffff167bffffffffffffffffffffffffffffffffffffffffffffffffffffffff167bffffffffffffffffffffffffffffffffffffffffffffffffffffffff1681525050611f35565b6040518060400160405280600063ffffffff16815260200160007bffffffffffffffffffffffffffffffffffffffffffffffffffffffff168152505b905080602001517bffffffffffffffffffffffffffffffffffffffffffffffffffffffff169350611f6a84868863ffffffff16565b9250600082118015611f85575043816000015163ffffffff16145b15611fff57611f9383611299565b611fa988600185611fa49190613182565b61243a565b60000160046101000a8154817bffffffffffffffffffffffffffffffffffffffffffffffffffffffff02191690837bffffffffffffffffffffffffffffffffffffffffffffffffffffffff1602179055506120ef565b86604051806040016040528061201443611304565b63ffffffff16815260200161202886611299565b7bffffffffffffffffffffffffffffffffffffffffffffffffffffffff168152509080600181540180825580915050600190039060005260206000200160009091909190915060008201518160000160006101000a81548163ffffffff021916908363ffffffff16021790555060208201518160000160046101000a8154817bffffffffffffffffffffffffffffffffffffffffffffffffffffffff02191690837bffffffffffffffffffffffffffffffffffffffffffffffffffffffff16021790555050505b5050935093915050565b505050565b612109838383611357565b505050565b8173ffffffffffffffffffffffffffffffffffffffff168373ffffffffffffffffffffffffffffffffffffffff161415801561214a5750600081115b1561230257600073ffffffffffffffffffffffffffffffffffffffff168373ffffffffffffffffffffffffffffffffffffffff1614612228576000806121d1600960008773ffffffffffffffffffffffffffffffffffffffff1673ffffffffffffffffffffffffffffffffffffffff16815260200190815260200160002061138785611e2a565b915091508473ffffffffffffffffffffffffffffffffffffffff167fdec2bacdd2f05b59de34da9b523dff8be42e5e38e818c82fdb0bae774387a724838360405161221d929190613b33565b60405180910390a250505b600073ffffffffffffffffffffffffffffffffffffffff168273ffffffffffffffffffffffffffffffffffffffff1614612301576000806122aa600960008673ffffffffffffffffffffffffffffffffffffffff1673ffffffffffffffffffffffffffffffffffffffff16815260200190815260200160002061128385611e2a565b915091508373ffffffffffffffffffffffffffffffffffffffff167fdec2bacdd2f05b59de34da9b523dff8be42e5e38e818c82fdb0bae774387a72483836040516122f6929190613b33565b60405180910390a250505b5b505050565b60008383834630604051602001612322959493929190613b5c565b6040516020818303038152906040528051906020012090509392505050565b60008082036123535760009050612435565b6000600161236084612724565b901c6001901b9050600181848161237a57612379613baf565b5b048201901c9050600181848161239357612392613baf565b5b048201901c905060018184816123ac576123ab613baf565b5b048201901c905060018184816123c5576123c4613baf565b5b048201901c905060018184816123de576123dd613baf565b5b048201901c905060018184816123f7576123f6613baf565b5b048201901c905060018184816124105761240f613baf565b5b048201901c90506124318182858161242b5761242a613baf565b5b04612805565b9150505b919050565b60008260005281602060002001905092915050565b600060028284186124609190613bde565b82841661246d91906130e2565b905092915050565b61247f828261281e565b61248d600a61138783611e2a565b50505050565b600082826040516020016124a8929190613c87565b60405160208183030381529060405280519060200120905092915050565b6000807f7fffffffffffffffffffffffffffffff5d576e7357a4501ddfe92f46681b20a08360001c111561250157600060039150915061259f565b6000600187878787604051600081526020016040526040516125269493929190613cbe565b6020604051602081039080840390855afa158015612548573d6000803e3d6000fd5b505050602060405103519050600073ffffffffffffffffffffffffffffffffffffffff168173ffffffffffffffffffffffffffffffffffffffff16036125965760006001925092505061259f565b80600092509250505b94509492505050565b600060048111156125bc576125bb613d03565b5b8160048111156125cf576125ce613d03565b5b031561270b57600160048111156125e9576125e8613d03565b5b8160048111156125fc576125fb613d03565b5b0361263c576040517f08c379a000000000000000000000000000000000000000000000000000000000815260040161263390613d7e565b60405180910390fd5b600260048111156126505761264f613d03565b5b81600481111561266357612662613d03565b5b036126a3576040517f08c379a000000000000000000000000000000000000000000000000000000000815260040161269a90613dea565b60405180910390fd5b600360048111156126b7576126b6613d03565b5b8160048111156126ca576126c9613d03565b5b0361270a576040517f08c379a000000000000000000000000000000000000000000000000000000000815260040161270190613e7c565b60405180910390fd5b5b50565b6001816000016000828254019250508190555050565b600080600090506000608084901c111561274657608083901c92506080810190505b6000604084901c111561276157604083901c92506040810190505b6000602084901c111561277c57602083901c92506020810190505b6000601084901c111561279757601083901c92506010810190505b6000600884901c11156127b257600883901c92506008810190505b6000600484901c11156127cd57600483901c92506004810190505b6000600284901c11156127e857600283901c92506002810190505b6000600184901c11156127fc576001810190505b80915050919050565b60008183106128145781612816565b825b905092915050565b600073ffffffffffffffffffffffffffffffffffffffff168273ffffffffffffffffffffffffffffffffffffffff160361288d576040517f08c379a000000000000000000000000000000000000000000000000000000000815260040161288490613f0e565b60405180910390fd5b612899826000836120f9565b60008060008473ffffffffffffffffffffffffffffffffffffffff1673ffffffffffffffffffffffffffffffffffffffff1681526020019081526020016000205490508181101561291f576040517f08c379a000000000000000000000000000000000000000000000000000000000815260040161291690613fa0565b60405180910390fd5b8181036000808573ffffffffffffffffffffffffffffffffffffffff1673ffffffffffffffffffffffffffffffffffffffff1681526020019081526020016000208190555081600260008282540392505081905550600073ffffffffffffffffffffffffffffffffffffffff168373ffffffffffffffffffffffffffffffffffffffff167fddf252ad1be2c89b69c2b068fc378daa952ba7f163c4a11628f55a4df523b3ef846040516129d29190612bf9565b60405180910390a36129e6836000846120fe565b505050565b6040518060400160405280600063ffffffff16815260200160007bffffffffffffffffffffffffffffffffffffffffffffffffffffffff1681525090565b600081519050919050565b600082825260208201905092915050565b60005b83811015612a63578082015181840152602081019050612a48565b60008484015250505050565b6000601f19601f8301169050919050565b6000612a8b82612a29565b612a958185612a34565b9350612aa5818560208601612a45565b612aae81612a6f565b840191505092915050565b60006020820190508181036000830152612ad38184612a80565b905092915050565b600080fd5b600073ffffffffffffffffffffffffffffffffffffffff82169050919050565b6000612b0b82612ae0565b9050919050565b612b1b81612b00565b8114612b2657600080fd5b50565b600081359050612b3881612b12565b92915050565b6000819050919050565b612b5181612b3e565b8114612b5c57600080fd5b50565b600081359050612b6e81612b48565b92915050565b60008060408385031215612b8b57612b8a612adb565b5b6000612b9985828601612b29565b9250506020612baa85828601612b5f565b9150509250929050565b60008115159050919050565b612bc981612bb4565b82525050565b6000602082019050612be46000830184612bc0565b92915050565b612bf381612b3e565b82525050565b6000602082019050612c0e6000830184612bea565b92915050565b600080600060608486031215612c2d57612c2c612adb565b5b6000612c3b86828701612b29565b9350506020612c4c86828701612b29565b9250506040612c5d86828701612b5f565b9150509250925092565b600060ff82169050919050565b612c7d81612c67565b82525050565b6000602082019050612c986000830184612c74565b92915050565b6000819050919050565b612cb181612c9e565b82525050565b6000602082019050612ccc6000830184612ca8565b92915050565b600060208284031215612ce857612ce7612adb565b5b6000612cf684828501612b5f565b91505092915050565b600060208284031215612d1557612d14612adb565b5b6000612d2384828501612b29565b91505092915050565b612d3581612b00565b82525050565b6000602082019050612d506000830184612d2c565b92915050565b600063ffffffff82169050919050565b612d6f81612d56565b82525050565b6000602082019050612d8a6000830184612d66565b92915050565b612d9981612c67565b8114612da457600080fd5b50565b600081359050612db681612d90565b92915050565b612dc581612c9e565b8114612dd057600080fd5b50565b600081359050612de281612dbc565b92915050565b60008060008060008060c08789031215612e0557612e04612adb565b5b6000612e1389828a01612b29565b9650506020612e2489828a01612b5f565b9550506040612e3589828a01612b5f565b9450506060612e4689828a01612da7565b9350506080612e5789828a01612dd3565b92505060a0612e6889828a01612dd3565b9150509295509295509295565b600080600080600080600060e0888a031215612e9457612e93612adb565b5b6000612ea28a828b01612b29565b9750506020612eb38a828b01612b29565b9650506040612ec48a828b01612b5f565b9550506060612ed58a828b01612b5f565b9450506080612ee68a828b01612da7565b93505060a0612ef78a828b01612dd3565b92505060c0612f088a828b01612dd3565b91505092959891949750929550565b60008060408385031215612f2e57612f2d612adb565b5b6000612f3c85828601612b29565b9250506020612f4d85828601612b29565b9150509250929050565b612f6081612d56565b8114612f6b57600080fd5b50565b600081359050612f7d81612f57565b92915050565b60008060408385031215612f9a57612f99612adb565b5b6000612fa885828601612b29565b9250506020612fb985828601612f6e565b9150509250929050565b612fcc81612d56565b82525050565b60007bffffffffffffffffffffffffffffffffffffffffffffffffffffffff82169050919050565b61300381612fd2565b82525050565b60408201600082015161301f6000850182612fc3565b5060208201516130326020850182612ffa565b50505050565b600060408201905061304d6000830184613009565b92915050565b7f4e487b7100000000000000000000000000000000000000000000000000000000600052602260045260246000fd5b6000600282049050600182168061309a57607f821691505b6020821081036130ad576130ac613053565b5b50919050565b7f4e487b7100000000000000000000000000000000000000000000000000000000600052601160045260246000fd5b60006130ed82612b3e565b91506130f883612b3e565b92508282019050808211156131105761310f6130b3565b5b92915050565b7f4552433230566f7465733a20626c6f636b206e6f7420796574206d696e656400600082015250565b600061314c601f83612a34565b915061315782613116565b602082019050919050565b6000602082019050818103600083015261317b8161313f565b9050919050565b600061318d82612b3e565b915061319883612b3e565b92508282039050818111156131b0576131af6130b3565b5b92915050565b7f4e487b7100000000000000000000000000000000000000000000000000000000600052603260045260246000fd5b7f45524332303a2064656372656173656420616c6c6f77616e63652062656c6f7760008201527f207a65726f000000000000000000000000000000000000000000000000000000602082015250565b6000613241602583612a34565b915061324c826131e5565b604082019050919050565b6000602082019050818103600083015261327081613234565b9050919050565b7f4552433230566f7465733a207369676e61747572652065787069726564000000600082015250565b60006132ad601d83612a34565b91506132b882613277565b602082019050919050565b600060208201905081810360008301526132dc816132a0565b9050919050565b60006080820190506132f86000830187612ca8565b6133056020830186612d2c565b6133126040830185612bea565b61331f6060830184612bea565b95945050505050565b7f4552433230566f7465733a20696e76616c6964206e6f6e636500000000000000600082015250565b600061335e601983612a34565b915061336982613328565b602082019050919050565b6000602082019050818103600083015261338d81613351565b9050919050565b7f45524332305065726d69743a206578706972656420646561646c696e65000000600082015250565b60006133ca601d83612a34565b91506133d582613394565b602082019050919050565b600060208201905081810360008301526133f9816133bd565b9050919050565b600060c0820190506134156000830189612ca8565b6134226020830188612d2c565b61342f6040830187612d2c565b61343c6060830186612bea565b6134496080830185612bea565b61345660a0830184612bea565b979650505050505050565b7f45524332305065726d69743a20696e76616c6964207369676e61747572650000600082015250565b6000613497601e83612a34565b91506134a282613461565b602082019050919050565b600060208201905081810360008301526134c68161348a565b9050919050565b7f4f776e61626c653a206e6577206f776e657220697320746865207a65726f206160008201527f6464726573730000000000000000000000000000000000000000000000000000602082015250565b6000613529602683612a34565b9150613534826134cd565b604082019050919050565b600060208201905081810360008301526135588161351c565b9050919050565b7f4552433230566f7465733a20746f74616c20737570706c79207269736b73206f60008201527f766572666c6f77696e6720766f74657300000000000000000000000000000000602082015250565b60006135bb603083612a34565b91506135c68261355f565b604082019050919050565b600060208201905081810360008301526135ea816135ae565b9050919050565b7f45524332303a206d696e7420746f20746865207a65726f206164647265737300600082015250565b6000613627601f83612a34565b9150613632826135f1565b602082019050919050565b600060208201905081810360008301526136568161361a565b9050919050565b7f53616665436173743a2076616c756520646f65736e27742066697420696e203260008201527f3234206269747300000000000000000000000000000000000000000000000000602082015250565b60006136b9602783612a34565b91506136c48261365d565b604082019050919050565b600060208201905081810360008301526136e8816136ac565b9050919050565b7f53616665436173743a2076616c756520646f65736e27742066697420696e203360008201527f3220626974730000000000000000000000000000000000000000000000000000602082015250565b600061374b602683612a34565b9150613756826136ef565b604082019050919050565b6000602082019050818103600083015261377a8161373e565b9050919050565b7f45524332303a20617070726f76652066726f6d20746865207a65726f2061646460008201527f7265737300000000000000000000000000000000000000000000000000000000602082015250565b60006137dd602483612a34565b91506137e882613781565b604082019050919050565b6000602082019050818103600083015261380c816137d0565b9050919050565b7f45524332303a20617070726f766520746f20746865207a65726f20616464726560008201527f7373000000000000000000000000000000000000000000000000000000000000602082015250565b600061386f602283612a34565b915061387a82613813565b604082019050919050565b6000602082019050818103600083015261389e81613862565b9050919050565b7f45524332303a20696e73756666696369656e7420616c6c6f77616e6365000000600082015250565b60006138db601d83612a34565b91506138e6826138a5565b602082019050919050565b6000602082019050818103600083015261390a816138ce565b9050919050565b7f45524332303a207472616e736665722066726f6d20746865207a65726f20616460008201527f6472657373000000000000000000000000000000000000000000000000000000602082015250565b600061396d602583612a34565b915061397882613911565b604082019050919050565b6000602082019050818103600083015261399c81613960565b9050919050565b7f45524332303a207472616e7366657220746f20746865207a65726f206164647260008201527f6573730000000000000000000000000000000000000000000000000000000000602082015250565b60006139ff602383612a34565b9150613a0a826139a3565b604082019050919050565b60006020820190508181036000830152613a2e816139f2565b9050919050565b7f45524332303a207472616e7366657220616d6f756e742065786365656473206260008201527f616c616e63650000000000000000000000000000000000000000000000000000602082015250565b6000613a91602683612a34565b9150613a9c82613a35565b604082019050919050565b60006020820190508181036000830152613ac081613a84565b9050919050565b7f4f776e61626c653a2063616c6c6572206973206e6f7420746865206f776e6572600082015250565b6000613afd602083612a34565b9150613b0882613ac7565b602082019050919050565b60006020820190508181036000830152613b2c81613af0565b9050919050565b6000604082019050613b486000830185612bea565b613b556020830184612bea565b9392505050565b600060a082019050613b716000830188612ca8565b613b7e6020830187612ca8565b613b8b6040830186612ca8565b613b986060830185612bea565b613ba56080830184612d2c565b9695505050505050565b7f4e487b7100000000000000000000000000000000000000000000000000000000600052601260045260246000fd5b6000613be982612b3e565b9150613bf483612b3e565b925082613c0457613c03613baf565b5b828204905092915050565b600081905092915050565b7f1901000000000000000000000000000000000000000000000000000000000000600082015250565b6000613c50600283613c0f565b9150613c5b82613c1a565b600282019050919050565b6000819050919050565b613c81613c7c82612c9e565b613c66565b82525050565b6000613c9282613c43565b9150613c9e8285613c70565b602082019150613cae8284613c70565b6020820191508190509392505050565b6000608082019050613cd36000830187612ca8565b613ce06020830186612c74565b613ced6040830185612ca8565b613cfa6060830184612ca8565b95945050505050565b7f4e487b7100000000000000000000000000000000000000000000000000000000600052602160045260246000fd5b7f45434453413a20696e76616c6964207369676e61747572650000000000000000600082015250565b6000613d68601883612a34565b9150613d7382613d32565b602082019050919050565b60006020820190508181036000830152613d9781613d5b565b9050919050565b7f45434453413a20696e76616c6964207369676e6174757265206c656e67746800600082015250565b6000613dd4601f83612a34565b9150613ddf82613d9e565b602082019050919050565b60006020820190508181036000830152613e0381613dc7565b9050919050565b7f45434453413a20696e76616c6964207369676e6174757265202773272076616c60008201527f7565000000000000000000000000000000000000000000000000000000000000602082015250565b6000613e66602283612a34565b9150613e7182613e0a565b604082019050919050565b60006020820190508181036000830152613e9581613e59565b9050919050565b7f45524332303a206275726e2066726f6d20746865207a65726f2061646472657360008201527f7300000000000000000000000000000000000000000000000000000000000000602082015250565b6000613ef8602183612a34565b9150613f0382613e9c565b604082019050919050565b60006020820190508181036000830152613f2781613eeb565b9050919050565b7f45524332303a206275726e20616d6f756e7420657863656564732062616c616e60008201527f6365000000000000000000000000000000000000000000000000000000000000602082015250565b6000613f8a602283612a34565b9150613f9582613f2e565b604082019050919050565b60006020820190508181036000830152613fb981613f7d565b905091905056fea2646970667358221220138f5563c43b02cd4c1f2df67f1b5cff3ab22d0324411a89266d33691e551b6964736f6c63430008100033",
  "immutableReferences": {
    "4732": [
      {
        "length": 32,
        "start": 6387
      }
    ],
    "4734": [
      {
        "length": 32,
        "start": 6346
      }
    ],
    "4736": [
      {
        "length": 32,
        "start": 6260
      }
    ],
    "4738": [
      {
        "length": 32,
        "start": 6463
      }
    ],
    "4740": [
      {
        "length": 32,
        "start": 6496
      }
    ],
    "4742": [
      {
        "length": 32,
        "start": 6430
      }
    ]
  },
  "source": "// SPDX-License-Identifier: MIT\npragma solidity ^0.8.9;\n\nimport \"@openzeppelin/contracts/token/ERC20/ERC20.sol\";\nimport \"@openzeppelin/contracts/token/ERC20/extensions/ERC20Burnable.sol\";\nimport \"@openzeppelin/contracts/access/Ownable.sol\";\nimport \"@openzeppelin/contracts/token/ERC20/extensions/draft-ERC20Permit.sol\";\nimport \"@openzeppelin/contracts/token/ERC20/extensions/ERC20Votes.sol\";\n\ncontract CodeMavericks is ERC20, ERC20Burnable, Ownable, ERC20Permit, ERC20Votes {\n    constructor() ERC20(\"CodeMavericks\", \"Cmv\") ERC20Permit(\"CodeMavericks\") {\n        _mint(msg.sender, 1000 * 10 ** decimals());\n    }\n\n    function mint(address to, uint256 amount) public onlyOwner {\n        _mint(to, amount);\n    }\n\n    // The following functions are overrides required by Solidity.\n\n    function _afterTokenTransfer(address from, address to, uint256 amount)\n        internal\n        override(ERC20, ERC20Votes)\n    {\n        super._afterTokenTransfer(from, to, amount);\n    }\n\n    function _mint(address to, uint256 amount)\n        internal\n        override(ERC20, ERC20Votes)\n    {\n        super._mint(to, amount);\n    }\n\n    function _burn(address account, uint256 amount)\n        internal\n        override(ERC20, ERC20Votes)\n    {\n        super._burn(account, amount);\n    }\n}\n",
  "sourcePath": "/home/senyou/nft-collection/contracts/CodeMavericksToken.sol",
  "compiler": {
    "name": "solc",
    "version": "0.8.16+commit.07a7930e.Emscripten.clang"
  },
  "schemaVersion": "3.4.9",
  "updatedAt": "2023-05-05T22:54:30.465Z",
  "networkType": "ethereum",
  "devdoc": {
    "kind": "dev",
    "methods": {
      "DOMAIN_SEPARATOR()": {
        "details": "See {IERC20Permit-DOMAIN_SEPARATOR}."
      },
      "allowance(address,address)": {
        "details": "See {IERC20-allowance}."
      },
      "approve(address,uint256)": {
        "details": "See {IERC20-approve}. NOTE: If `amount` is the maximum `uint256`, the allowance is not updated on `transferFrom`. This is semantically equivalent to an infinite approval. Requirements: - `spender` cannot be the zero address."
      },
      "balanceOf(address)": {
        "details": "See {IERC20-balanceOf}."
      },
      "burn(uint256)": {
        "details": "Destroys `amount` tokens from the caller. See {ERC20-_burn}."
      },
      "burnFrom(address,uint256)": {
        "details": "Destroys `amount` tokens from `account`, deducting from the caller's allowance. See {ERC20-_burn} and {ERC20-allowance}. Requirements: - the caller must have allowance for ``accounts``'s tokens of at least `amount`."
      },
      "checkpoints(address,uint32)": {
        "details": "Get the `pos`-th checkpoint for `account`."
      },
      "decimals()": {
        "details": "Returns the number of decimals used to get its user representation. For example, if `decimals` equals `2`, a balance of `505` tokens should be displayed to a user as `5.05` (`505 / 10 ** 2`). Tokens usually opt for a value of 18, imitating the relationship between Ether and Wei. This is the value {ERC20} uses, unless this function is overridden; NOTE: This information is only used for _display_ purposes: it in no way affects any of the arithmetic of the contract, including {IERC20-balanceOf} and {IERC20-transfer}."
      },
      "decreaseAllowance(address,uint256)": {
        "details": "Atomically decreases the allowance granted to `spender` by the caller. This is an alternative to {approve} that can be used as a mitigation for problems described in {IERC20-approve}. Emits an {Approval} event indicating the updated allowance. Requirements: - `spender` cannot be the zero address. - `spender` must have allowance for the caller of at least `subtractedValue`."
      },
      "delegate(address)": {
        "details": "Delegate votes from the sender to `delegatee`."
      },
      "delegateBySig(address,uint256,uint256,uint8,bytes32,bytes32)": {
        "details": "Delegates votes from signer to `delegatee`"
      },
      "delegates(address)": {
        "details": "Get the address `account` is currently delegating to."
      },
      "getPastTotalSupply(uint256)": {
        "details": "Retrieve the `totalSupply` at the end of `blockNumber`. Note, this value is the sum of all balances. It is but NOT the sum of all the delegated votes! Requirements: - `blockNumber` must have been already mined"
      },
      "getPastVotes(address,uint256)": {
        "details": "Retrieve the number of votes for `account` at the end of `blockNumber`. Requirements: - `blockNumber` must have been already mined"
      },
      "getVotes(address)": {
        "details": "Gets the current votes balance for `account`"
      },
      "increaseAllowance(address,uint256)": {
        "details": "Atomically increases the allowance granted to `spender` by the caller. This is an alternative to {approve} that can be used as a mitigation for problems described in {IERC20-approve}. Emits an {Approval} event indicating the updated allowance. Requirements: - `spender` cannot be the zero address."
      },
      "name()": {
        "details": "Returns the name of the token."
      },
      "nonces(address)": {
        "details": "See {IERC20Permit-nonces}."
      },
      "numCheckpoints(address)": {
        "details": "Get number of checkpoints for `account`."
      },
      "owner()": {
        "details": "Returns the address of the current owner."
      },
      "permit(address,address,uint256,uint256,uint8,bytes32,bytes32)": {
        "details": "See {IERC20Permit-permit}."
      },
      "renounceOwnership()": {
        "details": "Leaves the contract without owner. It will not be possible to call `onlyOwner` functions anymore. Can only be called by the current owner. NOTE: Renouncing ownership will leave the contract without an owner, thereby removing any functionality that is only available to the owner."
      },
      "symbol()": {
        "details": "Returns the symbol of the token, usually a shorter version of the name."
      },
      "totalSupply()": {
        "details": "See {IERC20-totalSupply}."
      },
      "transfer(address,uint256)": {
        "details": "See {IERC20-transfer}. Requirements: - `to` cannot be the zero address. - the caller must have a balance of at least `amount`."
      },
      "transferFrom(address,address,uint256)": {
        "details": "See {IERC20-transferFrom}. Emits an {Approval} event indicating the updated allowance. This is not required by the EIP. See the note at the beginning of {ERC20}. NOTE: Does not update the allowance if the current allowance is the maximum `uint256`. Requirements: - `from` and `to` cannot be the zero address. - `from` must have a balance of at least `amount`. - the caller must have allowance for ``from``'s tokens of at least `amount`."
      },
      "transferOwnership(address)": {
        "details": "Transfers ownership of the contract to a new account (`newOwner`). Can only be called by the current owner."
      }
    },
    "version": 1
  },
  "userdoc": {
    "kind": "user",
    "methods": {},
    "version": 1
  }
}