{
  "contractName": "CodeMavericksMarketPlace",
  "abi": [
    {
      "inputs": [
        {
          "internalType": "address",
          "name": "_nftContract",
          "type": "address"
        }
      ],
      "stateMutability": "nonpayable",
      "type": "constructor"
    },
    {
      "inputs": [],
      "name": "nftContract",
      "outputs": [
        {
          "internalType": "contract CodeMavricksNft",
          "name": "",
          "type": "address"
        }
      ],
      "stateMutability": "view",
      "type": "function",
      "constant": true
    },
    {
      "inputs": [
        {
          "internalType": "uint256",
          "name": "tokenId",
          "type": "uint256"
        }
      ],
      "name": "buyNFT",
      "outputs": [],
      "stateMutability": "payable",
      "type": "function",
      "payable": true
    },
    {
      "inputs": [
        {
          "internalType": "uint256",
          "name": "tokenId",
          "type": "uint256"
        },
        {
          "internalType": "uint256",
          "name": "price",
          "type": "uint256"
        }
      ],
      "name": "sellNFT",
      "outputs": [],
      "stateMutability": "nonpayable",
      "type": "function"
    },
    {
      "inputs": [
        {
          "internalType": "uint256",
          "name": "tokenId",
          "type": "uint256"
        }
      ],
      "name": "removeSale",
      "outputs": [],
      "stateMutability": "nonpayable",
      "type": "function"
    },
    {
      "inputs": [],
      "name": "getNFTsForSale",
      "outputs": [
        {
          "internalType": "uint256[]",
          "name": "",
          "type": "uint256[]"
        }
      ],
      "stateMutability": "view",
      "type": "function",
      "constant": true
    }
  ],
  "bytecode": "0x60806040523480156200001157600080fd5b5060405162001963380380620019638339818101604052810190620000379190620000e8565b806000806101000a81548173ffffffffffffffffffffffffffffffffffffffff021916908373ffffffffffffffffffffffffffffffffffffffff160217905550506200011a565b600080fd5b600073ffffffffffffffffffffffffffffffffffffffff82169050919050565b6000620000b08262000083565b9050919050565b620000c281620000a3565b8114620000ce57600080fd5b50565b600081519050620000e281620000b7565b92915050565b6000602082840312156200010157620001006200007e565b5b60006200011184828501620000d1565b91505092915050565b611839806200012a6000396000f3fe60806040526004361061004a5760003560e01c806344e797e91461004f57806351ed82881461007857806391a48a1e14610094578063b1888649146100bd578063d56d229d146100e8575b600080fd5b34801561005b57600080fd5b5061007660048036038101906100719190610f62565b610113565b005b610092600480360381019061008d9190610f62565b610321565b005b3480156100a057600080fd5b506100bb60048036038101906100b69190610f8f565b610a46565b005b3480156100c957600080fd5b506100d2610c6d565b6040516100df919061108d565b60405180910390f35b3480156100f457600080fd5b506100fd610f03565b60405161010a919061112e565b60405180910390f35b60008054906101000a900473ffffffffffffffffffffffffffffffffffffffff1673ffffffffffffffffffffffffffffffffffffffff1662923f9e826040518263ffffffff1660e01b815260040161016b9190611158565b602060405180830381865afa158015610188573d6000803e3d6000fd5b505050506040513d601f19601f820116820180604052508101906101ac91906111ab565b6101eb576040517f08c379a00000000000000000000000000000000000000000000000000000000081526004016101e290611235565b60405180910390fd5b60008054906101000a900473ffffffffffffffffffffffffffffffffffffffff1673ffffffffffffffffffffffffffffffffffffffff16636352211e826040518263ffffffff1660e01b81526004016102449190611158565b602060405180830381865afa158015610261573d6000803e3d6000fd5b505050506040513d601f19601f820116820180604052508101906102859190611293565b73ffffffffffffffffffffffffffffffffffffffff163373ffffffffffffffffffffffffffffffffffffffff16146102f2576040517f08c379a00000000000000000000000000000000000000000000000000000000081526004016102e99061130c565b60405180910390fd5b60006002600083815260200190815260200160002060006101000a81548160ff02191690831515021790555050565b60008054906101000a900473ffffffffffffffffffffffffffffffffffffffff1673ffffffffffffffffffffffffffffffffffffffff1662923f9e826040518263ffffffff1660e01b81526004016103799190611158565b602060405180830381865afa158015610396573d6000803e3d6000fd5b505050506040513d601f19601f820116820180604052508101906103ba91906111ab565b6103f9576040517f08c379a00000000000000000000000000000000000000000000000000000000081526004016103f090611235565b60405180910390fd5b6002600082815260200190815260200160002060009054906101000a900460ff16610459576040517f08c379a000000000000000000000000000000000000000000000000000000000815260040161045090611378565b60405180910390fd5b60016000828152602001908152602001600020543410156104af576040517f08c379a00000000000000000000000000000000000000000000000000000000081526004016104a6906113e4565b60405180910390fd5b60008060009054906101000a900473ffffffffffffffffffffffffffffffffffffffff1673ffffffffffffffffffffffffffffffffffffffff16636352211e836040518263ffffffff1660e01b815260040161050b9190611158565b602060405180830381865afa158015610528573d6000803e3d6000fd5b505050506040513d601f19601f8201168201806040525081019061054c9190611293565b905060008060009054906101000a900473ffffffffffffffffffffffffffffffffffffffff1673ffffffffffffffffffffffffffffffffffffffff166370a08231336040518263ffffffff1660e01b81526004016105aa9190611413565b602060405180830381865afa1580156105c7573d6000803e3d6000fd5b505050506040513d601f19601f820116820180604052508101906105eb9190611443565b1461062b576040517f08c379a0000000000000000000000000000000000000000000000000000000008152600401610622906114bc565b60405180910390fd5b3373ffffffffffffffffffffffffffffffffffffffff168173ffffffffffffffffffffffffffffffffffffffff1603610699576040517f08c379a000000000000000000000000000000000000000000000000000000000815260040161069090611528565b60405180910390fd5b60006002600084815260200190815260200160002060006101000a81548160ff02191690831515021790555060008054906101000a900473ffffffffffffffffffffffffffffffffffffffff1673ffffffffffffffffffffffffffffffffffffffff1663b88d4fde8233856040518463ffffffff1660e01b81526004016107229392919061157f565b600060405180830381600087803b15801561073c57600080fd5b505af1158015610750573d6000803e3d6000fd5b5050505060008173ffffffffffffffffffffffffffffffffffffffff163460405161077a906115f7565b60006040518083038185875af1925050503d80600081146107b7576040519150601f19603f3d011682016040523d82523d6000602084013e6107bc565b606091505b5050905080610800576040517f08c379a00000000000000000000000000000000000000000000000000000000081526004016107f790611658565b60405180910390fd5b60008054906101000a900473ffffffffffffffffffffffffffffffffffffffff1673ffffffffffffffffffffffffffffffffffffffff1663ee0fcc753360008054906101000a900473ffffffffffffffffffffffffffffffffffffffff1673ffffffffffffffffffffffffffffffffffffffff1663d47875d0866040518263ffffffff1660e01b81526004016108969190611413565b602060405180830381865afa1580156108b3573d6000803e3d6000fd5b505050506040513d601f19601f820116820180604052508101906108d79190611443565b6040518363ffffffff1660e01b81526004016108f4929190611678565b600060405180830381600087803b15801561090e57600080fd5b505af1158015610922573d6000803e3d6000fd5b5050505060008054906101000a900473ffffffffffffffffffffffffffffffffffffffff1673ffffffffffffffffffffffffffffffffffffffff1663ee0fcc758360006040518363ffffffff1660e01b81526004016109829291906116dc565b600060405180830381600087803b15801561099c57600080fd5b505af11580156109b0573d6000803e3d6000fd5b5050505060008054906101000a900473ffffffffffffffffffffffffffffffffffffffff1673ffffffffffffffffffffffffffffffffffffffff1663ac21d3aa83336040518363ffffffff1660e01b8152600401610a0f929190611705565b600060405180830381600087803b158015610a2957600080fd5b505af1158015610a3d573d6000803e3d6000fd5b50505050505050565b60008054906101000a900473ffffffffffffffffffffffffffffffffffffffff1673ffffffffffffffffffffffffffffffffffffffff1662923f9e836040518263ffffffff1660e01b8152600401610a9e9190611158565b602060405180830381865afa158015610abb573d6000803e3d6000fd5b505050506040513d601f19601f82011682018060405250810190610adf91906111ab565b610b1e576040517f08c379a0000000000000000000000000000000000000000000000000000000008152600401610b1590611235565b60405180910390fd5b60008054906101000a900473ffffffffffffffffffffffffffffffffffffffff1673ffffffffffffffffffffffffffffffffffffffff16636352211e836040518263ffffffff1660e01b8152600401610b779190611158565b602060405180830381865afa158015610b94573d6000803e3d6000fd5b505050506040513d601f19601f82011682018060405250810190610bb89190611293565b73ffffffffffffffffffffffffffffffffffffffff163373ffffffffffffffffffffffffffffffffffffffff1614610c25576040517f08c379a0000000000000000000000000000000000000000000000000000000008152600401610c1c9061130c565b60405180910390fd5b80600160008481526020019081526020016000208190555060016002600084815260200190815260200160002060006101000a81548160ff0219169083151502179055505050565b606060008060009054906101000a900473ffffffffffffffffffffffffffffffffffffffff1673ffffffffffffffffffffffffffffffffffffffff166318160ddd6040518163ffffffff1660e01b8152600401602060405180830381865afa158015610cdd573d6000803e3d6000fd5b505050506040513d601f19601f82011682018060405250810190610d019190611443565b67ffffffffffffffff811115610d1a57610d1961172e565b5b604051908082528060200260200182016040528015610d485781602001602082028036833780820191505090505b5090506000805b60008054906101000a900473ffffffffffffffffffffffffffffffffffffffff1673ffffffffffffffffffffffffffffffffffffffff166318160ddd6040518163ffffffff1660e01b8152600401602060405180830381865afa158015610dba573d6000803e3d6000fd5b505050506040513d601f19601f82011682018060405250810190610dde9190611443565b811015610e5357600115156002600083815260200190815260200160002060009054906101000a900460ff16151503610e405780838381518110610e2557610e2461175d565b5b6020026020010181815250508180610e3c906117bb565b9250505b8080610e4b906117bb565b915050610d4f565b5060008167ffffffffffffffff811115610e7057610e6f61172e565b5b604051908082528060200260200182016040528015610e9e5781602001602082028036833780820191505090505b50905060005b82811015610ef957838181518110610ebf57610ebe61175d565b5b6020026020010151828281518110610eda57610ed961175d565b5b6020026020010181815250508080610ef1906117bb565b915050610ea4565b5080935050505090565b60008054906101000a900473ffffffffffffffffffffffffffffffffffffffff1681565b600080fd5b6000819050919050565b610f3f81610f2c565b8114610f4a57600080fd5b50565b600081359050610f5c81610f36565b92915050565b600060208284031215610f7857610f77610f27565b5b6000610f8684828501610f4d565b91505092915050565b60008060408385031215610fa657610fa5610f27565b5b6000610fb485828601610f4d565b9250506020610fc585828601610f4d565b9150509250929050565b600081519050919050565b600082825260208201905092915050565b6000819050602082019050919050565b61100481610f2c565b82525050565b60006110168383610ffb565b60208301905092915050565b6000602082019050919050565b600061103a82610fcf565b6110448185610fda565b935061104f83610feb565b8060005b83811015611080578151611067888261100a565b975061107283611022565b925050600181019050611053565b5085935050505092915050565b600060208201905081810360008301526110a7818461102f565b905092915050565b600073ffffffffffffffffffffffffffffffffffffffff82169050919050565b6000819050919050565b60006110f46110ef6110ea846110af565b6110cf565b6110af565b9050919050565b6000611106826110d9565b9050919050565b6000611118826110fb565b9050919050565b6111288161110d565b82525050565b6000602082019050611143600083018461111f565b92915050565b61115281610f2c565b82525050565b600060208201905061116d6000830184611149565b92915050565b60008115159050919050565b61118881611173565b811461119357600080fd5b50565b6000815190506111a58161117f565b92915050565b6000602082840312156111c1576111c0610f27565b5b60006111cf84828501611196565b91505092915050565b600082825260208201905092915050565b7f546f6b656e20646f6573206e6f74206578697374000000000000000000000000600082015250565b600061121f6014836111d8565b915061122a826111e9565b602082019050919050565b6000602082019050818103600083015261124e81611212565b9050919050565b6000611260826110af565b9050919050565b61127081611255565b811461127b57600080fd5b50565b60008151905061128d81611267565b92915050565b6000602082840312156112a9576112a8610f27565b5b60006112b78482850161127e565b91505092915050565b7f4e6f742074686520746f6b656e206f776e657200000000000000000000000000600082015250565b60006112f66013836111d8565b9150611301826112c0565b602082019050919050565b60006020820190508181036000830152611325816112e9565b9050919050565b7f546f6b656e206973206e6f7420666f722073616c650000000000000000000000600082015250565b60006113626015836111d8565b915061136d8261132c565b602082019050919050565b6000602082019050818103600083015261139181611355565b9050919050565b7f496e636f727265637420616d6f756e74206f662045746865722073656e740000600082015250565b60006113ce601e836111d8565b91506113d982611398565b602082019050919050565b600060208201905081810360008301526113fd816113c1565b9050919050565b61140d81611255565b82525050565b60006020820190506114286000830184611404565b92915050565b60008151905061143d81610f36565b92915050565b60006020828403121561145957611458610f27565b5b60006114678482850161142e565b91505092915050565b7f6f6e6c79206f6e65206e66742070657220757365720000000000000000000000600082015250565b60006114a66015836111d8565b91506114b182611470565b602082019050919050565b600060208201905081810360008301526114d581611499565b9050919050565b7f43616e6e6f742062757920796f7572206f776e20746f6b656e00000000000000600082015250565b60006115126019836111d8565b915061151d826114dc565b602082019050919050565b6000602082019050818103600083015261154181611505565b9050919050565b600082825260208201905092915050565b50565b6000611569600083611548565b915061157482611559565b600082019050919050565b60006080820190506115946000830186611404565b6115a16020830185611404565b6115ae6040830184611149565b81810360608301526115bf8161155c565b9050949350505050565b600081905092915050565b60006115e16000836115c9565b91506115ec82611559565b600082019050919050565b6000611602826115d4565b9150819050919050565b7f5472616e73666572206661696c65640000000000000000000000000000000000600082015250565b6000611642600f836111d8565b915061164d8261160c565b602082019050919050565b6000602082019050818103600083015261167181611635565b9050919050565b600060408201905061168d6000830185611404565b61169a6020830184611149565b9392505050565b6000819050919050565b60006116c66116c16116bc846116a1565b6110cf565b610f2c565b9050919050565b6116d6816116ab565b82525050565b60006040820190506116f16000830185611404565b6116fe60208301846116cd565b9392505050565b600060408201905061171a6000830185611404565b6117276020830184611404565b9392505050565b7f4e487b7100000000000000000000000000000000000000000000000000000000600052604160045260246000fd5b7f4e487b7100000000000000000000000000000000000000000000000000000000600052603260045260246000fd5b7f4e487b7100000000000000000000000000000000000000000000000000000000600052601160045260246000fd5b60006117c682610f2c565b91507fffffffffffffffffffffffffffffffffffffffffffffffffffffffffffffffff82036117f8576117f761178c565b5b60018201905091905056fea2646970667358221220946501464de5c4c793eb97daed79d0f1da15b38e45057e9897b03b74a26c1c3a64736f6c63430008100033",
  "immutableReferences": {},
  "source": "// SPDX-License-Identifier: MIT\n\npragma solidity ^0.8.0;\n\nimport \"./CodeMavricksNft.sol\";\nimport \"@openzeppelin/contracts/token/ERC721/IERC721.sol\";\n\ncontract CodeMavericksMarketPlace {\n    CodeMavricksNft public nftContract;\n\n    // Keep track of the NFT owners\n    mapping(uint256 => uint256) private _tokenPrices;\n    mapping(uint256 => bool) private _tokensForSale;\n\n    constructor(address _nftContract) {\n        nftContract = CodeMavricksNft(_nftContract);\n    }\n\n    modifier onlynotforsale(uint256 tokenId) {\n        require(!_tokensForSale[tokenId], \"token for sale\");\n        _;\n    }\n\n    function buyNFT(uint256 tokenId) public payable {\n        require(nftContract.tokenExists(tokenId), \"Token does not exist\");\n        require(_tokensForSale[tokenId], \"Token is not for sale\");\n        require(\n            msg.value >= _tokenPrices[tokenId],\n            \"Incorrect amount of Ether sent\"\n        );\n\n        address tokenOwner = nftContract.ownerOf(tokenId);\n        //check if the owner owns an nft or no\n        require(\n            nftContract.balanceOf(msg.sender) == 0,\n            \"only one nft per user\"\n        );\n        require(tokenOwner != msg.sender, \"Cannot buy your own token\");\n\n        _tokensForSale[tokenId] = false;\n        nftContract.safeTransferFrom(tokenOwner, msg.sender, tokenId, \"\");\n\n        // Transfer the payment to the token owner\n        (bool success, ) = tokenOwner.call{value: msg.value}(\"\");\n        require(success, \"Transfer failed\");\n        //remove the old owner from the old structures\n\n        nftContract.setScore(msg.sender, nftContract.getScore(tokenOwner));\n        nftContract.setScore(tokenOwner, 0);\n\n        //The contributions should also be transfered\n        nftContract.transferNFTContributions(tokenOwner, msg.sender);\n    }\n\n    function sellNFT(uint256 tokenId, uint256 price) public {\n        require(nftContract.tokenExists(tokenId), \"Token does not exist\");\n        require(\n            msg.sender == nftContract.ownerOf(tokenId),\n            \"Not the token owner\"\n        );\n\n        _tokenPrices[tokenId] = price;\n        _tokensForSale[tokenId] = true;\n    }\n\n    function removeSale(uint256 tokenId) public {\n        require(nftContract.tokenExists(tokenId), \"Token does not exist\");\n        require(\n            msg.sender == nftContract.ownerOf(tokenId),\n            \"Not the token owner\"\n        );\n\n        _tokensForSale[tokenId] = false;\n    }\n\n    function getNFTsForSale() public view returns (uint256[] memory) {\n        uint256[] memory tokenIds = new uint256[](nftContract.totalSupply());\n        uint256 tokenCount = 0;\n\n        for (uint256 i = 0; i < nftContract.totalSupply(); i++) {\n            if (_tokensForSale[i] == true) {\n                tokenIds[tokenCount] = i;\n                tokenCount++;\n            }\n        }\n\n        uint256[] memory forSaleTokenIds = new uint256[](tokenCount);\n        for (uint256 i = 0; i < tokenCount; i++) {\n            forSaleTokenIds[i] = tokenIds[i];\n        }\n\n        return forSaleTokenIds;\n    }\n}\n",
  "sourcePath": "/home/senyou/nft-collection/contracts/CodeMavericksMarketPlace.sol",
  "compiler": {
    "name": "solc",
    "version": "0.8.16+commit.07a7930e.Emscripten.clang"
  },
  "schemaVersion": "3.4.9",
  "updatedAt": "2023-05-05T16:50:24.325Z",
  "networkType": "ethereum",
  "devdoc": {
    "kind": "dev",
    "methods": {},
    "version": 1
  },
  "userdoc": {
    "kind": "user",
    "methods": {},
    "version": 1
  }
}