{
  "contractName": "CodeMavericksMarketPlace",
  "abi": [
    {
      "inputs": [
        {
          "internalType": "address",
          "name": "_nftContract",
          "type": "address"
        }
      ],
      "stateMutability": "nonpayable",
      "type": "constructor"
    },
    {
      "inputs": [
        {
          "internalType": "uint256",
          "name": "",
          "type": "uint256"
        }
      ],
      "name": "_tokenPrices",
      "outputs": [
        {
          "internalType": "uint256",
          "name": "",
          "type": "uint256"
        }
      ],
      "stateMutability": "view",
      "type": "function",
      "constant": true
    },
    {
      "inputs": [
        {
          "internalType": "uint256",
          "name": "",
          "type": "uint256"
        }
      ],
      "name": "_tokensForSale",
      "outputs": [
        {
          "internalType": "bool",
          "name": "",
          "type": "bool"
        }
      ],
      "stateMutability": "view",
      "type": "function",
      "constant": true
    },
    {
      "inputs": [],
      "name": "nftContract",
      "outputs": [
        {
          "internalType": "contract CodeMavricksNft",
          "name": "",
          "type": "address"
        }
      ],
      "stateMutability": "view",
      "type": "function",
      "constant": true
    },
    {
      "inputs": [
        {
          "internalType": "uint256",
          "name": "tokenId",
          "type": "uint256"
        }
      ],
      "name": "buyNFT",
      "outputs": [],
      "stateMutability": "payable",
      "type": "function",
      "payable": true
    },
    {
      "inputs": [
        {
          "internalType": "uint256",
          "name": "tokenId",
          "type": "uint256"
        },
        {
          "internalType": "uint256",
          "name": "price",
          "type": "uint256"
        }
      ],
      "name": "sellNFT",
      "outputs": [],
      "stateMutability": "nonpayable",
      "type": "function"
    },
    {
      "inputs": [
        {
          "internalType": "uint256",
          "name": "tokenId",
          "type": "uint256"
        }
      ],
      "name": "removeSale",
      "outputs": [],
      "stateMutability": "nonpayable",
      "type": "function"
    },
    {
      "inputs": [],
      "name": "getNFTsForSale",
      "outputs": [
        {
          "internalType": "uint256[]",
          "name": "",
          "type": "uint256[]"
        }
      ],
      "stateMutability": "view",
      "type": "function",
      "constant": true
    },
    {
      "inputs": [
        {
          "internalType": "uint256",
          "name": "tokenId",
          "type": "uint256"
        }
      ],
      "name": "getNFTPrice",
      "outputs": [
        {
          "internalType": "uint256",
          "name": "",
          "type": "uint256"
        }
      ],
      "stateMutability": "view",
      "type": "function",
      "constant": true
    }
  ],
  "bytecode": "0x60806040523480156200001157600080fd5b5060405162001c0a38038062001c0a8339818101604052810190620000379190620000e8565b806000806101000a81548173ffffffffffffffffffffffffffffffffffffffff021916908373ffffffffffffffffffffffffffffffffffffffff160217905550506200011a565b600080fd5b600073ffffffffffffffffffffffffffffffffffffffff82169050919050565b6000620000b08262000083565b9050919050565b620000c281620000a3565b8114620000ce57600080fd5b50565b600081519050620000e281620000b7565b92915050565b6000602082840312156200010157620001006200007e565b5b60006200011184828501620000d1565b91505092915050565b611ae0806200012a6000396000f3fe60806040526004361061007b5760003560e01c8063929761791161004e578063929761791461012b578063aa3b13d014610168578063b1888649146101a5578063d56d229d146101d05761007b565b806344e797e914610080578063494606c9146100a957806351ed8288146100e657806391a48a1e14610102575b600080fd5b34801561008c57600080fd5b506100a760048036038101906100a291906111df565b6101fb565b005b3480156100b557600080fd5b506100d060048036038101906100cb91906111df565b610409565b6040516100dd9190611227565b60405180910390f35b61010060048036038101906100fb91906111df565b610429565b005b34801561010e57600080fd5b5061012960048036038101906101249190611242565b610b4e565b005b34801561013757600080fd5b50610152600480360381019061014d91906111df565b610d75565b60405161015f9190611291565b60405180910390f35b34801561017457600080fd5b5061018f600480360381019061018a91906111df565b610ed2565b60405161019c9190611291565b60405180910390f35b3480156101b157600080fd5b506101ba610eea565b6040516101c7919061136a565b60405180910390f35b3480156101dc57600080fd5b506101e5611180565b6040516101f2919061140b565b60405180910390f35b60008054906101000a900473ffffffffffffffffffffffffffffffffffffffff1673ffffffffffffffffffffffffffffffffffffffff1662923f9e826040518263ffffffff1660e01b81526004016102539190611291565b602060405180830381865afa158015610270573d6000803e3d6000fd5b505050506040513d601f19601f820116820180604052508101906102949190611452565b6102d3576040517f08c379a00000000000000000000000000000000000000000000000000000000081526004016102ca906114dc565b60405180910390fd5b60008054906101000a900473ffffffffffffffffffffffffffffffffffffffff1673ffffffffffffffffffffffffffffffffffffffff16636352211e826040518263ffffffff1660e01b815260040161032c9190611291565b602060405180830381865afa158015610349573d6000803e3d6000fd5b505050506040513d601f19601f8201168201806040525081019061036d919061153a565b73ffffffffffffffffffffffffffffffffffffffff163373ffffffffffffffffffffffffffffffffffffffff16146103da576040517f08c379a00000000000000000000000000000000000000000000000000000000081526004016103d1906115b3565b60405180910390fd5b60006002600083815260200190815260200160002060006101000a81548160ff02191690831515021790555050565b60026020528060005260406000206000915054906101000a900460ff1681565b60008054906101000a900473ffffffffffffffffffffffffffffffffffffffff1673ffffffffffffffffffffffffffffffffffffffff1662923f9e826040518263ffffffff1660e01b81526004016104819190611291565b602060405180830381865afa15801561049e573d6000803e3d6000fd5b505050506040513d601f19601f820116820180604052508101906104c29190611452565b610501576040517f08c379a00000000000000000000000000000000000000000000000000000000081526004016104f8906114dc565b60405180910390fd5b6002600082815260200190815260200160002060009054906101000a900460ff16610561576040517f08c379a00000000000000000000000000000000000000000000000000000000081526004016105589061161f565b60405180910390fd5b60016000828152602001908152602001600020543410156105b7576040517f08c379a00000000000000000000000000000000000000000000000000000000081526004016105ae9061168b565b60405180910390fd5b60008060009054906101000a900473ffffffffffffffffffffffffffffffffffffffff1673ffffffffffffffffffffffffffffffffffffffff16636352211e836040518263ffffffff1660e01b81526004016106139190611291565b602060405180830381865afa158015610630573d6000803e3d6000fd5b505050506040513d601f19601f82011682018060405250810190610654919061153a565b905060008060009054906101000a900473ffffffffffffffffffffffffffffffffffffffff1673ffffffffffffffffffffffffffffffffffffffff166370a08231336040518263ffffffff1660e01b81526004016106b291906116ba565b602060405180830381865afa1580156106cf573d6000803e3d6000fd5b505050506040513d601f19601f820116820180604052508101906106f391906116ea565b14610733576040517f08c379a000000000000000000000000000000000000000000000000000000000815260040161072a90611763565b60405180910390fd5b3373ffffffffffffffffffffffffffffffffffffffff168173ffffffffffffffffffffffffffffffffffffffff16036107a1576040517f08c379a0000000000000000000000000000000000000000000000000000000008152600401610798906117cf565b60405180910390fd5b60006002600084815260200190815260200160002060006101000a81548160ff02191690831515021790555060008054906101000a900473ffffffffffffffffffffffffffffffffffffffff1673ffffffffffffffffffffffffffffffffffffffff1663b88d4fde8233856040518463ffffffff1660e01b815260040161082a93929190611826565b600060405180830381600087803b15801561084457600080fd5b505af1158015610858573d6000803e3d6000fd5b5050505060008173ffffffffffffffffffffffffffffffffffffffff16346040516108829061189e565b60006040518083038185875af1925050503d80600081146108bf576040519150601f19603f3d011682016040523d82523d6000602084013e6108c4565b606091505b5050905080610908576040517f08c379a00000000000000000000000000000000000000000000000000000000081526004016108ff906118ff565b60405180910390fd5b60008054906101000a900473ffffffffffffffffffffffffffffffffffffffff1673ffffffffffffffffffffffffffffffffffffffff1663ee0fcc753360008054906101000a900473ffffffffffffffffffffffffffffffffffffffff1673ffffffffffffffffffffffffffffffffffffffff1663d47875d0866040518263ffffffff1660e01b815260040161099e91906116ba565b602060405180830381865afa1580156109bb573d6000803e3d6000fd5b505050506040513d601f19601f820116820180604052508101906109df91906116ea565b6040518363ffffffff1660e01b81526004016109fc92919061191f565b600060405180830381600087803b158015610a1657600080fd5b505af1158015610a2a573d6000803e3d6000fd5b5050505060008054906101000a900473ffffffffffffffffffffffffffffffffffffffff1673ffffffffffffffffffffffffffffffffffffffff1663ee0fcc758360006040518363ffffffff1660e01b8152600401610a8a929190611983565b600060405180830381600087803b158015610aa457600080fd5b505af1158015610ab8573d6000803e3d6000fd5b5050505060008054906101000a900473ffffffffffffffffffffffffffffffffffffffff1673ffffffffffffffffffffffffffffffffffffffff1663ac21d3aa83336040518363ffffffff1660e01b8152600401610b179291906119ac565b600060405180830381600087803b158015610b3157600080fd5b505af1158015610b45573d6000803e3d6000fd5b50505050505050565b60008054906101000a900473ffffffffffffffffffffffffffffffffffffffff1673ffffffffffffffffffffffffffffffffffffffff1662923f9e836040518263ffffffff1660e01b8152600401610ba69190611291565b602060405180830381865afa158015610bc3573d6000803e3d6000fd5b505050506040513d601f19601f82011682018060405250810190610be79190611452565b610c26576040517f08c379a0000000000000000000000000000000000000000000000000000000008152600401610c1d906114dc565b60405180910390fd5b60008054906101000a900473ffffffffffffffffffffffffffffffffffffffff1673ffffffffffffffffffffffffffffffffffffffff16636352211e836040518263ffffffff1660e01b8152600401610c7f9190611291565b602060405180830381865afa158015610c9c573d6000803e3d6000fd5b505050506040513d601f19601f82011682018060405250810190610cc0919061153a565b73ffffffffffffffffffffffffffffffffffffffff163373ffffffffffffffffffffffffffffffffffffffff1614610d2d576040517f08c379a0000000000000000000000000000000000000000000000000000000008152600401610d24906115b3565b60405180910390fd5b80600160008481526020019081526020016000208190555060016002600084815260200190815260200160002060006101000a81548160ff0219169083151502179055505050565b60008060009054906101000a900473ffffffffffffffffffffffffffffffffffffffff1673ffffffffffffffffffffffffffffffffffffffff1662923f9e836040518263ffffffff1660e01b8152600401610dd09190611291565b602060405180830381865afa158015610ded573d6000803e3d6000fd5b505050506040513d601f19601f82011682018060405250810190610e119190611452565b610e50576040517f08c379a0000000000000000000000000000000000000000000000000000000008152600401610e47906114dc565b60405180910390fd5b600115156002600084815260200190815260200160002060009054906101000a900460ff16151514610eb7576040517f08c379a0000000000000000000000000000000000000000000000000000000008152600401610eae9061161f565b60405180910390fd5b60016000838152602001908152602001600020549050919050565b60016020528060005260406000206000915090505481565b606060008060009054906101000a900473ffffffffffffffffffffffffffffffffffffffff1673ffffffffffffffffffffffffffffffffffffffff166318160ddd6040518163ffffffff1660e01b8152600401602060405180830381865afa158015610f5a573d6000803e3d6000fd5b505050506040513d601f19601f82011682018060405250810190610f7e91906116ea565b67ffffffffffffffff811115610f9757610f966119d5565b5b604051908082528060200260200182016040528015610fc55781602001602082028036833780820191505090505b5090506000805b60008054906101000a900473ffffffffffffffffffffffffffffffffffffffff1673ffffffffffffffffffffffffffffffffffffffff166318160ddd6040518163ffffffff1660e01b8152600401602060405180830381865afa158015611037573d6000803e3d6000fd5b505050506040513d601f19601f8201168201806040525081019061105b91906116ea565b8110156110d057600115156002600083815260200190815260200160002060009054906101000a900460ff161515036110bd57808383815181106110a2576110a1611a04565b5b60200260200101818152505081806110b990611a62565b9250505b80806110c890611a62565b915050610fcc565b5060008167ffffffffffffffff8111156110ed576110ec6119d5565b5b60405190808252806020026020018201604052801561111b5781602001602082028036833780820191505090505b50905060005b828110156111765783818151811061113c5761113b611a04565b5b602002602001015182828151811061115757611156611a04565b5b602002602001018181525050808061116e90611a62565b915050611121565b5080935050505090565b60008054906101000a900473ffffffffffffffffffffffffffffffffffffffff1681565b600080fd5b6000819050919050565b6111bc816111a9565b81146111c757600080fd5b50565b6000813590506111d9816111b3565b92915050565b6000602082840312156111f5576111f46111a4565b5b6000611203848285016111ca565b91505092915050565b60008115159050919050565b6112218161120c565b82525050565b600060208201905061123c6000830184611218565b92915050565b60008060408385031215611259576112586111a4565b5b6000611267858286016111ca565b9250506020611278858286016111ca565b9150509250929050565b61128b816111a9565b82525050565b60006020820190506112a66000830184611282565b92915050565b600081519050919050565b600082825260208201905092915050565b6000819050602082019050919050565b6112e1816111a9565b82525050565b60006112f383836112d8565b60208301905092915050565b6000602082019050919050565b6000611317826112ac565b61132181856112b7565b935061132c836112c8565b8060005b8381101561135d57815161134488826112e7565b975061134f836112ff565b925050600181019050611330565b5085935050505092915050565b60006020820190508181036000830152611384818461130c565b905092915050565b600073ffffffffffffffffffffffffffffffffffffffff82169050919050565b6000819050919050565b60006113d16113cc6113c78461138c565b6113ac565b61138c565b9050919050565b60006113e3826113b6565b9050919050565b60006113f5826113d8565b9050919050565b611405816113ea565b82525050565b600060208201905061142060008301846113fc565b92915050565b61142f8161120c565b811461143a57600080fd5b50565b60008151905061144c81611426565b92915050565b600060208284031215611468576114676111a4565b5b60006114768482850161143d565b91505092915050565b600082825260208201905092915050565b7f546f6b656e20646f6573206e6f74206578697374000000000000000000000000600082015250565b60006114c660148361147f565b91506114d182611490565b602082019050919050565b600060208201905081810360008301526114f5816114b9565b9050919050565b60006115078261138c565b9050919050565b611517816114fc565b811461152257600080fd5b50565b6000815190506115348161150e565b92915050565b6000602082840312156115505761154f6111a4565b5b600061155e84828501611525565b91505092915050565b7f4e6f742074686520746f6b656e206f776e657200000000000000000000000000600082015250565b600061159d60138361147f565b91506115a882611567565b602082019050919050565b600060208201905081810360008301526115cc81611590565b9050919050565b7f546f6b656e206973206e6f7420666f722073616c650000000000000000000000600082015250565b600061160960158361147f565b9150611614826115d3565b602082019050919050565b60006020820190508181036000830152611638816115fc565b9050919050565b7f496e636f727265637420616d6f756e74206f662045746865722073656e740000600082015250565b6000611675601e8361147f565b91506116808261163f565b602082019050919050565b600060208201905081810360008301526116a481611668565b9050919050565b6116b4816114fc565b82525050565b60006020820190506116cf60008301846116ab565b92915050565b6000815190506116e4816111b3565b92915050565b600060208284031215611700576116ff6111a4565b5b600061170e848285016116d5565b91505092915050565b7f6f6e6c79206f6e65206e66742070657220757365720000000000000000000000600082015250565b600061174d60158361147f565b915061175882611717565b602082019050919050565b6000602082019050818103600083015261177c81611740565b9050919050565b7f43616e6e6f742062757920796f7572206f776e20746f6b656e00000000000000600082015250565b60006117b960198361147f565b91506117c482611783565b602082019050919050565b600060208201905081810360008301526117e8816117ac565b9050919050565b600082825260208201905092915050565b50565b60006118106000836117ef565b915061181b82611800565b600082019050919050565b600060808201905061183b60008301866116ab565b61184860208301856116ab565b6118556040830184611282565b818103606083015261186681611803565b9050949350505050565b600081905092915050565b6000611888600083611870565b915061189382611800565b600082019050919050565b60006118a98261187b565b9150819050919050565b7f5472616e73666572206661696c65640000000000000000000000000000000000600082015250565b60006118e9600f8361147f565b91506118f4826118b3565b602082019050919050565b60006020820190508181036000830152611918816118dc565b9050919050565b600060408201905061193460008301856116ab565b6119416020830184611282565b9392505050565b6000819050919050565b600061196d61196861196384611948565b6113ac565b6111a9565b9050919050565b61197d81611952565b82525050565b600060408201905061199860008301856116ab565b6119a56020830184611974565b9392505050565b60006040820190506119c160008301856116ab565b6119ce60208301846116ab565b9392505050565b7f4e487b7100000000000000000000000000000000000000000000000000000000600052604160045260246000fd5b7f4e487b7100000000000000000000000000000000000000000000000000000000600052603260045260246000fd5b7f4e487b7100000000000000000000000000000000000000000000000000000000600052601160045260246000fd5b6000611a6d826111a9565b91507fffffffffffffffffffffffffffffffffffffffffffffffffffffffffffffffff8203611a9f57611a9e611a33565b5b60018201905091905056fea264697066735822122077d83c67d0583356935225595862a429c6a6b358e58a9764727acb3df2775a0564736f6c63430008100033",
  "immutableReferences": {},
  "source": "// SPDX-License-Identifier: MIT\n\npragma solidity ^0.8.0;\n\nimport \"./CodeMavricksNft.sol\";\nimport \"@openzeppelin/contracts/token/ERC721/IERC721.sol\";\n\ncontract CodeMavericksMarketPlace {\n    CodeMavricksNft public nftContract;\n\n    // Keep track of the NFT owners\n    mapping(uint256 => uint256) public _tokenPrices;\n    mapping(uint256 => bool) public _tokensForSale;\n\n    constructor(address _nftContract) {\n        nftContract = CodeMavricksNft(_nftContract);\n    }\n\n    modifier onlynotforsale(uint256 tokenId) {\n        require(!_tokensForSale[tokenId], \"token for sale\");\n        _;\n    }\n\n    function buyNFT(uint256 tokenId) public payable {\n        require(nftContract.tokenExists(tokenId), \"Token does not exist\");\n        require(_tokensForSale[tokenId], \"Token is not for sale\");\n        require(\n            msg.value >= _tokenPrices[tokenId],\n            \"Incorrect amount of Ether sent\"\n        );\n\n        address tokenOwner = nftContract.ownerOf(tokenId);\n        //check if the owner owns an nft or no\n        require(\n            nftContract.balanceOf(msg.sender) == 0,\n            \"only one nft per user\"\n        );\n        require(tokenOwner != msg.sender, \"Cannot buy your own token\");\n\n        _tokensForSale[tokenId] = false;\n        nftContract.safeTransferFrom(tokenOwner, msg.sender, tokenId, \"\");\n\n        // Transfer the payment to the token owner\n        (bool success, ) = tokenOwner.call{value: msg.value}(\"\");\n        require(success, \"Transfer failed\");\n        //remove the old owner from the old structures\n\n        nftContract.setScore(msg.sender, nftContract.getScore(tokenOwner));\n        nftContract.setScore(tokenOwner, 0);\n\n        //The contributions should also be transfered\n        nftContract.transferNFTContributions(tokenOwner, msg.sender);\n    }\n\n    function sellNFT(uint256 tokenId, uint256 price) public {\n        require(nftContract.tokenExists(tokenId), \"Token does not exist\");\n        require(\n            msg.sender == nftContract.ownerOf(tokenId),\n            \"Not the token owner\"\n        );\n\n        _tokenPrices[tokenId] = price;\n        _tokensForSale[tokenId] = true;\n    }\n\n    function removeSale(uint256 tokenId) public {\n        require(nftContract.tokenExists(tokenId), \"Token does not exist\");\n        require(\n            msg.sender == nftContract.ownerOf(tokenId),\n            \"Not the token owner\"\n        );\n\n        _tokensForSale[tokenId] = false;\n    }\n\n    function getNFTsForSale() public view returns (uint256[] memory) {\n        uint256[] memory tokenIds = new uint256[](nftContract.totalSupply());\n        uint256 tokenCount = 0;\n\n        for (uint256 i = 0; i < nftContract.totalSupply(); i++) {\n            if (_tokensForSale[i] == true) {\n                tokenIds[tokenCount] = i;\n                tokenCount++;\n            }\n        }\n\n        uint256[] memory forSaleTokenIds = new uint256[](tokenCount);\n        for (uint256 i = 0; i < tokenCount; i++) {\n            forSaleTokenIds[i] = tokenIds[i];\n        }\n\n        return forSaleTokenIds;\n    }\n\n    function getNFTPrice(uint256 tokenId) public view returns (uint256) {\n        require(nftContract.tokenExists(tokenId), \"Token does not exist\");\n        require(_tokensForSale[tokenId] == true, \"Token is not for sale\");\n        return _tokenPrices[tokenId];\n    }\n}\n",
  "sourcePath": "/home/senyou/nft-collection/contracts/CodeMavericksMarketPlace.sol",
  "compiler": {
    "name": "solc",
    "version": "0.8.16+commit.07a7930e.Emscripten.clang"
  },
  "schemaVersion": "3.4.9",
  "updatedAt": "2023-05-21T21:30:07.782Z",
  "networkType": "ethereum",
  "devdoc": {
    "kind": "dev",
    "methods": {},
    "version": 1
  },
  "userdoc": {
    "kind": "user",
    "methods": {},
    "version": 1
  }
}