{
  "contractName": "CodeMavericksGouvernance",
  "abi": [
    {
      "inputs": [
        {
          "internalType": "address",
          "name": "_governanceToken",
          "type": "address"
        },
        {
          "internalType": "address",
          "name": "_nftContract",
          "type": "address"
        }
      ],
      "stateMutability": "nonpayable",
      "type": "constructor"
    },
    {
      "anonymous": false,
      "inputs": [
        {
          "indexed": true,
          "internalType": "address",
          "name": "fromAddress",
          "type": "address"
        },
        {
          "indexed": false,
          "internalType": "uint256",
          "name": "amount",
          "type": "uint256"
        }
      ],
      "name": "ContributionReceived",
      "type": "event"
    },
    {
      "anonymous": false,
      "inputs": [
        {
          "indexed": true,
          "internalType": "address",
          "name": "stakeholder",
          "type": "address"
        },
        {
          "indexed": true,
          "internalType": "address",
          "name": "beneficiary",
          "type": "address"
        },
        {
          "indexed": false,
          "internalType": "uint256",
          "name": "amount",
          "type": "uint256"
        }
      ],
      "name": "PaymentTransfered",
      "type": "event"
    },
    {
      "anonymous": false,
      "inputs": [
        {
          "indexed": false,
          "internalType": "uint256",
          "name": "proposalId",
          "type": "uint256"
        }
      ],
      "name": "ProposalExecuted",
      "type": "event"
    },
    {
      "anonymous": false,
      "inputs": [
        {
          "indexed": true,
          "internalType": "bytes32",
          "name": "role",
          "type": "bytes32"
        },
        {
          "indexed": true,
          "internalType": "bytes32",
          "name": "previousAdminRole",
          "type": "bytes32"
        },
        {
          "indexed": true,
          "internalType": "bytes32",
          "name": "newAdminRole",
          "type": "bytes32"
        }
      ],
      "name": "RoleAdminChanged",
      "type": "event"
    },
    {
      "anonymous": false,
      "inputs": [
        {
          "indexed": true,
          "internalType": "bytes32",
          "name": "role",
          "type": "bytes32"
        },
        {
          "indexed": true,
          "internalType": "address",
          "name": "account",
          "type": "address"
        },
        {
          "indexed": true,
          "internalType": "address",
          "name": "sender",
          "type": "address"
        }
      ],
      "name": "RoleGranted",
      "type": "event"
    },
    {
      "anonymous": false,
      "inputs": [
        {
          "indexed": true,
          "internalType": "bytes32",
          "name": "role",
          "type": "bytes32"
        },
        {
          "indexed": true,
          "internalType": "address",
          "name": "account",
          "type": "address"
        },
        {
          "indexed": true,
          "internalType": "address",
          "name": "sender",
          "type": "address"
        }
      ],
      "name": "RoleRevoked",
      "type": "event"
    },
    {
      "anonymous": false,
      "inputs": [
        {
          "indexed": false,
          "internalType": "uint256",
          "name": "proposalId",
          "type": "uint256"
        },
        {
          "indexed": false,
          "internalType": "address",
          "name": "voter",
          "type": "address"
        },
        {
          "indexed": false,
          "internalType": "bool",
          "name": "inFavor",
          "type": "bool"
        }
      ],
      "name": "Voted",
      "type": "event"
    },
    {
      "anonymous": false,
      "inputs": [
        {
          "indexed": true,
          "internalType": "address",
          "name": "proposer",
          "type": "address"
        },
        {
          "indexed": false,
          "internalType": "uint256",
          "name": "amount",
          "type": "uint256"
        }
      ],
      "name": "newProposal",
      "type": "event"
    },
    {
      "inputs": [],
      "name": "DEFAULT_ADMIN_ROLE",
      "outputs": [
        {
          "internalType": "bytes32",
          "name": "",
          "type": "bytes32"
        }
      ],
      "stateMutability": "view",
      "type": "function",
      "constant": true
    },
    {
      "inputs": [],
      "name": "daoBalance",
      "outputs": [
        {
          "internalType": "uint256",
          "name": "",
          "type": "uint256"
        }
      ],
      "stateMutability": "view",
      "type": "function",
      "constant": true
    },
    {
      "inputs": [
        {
          "internalType": "bytes32",
          "name": "role",
          "type": "bytes32"
        }
      ],
      "name": "getRoleAdmin",
      "outputs": [
        {
          "internalType": "bytes32",
          "name": "",
          "type": "bytes32"
        }
      ],
      "stateMutability": "view",
      "type": "function",
      "constant": true
    },
    {
      "inputs": [],
      "name": "governanceToken",
      "outputs": [
        {
          "internalType": "contract IERC20",
          "name": "",
          "type": "address"
        }
      ],
      "stateMutability": "view",
      "type": "function",
      "constant": true
    },
    {
      "inputs": [
        {
          "internalType": "bytes32",
          "name": "role",
          "type": "bytes32"
        },
        {
          "internalType": "address",
          "name": "account",
          "type": "address"
        }
      ],
      "name": "grantRole",
      "outputs": [],
      "stateMutability": "nonpayable",
      "type": "function"
    },
    {
      "inputs": [
        {
          "internalType": "bytes32",
          "name": "role",
          "type": "bytes32"
        },
        {
          "internalType": "address",
          "name": "account",
          "type": "address"
        }
      ],
      "name": "hasRole",
      "outputs": [
        {
          "internalType": "bool",
          "name": "",
          "type": "bool"
        }
      ],
      "stateMutability": "view",
      "type": "function",
      "constant": true
    },
    {
      "inputs": [],
      "name": "minimumAmount",
      "outputs": [
        {
          "internalType": "uint256",
          "name": "",
          "type": "uint256"
        }
      ],
      "stateMutability": "view",
      "type": "function",
      "constant": true
    },
    {
      "inputs": [],
      "name": "nftContract",
      "outputs": [
        {
          "internalType": "contract CodeMavricksNft",
          "name": "",
          "type": "address"
        }
      ],
      "stateMutability": "view",
      "type": "function",
      "constant": true
    },
    {
      "inputs": [
        {
          "internalType": "bytes32",
          "name": "role",
          "type": "bytes32"
        },
        {
          "internalType": "address",
          "name": "account",
          "type": "address"
        }
      ],
      "name": "renounceRole",
      "outputs": [],
      "stateMutability": "nonpayable",
      "type": "function"
    },
    {
      "inputs": [
        {
          "internalType": "bytes32",
          "name": "role",
          "type": "bytes32"
        },
        {
          "internalType": "address",
          "name": "account",
          "type": "address"
        }
      ],
      "name": "revokeRole",
      "outputs": [],
      "stateMutability": "nonpayable",
      "type": "function"
    },
    {
      "inputs": [],
      "name": "stakeholderContribution",
      "outputs": [
        {
          "internalType": "uint256",
          "name": "",
          "type": "uint256"
        }
      ],
      "stateMutability": "view",
      "type": "function",
      "constant": true
    },
    {
      "inputs": [
        {
          "internalType": "bytes4",
          "name": "interfaceId",
          "type": "bytes4"
        }
      ],
      "name": "supportsInterface",
      "outputs": [
        {
          "internalType": "bool",
          "name": "",
          "type": "bool"
        }
      ],
      "stateMutability": "view",
      "type": "function",
      "constant": true
    },
    {
      "inputs": [
        {
          "internalType": "string",
          "name": "title",
          "type": "string"
        },
        {
          "internalType": "string",
          "name": "description",
          "type": "string"
        },
        {
          "internalType": "address",
          "name": "beneficiary",
          "type": "address"
        },
        {
          "internalType": "uint256",
          "name": "amount",
          "type": "uint256"
        }
      ],
      "name": "CreateProposal",
      "outputs": [],
      "stateMutability": "nonpayable",
      "type": "function"
    },
    {
      "inputs": [
        {
          "internalType": "uint256",
          "name": "proposalId",
          "type": "uint256"
        },
        {
          "internalType": "bool",
          "name": "supportProposal",
          "type": "bool"
        }
      ],
      "name": "voteWithNFT",
      "outputs": [],
      "stateMutability": "nonpayable",
      "type": "function"
    },
    {
      "inputs": [
        {
          "internalType": "uint256",
          "name": "proposalId",
          "type": "uint256"
        },
        {
          "internalType": "bool",
          "name": "supportProposal",
          "type": "bool"
        }
      ],
      "name": "voteWithToken",
      "outputs": [],
      "stateMutability": "nonpayable",
      "type": "function"
    },
    {
      "inputs": [
        {
          "internalType": "uint256",
          "name": "proposalId",
          "type": "uint256"
        }
      ],
      "name": "payBeneficiary",
      "outputs": [
        {
          "internalType": "uint256",
          "name": "",
          "type": "uint256"
        }
      ],
      "stateMutability": "nonpayable",
      "type": "function"
    },
    {
      "inputs": [
        {
          "internalType": "uint256",
          "name": "amount",
          "type": "uint256"
        }
      ],
      "name": "contribute",
      "outputs": [],
      "stateMutability": "nonpayable",
      "type": "function"
    },
    {
      "inputs": [],
      "name": "getProposals",
      "outputs": [
        {
          "components": [
            {
              "internalType": "uint256",
              "name": "id",
              "type": "uint256"
            },
            {
              "internalType": "address",
              "name": "proposer",
              "type": "address"
            },
            {
              "internalType": "uint256",
              "name": "amount",
              "type": "uint256"
            },
            {
              "internalType": "uint256",
              "name": "livePeriod",
              "type": "uint256"
            },
            {
              "internalType": "uint256",
              "name": "votesFor",
              "type": "uint256"
            },
            {
              "internalType": "uint256",
              "name": "votesAgainst",
              "type": "uint256"
            },
            {
              "internalType": "string",
              "name": "title",
              "type": "string"
            },
            {
              "internalType": "string",
              "name": "description",
              "type": "string"
            },
            {
              "internalType": "bool",
              "name": "votingPassed",
              "type": "bool"
            },
            {
              "internalType": "bool",
              "name": "paid",
              "type": "bool"
            },
            {
              "internalType": "address payable",
              "name": "beneficiary",
              "type": "address"
            },
            {
              "internalType": "address",
              "name": "paidBy",
              "type": "address"
            }
          ],
          "internalType": "struct CodeMavericksGouvernance.Proposal[]",
          "name": "",
          "type": "tuple[]"
        }
      ],
      "stateMutability": "view",
      "type": "function",
      "constant": true
    },
    {
      "inputs": [
        {
          "internalType": "uint256",
          "name": "proposalId",
          "type": "uint256"
        }
      ],
      "name": "getProposal",
      "outputs": [
        {
          "components": [
            {
              "internalType": "uint256",
              "name": "id",
              "type": "uint256"
            },
            {
              "internalType": "address",
              "name": "proposer",
              "type": "address"
            },
            {
              "internalType": "uint256",
              "name": "amount",
              "type": "uint256"
            },
            {
              "internalType": "uint256",
              "name": "livePeriod",
              "type": "uint256"
            },
            {
              "internalType": "uint256",
              "name": "votesFor",
              "type": "uint256"
            },
            {
              "internalType": "uint256",
              "name": "votesAgainst",
              "type": "uint256"
            },
            {
              "internalType": "string",
              "name": "title",
              "type": "string"
            },
            {
              "internalType": "string",
              "name": "description",
              "type": "string"
            },
            {
              "internalType": "bool",
              "name": "votingPassed",
              "type": "bool"
            },
            {
              "internalType": "bool",
              "name": "paid",
              "type": "bool"
            },
            {
              "internalType": "address payable",
              "name": "beneficiary",
              "type": "address"
            },
            {
              "internalType": "address",
              "name": "paidBy",
              "type": "address"
            }
          ],
          "internalType": "struct CodeMavericksGouvernance.Proposal",
          "name": "",
          "type": "tuple"
        }
      ],
      "stateMutability": "view",
      "type": "function",
      "constant": true
    },
    {
      "inputs": [
        {
          "internalType": "uint256",
          "name": "proposalId",
          "type": "uint256"
        }
      ],
      "name": "getNumberOfVotesFor",
      "outputs": [
        {
          "internalType": "uint256",
          "name": "",
          "type": "uint256"
        }
      ],
      "stateMutability": "view",
      "type": "function",
      "constant": true
    },
    {
      "inputs": [
        {
          "internalType": "uint256",
          "name": "proposalId",
          "type": "uint256"
        }
      ],
      "name": "getNumberOfVotesAgainst",
      "outputs": [
        {
          "internalType": "uint256",
          "name": "",
          "type": "uint256"
        }
      ],
      "stateMutability": "view",
      "type": "function",
      "constant": true
    },
    {
      "inputs": [],
      "name": "getStakeholderVotes",
      "outputs": [
        {
          "internalType": "uint256[]",
          "name": "",
          "type": "uint256[]"
        }
      ],
      "stateMutability": "view",
      "type": "function",
      "constant": true
    },
    {
      "inputs": [],
      "name": "getStakeholderBalance",
      "outputs": [
        {
          "internalType": "uint256",
          "name": "",
          "type": "uint256"
        }
      ],
      "stateMutability": "view",
      "type": "function",
      "constant": true
    },
    {
      "inputs": [],
      "name": "getContributorBalance",
      "outputs": [
        {
          "internalType": "uint256",
          "name": "",
          "type": "uint256"
        }
      ],
      "stateMutability": "view",
      "type": "function",
      "constant": true
    },
    {
      "inputs": [],
      "name": "isStakeholder",
      "outputs": [
        {
          "internalType": "bool",
          "name": "",
          "type": "bool"
        }
      ],
      "stateMutability": "view",
      "type": "function",
      "constant": true
    },
    {
      "inputs": [],
      "name": "isContributor",
      "outputs": [
        {
          "internalType": "bool",
          "name": "",
          "type": "bool"
        }
      ],
      "stateMutability": "view",
      "type": "function",
      "constant": true
    },
    {
      "inputs": [],
      "name": "getDaoBalance",
      "outputs": [
        {
          "internalType": "uint256",
          "name": "",
          "type": "uint256"
        }
      ],
      "stateMutability": "view",
      "type": "function",
      "constant": true
    }
  ],
  "bytecode": "0x60a060405262093a8063ffffffff1660809063ffffffff168152506103e86007553480156200002d57600080fd5b50604051620040223803806200402283398181016040528101906200005391906200014f565b600160008190555081600260006101000a81548173ffffffffffffffffffffffffffffffffffffffff021916908373ffffffffffffffffffffffffffffffffffffffff16021790555080600360006101000a81548173ffffffffffffffffffffffffffffffffffffffff021916908373ffffffffffffffffffffffffffffffffffffffff160217905550505062000196565b600080fd5b600073ffffffffffffffffffffffffffffffffffffffff82169050919050565b60006200011782620000ea565b9050919050565b62000129816200010a565b81146200013557600080fd5b50565b60008151905062000149816200011e565b92915050565b60008060408385031215620001695762000168620000e5565b5b6000620001798582860162000138565b92505060206200018c8582860162000138565b9150509250929050565b608051613e70620001b26000396000611ee00152613e706000f3fe608060405234801561001057600080fd5b50600436106101a95760003560e01c8063a22f1db7116100f9578063d547741f11610097578063e243038e11610071578063e243038e146104d2578063f046f984146104ee578063f74b758d1461050c578063f96dae0a1461052a576101a9565b8063d547741f1461047a578063d56d229d14610496578063d6cc8016146104b4576101a9565b8063bd972816116100d3578063bd972816146103f2578063c02146ac14610410578063c1cbbca71461042e578063c7f758a81461044a576101a9565b8063a22f1db714610386578063bb0c8298146103a4578063bd92b270146103c2576101a9565b806336568abe1161016657806362564c481161014057806362564c48146102fc5780636a80d84d1461031a57806391d1485414610338578063a217fddf14610368576101a9565b806336568abe146102a6578063384819bf146102c25780633cdb48c2146102de576101a9565b806301ffc9a7146101ae578063119c37c8146101de5780631b31e6731461020e5780632425ebe31461022a578063248a9ca31461025a5780632f2ff15d1461028a575b600080fd5b6101c860048036038101906101c39190612828565b610548565b6040516101d59190612870565b60405180910390f35b6101f860048036038101906101f391906128c1565b6105c2565b60405161020591906128fd565b60405180910390f35b61022860048036038101906102239190612944565b610996565b005b610244600480360381019061023f91906128c1565b610b2b565b60405161025191906128fd565b60405180910390f35b610274600480360381019061026f91906129ba565b610b4b565b60405161028191906129f6565b60405180910390f35b6102a4600480360381019061029f9190612a6f565b610b6b565b005b6102c060048036038101906102bb9190612a6f565b610b8c565b005b6102dc60048036038101906102d79190612944565b610c0f565b005b6102e6610dfb565b6040516102f391906128fd565b60405180910390f35b610304610ee6565b6040516103119190612d5a565b60405180910390f35b610322611235565b60405161032f91906128fd565b60405180910390f35b610352600480360381019061034d9190612a6f565b611320565b60405161035f9190612870565b60405180910390f35b61037061138b565b60405161037d91906129f6565b60405180910390f35b61038e611392565b60405161039b9190612e2b565b60405180910390f35b6103ac6114cb565b6040516103b991906128fd565b60405180910390f35b6103dc60048036038101906103d791906128c1565b6114d1565b6040516103e991906128fd565b60405180910390f35b6103fa6114f1565b60405161040791906128fd565b60405180910390f35b6104186114f7565b6040516104259190612870565b60405180910390f35b610448600480360381019061044391906128c1565b611540565b005b610464600480360381019061045f91906128c1565b6119c7565b6040516104719190612f58565b60405180910390f35b610494600480360381019061048f9190612a6f565b611c83565b005b61049e611ca4565b6040516104ab9190612fd9565b60405180910390f35b6104bc611cca565b6040516104c99190612870565b60405180910390f35b6104ec60048036038101906104e79190613059565b611d13565b005b6104f6611f70565b60405161050391906128fd565b60405180910390f35b610514611f7a565b60405161052191906128fd565b60405180910390f35b610532611f80565b60405161053f9190613121565b60405180910390f35b60007f7965db0b000000000000000000000000000000000000000000000000000000007bffffffffffffffffffffffffffffffffffffffffffffffffffffffff1916827bffffffffffffffffffffffffffffffffffffffffffffffffffffffff191614806105bb57506105ba82611fa6565b5b9050919050565b60006040518060400160405280601f81526020017f556e617574686f72697a65643a205374616b65686f6c64657273206f6e6c79008152506106247ff4bb84e1768dd286358a736d195a0b228621173f655a73b89bf8b191ed0ba07d33611320565b8190610666576040517f08c379a000000000000000000000000000000000000000000000000000000000815260040161065d9190613186565b60405180910390fd5b5061066f612010565b6000600860008581526020019081526020016000209050806002015460055410156106cf576040517f08c379a00000000000000000000000000000000000000000000000000000000081526004016106c6906131f4565b60405180910390fd5b8060080160019054906101000a900460ff1615610721576040517f08c379a000000000000000000000000000000000000000000000000000000000815260040161071890613260565b60405180910390fd5b806005015481600401541161076b576040517f08c379a0000000000000000000000000000000000000000000000000000000008152600401610762906132cc565b60405180910390fd5b6000600260009054906101000a900473ffffffffffffffffffffffffffffffffffffffff1673ffffffffffffffffffffffffffffffffffffffff1663a9059cbb8360080160029054906101000a900473ffffffffffffffffffffffffffffffffffffffff1684600201546040518363ffffffff1660e01b81526004016107f292919061330d565b6020604051808303816000875af1158015610811573d6000803e3d6000fd5b505050506040513d601f19601f82011682018060405250810190610835919061334b565b905080610877576040517f08c379a000000000000000000000000000000000000000000000000000000000815260040161086e906133c4565b60405180910390fd5b60018260080160016101000a81548160ff021916908315150217905550338260090160006101000a81548173ffffffffffffffffffffffffffffffffffffffff021916908373ffffffffffffffffffffffffffffffffffffffff1602179055508160020154600560008282546108ed9190613413565b925050819055508160080160029054906101000a900473ffffffffffffffffffffffffffffffffffffffff1673ffffffffffffffffffffffffffffffffffffffff163373ffffffffffffffffffffffffffffffffffffffff167ffdb2bc0ebc2e58404f3ad5b20d3ec351f2b7b7bf6a21e18beaa7d296d2f01ba5846002015460405161097991906128fd565b60405180910390a36005549350505061099061205f565b50919050565b604051806060016040528060258152602001613e16602591396109d97ff4bb84e1768dd286358a736d195a0b228621173f655a73b89bf8b191ed0ba07d33611320565b8190610a1b576040517f08c379a0000000000000000000000000000000000000000000000000000000008152600401610a129190613186565b60405180910390fd5b506000600860008581526020019081526020016000209050610a3c81612069565b8215610a63576001816004016000828254610a579190613447565b92505081905550610a80565b6001816005016000828254610a789190613447565b925050819055505b600b60003373ffffffffffffffffffffffffffffffffffffffff1673ffffffffffffffffffffffffffffffffffffffff168152602001908152602001600020816000015490806001815401808255809150506001900390600052602060002001600090919091909150557ff2913dbe661ee2acc4a046d8fbcdc792373bda34c41c6086484b5345e5785e5f843385604051610b1d9392919061348a565b60405180910390a150505050565b600060086000838152602001908152602001600020600501549050919050565b600060016000838152602001908152602001600020600101549050919050565b610b7482610b4b565b610b7d81612245565b610b878383612259565b505050565b610b94612339565b73ffffffffffffffffffffffffffffffffffffffff168173ffffffffffffffffffffffffffffffffffffffff1614610c01576040517f08c379a0000000000000000000000000000000000000000000000000000000008152600401610bf890613533565b60405180910390fd5b610c0b8282612341565b5050565b6000600360009054906101000a900473ffffffffffffffffffffffffffffffffffffffff1673ffffffffffffffffffffffffffffffffffffffff166370a08231336040518263ffffffff1660e01b8152600401610c6c9190613553565b602060405180830381865afa158015610c89573d6000803e3d6000fd5b505050506040513d601f19601f82011682018060405250810190610cad9190613583565b11610ced576040517f08c379a0000000000000000000000000000000000000000000000000000000008152600401610ce4906135fc565b60405180910390fd5b6000600860008481526020019081526020016000209050610d0d81612069565b8115610d34576001816004016000828254610d289190613447565b92505081905550610d51565b6001816005016000828254610d499190613447565b925050819055505b600b60003373ffffffffffffffffffffffffffffffffffffffff1673ffffffffffffffffffffffffffffffffffffffff168152602001908152602001600020816000015490806001815401808255809150506001900390600052602060002001600090919091909150557ff2913dbe661ee2acc4a046d8fbcdc792373bda34c41c6086484b5345e5785e5f833384604051610dee9392919061348a565b60405180910390a1505050565b60006040518060400160405280601981526020017f55736572206973206e6f74206120636f6e7472696275746f7200000000000000815250610e5d7fa0bb1af1c90aa52ed052b92714ff0087008cc720049bf1af77cca2600b31e80c33611320565b8190610e9f576040517f08c379a0000000000000000000000000000000000000000000000000000000008152600401610e969190613186565b60405180910390fd5b50600960003373ffffffffffffffffffffffffffffffffffffffff1673ffffffffffffffffffffffffffffffffffffffff1681526020019081526020016000205491505090565b6060600060045467ffffffffffffffff811115610f0657610f0561361c565b5b604051908082528060200260200182016040528015610f3f57816020015b610f2c61271f565b815260200190600190039081610f245790505b50905060005b60045481101561122d576008600082815260200190815260200160002060405180610180016040529081600082015481526020016001820160009054906101000a900473ffffffffffffffffffffffffffffffffffffffff1673ffffffffffffffffffffffffffffffffffffffff1673ffffffffffffffffffffffffffffffffffffffff168152602001600282015481526020016003820154815260200160048201548152602001600582015481526020016006820180546110069061367a565b80601f01602080910402602001604051908101604052809291908181526020018280546110329061367a565b801561107f5780601f106110545761010080835404028352916020019161107f565b820191906000526020600020905b81548152906001019060200180831161106257829003601f168201915b505050505081526020016007820180546110989061367a565b80601f01602080910402602001604051908101604052809291908181526020018280546110c49061367a565b80156111115780601f106110e657610100808354040283529160200191611111565b820191906000526020600020905b8154815290600101906020018083116110f457829003601f168201915b505050505081526020016008820160009054906101000a900460ff161515151581526020016008820160019054906101000a900460ff161515151581526020016008820160029054906101000a900473ffffffffffffffffffffffffffffffffffffffff1673ffffffffffffffffffffffffffffffffffffffff1673ffffffffffffffffffffffffffffffffffffffff1681526020016009820160009054906101000a900473ffffffffffffffffffffffffffffffffffffffff1673ffffffffffffffffffffffffffffffffffffffff1673ffffffffffffffffffffffffffffffffffffffff168152505082828151811061120f5761120e6136ab565b5b60200260200101819052508080611225906136da565b915050610f45565b508091505090565b60006040518060400160405280601981526020017f55736572206973206e6f742061207374616b65686f6c646572000000000000008152506112977ff4bb84e1768dd286358a736d195a0b228621173f655a73b89bf8b191ed0ba07d33611320565b81906112d9576040517f08c379a00000000000000000000000000000000000000000000000000000000081526004016112d09190613186565b60405180910390fd5b50600a60003373ffffffffffffffffffffffffffffffffffffffff1673ffffffffffffffffffffffffffffffffffffffff1681526020019081526020016000205491505090565b60006001600084815260200190815260200160002060000160008373ffffffffffffffffffffffffffffffffffffffff1673ffffffffffffffffffffffffffffffffffffffff16815260200190815260200160002060009054906101000a900460ff16905092915050565b6000801b81565b60606040518060400160405280601981526020017f55736572206973206e6f742061207374616b65686f6c646572000000000000008152506113f47ff4bb84e1768dd286358a736d195a0b228621173f655a73b89bf8b191ed0ba07d33611320565b8190611436576040517f08c379a000000000000000000000000000000000000000000000000000000000815260040161142d9190613186565b60405180910390fd5b50600b60003373ffffffffffffffffffffffffffffffffffffffff1673ffffffffffffffffffffffffffffffffffffffff1681526020019081526020016000208054806020026020016040519081016040528092919081815260200182805480156114c057602002820191906000526020600020905b8154815260200190600101908083116114ac575b505050505091505090565b60075481565b600060086000838152602001908152602001600020600401549050919050565b60055481565b600080600a60003373ffffffffffffffffffffffffffffffffffffffff1673ffffffffffffffffffffffffffffffffffffffff1681526020019081526020016000205411905090565b80600260009054906101000a900473ffffffffffffffffffffffffffffffffffffffff1673ffffffffffffffffffffffffffffffffffffffff166370a08231336040518263ffffffff1660e01b815260040161159c9190613553565b602060405180830381865afa1580156115b9573d6000803e3d6000fd5b505050506040513d601f19601f820116820180604052508101906115dd9190613583565b101561161e576040517f08c379a00000000000000000000000000000000000000000000000000000000081526004016116159061376e565b60405180910390fd5b600260009054906101000a900473ffffffffffffffffffffffffffffffffffffffff1673ffffffffffffffffffffffffffffffffffffffff166323b872dd3330846040518463ffffffff1660e01b815260040161167d9392919061378e565b6020604051808303816000875af115801561169c573d6000803e3d6000fd5b505050506040513d601f19601f820116820180604052508101906116c0919061334b565b50600033905060008290506116f57ff4bb84e1768dd286358a736d195a0b228621173f655a73b89bf8b191ed0ba07d83611320565b6118e357600081600960008573ffffffffffffffffffffffffffffffffffffffff1673ffffffffffffffffffffffffffffffffffffffff168152602001908152602001600020546117469190613447565b9050600754811061185c5780600a60008573ffffffffffffffffffffffffffffffffffffffff1673ffffffffffffffffffffffffffffffffffffffff1681526020019081526020016000208190555081600960008573ffffffffffffffffffffffffffffffffffffffff1673ffffffffffffffffffffffffffffffffffffffff16815260200190815260200160002060008282546117e49190613447565b925050819055506118157ff4bb84e1768dd286358a736d195a0b228621173f655a73b89bf8b191ed0ba07d84612423565b61183f7fa0bb1af1c90aa52ed052b92714ff0087008cc720049bf1af77cca2600b31e80c84612423565b600c6000815480929190611852906136da565b91905055506118dd565b81600960008573ffffffffffffffffffffffffffffffffffffffff1673ffffffffffffffffffffffffffffffffffffffff16815260200190815260200160002060008282546118ab9190613447565b925050819055506118dc7fa0bb1af1c90aa52ed052b92714ff0087008cc720049bf1af77cca2600b31e80c84612423565b5b506119a9565b80600960008473ffffffffffffffffffffffffffffffffffffffff1673ffffffffffffffffffffffffffffffffffffffff16815260200190815260200160002060008282546119329190613447565b9250508190555080600a60008473ffffffffffffffffffffffffffffffffffffffff1673ffffffffffffffffffffffffffffffffffffffff16815260200190815260200160002060008282546119889190613447565b9250508190555080600660008282546119a19190613447565b925050819055505b82600560008282546119bb9190613447565b92505081905550505050565b6119cf61271f565b6008600083815260200190815260200160002060405180610180016040529081600082015481526020016001820160009054906101000a900473ffffffffffffffffffffffffffffffffffffffff1673ffffffffffffffffffffffffffffffffffffffff1673ffffffffffffffffffffffffffffffffffffffff16815260200160028201548152602001600382015481526020016004820154815260200160058201548152602001600682018054611a869061367a565b80601f0160208091040260200160405190810160405280929190818152602001828054611ab29061367a565b8015611aff5780601f10611ad457610100808354040283529160200191611aff565b820191906000526020600020905b815481529060010190602001808311611ae257829003601f168201915b50505050508152602001600782018054611b189061367a565b80601f0160208091040260200160405190810160405280929190818152602001828054611b449061367a565b8015611b915780601f10611b6657610100808354040283529160200191611b91565b820191906000526020600020905b815481529060010190602001808311611b7457829003601f168201915b505050505081526020016008820160009054906101000a900460ff161515151581526020016008820160019054906101000a900460ff161515151581526020016008820160029054906101000a900473ffffffffffffffffffffffffffffffffffffffff1673ffffffffffffffffffffffffffffffffffffffff1673ffffffffffffffffffffffffffffffffffffffff1681526020016009820160009054906101000a900473ffffffffffffffffffffffffffffffffffffffff1673ffffffffffffffffffffffffffffffffffffffff1673ffffffffffffffffffffffffffffffffffffffff16815250509050919050565b611c8c82610b4b565b611c9581612245565b611c9f8383612341565b505050565b600360009054906101000a900473ffffffffffffffffffffffffffffffffffffffff1681565b600080600960003373ffffffffffffffffffffffffffffffffffffffff1673ffffffffffffffffffffffffffffffffffffffff1681526020019081526020016000205411905090565b611d3d7ff4bb84e1768dd286358a736d195a0b228621173f655a73b89bf8b191ed0ba07d33611320565b80611de357506000600360009054906101000a900473ffffffffffffffffffffffffffffffffffffffff1673ffffffffffffffffffffffffffffffffffffffff166370a08231336040518263ffffffff1660e01b8152600401611da09190613553565b602060405180830381865afa158015611dbd573d6000803e3d6000fd5b505050506040513d601f19601f82011682018060405250810190611de19190613583565b115b611dec57600080fd5b600060046000815480929190611e01906136da565b9190505590506000600860008381526020019081526020016000209050818160000181905550338160010160006101000a81548173ffffffffffffffffffffffffffffffffffffffff021916908373ffffffffffffffffffffffffffffffffffffffff1602179055508281600201819055508787826006019182611e86929190613972565b508585826007019182611e9a929190613972565b50838160080160026101000a81548173ffffffffffffffffffffffffffffffffffffffff021916908373ffffffffffffffffffffffffffffffffffffffff1602179055507f000000000000000000000000000000000000000000000000000000000000000063ffffffff1642611f109190613447565b81600301819055503373ffffffffffffffffffffffffffffffffffffffff167fe91b617d4934aaed554665fb8bf916496704d82c4207445297286ab8f01f8e2a84604051611f5e91906128fd565b60405180910390a25050505050505050565b6000600554905090565b60065481565b600260009054906101000a900473ffffffffffffffffffffffffffffffffffffffff1681565b60007f01ffc9a7000000000000000000000000000000000000000000000000000000007bffffffffffffffffffffffffffffffffffffffffffffffffffffffff1916827bffffffffffffffffffffffffffffffffffffffffffffffffffffffff1916149050919050565b600260005403612055576040517f08c379a000000000000000000000000000000000000000000000000000000000815260040161204c90613a8e565b60405180910390fd5b6002600081905550565b6001600081905550565b6004548160000154106120b1576040517f08c379a00000000000000000000000000000000000000000000000000000000081526004016120a890613afa565b60405180910390fd5b8060080160009054906101000a900460ff16806120d2575042816003015411155b1561212f5760018160080160006101000a81548160ff0219169083151502179055506040517f08c379a000000000000000000000000000000000000000000000000000000000815260040161212690613b8c565b60405180910390fd5b6000600b60003373ffffffffffffffffffffffffffffffffffffffff1673ffffffffffffffffffffffffffffffffffffffff1681526020019081526020016000208054806020026020016040519081016040528092919081815260200182805480156121ba57602002820191906000526020600020905b8154815260200190600101908083116121a6575b5050505050905060005b8151811015612240578181815181106121e0576121df6136ab565b5b602002602001015183600001540361222d576040517f08c379a000000000000000000000000000000000000000000000000000000000815260040161222490613bf8565b60405180910390fd5b8080612238906136da565b9150506121c4565b505050565b61225681612251612339565b612431565b50565b6122638282611320565b61233557600180600084815260200190815260200160002060000160008373ffffffffffffffffffffffffffffffffffffffff1673ffffffffffffffffffffffffffffffffffffffff16815260200190815260200160002060006101000a81548160ff0219169083151502179055506122da612339565b73ffffffffffffffffffffffffffffffffffffffff168173ffffffffffffffffffffffffffffffffffffffff16837f2f8788117e7eff1d82e926ec794901d17c78024a50270940304540a733656f0d60405160405180910390a45b5050565b600033905090565b61234b8282611320565b1561241f5760006001600084815260200190815260200160002060000160008373ffffffffffffffffffffffffffffffffffffffff1673ffffffffffffffffffffffffffffffffffffffff16815260200190815260200160002060006101000a81548160ff0219169083151502179055506123c4612339565b73ffffffffffffffffffffffffffffffffffffffff168173ffffffffffffffffffffffffffffffffffffffff16837ff6391f5c32d9c69d2a47ea670b442974b53935d1edc7fd64eb21e047a839171b60405160405180910390a45b5050565b61242d8282612259565b5050565b61243b8282611320565b6124b257612448816124b6565b6124568360001c60206124e3565b604051602001612467929190613cec565b6040516020818303038152906040526040517f08c379a00000000000000000000000000000000000000000000000000000000081526004016124a99190613186565b60405180910390fd5b5050565b60606124dc8273ffffffffffffffffffffffffffffffffffffffff16601460ff166124e3565b9050919050565b6060600060028360026124f69190613d26565b6125009190613447565b67ffffffffffffffff8111156125195761251861361c565b5b6040519080825280601f01601f19166020018201604052801561254b5781602001600182028036833780820191505090505b5090507f300000000000000000000000000000000000000000000000000000000000000081600081518110612583576125826136ab565b5b60200101907effffffffffffffffffffffffffffffffffffffffffffffffffffffffffffff1916908160001a9053507f7800000000000000000000000000000000000000000000000000000000000000816001815181106125e7576125e66136ab565b5b60200101907effffffffffffffffffffffffffffffffffffffffffffffffffffffffffffff1916908160001a905350600060018460026126279190613d26565b6126319190613447565b90505b60018111156126d1577f3031323334353637383961626364656600000000000000000000000000000000600f861660108110612673576126726136ab565b5b1a60f81b82828151811061268a576126896136ab565b5b60200101907effffffffffffffffffffffffffffffffffffffffffffffffffffffffffffff1916908160001a905350600485901c9450806126ca90613d80565b9050612634565b5060008414612715576040517f08c379a000000000000000000000000000000000000000000000000000000000815260040161270c90613df5565b60405180910390fd5b8091505092915050565b60405180610180016040528060008152602001600073ffffffffffffffffffffffffffffffffffffffff168152602001600081526020016000815260200160008152602001600081526020016060815260200160608152602001600015158152602001600015158152602001600073ffffffffffffffffffffffffffffffffffffffff168152602001600073ffffffffffffffffffffffffffffffffffffffff1681525090565b600080fd5b600080fd5b60007fffffffff0000000000000000000000000000000000000000000000000000000082169050919050565b612805816127d0565b811461281057600080fd5b50565b600081359050612822816127fc565b92915050565b60006020828403121561283e5761283d6127c6565b5b600061284c84828501612813565b91505092915050565b60008115159050919050565b61286a81612855565b82525050565b60006020820190506128856000830184612861565b92915050565b6000819050919050565b61289e8161288b565b81146128a957600080fd5b50565b6000813590506128bb81612895565b92915050565b6000602082840312156128d7576128d66127c6565b5b60006128e5848285016128ac565b91505092915050565b6128f78161288b565b82525050565b600060208201905061291260008301846128ee565b92915050565b61292181612855565b811461292c57600080fd5b50565b60008135905061293e81612918565b92915050565b6000806040838503121561295b5761295a6127c6565b5b6000612969858286016128ac565b925050602061297a8582860161292f565b9150509250929050565b6000819050919050565b61299781612984565b81146129a257600080fd5b50565b6000813590506129b48161298e565b92915050565b6000602082840312156129d0576129cf6127c6565b5b60006129de848285016129a5565b91505092915050565b6129f081612984565b82525050565b6000602082019050612a0b60008301846129e7565b92915050565b600073ffffffffffffffffffffffffffffffffffffffff82169050919050565b6000612a3c82612a11565b9050919050565b612a4c81612a31565b8114612a5757600080fd5b50565b600081359050612a6981612a43565b92915050565b60008060408385031215612a8657612a856127c6565b5b6000612a94858286016129a5565b9250506020612aa585828601612a5a565b9150509250929050565b600081519050919050565b600082825260208201905092915050565b6000819050602082019050919050565b612ae48161288b565b82525050565b612af381612a31565b82525050565b600081519050919050565b600082825260208201905092915050565b60005b83811015612b33578082015181840152602081019050612b18565b60008484015250505050565b6000601f19601f8301169050919050565b6000612b5b82612af9565b612b658185612b04565b9350612b75818560208601612b15565b612b7e81612b3f565b840191505092915050565b612b9281612855565b82525050565b6000612ba382612a11565b9050919050565b612bb381612b98565b82525050565b600061018083016000830151612bd26000860182612adb565b506020830151612be56020860182612aea565b506040830151612bf86040860182612adb565b506060830151612c0b6060860182612adb565b506080830151612c1e6080860182612adb565b5060a0830151612c3160a0860182612adb565b5060c083015184820360c0860152612c498282612b50565b91505060e083015184820360e0860152612c638282612b50565b915050610100830151612c7a610100860182612b89565b50610120830151612c8f610120860182612b89565b50610140830151612ca4610140860182612baa565b50610160830151612cb9610160860182612aea565b508091505092915050565b6000612cd08383612bb9565b905092915050565b6000602082019050919050565b6000612cf082612aaf565b612cfa8185612aba565b935083602082028501612d0c85612acb565b8060005b85811015612d485784840389528151612d298582612cc4565b9450612d3483612cd8565b925060208a01995050600181019050612d10565b50829750879550505050505092915050565b60006020820190508181036000830152612d748184612ce5565b905092915050565b600081519050919050565b600082825260208201905092915050565b6000819050602082019050919050565b6000612db48383612adb565b60208301905092915050565b6000602082019050919050565b6000612dd882612d7c565b612de28185612d87565b9350612ded83612d98565b8060005b83811015612e1e578151612e058882612da8565b9750612e1083612dc0565b925050600181019050612df1565b5085935050505092915050565b60006020820190508181036000830152612e458184612dcd565b905092915050565b600061018083016000830151612e666000860182612adb565b506020830151612e796020860182612aea565b506040830151612e8c6040860182612adb565b506060830151612e9f6060860182612adb565b506080830151612eb26080860182612adb565b5060a0830151612ec560a0860182612adb565b5060c083015184820360c0860152612edd8282612b50565b91505060e083015184820360e0860152612ef78282612b50565b915050610100830151612f0e610100860182612b89565b50610120830151612f23610120860182612b89565b50610140830151612f38610140860182612baa565b50610160830151612f4d610160860182612aea565b508091505092915050565b60006020820190508181036000830152612f728184612e4d565b905092915050565b6000819050919050565b6000612f9f612f9a612f9584612a11565b612f7a565b612a11565b9050919050565b6000612fb182612f84565b9050919050565b6000612fc382612fa6565b9050919050565b612fd381612fb8565b82525050565b6000602082019050612fee6000830184612fca565b92915050565b600080fd5b600080fd5b600080fd5b60008083601f84011261301957613018612ff4565b5b8235905067ffffffffffffffff81111561303657613035612ff9565b5b60208301915083600182028301111561305257613051612ffe565b5b9250929050565b60008060008060008060808789031215613076576130756127c6565b5b600087013567ffffffffffffffff811115613094576130936127cb565b5b6130a089828a01613003565b9650965050602087013567ffffffffffffffff8111156130c3576130c26127cb565b5b6130cf89828a01613003565b945094505060406130e289828a01612a5a565b92505060606130f389828a016128ac565b9150509295509295509295565b600061310b82612fa6565b9050919050565b61311b81613100565b82525050565b60006020820190506131366000830184613112565b92915050565b600082825260208201905092915050565b600061315882612af9565b613162818561313c565b9350613172818560208601612b15565b61317b81612b3f565b840191505092915050565b600060208201905081810360008301526131a0818461314d565b905092915050565b7f496e73756666696369656e742066756e64000000000000000000000000000000600082015250565b60006131de60118361313c565b91506131e9826131a8565b602082019050919050565b6000602082019050818103600083015261320d816131d1565b9050919050565b7f5061796d656e742073656e74206265666f726500000000000000000000000000600082015250565b600061324a60138361313c565b915061325582613214565b602082019050919050565b600060208201905081810360008301526132798161323d565b9050919050565b7f496e73756666696369656e7420766f7465730000000000000000000000000000600082015250565b60006132b660128361313c565b91506132c182613280565b602082019050919050565b600060208201905081810360008301526132e5816132a9565b9050919050565b60006132f782612fa6565b9050919050565b613307816132ec565b82525050565b600060408201905061332260008301856132fe565b61332f60208301846128ee565b9392505050565b60008151905061334581612918565b92915050565b600060208284031215613361576133606127c6565b5b600061336f84828501613336565b91505092915050565b7f546f6b656e207472616e73666572206661696c65640000000000000000000000600082015250565b60006133ae60158361313c565b91506133b982613378565b602082019050919050565b600060208201905081810360008301526133dd816133a1565b9050919050565b7f4e487b7100000000000000000000000000000000000000000000000000000000600052601160045260246000fd5b600061341e8261288b565b91506134298361288b565b9250828203905081811115613441576134406133e4565b5b92915050565b60006134528261288b565b915061345d8361288b565b9250828201905080821115613475576134746133e4565b5b92915050565b61348481612a31565b82525050565b600060608201905061349f60008301866128ee565b6134ac602083018561347b565b6134b96040830184612861565b949350505050565b7f416363657373436f6e74726f6c3a2063616e206f6e6c792072656e6f756e636560008201527f20726f6c657320666f722073656c660000000000000000000000000000000000602082015250565b600061351d602f8361313c565b9150613528826134c1565b604082019050919050565b6000602082019050818103600083015261354c81613510565b9050919050565b6000602082019050613568600083018461347b565b92915050565b60008151905061357d81612895565b92915050565b600060208284031215613599576135986127c6565b5b60006135a78482850161356e565b91505092915050565b7f596f7520646f206e6f74206f776e20616e206e66740000000000000000000000600082015250565b60006135e660158361313c565b91506135f1826135b0565b602082019050919050565b60006020820190508181036000830152613615816135d9565b9050919050565b7f4e487b7100000000000000000000000000000000000000000000000000000000600052604160045260246000fd5b7f4e487b7100000000000000000000000000000000000000000000000000000000600052602260045260246000fd5b6000600282049050600182168061369257607f821691505b6020821081036136a5576136a461364b565b5b50919050565b7f4e487b7100000000000000000000000000000000000000000000000000000000600052603260045260246000fd5b60006136e58261288b565b91507fffffffffffffffffffffffffffffffffffffffffffffffffffffffffffffffff8203613717576137166133e4565b5b600182019050919050565b7f496e73756666696369656e742062616c616e6365000000000000000000000000600082015250565b600061375860148361313c565b915061376382613722565b602082019050919050565b600060208201905081810360008301526137878161374b565b9050919050565b60006060820190506137a3600083018661347b565b6137b0602083018561347b565b6137bd60408301846128ee565b949350505050565b600082905092915050565b60008190508160005260206000209050919050565b60006020601f8301049050919050565b600082821b905092915050565b6000600883026138327fffffffffffffffffffffffffffffffffffffffffffffffffffffffffffffffff826137f5565b61383c86836137f5565b95508019841693508086168417925050509392505050565b600061386f61386a6138658461288b565b612f7a565b61288b565b9050919050565b6000819050919050565b61388983613854565b61389d61389582613876565b848454613802565b825550505050565b600090565b6138b26138a5565b6138bd818484613880565b505050565b5b818110156138e1576138d66000826138aa565b6001810190506138c3565b5050565b601f821115613926576138f7816137d0565b613900846137e5565b8101602085101561390f578190505b61392361391b856137e5565b8301826138c2565b50505b505050565b600082821c905092915050565b60006139496000198460080261392b565b1980831691505092915050565b60006139628383613938565b9150826002028217905092915050565b61397c83836137c5565b67ffffffffffffffff8111156139955761399461361c565b5b61399f825461367a565b6139aa8282856138e5565b6000601f8311600181146139d957600084156139c7578287013590505b6139d18582613956565b865550613a39565b601f1984166139e7866137d0565b60005b82811015613a0f578489013582556001820191506020850194506020810190506139ea565b86831015613a2c5784890135613a28601f891682613938565b8355505b6001600288020188555050505b50505050505050565b7f5265656e7472616e637947756172643a207265656e7472616e742063616c6c00600082015250565b6000613a78601f8361313c565b9150613a8382613a42565b602082019050919050565b60006020820190508181036000830152613aa781613a6b565b9050919050565b7f496e76616c69642070726f706f73616c2049442e000000000000000000000000600082015250565b6000613ae460148361313c565b9150613aef82613aae565b602082019050919050565b60006020820190508181036000830152613b1381613ad7565b9050919050565b7f566f74696e6720706572696f642068617320706173736564206f6e207468697360008201527f2070726f706f73616c0000000000000000000000000000000000000000000000602082015250565b6000613b7660298361313c565b9150613b8182613b1a565b604082019050919050565b60006020820190508181036000830152613ba581613b69565b9050919050565b7f446f75626c6520766f74696e67206e6f7420616c6c6f77656400000000000000600082015250565b6000613be260198361313c565b9150613bed82613bac565b602082019050919050565b60006020820190508181036000830152613c1181613bd5565b9050919050565b600081905092915050565b7f416363657373436f6e74726f6c3a206163636f756e7420000000000000000000600082015250565b6000613c59601783613c18565b9150613c6482613c23565b601782019050919050565b6000613c7a82612af9565b613c848185613c18565b9350613c94818560208601612b15565b80840191505092915050565b7f206973206d697373696e6720726f6c6520000000000000000000000000000000600082015250565b6000613cd6601183613c18565b9150613ce182613ca0565b601182019050919050565b6000613cf782613c4c565b9150613d038285613c6f565b9150613d0e82613cc9565b9150613d1a8284613c6f565b91508190509392505050565b6000613d318261288b565b9150613d3c8361288b565b9250817fffffffffffffffffffffffffffffffffffffffffffffffffffffffffffffffff0483118215151615613d7557613d746133e4565b5b828202905092915050565b6000613d8b8261288b565b915060008203613d9e57613d9d6133e4565b5b600182039050919050565b7f537472696e67733a20686578206c656e67746820696e73756666696369656e74600082015250565b6000613ddf60208361313c565b9150613dea82613da9565b602082019050919050565b60006020820190508181036000830152613e0e81613dd2565b905091905056fe4f6e6c79207374616b65686f6c646572732061726520616c6c6f77656420746f20766f7465a264697066735822122048c9d7f71e3757b9f341a3fab919c51cb6c1a3b05b2b43cfb45297e384987e8e64736f6c63430008100033",
  "immutableReferences": {
    "7351": [
      {
        "length": 32,
        "start": 7904
      }
    ]
  },
  "source": "// SPDX-License-Identifier: MIT\npragma solidity ^0.8.9;\n\nimport \"@openzeppelin/contracts/access/AccessControl.sol\";\nimport \"@openzeppelin/contracts/security/ReentrancyGuard.sol\";\nimport \"@openzeppelin/contracts/token/ERC20/IERC20.sol\";\nimport \"./CodeMavricksNft.sol\";\n\ncontract CodeMavericksGouvernance is ReentrancyGuard, AccessControl {\n    IERC20 public governanceToken;\n    CodeMavricksNft public nftContract;\n    bytes32 private constant CONTRIBUTOR_ROLE = keccak256(\"CONTRIBUTOR\");\n    bytes32 private constant STAKEHOLDER_ROLE = keccak256(\"STAKEHOLDER\");\n    uint32 immutable minimumVotingPeriod = 1 weeks;\n    uint256 numOfProposals;\n    uint256 public daoBalance;\n    uint256 public stakeholderContribution;\n    uint256 public minimumAmount = 1000;\n\n    constructor(\n        address _governanceToken,\n        address _nftContract\n    ) {\n        governanceToken = IERC20(_governanceToken);\n        nftContract = CodeMavricksNft(_nftContract);\n    }\n\n    struct Proposal {\n        uint256 id;\n        address proposer;\n        uint256 amount;\n        uint256 livePeriod;\n        uint256 votesFor;\n        uint256 votesAgainst;\n        string title;\n        string description;\n        bool votingPassed;\n        bool paid;\n        address payable beneficiary;\n        address paidBy;\n    }\n\n    mapping(uint256 => Proposal) private proposals;\n    mapping(address => uint256) private contributors;\n    mapping(address => uint256) private stakeholders;\n    mapping(address => uint256[]) private stakeholderVotes;\n    uint256 stakeholderCount;\n\n    //Events\n    event ContributionReceived(address indexed fromAddress, uint256 amount);\n    event newProposal(address indexed proposer, uint256 amount);\n    event PaymentTransfered(\n        address indexed stakeholder,\n        address indexed beneficiary,\n        uint256 amount\n    );\n    event Voted(uint256 proposalId, address voter, bool inFavor);\n    event ProposalExecuted(uint256 proposalId);\n\n    //modifiers\n    modifier onlyStakeholder(string memory message) {\n        require(hasRole(STAKEHOLDER_ROLE, msg.sender), message);\n        _;\n    }\n\n    modifier onlyContributor(string memory message) {\n        require(hasRole(CONTRIBUTOR_ROLE, msg.sender), message);\n        _;\n    }\n\n    function CreateProposal(\n        string calldata title,\n        string calldata description,\n        address beneficiary,\n        uint256 amount\n    ) external {\n        require(\n            (hasRole(STAKEHOLDER_ROLE, msg.sender)) ||\n                (nftContract.balanceOf(msg.sender) > 0)\n        );\n        uint256 proposalId = numOfProposals++;\n      \n        Proposal storage proposal = proposals[proposalId];\n        proposal.id = proposalId;\n        proposal.proposer = msg.sender;\n        proposal.amount = amount;\n        proposal.title = title;\n        proposal.description = description;\n        proposal.beneficiary = payable(beneficiary);\n        proposal.livePeriod = block.timestamp + minimumVotingPeriod;\n\n        emit newProposal(msg.sender, amount);\n    }\n\n    function voteWithNFT(uint256 proposalId, bool supportProposal) public {\n        require(nftContract.balanceOf(msg.sender) > 0, \"You do not own an nft\");\n        Proposal storage proposal = proposals[proposalId];\n\n        handleVoting(proposal);\n        if (supportProposal) proposal.votesFor += 1;\n        else proposal.votesAgainst += 1;\n\n        stakeholderVotes[msg.sender].push(proposal.id);\n        emit Voted(proposalId, msg.sender, supportProposal);\n    }\n\n    function voteWithToken(\n        uint256 proposalId,\n        bool supportProposal\n    ) public onlyStakeholder(\"Only stakeholders are allowed to vote\") {\n        Proposal storage proposal = proposals[proposalId];\n\n        handleVoting(proposal);\n  \n\n        if (supportProposal) proposal.votesFor += 1;\n        else proposal.votesAgainst += 1;\n        stakeholderVotes[msg.sender].push(proposal.id);\n        emit Voted(proposalId, msg.sender, supportProposal);\n    }\n\n    function handleVoting(Proposal storage proposal) private {\n        require(proposal.id < numOfProposals, \"Invalid proposal ID.\");\n\n        if (proposal.votingPassed || proposal.livePeriod <= block.timestamp) {\n            proposal.votingPassed = true;\n            revert(\"Voting period has passed on this proposal\");\n        }\n\n        uint256[] memory tempVotes = stakeholderVotes[msg.sender];\n        for (uint256 votes = 0; votes < tempVotes.length; votes++) {\n            if (proposal.id == tempVotes[votes])\n                revert(\"Double voting not allowed\");\n        }\n    }\n\n    function payBeneficiary(\n        uint256 proposalId\n    )\n        external\n        onlyStakeholder(\"Unauthorized: Stakeholders only\")\n        nonReentrant\n        returns (uint256)\n    {\n        Proposal storage proposal = proposals[proposalId];\n        require(daoBalance >= proposal.amount, \"Insufficient fund\");\n\n        if (proposal.paid) revert(\"Payment sent before\");\n\n        if (proposal.votesFor <= proposal.votesAgainst)\n            revert(\"Insufficient votes\");\n\n        bool success = governanceToken.transfer(\n            proposal.beneficiary,\n            proposal.amount\n        );\n        require(success, \"Token transfer failed\");\n\n        proposal.paid = true;\n        proposal.paidBy = msg.sender;\n        daoBalance -= proposal.amount;\n\n        emit PaymentTransfered(\n            msg.sender,\n            proposal.beneficiary,\n            proposal.amount\n        );\n\n        return daoBalance;\n    }\n\n    function contribute(uint256 amount) external {\n        //before we should approve this contract to spend the amount\n        require(\n            governanceToken.balanceOf(msg.sender) >= amount,\n            \"Insufficient balance\"\n        );\n        governanceToken.transferFrom(msg.sender, address(this), amount);\n        address account = msg.sender;\n        uint256 amountContributed = amount;\n        if (!hasRole(STAKEHOLDER_ROLE, account)) {\n            uint256 totalContributed = contributors[account] +\n                amountContributed;\n            if (totalContributed >= minimumAmount) {\n                stakeholders[account] = totalContributed;\n                contributors[account] += amountContributed;\n                _setupRole(STAKEHOLDER_ROLE, account);\n                _setupRole(CONTRIBUTOR_ROLE, account);\n                stakeholderCount++;\n            } else {\n                contributors[account] += amountContributed;\n                _setupRole(CONTRIBUTOR_ROLE, account);\n            }\n        } else {\n            contributors[account] += amountContributed;\n            stakeholders[account] += amountContributed;\n            stakeholderContribution += amountContributed;\n        }\n        daoBalance += amount;\n    }\n\n    //getters\n    function getProposals() public view returns (Proposal[] memory) {\n        Proposal[] memory props = new Proposal[](numOfProposals);\n\n        for (uint256 i = 0; i < numOfProposals; i++) {\n            props[i] = proposals[i];\n        }\n        return props;\n    }\n\n    function getProposal(\n        uint256 proposalId\n    ) public view returns (Proposal memory) {\n        return proposals[proposalId];\n    }\n\n    function getNumberOfVotesFor(\n        uint256 proposalId\n    ) public view returns (uint256) {\n        return proposals[proposalId].votesFor;\n    }\n\n    function getNumberOfVotesAgainst(\n        uint256 proposalId\n    ) public view returns (uint256) {\n        return proposals[proposalId].votesAgainst;\n    }\n\n    function getStakeholderVotes()\n        public\n        view\n        onlyStakeholder(\"User is not a stakeholder\")\n        returns (uint256[] memory)\n    {\n        return stakeholderVotes[msg.sender];\n    }\n\n    function getStakeholderBalance()\n        public\n        view\n        onlyStakeholder(\"User is not a stakeholder\")\n        returns (uint256)\n    {\n        return stakeholders[msg.sender];\n    }\n\n    function getContributorBalance()\n        public\n        view\n        onlyContributor(\"User is not a contributor\")\n        returns (uint256)\n    {\n        return contributors[msg.sender];\n    }\n\n    function isStakeholder() public view returns (bool) {\n        return stakeholders[msg.sender] > 0;\n    }\n\n    function isContributor() public view returns (bool) {\n        return contributors[msg.sender] > 0;\n    }\n\n    function getDaoBalance() external view returns (uint256) {\n        return daoBalance;\n    }\n}\n",
  "sourcePath": "/home/senyou/nft-collection/contracts/CodeMavericksGouvernance.sol",
  "compiler": {
    "name": "solc",
    "version": "0.8.16+commit.07a7930e.Emscripten.clang"
  },
  "schemaVersion": "3.4.9",
  "updatedAt": "2023-05-21T21:30:07.793Z",
  "networkType": "ethereum",
  "devdoc": {
    "kind": "dev",
    "methods": {
      "getRoleAdmin(bytes32)": {
        "details": "Returns the admin role that controls `role`. See {grantRole} and {revokeRole}. To change a role's admin, use {_setRoleAdmin}."
      },
      "grantRole(bytes32,address)": {
        "details": "Grants `role` to `account`. If `account` had not been already granted `role`, emits a {RoleGranted} event. Requirements: - the caller must have ``role``'s admin role. May emit a {RoleGranted} event."
      },
      "hasRole(bytes32,address)": {
        "details": "Returns `true` if `account` has been granted `role`."
      },
      "renounceRole(bytes32,address)": {
        "details": "Revokes `role` from the calling account. Roles are often managed via {grantRole} and {revokeRole}: this function's purpose is to provide a mechanism for accounts to lose their privileges if they are compromised (such as when a trusted device is misplaced). If the calling account had been revoked `role`, emits a {RoleRevoked} event. Requirements: - the caller must be `account`. May emit a {RoleRevoked} event."
      },
      "revokeRole(bytes32,address)": {
        "details": "Revokes `role` from `account`. If `account` had been granted `role`, emits a {RoleRevoked} event. Requirements: - the caller must have ``role``'s admin role. May emit a {RoleRevoked} event."
      },
      "supportsInterface(bytes4)": {
        "details": "See {IERC165-supportsInterface}."
      }
    },
    "version": 1
  },
  "userdoc": {
    "kind": "user",
    "methods": {},
    "version": 1
  }
}