{
  "contractName": "MultiSig",
  "abi": [
    {
      "inputs": [
        {
          "internalType": "address[]",
          "name": "_owners",
          "type": "address[]"
        },
        {
          "internalType": "uint256",
          "name": "_required",
          "type": "uint256"
        }
      ],
      "stateMutability": "nonpayable",
      "type": "constructor"
    },
    {
      "anonymous": false,
      "inputs": [
        {
          "indexed": true,
          "internalType": "uint256",
          "name": "txId",
          "type": "uint256"
        },
        {
          "indexed": true,
          "internalType": "address",
          "name": "sender",
          "type": "address"
        }
      ],
      "name": "ConfirmTransaction",
      "type": "event"
    },
    {
      "anonymous": false,
      "inputs": [
        {
          "indexed": true,
          "internalType": "uint256",
          "name": "txId",
          "type": "uint256"
        }
      ],
      "name": "ExecuteTransaction",
      "type": "event"
    },
    {
      "anonymous": false,
      "inputs": [
        {
          "indexed": true,
          "internalType": "uint256",
          "name": "txId",
          "type": "uint256"
        },
        {
          "indexed": true,
          "internalType": "address",
          "name": "sender",
          "type": "address"
        },
        {
          "indexed": true,
          "internalType": "address",
          "name": "destination",
          "type": "address"
        },
        {
          "indexed": false,
          "internalType": "uint256",
          "name": "value",
          "type": "uint256"
        },
        {
          "indexed": false,
          "internalType": "bytes",
          "name": "data",
          "type": "bytes"
        }
      ],
      "name": "SubmitTransaction",
      "type": "event"
    },
    {
      "inputs": [
        {
          "internalType": "uint256",
          "name": "",
          "type": "uint256"
        },
        {
          "internalType": "address",
          "name": "",
          "type": "address"
        }
      ],
      "name": "isConfirmed",
      "outputs": [
        {
          "internalType": "bool",
          "name": "",
          "type": "bool"
        }
      ],
      "stateMutability": "view",
      "type": "function"
    },
    {
      "inputs": [
        {
          "internalType": "address",
          "name": "",
          "type": "address"
        }
      ],
      "name": "isOwner",
      "outputs": [
        {
          "internalType": "bool",
          "name": "",
          "type": "bool"
        }
      ],
      "stateMutability": "view",
      "type": "function"
    },
    {
      "inputs": [
        {
          "internalType": "uint256",
          "name": "",
          "type": "uint256"
        }
      ],
      "name": "numConfirmations",
      "outputs": [
        {
          "internalType": "uint256",
          "name": "",
          "type": "uint256"
        }
      ],
      "stateMutability": "view",
      "type": "function"
    },
    {
      "inputs": [],
      "name": "numConfirmationsRequired",
      "outputs": [
        {
          "internalType": "uint256",
          "name": "",
          "type": "uint256"
        }
      ],
      "stateMutability": "view",
      "type": "function"
    },
    {
      "inputs": [
        {
          "internalType": "uint256",
          "name": "",
          "type": "uint256"
        }
      ],
      "name": "owners",
      "outputs": [
        {
          "internalType": "address",
          "name": "",
          "type": "address"
        }
      ],
      "stateMutability": "view",
      "type": "function"
    },
    {
      "inputs": [],
      "name": "required",
      "outputs": [
        {
          "internalType": "uint256",
          "name": "",
          "type": "uint256"
        }
      ],
      "stateMutability": "view",
      "type": "function"
    },
    {
      "inputs": [
        {
          "internalType": "uint256",
          "name": "",
          "type": "uint256"
        }
      ],
      "name": "transactions",
      "outputs": [
        {
          "internalType": "address",
          "name": "destination",
          "type": "address"
        },
        {
          "internalType": "uint256",
          "name": "value",
          "type": "uint256"
        },
        {
          "internalType": "bytes",
          "name": "data",
          "type": "bytes"
        },
        {
          "internalType": "bool",
          "name": "executed",
          "type": "bool"
        }
      ],
      "stateMutability": "view",
      "type": "function"
    },
    {
      "inputs": [],
      "name": "txCount",
      "outputs": [
        {
          "internalType": "uint256",
          "name": "",
          "type": "uint256"
        }
      ],
      "stateMutability": "view",
      "type": "function"
    },
    {
      "inputs": [
        {
          "internalType": "uint256",
          "name": "txId",
          "type": "uint256"
        },
        {
          "internalType": "address",
          "name": "destination",
          "type": "address"
        },
        {
          "internalType": "uint256",
          "name": "value",
          "type": "uint256"
        },
        {
          "internalType": "bytes",
          "name": "data",
          "type": "bytes"
        },
        {
          "internalType": "address",
          "name": "sender",
          "type": "address"
        }
      ],
      "name": "submitTransaction",
      "outputs": [
        {
          "internalType": "uint256",
          "name": "",
          "type": "uint256"
        }
      ],
      "stateMutability": "nonpayable",
      "type": "function"
    },
    {
      "inputs": [
        {
          "internalType": "uint256",
          "name": "txId",
          "type": "uint256"
        }
      ],
      "name": "confirmTransaction",
      "outputs": [],
      "stateMutability": "nonpayable",
      "type": "function"
    },
    {
      "inputs": [
        {
          "internalType": "uint256",
          "name": "txId",
          "type": "uint256"
        }
      ],
      "name": "executeTransaction",
      "outputs": [],
      "stateMutability": "nonpayable",
      "type": "function"
    }
  ],
  "bytecode": "0x60806040523480156200001157600080fd5b50604051620018c2380380620018c2833981810160405281019062000037919062000485565b60008251118015620000495750600081115b801562000057575081518111155b6200006157600080fd5b60005b82518110156200024557600073ffffffffffffffffffffffffffffffffffffffff168382815181106200009c576200009b620004eb565b5b602002602001015173ffffffffffffffffffffffffffffffffffffffff161415801562000130575060026000848381518110620000de57620000dd620004eb565b5b602002602001015173ffffffffffffffffffffffffffffffffffffffff1673ffffffffffffffffffffffffffffffffffffffff16815260200190815260200160002060009054906101000a900460ff16155b6200013a57600080fd5b600160026000858481518110620001565762000155620004eb565b5b602002602001015173ffffffffffffffffffffffffffffffffffffffff1673ffffffffffffffffffffffffffffffffffffffff16815260200190815260200160002060006101000a81548160ff0219169083151502179055506000838281518110620001c757620001c6620004eb565b5b60200260200101519080600181540180825580915050600190039060005260206000200160009091909190916101000a81548173ffffffffffffffffffffffffffffffffffffffff021916908373ffffffffffffffffffffffffffffffffffffffff16021790555080806200023c9062000549565b91505062000064565b508060018190555080600381905550505062000596565b6000604051905090565b600080fd5b600080fd5b600080fd5b6000601f19601f8301169050919050565b7f4e487b7100000000000000000000000000000000000000000000000000000000600052604160045260246000fd5b620002c08262000275565b810181811067ffffffffffffffff82111715620002e257620002e162000286565b5b80604052505050565b6000620002f76200025c565b9050620003058282620002b5565b919050565b600067ffffffffffffffff82111562000328576200032762000286565b5b602082029050602081019050919050565b600080fd5b600073ffffffffffffffffffffffffffffffffffffffff82169050919050565b60006200036b826200033e565b9050919050565b6200037d816200035e565b81146200038957600080fd5b50565b6000815190506200039d8162000372565b92915050565b6000620003ba620003b4846200030a565b620002eb565b90508083825260208201905060208402830185811115620003e057620003df62000339565b5b835b818110156200040d5780620003f888826200038c565b845260208401935050602081019050620003e2565b5050509392505050565b600082601f8301126200042f576200042e62000270565b5b815162000441848260208601620003a3565b91505092915050565b6000819050919050565b6200045f816200044a565b81146200046b57600080fd5b50565b6000815190506200047f8162000454565b92915050565b600080604083850312156200049f576200049e62000266565b5b600083015167ffffffffffffffff811115620004c057620004bf6200026b565b5b620004ce8582860162000417565b9250506020620004e1858286016200046e565b9150509250929050565b7f4e487b7100000000000000000000000000000000000000000000000000000000600052603260045260246000fd5b7f4e487b7100000000000000000000000000000000000000000000000000000000600052601160045260246000fd5b600062000556826200044a565b91507fffffffffffffffffffffffffffffffffffffffffffffffffffffffffffffffff82036200058b576200058a6200051a565b5b600182019050919050565b61131c80620005a66000396000f3fe608060405234801561001057600080fd5b50600436106100a95760003560e01c80639ace38c2116100715780639ace38c21461018c578063c01a8c84146101bf578063c518cd93146101db578063d0549b851461020b578063dc8452cd14610229578063ee22610b14610247576100a9565b8063025e7c27146100ae578063129e403c146100de5780632f54bf6e1461010e5780633c5406871461013e57806380f59a651461015c575b600080fd5b6100c860048036038101906100c39190610a29565b610263565b6040516100d59190610a97565b60405180910390f35b6100f860048036038101906100f39190610c24565b6102a2565b6040516101059190610cca565b60405180910390f35b61012860048036038101906101239190610ce5565b61044b565b6040516101359190610d2d565b60405180910390f35b61014661046b565b6040516101539190610cca565b60405180910390f35b61017660048036038101906101719190610d48565b610471565b6040516101839190610d2d565b60405180910390f35b6101a660048036038101906101a19190610a29565b6104a0565b6040516101b69493929190610e07565b60405180910390f35b6101d960048036038101906101d49190610a29565b610585565b005b6101f560048036038101906101f09190610a29565b61078d565b6040516102029190610cca565b60405180910390f35b6102136107a5565b6040516102209190610cca565b60405180910390f35b6102316107ab565b60405161023e9190610cca565b60405180910390f35b610261600480360381019061025c9190610a29565b6107b1565b005b6000818154811061027357600080fd5b906000526020600020016000915054906101000a900473ffffffffffffffffffffffffffffffffffffffff1681565b6000600260008373ffffffffffffffffffffffffffffffffffffffff1673ffffffffffffffffffffffffffffffffffffffff16815260200190815260200160002060009054906101000a900460ff166102fa57600080fd5b600060405180608001604052808773ffffffffffffffffffffffffffffffffffffffff168152602001868152602001858152602001600015158152509050806006600089815260200190815260200160002060008201518160000160006101000a81548173ffffffffffffffffffffffffffffffffffffffff021916908373ffffffffffffffffffffffffffffffffffffffff1602179055506020820151816001015560408201518160020190816103b2919061105f565b5060608201518160030160006101000a81548160ff0219169083151502179055509050508573ffffffffffffffffffffffffffffffffffffffff163373ffffffffffffffffffffffffffffffffffffffff16887fb7d255440cb386ffe845e52783c32a06625c034e8a0d98615481af247ed802c38888604051610436929190611131565b60405180910390a48691505095945050505050565b60026020528060005260406000206000915054906101000a900460ff1681565b60055481565b60046020528160005260406000206020528060005260406000206000915091509054906101000a900460ff1681565b60066020528060005260406000206000915090508060000160009054906101000a900473ffffffffffffffffffffffffffffffffffffffff16908060010154908060020180546104ef90610e82565b80601f016020809104026020016040519081016040528092919081815260200182805461051b90610e82565b80156105685780601f1061053d57610100808354040283529160200191610568565b820191906000526020600020905b81548152906001019060200180831161054b57829003601f168201915b5050505050908060030160009054906101000a900460ff16905084565b600260003373ffffffffffffffffffffffffffffffffffffffff1673ffffffffffffffffffffffffffffffffffffffff16815260200190815260200160002060009054906101000a900460ff166105db57600080fd5b600073ffffffffffffffffffffffffffffffffffffffff166006600083815260200190815260200160002060000160009054906101000a900473ffffffffffffffffffffffffffffffffffffffff1673ffffffffffffffffffffffffffffffffffffffff160361064a57600080fd5b6004600082815260200190815260200160002060003373ffffffffffffffffffffffffffffffffffffffff1673ffffffffffffffffffffffffffffffffffffffff16815260200190815260200160002060009054906101000a900460ff16156106b257600080fd5b60016004600083815260200190815260200160002060003373ffffffffffffffffffffffffffffffffffffffff1673ffffffffffffffffffffffffffffffffffffffff16815260200190815260200160002060006101000a81548160ff021916908315150217905550600160076000838152602001908152602001600020600082825461073f9190611190565b925050819055503373ffffffffffffffffffffffffffffffffffffffff16817fcb0f87c749501e9cd0f274dc3a2c62b91b6a4f2909001c6c13663072b739d3d660405160405180910390a350565b60076020528060005260406000206000915090505481565b60035481565b60015481565b600073ffffffffffffffffffffffffffffffffffffffff166006600083815260200190815260200160002060000160009054906101000a900473ffffffffffffffffffffffffffffffffffffffff1673ffffffffffffffffffffffffffffffffffffffff160361082057600080fd5b6006600082815260200190815260200160002060030160009054906101000a900460ff161561084e57600080fd5b6003546007600083815260200190815260200160002054101561087057600080fd5b60016006600083815260200190815260200160002060030160006101000a81548160ff02191690831515021790555060006006600083815260200190815260200160002060000160009054906101000a900473ffffffffffffffffffffffffffffffffffffffff1673ffffffffffffffffffffffffffffffffffffffff166006600084815260200190815260200160002060010154600660008581526020019081526020016000206002016040516109289190611252565b60006040518083038185875af1925050503d8060008114610965576040519150601f19603f3d011682016040523d82523d6000602084013e61096a565b606091505b50509050806109ae576040517f08c379a00000000000000000000000000000000000000000000000000000000081526004016109a5906112c6565b60405180910390fd5b817fae30dc3f11bb6b178aafe5e7fc568fb6d87200068a944a8015c0db1b4533dbb860405160405180910390a25050565b6000604051905090565b600080fd5b600080fd5b6000819050919050565b610a06816109f3565b8114610a1157600080fd5b50565b600081359050610a23816109fd565b92915050565b600060208284031215610a3f57610a3e6109e9565b5b6000610a4d84828501610a14565b91505092915050565b600073ffffffffffffffffffffffffffffffffffffffff82169050919050565b6000610a8182610a56565b9050919050565b610a9181610a76565b82525050565b6000602082019050610aac6000830184610a88565b92915050565b610abb81610a76565b8114610ac657600080fd5b50565b600081359050610ad881610ab2565b92915050565b600080fd5b600080fd5b6000601f19601f8301169050919050565b7f4e487b7100000000000000000000000000000000000000000000000000000000600052604160045260246000fd5b610b3182610ae8565b810181811067ffffffffffffffff82111715610b5057610b4f610af9565b5b80604052505050565b6000610b636109df565b9050610b6f8282610b28565b919050565b600067ffffffffffffffff821115610b8f57610b8e610af9565b5b610b9882610ae8565b9050602081019050919050565b82818337600083830152505050565b6000610bc7610bc284610b74565b610b59565b905082815260208101848484011115610be357610be2610ae3565b5b610bee848285610ba5565b509392505050565b600082601f830112610c0b57610c0a610ade565b5b8135610c1b848260208601610bb4565b91505092915050565b600080600080600060a08688031215610c4057610c3f6109e9565b5b6000610c4e88828901610a14565b9550506020610c5f88828901610ac9565b9450506040610c7088828901610a14565b935050606086013567ffffffffffffffff811115610c9157610c906109ee565b5b610c9d88828901610bf6565b9250506080610cae88828901610ac9565b9150509295509295909350565b610cc4816109f3565b82525050565b6000602082019050610cdf6000830184610cbb565b92915050565b600060208284031215610cfb57610cfa6109e9565b5b6000610d0984828501610ac9565b91505092915050565b60008115159050919050565b610d2781610d12565b82525050565b6000602082019050610d426000830184610d1e565b92915050565b60008060408385031215610d5f57610d5e6109e9565b5b6000610d6d85828601610a14565b9250506020610d7e85828601610ac9565b9150509250929050565b600081519050919050565b600082825260208201905092915050565b60005b83811015610dc2578082015181840152602081019050610da7565b60008484015250505050565b6000610dd982610d88565b610de38185610d93565b9350610df3818560208601610da4565b610dfc81610ae8565b840191505092915050565b6000608082019050610e1c6000830187610a88565b610e296020830186610cbb565b8181036040830152610e3b8185610dce565b9050610e4a6060830184610d1e565b95945050505050565b7f4e487b7100000000000000000000000000000000000000000000000000000000600052602260045260246000fd5b60006002820490506001821680610e9a57607f821691505b602082108103610ead57610eac610e53565b5b50919050565b60008190508160005260206000209050919050565b60006020601f8301049050919050565b600082821b905092915050565b600060088302610f157fffffffffffffffffffffffffffffffffffffffffffffffffffffffffffffffff82610ed8565b610f1f8683610ed8565b95508019841693508086168417925050509392505050565b6000819050919050565b6000610f5c610f57610f52846109f3565b610f37565b6109f3565b9050919050565b6000819050919050565b610f7683610f41565b610f8a610f8282610f63565b848454610ee5565b825550505050565b600090565b610f9f610f92565b610faa818484610f6d565b505050565b5b81811015610fce57610fc3600082610f97565b600181019050610fb0565b5050565b601f82111561101357610fe481610eb3565b610fed84610ec8565b81016020851015610ffc578190505b61101061100885610ec8565b830182610faf565b50505b505050565b600082821c905092915050565b600061103660001984600802611018565b1980831691505092915050565b600061104f8383611025565b9150826002028217905092915050565b61106882610d88565b67ffffffffffffffff81111561108157611080610af9565b5b61108b8254610e82565b611096828285610fd2565b600060209050601f8311600181146110c957600084156110b7578287015190505b6110c18582611043565b865550611129565b601f1984166110d786610eb3565b60005b828110156110ff578489015182556001820191506020850194506020810190506110da565b8683101561111c5784890151611118601f891682611025565b8355505b6001600288020188555050505b505050505050565b60006040820190506111466000830185610cbb565b81810360208301526111588184610dce565b90509392505050565b7f4e487b7100000000000000000000000000000000000000000000000000000000600052601160045260246000fd5b600061119b826109f3565b91506111a6836109f3565b92508282019050808211156111be576111bd611161565b5b92915050565b600081905092915050565b600081546111dc81610e82565b6111e681866111c4565b94506001821660008114611201576001811461121657611249565b60ff1983168652811515820286019350611249565b61121f85610eb3565b60005b8381101561124157815481890152600182019150602081019050611222565b838801955050505b50505092915050565b600061125e82846111cf565b915081905092915050565b600082825260208201905092915050565b7f5472616e73616374696f6e206661696c65642e00000000000000000000000000600082015250565b60006112b0601383611269565b91506112bb8261127a565b602082019050919050565b600060208201905081810360008301526112df816112a3565b905091905056fea26469706673582212206d42f66912bd80e1796764a2369d9f3327ac13282976e33575b7861dd2eec09364736f6c63430008100033",
  "immutableReferences": {},
  "source": "// SPDX-License-Identifier: MIT\n\npragma solidity ^0.8.0;\n\ncontract MultiSig {\n    address[] public owners;\n    uint256 public required;\n    mapping(address => bool) public isOwner;\n    uint256 public numConfirmationsRequired;\n    mapping(uint256 => mapping(address => bool)) public isConfirmed;\n    uint256 public txCount;\n\n    struct Transaction {\n        address destination;\n        uint256 value;\n        bytes data;\n        bool executed;\n    }\n\n    mapping(uint256 => Transaction) public transactions;\n    mapping(uint256 => uint256) public numConfirmations;\n\n    event SubmitTransaction(\n        uint256 indexed txId,\n        address indexed sender,\n        address indexed destination,\n        uint256 value,\n        bytes data\n    );\n    event ConfirmTransaction(uint256 indexed txId, address indexed sender);\n    event ExecuteTransaction(uint256 indexed txId);\n\n    constructor(address[] memory _owners, uint256 _required) {\n        require(\n            _owners.length > 0 && _required > 0 && _required <= _owners.length\n        );\n        for (uint256 i = 0; i < _owners.length; i++) {\n            require(_owners[i] != address(0) && !isOwner[_owners[i]]);\n            isOwner[_owners[i]] = true;\n            owners.push(_owners[i]);\n        }\n        required = _required;\n        numConfirmationsRequired = _required;\n    }\n\n    function submitTransaction(\n        uint256 txId,\n        address destination,\n        uint256 value,\n        bytes memory data,\n        address sender\n    ) public returns (uint256) {\n        require(isOwner[sender]);\n        Transaction memory tx = Transaction({\n            destination: destination,\n            value: value,\n            data: data,\n            executed: false\n        });\n        transactions[txId] = tx;\n        emit SubmitTransaction(txId, msg.sender, destination, value, data);\n        return txId;\n    }\n\n    function confirmTransaction(uint256 txId) public {\n        require(isOwner[msg.sender]);\n        require(transactions[txId].destination != address(0));\n        require(!isConfirmed[txId][msg.sender]);\n        isConfirmed[txId][msg.sender] = true;\n        numConfirmations[txId] += 1;\n        emit ConfirmTransaction(txId, msg.sender);\n    }\n\n    function executeTransaction(uint256 txId) public {\n        require(transactions[txId].destination != address(0));\n        require(!transactions[txId].executed);\n        require(numConfirmations[txId] >= numConfirmationsRequired);\n        transactions[txId].executed = true;\n        (bool success, ) = transactions[txId].destination.call{\n            value: transactions[txId].value\n        }(transactions[txId].data);\n        require(success, \"Transaction failed.\");\n        emit ExecuteTransaction(txId);\n    }\n}\n",
  "sourcePath": "/home/senyou/nft-collection/contracts/MultiSig.sol",
  "compiler": {
    "name": "solc",
    "version": "0.8.16+commit.07a7930e.Emscripten.clang"
  },
  "schemaVersion": "3.4.9",
  "updatedAt": "2023-05-05T22:35:57.099Z",
  "devdoc": {
    "kind": "dev",
    "methods": {},
    "version": 1
  },
  "userdoc": {
    "kind": "user",
    "methods": {},
    "version": 1
  }
}